{
  "address": "0x03e44083aced2b76b9af99a0aa3ecd4cB1E5bD85",
  "abi": [
    {
      "inputs": [
        {
          "internalType": "bool",
          "name": "_restricted",
          "type": "bool"
        },
        {
          "internalType": "contract IERC721MetaTxEnumerable",
          "name": "_koruDaoNft",
          "type": "address"
        },
        {
          "internalType": "uint256",
          "name": "_postInterval",
          "type": "uint256"
        },
        {
          "internalType": "contract ILensHub",
          "name": "_lensHub",
          "type": "address"
        },
        {
          "internalType": "address",
          "name": "_gelatoRelay",
          "type": "address"
        }
      ],
      "stateMutability": "nonpayable",
      "type": "constructor"
    },
    {
      "inputs": [
        {
          "internalType": "address",
          "name": "_user",
          "type": "address"
        }
      ],
      "name": "canPost",
      "outputs": [
        {
          "internalType": "bool",
          "name": "",
          "type": "bool"
        }
      ],
      "stateMutability": "view",
      "type": "function"
    },
    {
      "inputs": [],
      "name": "gelatoRelay",
      "outputs": [
        {
          "internalType": "address",
          "name": "",
          "type": "address"
        }
      ],
      "stateMutability": "view",
      "type": "function"
    },
    {
      "inputs": [
        {
          "internalType": "address",
          "name": "_wallet",
          "type": "address"
        }
      ],
      "name": "hasLensProfile",
      "outputs": [
        {
          "internalType": "bool",
          "name": "",
          "type": "bool"
        }
      ],
      "stateMutability": "view",
      "type": "function"
    },
    {
      "inputs": [
        {
          "internalType": "address",
          "name": "forwarder",
          "type": "address"
        }
      ],
      "name": "isTrustedForwarder",
      "outputs": [
        {
          "internalType": "bool",
          "name": "",
          "type": "bool"
        }
      ],
      "stateMutability": "view",
      "type": "function"
    },
    {
      "inputs": [],
      "name": "koruDaoNft",
      "outputs": [
        {
          "internalType": "contract IERC721MetaTxEnumerable",
          "name": "",
          "type": "address"
        }
      ],
      "stateMutability": "view",
      "type": "function"
    },
    {
      "inputs": [
        {
          "internalType": "address",
          "name": "",
          "type": "address"
        }
      ],
      "name": "lastPost",
      "outputs": [
        {
          "internalType": "uint256",
          "name": "",
          "type": "uint256"
        }
      ],
      "stateMutability": "view",
      "type": "function"
    },
    {
      "inputs": [],
      "name": "lensHub",
      "outputs": [
        {
          "internalType": "contract ILensHub",
          "name": "",
          "type": "address"
        }
      ],
      "stateMutability": "view",
      "type": "function"
    },
    {
      "inputs": [
        {
          "internalType": "address",
          "name": "",
          "type": "address"
        },
        {
          "internalType": "address",
          "name": "",
          "type": "address"
        },
        {
          "internalType": "uint256",
          "name": "",
          "type": "uint256"
        },
        {
          "internalType": "bytes",
          "name": "",
          "type": "bytes"
        }
      ],
      "name": "onERC721Received",
      "outputs": [
        {
          "internalType": "bytes4",
          "name": "",
          "type": "bytes4"
        }
      ],
      "stateMutability": "nonpayable",
      "type": "function"
    },
    {
      "inputs": [
        {
          "components": [
            {
              "internalType": "uint256",
              "name": "profileId",
              "type": "uint256"
            },
            {
              "internalType": "string",
              "name": "contentURI",
              "type": "string"
            },
            {
              "internalType": "address",
              "name": "collectModule",
              "type": "address"
            },
            {
              "internalType": "bytes",
              "name": "collectModuleInitData",
              "type": "bytes"
            },
            {
              "internalType": "address",
              "name": "referenceModule",
              "type": "address"
            },
            {
              "internalType": "bytes",
              "name": "referenceModuleInitData",
              "type": "bytes"
            }
          ],
          "internalType": "struct DataTypes.PostData",
          "name": "_vars",
          "type": "tuple"
        }
      ],
      "name": "post",
      "outputs": [],
      "stateMutability": "nonpayable",
      "type": "function"
    },
    {
      "inputs": [],
      "name": "postInterval",
      "outputs": [
        {
          "internalType": "uint256",
          "name": "",
          "type": "uint256"
        }
      ],
      "stateMutability": "view",
      "type": "function"
    },
    {
      "inputs": [],
      "name": "restricted",
      "outputs": [
        {
          "internalType": "bool",
          "name": "",
          "type": "bool"
        }
      ],
      "stateMutability": "view",
      "type": "function"
    },
    {
      "inputs": [
        {
          "internalType": "uint256",
          "name": "_profileId",
          "type": "uint256"
        }
      ],
      "name": "setDefaultProfile",
      "outputs": [],
      "stateMutability": "nonpayable",
      "type": "function"
    }
  ],
  "transactionHash": "0x774cd25fa2f66915ccc9f3a46c7e4fca03310cdf4925f2dc1b2039017aa18903",
  "args": [
    true,
    "0x3Fc16819b0271Ad887BE36885b58Cff37117Ec79",
    86400,
    "0xDb46d1Dc155634FbC732f92E853b10B288AD5a1d",
    "0xaBcC9b596420A9E9172FD5938620E265a0f9Df92"
  ],
  "numDeployments": 3,
  "solcInputHash": "e5c0cf51fd1b8f3cab8d5b17e30e1180",
  "bytecode": "0x6101406040523480156200001257600080fd5b50604051620017893803806200178983398181016040528101906200003891906200029d565b808583838215156080811515815250508173ffffffffffffffffffffffffffffffffffffffff1660a08173ffffffffffffffffffffffffffffffffffffffff16815250508073ffffffffffffffffffffffffffffffffffffffff1660c08173ffffffffffffffffffffffffffffffffffffffff16815250505050508073ffffffffffffffffffffffffffffffffffffffff1660e08173ffffffffffffffffffffffffffffffffffffffff1681525050508373ffffffffffffffffffffffffffffffffffffffff166101008173ffffffffffffffffffffffffffffffffffffffff1681525050826101208181525050505050505062000325565b600080fd5b60008115159050919050565b6200014d8162000136565b81146200015957600080fd5b50565b6000815190506200016d8162000142565b92915050565b600073ffffffffffffffffffffffffffffffffffffffff82169050919050565b6000620001a08262000173565b9050919050565b6000620001b48262000193565b9050919050565b620001c681620001a7565b8114620001d257600080fd5b50565b600081519050620001e681620001bb565b92915050565b6000819050919050565b6200020181620001ec565b81146200020d57600080fd5b50565b6000815190506200022181620001f6565b92915050565b6000620002348262000193565b9050919050565b620002468162000227565b81146200025257600080fd5b50565b60008151905062000266816200023b565b92915050565b620002778162000193565b81146200028357600080fd5b50565b60008151905062000297816200026c565b92915050565b600080600080600060a08688031215620002bc57620002bb62000131565b5b6000620002cc888289016200015c565b9550506020620002df88828901620001d5565b9450506040620002f28882890162000210565b9350506060620003058882890162000255565b9250506080620003188882890162000286565b9150509295509295909350565b60805160a05160c05160e05161010051610120516113e3620003a6600039600081816102b1015261032f0152600081816103b201526105b3015260006102d701526000818161028d01526104a00152600081816103fd015281816106d5015281816107bb015261086c0152600081816103d6015261053601526113e36000f3fe608060405234801561001057600080fd5b50600436106100b45760003560e01c80637072c6b1116100715780637072c6b1146101a3578063908e3f85146101c1578063963ff141146101f1578063b02cfdc31461020d578063ca20344f1461022b578063f1b2f8bc1461025b576100b4565b8063150b7a02146100b95780633552221a146100e95780635034227b14610107578063572b6c051461012557806362d3576b146101555780636729635014610185575b600080fd5b6100d360048036038101906100ce9190610b49565b610277565b6040516100e09190610c07565b60405180910390f35b6100f161028b565b6040516100fe9190610c31565b60405180910390f35b61010f6102af565b60405161011c9190610c5b565b60405180910390f35b61013f600480360381019061013a9190610c76565b6102d3565b60405161014c9190610cbe565b60405180910390f35b61016f600480360381019061016a9190610c76565b61032b565b60405161017c9190610cbe565b60405180910390f35b61018d6103b0565b60405161019a9190610d38565b60405180910390f35b6101ab6103d4565b6040516101b89190610cbe565b60405180910390f35b6101db60048036038101906101d69190610c76565b6103f8565b6040516101e89190610cbe565b60405180910390f35b61020b60048036038101906102069190610d77565b61049d565b005b6102156107b9565b6040516102229190610de1565b60405180910390f35b61024560048036038101906102409190610c76565b6107dd565b6040516102529190610c5b565b60405180910390f35b61027560048036038101906102709190610dfc565b6107f5565b005b600063150b7a0260e01b9050949350505050565b7f000000000000000000000000000000000000000000000000000000000000000081565b7f000000000000000000000000000000000000000000000000000000000000000081565b60007f000000000000000000000000000000000000000000000000000000000000000073ffffffffffffffffffffffffffffffffffffffff168273ffffffffffffffffffffffffffffffffffffffff16149050919050565b60007f00000000000000000000000000000000000000000000000000000000000000006000808473ffffffffffffffffffffffffffffffffffffffff1673ffffffffffffffffffffffffffffffffffffffff16815260200190815260200160002054426103989190610e58565b106103a657600190506103ab565b600090505b919050565b7f000000000000000000000000000000000000000000000000000000000000000081565b7f000000000000000000000000000000000000000000000000000000000000000081565b6000807f000000000000000000000000000000000000000000000000000000000000000073ffffffffffffffffffffffffffffffffffffffff166370a08231846040518263ffffffff1660e01b81526004016104549190610c31565b602060405180830381865afa158015610471573d6000803e3d6000fd5b505050506040513d601f19601f820116820180604052508101906104959190610ea1565b119050919050565b337f000000000000000000000000000000000000000000000000000000000000000073ffffffffffffffffffffffffffffffffffffffff168173ffffffffffffffffffffffffffffffffffffffff161461052c576040517f08c379a000000000000000000000000000000000000000000000000000000000815260040161052390610f2b565b60405180910390fd5b6105346108f8565b7f0000000000000000000000000000000000000000000000000000000000000000156105a357610563816103f8565b6105a2576040517f08c379a000000000000000000000000000000000000000000000000000000000815260040161059990610fbd565b60405180910390fd5b5b60006105ad6108f8565b905060007f000000000000000000000000000000000000000000000000000000000000000073ffffffffffffffffffffffffffffffffffffffff166370a08231836040518263ffffffff1660e01b815260040161060a9190610c31565b602060405180830381865afa158015610627573d6000803e3d6000fd5b505050506040513d601f19601f8201168201806040525081019061064b9190610ea1565b1161068b576040517f08c379a000000000000000000000000000000000000000000000000000000000815260040161068290611029565b60405180910390fd5b6106948161032b565b6106d3576040517f08c379a00000000000000000000000000000000000000000000000000000000081526004016106ca90611095565b60405180910390fd5b7f000000000000000000000000000000000000000000000000000000000000000073ffffffffffffffffffffffffffffffffffffffff1663963ff141856040518263ffffffff1660e01b815260040161072c919061131f565b6020604051808303816000875af115801561074b573d6000803e3d6000fd5b505050506040513d601f19601f8201168201806040525081019061076f9190610ea1565b50426000808373ffffffffffffffffffffffffffffffffffffffff1673ffffffffffffffffffffffffffffffffffffffff1681526020019081526020016000208190555050505050565b7f000000000000000000000000000000000000000000000000000000000000000081565b60006020528060005260406000206000915090505481565b6107fd61092a565b73ffffffffffffffffffffffffffffffffffffffff163373ffffffffffffffffffffffffffffffffffffffff161461086a576040517f08c379a00000000000000000000000000000000000000000000000000000000081526004016108619061138d565b60405180910390fd5b7f000000000000000000000000000000000000000000000000000000000000000073ffffffffffffffffffffffffffffffffffffffff1663f1b2f8bc826040518263ffffffff1660e01b81526004016108c39190610c5b565b600060405180830381600087803b1580156108dd57600080fd5b505af11580156108f1573d6000803e3d6000fd5b5050505050565b6000610903336102d3565b1561091757601436033560601c9050610926565b61091f610953565b9050610927565b5b90565b60007fb53127684a568b3173ae13b9f8a6016e243e63b6e8ee1178d6a717850b5d610354905090565b600033905090565b6000604051905090565b600080fd5b600080fd5b600073ffffffffffffffffffffffffffffffffffffffff82169050919050565b600061099a8261096f565b9050919050565b6109aa8161098f565b81146109b557600080fd5b50565b6000813590506109c7816109a1565b92915050565b6000819050919050565b6109e0816109cd565b81146109eb57600080fd5b50565b6000813590506109fd816109d7565b92915050565b600080fd5b600080fd5b6000601f19601f8301169050919050565b7f4e487b7100000000000000000000000000000000000000000000000000000000600052604160045260246000fd5b610a5682610a0d565b810181811067ffffffffffffffff82111715610a7557610a74610a1e565b5b80604052505050565b6000610a8861095b565b9050610a948282610a4d565b919050565b600067ffffffffffffffff821115610ab457610ab3610a1e565b5b610abd82610a0d565b9050602081019050919050565b82818337600083830152505050565b6000610aec610ae784610a99565b610a7e565b905082815260208101848484011115610b0857610b07610a08565b5b610b13848285610aca565b509392505050565b600082601f830112610b3057610b2f610a03565b5b8135610b40848260208601610ad9565b91505092915050565b60008060008060808587031215610b6357610b62610965565b5b6000610b71878288016109b8565b9450506020610b82878288016109b8565b9350506040610b93878288016109ee565b925050606085013567ffffffffffffffff811115610bb457610bb361096a565b5b610bc087828801610b1b565b91505092959194509250565b60007fffffffff0000000000000000000000000000000000000000000000000000000082169050919050565b610c0181610bcc565b82525050565b6000602082019050610c1c6000830184610bf8565b92915050565b610c2b8161098f565b82525050565b6000602082019050610c466000830184610c22565b92915050565b610c55816109cd565b82525050565b6000602082019050610c706000830184610c4c565b92915050565b600060208284031215610c8c57610c8b610965565b5b6000610c9a848285016109b8565b91505092915050565b60008115159050919050565b610cb881610ca3565b82525050565b6000602082019050610cd36000830184610caf565b92915050565b6000819050919050565b6000610cfe610cf9610cf48461096f565b610cd9565b61096f565b9050919050565b6000610d1082610ce3565b9050919050565b6000610d2282610d05565b9050919050565b610d3281610d17565b82525050565b6000602082019050610d4d6000830184610d29565b92915050565b600080fd5b600060c08284031215610d6e57610d6d610d53565b5b81905092915050565b600060208284031215610d8d57610d8c610965565b5b600082013567ffffffffffffffff811115610dab57610daa61096a565b5b610db784828501610d58565b91505092915050565b6000610dcb82610d05565b9050919050565b610ddb81610dc0565b82525050565b6000602082019050610df66000830184610dd2565b92915050565b600060208284031215610e1257610e11610965565b5b6000610e20848285016109ee565b91505092915050565b7f4e487b7100000000000000000000000000000000000000000000000000000000600052601160045260246000fd5b6000610e63826109cd565b9150610e6e836109cd565b925082821015610e8157610e80610e29565b5b828203905092915050565b600081519050610e9b816109d7565b92915050565b600060208284031215610eb757610eb6610965565b5b6000610ec584828501610e8c565b91505092915050565b600082825260208201905092915050565b7f5265737472696374696f6e733a204f6e6c792047656c61746f2072656c617900600082015250565b6000610f15601f83610ece565b9150610f2082610edf565b602082019050919050565b60006020820190508181036000830152610f4481610f08565b9050919050565b7f5265737472696374696f6e733a204f6e6c79206c656e732070726f66696c652060008201527f686f6c6465720000000000000000000000000000000000000000000000000000602082015250565b6000610fa7602683610ece565b9150610fb282610f4b565b604082019050919050565b60006020820190508181036000830152610fd681610f9a565b9050919050565b7f4b6f727544616f3a204e6f204b6f727544616f4e667400000000000000000000600082015250565b6000611013601683610ece565b915061101e82610fdd565b602082019050919050565b6000602082019050818103600083015261104281611006565b9050919050565b7f4b6f727544616f3a20506f737420746f6f206672657175656e74000000000000600082015250565b600061107f601a83610ece565b915061108a82611049565b602082019050919050565b600060208201905081810360008301526110ae81611072565b9050919050565b60006110c460208401846109ee565b905092915050565b6110d5816109cd565b82525050565b600080fd5b600080fd5b600080fd5b60008083356001602003843603038112611107576111066110e5565b5b83810192508235915060208301925067ffffffffffffffff82111561112f5761112e6110db565b5b600182023603831315611145576111446110e0565b5b509250929050565b600082825260208201905092915050565b600061116a838561114d565b9350611177838584610aca565b61118083610a0d565b840190509392505050565b600061119a60208401846109b8565b905092915050565b6111ab8161098f565b82525050565b600080833560016020038436030381126111ce576111cd6110e5565b5b83810192508235915060208301925067ffffffffffffffff8211156111f6576111f56110db565b5b60018202360383131561120c5761120b6110e0565b5b509250929050565b600082825260208201905092915050565b60006112318385611214565b935061123e838584610aca565b61124783610a0d565b840190509392505050565b600060c0830161126560008401846110b5565b61127260008601826110cc565b5061128060208401846110ea565b858303602087015261129383828461115e565b925050506112a4604084018461118b565b6112b160408601826111a2565b506112bf60608401846111b1565b85830360608701526112d2838284611225565b925050506112e3608084018461118b565b6112f060808601826111a2565b506112fe60a08401846111b1565b85830360a0870152611311838284611225565b925050508091505092915050565b600060208201905081810360008301526113398184611252565b905092915050565b7f4e4f545f415554484f52495a4544000000000000000000000000000000000000600082015250565b6000611377600e83610ece565b915061138282611341565b602082019050919050565b600060208201905081810360008301526113a68161136a565b905091905056fea264697066735822122085487721ffe775acf94d72e6543918dce3d446e89fa8de00e83a4f71e017ba0964736f6c634300080e0033",
  "devdoc": {
    "kind": "dev",
    "methods": {
      "onERC721Received(address,address,uint256,bytes)": {
        "details": "See {IERC721Receiver-onERC721Received}. Always returns `IERC721Receiver.onERC721Received.selector`."
      }
    },
    "version": 1
  },
  "userdoc": {
    "kind": "user",
    "methods": {},
    "version": 1
  },
  "storageLayout": {
    "storage": [
      {
        "astId": 1188,
        "contract": "contracts/KoruDao.sol:KoruDao",
        "label": "lastPost",
        "offset": 0,
        "slot": "0",
        "type": "t_mapping(t_address,t_uint256)"
      }
    ],
    "types": {
      "t_address": {
        "encoding": "inplace",
        "label": "address",
        "numberOfBytes": "20"
      },
      "t_mapping(t_address,t_uint256)": {
        "encoding": "mapping",
        "key": "t_address",
        "label": "mapping(address => uint256)",
        "numberOfBytes": "32",
        "value": "t_uint256"
      },
      "t_uint256": {
        "encoding": "inplace",
        "label": "uint256",
        "numberOfBytes": "32"
      }
    }
  }
}