{
  "address": "0xBbC9070DE9aD41f0142c6344bE2ca5aA2E5E8CF8",
  "abi": [
    {
      "inputs": [
        {
          "internalType": "uint256",
          "name": "_maxFee",
          "type": "uint256"
        },
        {
          "internalType": "address",
          "name": "_gelatoRelay",
          "type": "address"
        },
        {
          "internalType": "address",
          "name": "_koruDao",
          "type": "address"
        },
        {
          "internalType": "address",
          "name": "_koruDaoNFT",
          "type": "address"
        }
      ],
      "stateMutability": "nonpayable",
      "type": "constructor"
    },
    {
      "anonymous": false,
      "inputs": [
        {
          "indexed": false,
          "internalType": "address",
          "name": "user",
          "type": "address"
        },
        {
          "indexed": false,
          "internalType": "uint256",
          "name": "fee",
          "type": "uint256"
        },
        {
          "indexed": false,
          "internalType": "uint256",
          "name": "time",
          "type": "uint256"
        }
      ],
      "name": "LogMint",
      "type": "event"
    },
    {
      "anonymous": false,
      "inputs": [
        {
          "indexed": false,
          "internalType": "address",
          "name": "user",
          "type": "address"
        },
        {
          "indexed": false,
          "internalType": "uint256",
          "name": "fee",
          "type": "uint256"
        },
        {
          "indexed": false,
          "internalType": "uint256",
          "name": "time",
          "type": "uint256"
        }
      ],
      "name": "LogPost",
      "type": "event"
    },
    {
      "inputs": [],
      "name": "gelatoRelay",
      "outputs": [
        {
          "internalType": "address",
          "name": "",
          "type": "address"
        }
      ],
      "stateMutability": "view",
      "type": "function"
    },
    {
      "inputs": [],
      "name": "koruDao",
      "outputs": [
        {
          "internalType": "address",
          "name": "",
          "type": "address"
        }
      ],
      "stateMutability": "view",
      "type": "function"
    },
    {
      "inputs": [],
      "name": "koruDaoNFT",
      "outputs": [
        {
          "internalType": "address",
          "name": "",
          "type": "address"
        }
      ],
      "stateMutability": "view",
      "type": "function"
    },
    {
      "inputs": [],
      "name": "maxFee",
      "outputs": [
        {
          "internalType": "uint256",
          "name": "",
          "type": "uint256"
        }
      ],
      "stateMutability": "view",
      "type": "function"
    },
    {
      "inputs": [
        {
          "internalType": "address",
          "name": "_user",
          "type": "address"
        },
        {
          "internalType": "uint256",
          "name": "_fee",
          "type": "uint256"
        },
        {
          "components": [
            {
              "internalType": "uint8",
              "name": "v",
              "type": "uint8"
            },
            {
              "internalType": "bytes32",
              "name": "r",
              "type": "bytes32"
            },
            {
              "internalType": "bytes32",
              "name": "s",
              "type": "bytes32"
            },
            {
              "internalType": "uint256",
              "name": "deadline",
              "type": "uint256"
            }
          ],
          "internalType": "struct Signatures.EIP712Signature",
          "name": "_sig",
          "type": "tuple"
        }
      ],
      "name": "mint",
      "outputs": [],
      "stateMutability": "nonpayable",
      "type": "function"
    },
    {
      "inputs": [
        {
          "internalType": "address",
          "name": "",
          "type": "address"
        }
      ],
      "name": "nonces",
      "outputs": [
        {
          "internalType": "uint256",
          "name": "",
          "type": "uint256"
        }
      ],
      "stateMutability": "view",
      "type": "function"
    },
    {
      "inputs": [
        {
          "internalType": "address",
          "name": "_user",
          "type": "address"
        },
        {
          "internalType": "uint256",
          "name": "_fee",
          "type": "uint256"
        },
        {
          "components": [
            {
              "internalType": "uint256",
              "name": "profileId",
              "type": "uint256"
            },
            {
              "internalType": "string",
              "name": "contentURI",
              "type": "string"
            },
            {
              "internalType": "address",
              "name": "collectModule",
              "type": "address"
            },
            {
              "internalType": "bytes",
              "name": "collectModuleInitData",
              "type": "bytes"
            },
            {
              "internalType": "address",
              "name": "referenceModule",
              "type": "address"
            },
            {
              "internalType": "bytes",
              "name": "referenceModuleInitData",
              "type": "bytes"
            }
          ],
          "internalType": "struct DataTypes.PostData",
          "name": "_postVars",
          "type": "tuple"
        },
        {
          "components": [
            {
              "internalType": "uint8",
              "name": "v",
              "type": "uint8"
            },
            {
              "internalType": "bytes32",
              "name": "r",
              "type": "bytes32"
            },
            {
              "internalType": "bytes32",
              "name": "s",
              "type": "bytes32"
            },
            {
              "internalType": "uint256",
              "name": "deadline",
              "type": "uint256"
            }
          ],
          "internalType": "struct Signatures.EIP712Signature",
          "name": "_sig",
          "type": "tuple"
        }
      ],
      "name": "post",
      "outputs": [],
      "stateMutability": "nonpayable",
      "type": "function"
    },
    {
      "stateMutability": "payable",
      "type": "receive"
    }
  ],
  "transactionHash": "0x1d85f80977632a8697ee876baf22631e94657693874e87990e4cd6cdab67b675",
  "args": [
    "100000000000000000",
    "0xE2Fc8F14B6cEb1AD8165623E02953eDB100288bE",
    "0x7A1EC66a1314a00535D0C327931566A29C90deC8",
    "0x3Fc16819b0271Ad887BE36885b58Cff37117Ec79"
  ],
  "numDeployments": 1,
  "solcInputHash": "7616f433acb52d8b7ae9e1c544059af9",
  "bytecode": "0x6101006040523480156200001257600080fd5b50604051620024253803806200242583398181016040528101906200003891906200018b565b83608081815250508273ffffffffffffffffffffffffffffffffffffffff1660a08173ffffffffffffffffffffffffffffffffffffffff16815250508173ffffffffffffffffffffffffffffffffffffffff1660c08173ffffffffffffffffffffffffffffffffffffffff16815250508073ffffffffffffffffffffffffffffffffffffffff1660e08173ffffffffffffffffffffffffffffffffffffffff168152505050505050620001fd565b600080fd5b6000819050919050565b6200010081620000eb565b81146200010c57600080fd5b50565b6000815190506200012081620000f5565b92915050565b600073ffffffffffffffffffffffffffffffffffffffff82169050919050565b6000620001538262000126565b9050919050565b620001658162000146565b81146200017157600080fd5b50565b60008151905062000185816200015a565b92915050565b60008060008060808587031215620001a857620001a7620000e6565b5b6000620001b8878288016200010f565b9450506020620001cb8782880162000174565b9350506040620001de8782880162000174565b9250506060620001f18782880162000174565b91505092959194509250565b60805160a05160c05160e0516121bd620002686000396000818161020501526109ec015260008181610229015261084e0152600081816101e1015281816102650152818161049e01526109a80152600081816101bd01528181610949015261098101526121bd6000f3fe6080604052600436106100745760003560e01c806371bcfad31161004e57806371bcfad3146101015780637ecebe001461012c578063cd90629414610169578063f6e7fdb0146101925761007b565b806301f59d16146100805780633552221a146100ab5780636ec67515146100d65761007b565b3661007b57005b600080fd5b34801561008c57600080fd5b506100956101bb565b6040516100a2919061110b565b60405180910390f35b3480156100b757600080fd5b506100c06101df565b6040516100cd9190611167565b60405180910390f35b3480156100e257600080fd5b506100eb610203565b6040516100f89190611167565b60405180910390f35b34801561010d57600080fd5b50610116610227565b6040516101239190611167565b60405180910390f35b34801561013857600080fd5b50610153600480360381019061014e91906111b8565b61024b565b604051610160919061110b565b60405180910390f35b34801561017557600080fd5b50610190600480360381019061018b9190611254565b610263565b005b34801561019e57600080fd5b506101b960048036038101906101b491906112d7565b61049c565b005b7f000000000000000000000000000000000000000000000000000000000000000081565b7f000000000000000000000000000000000000000000000000000000000000000081565b7f000000000000000000000000000000000000000000000000000000000000000081565b7f000000000000000000000000000000000000000000000000000000000000000081565b60006020528060005260406000206000915090505481565b7f000000000000000000000000000000000000000000000000000000000000000073ffffffffffffffffffffffffffffffffffffffff163373ffffffffffffffffffffffffffffffffffffffff16146102f1576040517f08c379a00000000000000000000000000000000000000000000000000000000081526004016102e8906113ad565b60405180910390fd5b61044361043c7ff2fc48b15936646b5aec3fbdc3fbf12898c016a39552ec10198cc4a9b1c161b1866000808973ffffffffffffffffffffffffffffffffffffffff1673ffffffffffffffffffffffffffffffffffffffff1681526020019081526020016000206000815480929190600101919050558560600135876000013588806020019061038091906113dc565b60405161038e92919061147e565b60405180910390208960400160208101906103a991906111b8565b8a80606001906103b99190611497565b6040516103c792919061147e565b60405180910390208b60800160208101906103e291906111b8565b8c8060a001906103f29190611497565b60405161040092919061147e565b60405180910390206040516020016104219a99989796959493929190611513565b60405160208183030381529060405280519060200120610630565b858361066e565b61044d84836107cf565b600061045884610945565b90507f9cef9634d9f7f1a9c3f19c863fb27503539cbec6625745652504ce5821793b4585824260405161048d939291906115af565b60405180910390a15050505050565b7f000000000000000000000000000000000000000000000000000000000000000073ffffffffffffffffffffffffffffffffffffffff163373ffffffffffffffffffffffffffffffffffffffff161461052a576040517f08c379a0000000000000000000000000000000000000000000000000000000008152600401610521906113ad565b60405180910390fd5b6105d96105d27f2f5a36b75e9fd57d501964a4082a42f478ec6f0d627d104b2569c58449a33e9b856000808873ffffffffffffffffffffffffffffffffffffffff1673ffffffffffffffffffffffffffffffffffffffff16815260200190815260200160002060008154809291906001019190505585606001356040516020016105b794939291906115e6565b60405160208183030381529060405280519060200120610630565b848361066e565b6105e2836109e7565b60006105ed83610945565b90507fa82a7ea15c804d00dba1b969024b510969fde70fac8e0d5da860cf1f7376d317848242604051610622939291906115af565b60405180910390a150505050565b60008061063b610ae8565b8360405160200161064d9291906116a3565b60405160208183030381529060405280519060200120905080915050919050565b42816060013510156106b5576040517f08c379a00000000000000000000000000000000000000000000000000000000081526004016106ac90611726565b60405180910390fd5b60006001848360000160208101906106cd919061177f565b84602001358560400135604051600081526020016040526040516106f494939291906117bb565b6020604051602081039080840390855afa158015610716573d6000803e3d6000fd5b5050506020604051035190508273ffffffffffffffffffffffffffffffffffffffff168173ffffffffffffffffffffffffffffffffffffffff1614801561078a5750600073ffffffffffffffffffffffffffffffffffffffff168173ffffffffffffffffffffffffffffffffffffffff1614155b6107c9576040517f08c379a00000000000000000000000000000000000000000000000000000000081526004016107c09061184c565b60405180910390fd5b50505050565b600063963ff14160e01b826040516024016107ea9190611ae7565b604051602081830303815290604052907bffffffffffffffffffffffffffffffffffffffffffffffffffffffff19166020820180517bffffffffffffffffffffffffffffffffffffffffffffffffffffffff838183161783525050505090506000807f000000000000000000000000000000000000000000000000000000000000000073ffffffffffffffffffffffffffffffffffffffff168386604051602001610896929190611bc0565b6040516020818303038152906040526040516108b29190611be8565b6000604051808303816000865af19150503d80600081146108ef576040519150601f19603f3d011682016040523d82523d6000602084013e6108f4565b606091505b50915091508161093e5761093d816040518060400160405280601581526020017f4b6f727544616f52656c61795472616e7369743a200000000000000000000000815250610b7e565b5b5050505050565b60007f00000000000000000000000000000000000000000000000000000000000000008211806109755750600082145b61097f57816109a1565b7f00000000000000000000000000000000000000000000000000000000000000005b90506109e27f000000000000000000000000000000000000000000000000000000000000000073eeeeeeeeeeeeeeeeeeeeeeeeeeeeeeeeeeeeeeee83610ce5565b919050565b6000807f000000000000000000000000000000000000000000000000000000000000000073ffffffffffffffffffffffffffffffffffffffff16631249c58b60e01b84604051602001610a3b929190611c4c565b604051602081830303815290604052604051610a579190611be8565b6000604051808303816000865af19150503d8060008114610a94576040519150601f19603f3d011682016040523d82523d6000602084013e610a99565b606091505b509150915081610ae357610ae2816040518060400160405280601581526020017f4b6f727544616f52656c61795472616e7369743a200000000000000000000000815250610b7e565b5b505050565b60007f8b73c3c69bb8fe3d512ecc4cf759cc79239f7b179b0ffacaa9a75d522b39400f7f09061f12dc2c12b4cb2e55ec938be327d7f817dc1843562122b82366acc9abce7fc89efdaa54c0f20c7adf612882df0950f5a951637e0307cdcb4c672f298b8bc64630604051602001610b63959493929190611c78565b60405160208183030381529060405280519060200120905090565b600460208351610b8e9190611cfa565b03610c89576000826020015190506308c379a060e01b817bffffffffffffffffffffffffffffffffffffffffffffffffffffffff191603610c2d576044830192508183604051602001610be2929190611d67565b6040516020818303038152906040526040517f08c379a0000000000000000000000000000000000000000000000000000000008152600401610c249190611dc4565b60405180910390fd5b81604051602001610c3e9190611e32565b6040516020818303038152906040526040517f08c379a0000000000000000000000000000000000000000000000000000000008152600401610c809190611dc4565b60405180910390fd5b80604051602001610c9a9190611ea0565b6040516020818303038152906040526040517f08c379a0000000000000000000000000000000000000000000000000000000008152600401610cdc9190611dc4565b60405180910390fd5b73eeeeeeeeeeeeeeeeeeeeeeeeeeeeeeeeeeeeeeee73ffffffffffffffffffffffffffffffffffffffff168273ffffffffffffffffffffffffffffffffffffffff1603610dde5760008373ffffffffffffffffffffffffffffffffffffffff1682604051610d5290611ee8565b60006040518083038185875af1925050503d8060008114610d8f576040519150601f19603f3d011682016040523d82523d6000602084013e610d94565b606091505b5050905080610dd8576040517f08c379a0000000000000000000000000000000000000000000000000000000008152600401610dcf90611f49565b60405180910390fd5b50610dea565b610de9828483610def565b5b505050565b610e708363a9059cbb60e01b8484604051602401610e0e929190611f69565b604051602081830303815290604052907bffffffffffffffffffffffffffffffffffffffffffffffffffffffff19166020820180517bffffffffffffffffffffffffffffffffffffffffffffffffffffffff8381831617835250505050610e75565b505050565b6000610ed7826040518060400160405280602081526020017f5361666545524332303a206c6f772d6c6576656c2063616c6c206661696c65648152508573ffffffffffffffffffffffffffffffffffffffff16610f3c9092919063ffffffff16565b9050600081511115610f375780806020019051810190610ef79190611fca565b610f36576040517f08c379a0000000000000000000000000000000000000000000000000000000008152600401610f2d90612069565b60405180910390fd5b5b505050565b6060610f4b8484600085610f54565b90509392505050565b606082471015610f99576040517f08c379a0000000000000000000000000000000000000000000000000000000008152600401610f90906120fb565b60405180910390fd5b610fa285611068565b610fe1576040517f08c379a0000000000000000000000000000000000000000000000000000000008152600401610fd890612167565b60405180910390fd5b6000808673ffffffffffffffffffffffffffffffffffffffff16858760405161100a9190611be8565b60006040518083038185875af1925050503d8060008114611047576040519150601f19603f3d011682016040523d82523d6000602084013e61104c565b606091505b509150915061105c82828661108b565b92505050949350505050565b6000808273ffffffffffffffffffffffffffffffffffffffff163b119050919050565b6060831561109b578290506110eb565b6000835111156110ae5782518084602001fd5b816040517f08c379a00000000000000000000000000000000000000000000000000000000081526004016110e29190611dc4565b60405180910390fd5b9392505050565b6000819050919050565b611105816110f2565b82525050565b600060208201905061112060008301846110fc565b92915050565b600073ffffffffffffffffffffffffffffffffffffffff82169050919050565b600061115182611126565b9050919050565b61116181611146565b82525050565b600060208201905061117c6000830184611158565b92915050565b600080fd5b600080fd5b61119581611146565b81146111a057600080fd5b50565b6000813590506111b28161118c565b92915050565b6000602082840312156111ce576111cd611182565b5b60006111dc848285016111a3565b91505092915050565b6111ee816110f2565b81146111f957600080fd5b50565b60008135905061120b816111e5565b92915050565b600080fd5b600060c0828403121561122c5761122b611211565b5b81905092915050565b60006080828403121561124b5761124a611211565b5b81905092915050565b60008060008060e0858703121561126e5761126d611182565b5b600061127c878288016111a3565b945050602061128d878288016111fc565b935050604085013567ffffffffffffffff8111156112ae576112ad611187565b5b6112ba87828801611216565b92505060606112cb87828801611235565b91505092959194509250565b600080600060c084860312156112f0576112ef611182565b5b60006112fe868287016111a3565b935050602061130f868287016111fc565b925050604061132086828701611235565b9150509250925092565b600082825260208201905092915050565b7f4b6f727544616f52656c61795472616e7369743a204f6e6c792067656c61746f60008201527f2072656c61790000000000000000000000000000000000000000000000000000602082015250565b600061139760268361132a565b91506113a28261133b565b604082019050919050565b600060208201905081810360008301526113c68161138a565b9050919050565b600080fd5b600080fd5b600080fd5b600080833560016020038436030381126113f9576113f86113cd565b5b80840192508235915067ffffffffffffffff82111561141b5761141a6113d2565b5b602083019250600182023603831315611437576114366113d7565b5b509250929050565b600081905092915050565b82818337600083830152505050565b6000611465838561143f565b935061147283858461144a565b82840190509392505050565b600061148b828486611459565b91508190509392505050565b600080833560016020038436030381126114b4576114b36113cd565b5b80840192508235915067ffffffffffffffff8211156114d6576114d56113d2565b5b6020830192506001820236038313156114f2576114f16113d7565b5b509250929050565b6000819050919050565b61150d816114fa565b82525050565b600061014082019050611529600083018d611504565b611536602083018c611158565b611543604083018b6110fc565b611550606083018a6110fc565b61155d60808301896110fc565b61156a60a0830188611504565b61157760c0830187611158565b61158460e0830186611504565b611592610100830185611158565b6115a0610120830184611504565b9b9a5050505050505050505050565b60006060820190506115c46000830186611158565b6115d160208301856110fc565b6115de60408301846110fc565b949350505050565b60006080820190506115fb6000830187611504565b6116086020830186611158565b61161560408301856110fc565b61162260608301846110fc565b95945050505050565b600081905092915050565b7f1901000000000000000000000000000000000000000000000000000000000000600082015250565b600061166c60028361162b565b915061167782611636565b600282019050919050565b6000819050919050565b61169d611698826114fa565b611682565b82525050565b60006116ae8261165f565b91506116ba828561168c565b6020820191506116ca828461168c565b6020820191508190509392505050565b7f5369676e6174757265733a207369672065787069726564000000000000000000600082015250565b600061171060178361132a565b915061171b826116da565b602082019050919050565b6000602082019050818103600083015261173f81611703565b9050919050565b600060ff82169050919050565b61175c81611746565b811461176757600080fd5b50565b60008135905061177981611753565b92915050565b60006020828403121561179557611794611182565b5b60006117a38482850161176a565b91505092915050565b6117b581611746565b82525050565b60006080820190506117d06000830187611504565b6117dd60208301866117ac565b6117ea6040830185611504565b6117f76060830184611504565b95945050505050565b7f5369676e6174757265733a20696e76616c696420736967000000000000000000600082015250565b600061183660178361132a565b915061184182611800565b602082019050919050565b6000602082019050818103600083015261186581611829565b9050919050565b600061187b60208401846111fc565b905092915050565b61188c816110f2565b82525050565b600080fd5b600080fd5b600080fd5b600080833560016020038436030381126118be576118bd61189c565b5b83810192508235915060208301925067ffffffffffffffff8211156118e6576118e5611892565b5b6001820236038313156118fc576118fb611897565b5b509250929050565b600082825260208201905092915050565b6000601f19601f8301169050919050565b60006119328385611904565b935061193f83858461144a565b61194883611915565b840190509392505050565b600061196260208401846111a3565b905092915050565b61197381611146565b82525050565b600080833560016020038436030381126119965761199561189c565b5b83810192508235915060208301925067ffffffffffffffff8211156119be576119bd611892565b5b6001820236038313156119d4576119d3611897565b5b509250929050565b600082825260208201905092915050565b60006119f983856119dc565b9350611a0683858461144a565b611a0f83611915565b840190509392505050565b600060c08301611a2d600084018461186c565b611a3a6000860182611883565b50611a4860208401846118a1565b8583036020870152611a5b838284611926565b92505050611a6c6040840184611953565b611a79604086018261196a565b50611a876060840184611979565b8583036060870152611a9a8382846119ed565b92505050611aab6080840184611953565b611ab8608086018261196a565b50611ac660a0840184611979565b85830360a0870152611ad98382846119ed565b925050508091505092915050565b60006020820190508181036000830152611b018184611a1a565b905092915050565b600081519050919050565b60005b83811015611b32578082015181840152602081019050611b17565b83811115611b41576000848401525b50505050565b6000611b5282611b09565b611b5c818561143f565b9350611b6c818560208601611b14565b80840191505092915050565b60008160601b9050919050565b6000611b9082611b78565b9050919050565b6000611ba282611b85565b9050919050565b611bba611bb582611146565b611b97565b82525050565b6000611bcc8285611b47565b9150611bd88284611ba9565b6014820191508190509392505050565b6000611bf48284611b47565b915081905092915050565b60007fffffffff0000000000000000000000000000000000000000000000000000000082169050919050565b6000819050919050565b611c46611c4182611bff565b611c2b565b82525050565b6000611c588285611c35565b600482019150611c688284611ba9565b6014820191508190509392505050565b600060a082019050611c8d6000830188611504565b611c9a6020830187611504565b611ca76040830186611504565b611cb460608301856110fc565b611cc16080830184611158565b9695505050505050565b7f4e487b7100000000000000000000000000000000000000000000000000000000600052601260045260246000fd5b6000611d05826110f2565b9150611d10836110f2565b925082611d2057611d1f611ccb565b5b828206905092915050565b600081519050919050565b6000611d4182611d2b565b611d4b818561162b565b9350611d5b818560208601611b14565b80840191505092915050565b6000611d738285611d36565b9150611d7f8284611d36565b91508190509392505050565b6000611d9682611d2b565b611da0818561132a565b9350611db0818560208601611b14565b611db981611915565b840191505092915050565b60006020820190508181036000830152611dde8184611d8b565b905092915050565b7f4e6f4572726f7253656c6563746f720000000000000000000000000000000000600082015250565b6000611e1c600f8361162b565b9150611e2782611de6565b600f82019050919050565b6000611e3e8284611d36565b9150611e4982611e0f565b915081905092915050565b7f556e657870656374656452657475726e64617461000000000000000000000000600082015250565b6000611e8a60148361162b565b9150611e9582611e54565b601482019050919050565b6000611eac8284611d36565b9150611eb782611e7d565b915081905092915050565b50565b6000611ed260008361143f565b9150611edd82611ec2565b600082019050919050565b6000611ef382611ec5565b9150819050919050565b7f5f7472616e736665723a20455448207472616e73666572206661696c65640000600082015250565b6000611f33601e8361132a565b9150611f3e82611efd565b602082019050919050565b60006020820190508181036000830152611f6281611f26565b9050919050565b6000604082019050611f7e6000830185611158565b611f8b60208301846110fc565b9392505050565b60008115159050919050565b611fa781611f92565b8114611fb257600080fd5b50565b600081519050611fc481611f9e565b92915050565b600060208284031215611fe057611fdf611182565b5b6000611fee84828501611fb5565b91505092915050565b7f5361666545524332303a204552433230206f7065726174696f6e20646964206e60008201527f6f74207375636365656400000000000000000000000000000000000000000000602082015250565b6000612053602a8361132a565b915061205e82611ff7565b604082019050919050565b6000602082019050818103600083015261208281612046565b9050919050565b7f416464726573733a20696e73756666696369656e742062616c616e636520666f60008201527f722063616c6c0000000000000000000000000000000000000000000000000000602082015250565b60006120e560268361132a565b91506120f082612089565b604082019050919050565b60006020820190508181036000830152612114816120d8565b9050919050565b7f416464726573733a2063616c6c20746f206e6f6e2d636f6e7472616374000000600082015250565b6000612151601d8361132a565b915061215c8261211b565b602082019050919050565b6000602082019050818103600083015261218081612144565b905091905056fea26469706673582212205afc86212a9382a2c0f0080798f8e0c76989787e91f2204f3b829ae1ac70779364736f6c634300080e0033",
  "devdoc": {
    "kind": "dev",
    "methods": {},
    "version": 1
  },
  "userdoc": {
    "kind": "user",
    "methods": {},
    "version": 1
  },
  "storageLayout": {
    "storage": [
      {
        "astId": 1661,
        "contract": "contracts/KoruDaoRelayTransit.sol:KoruDaoRelayTransit",
        "label": "nonces",
        "offset": 0,
        "slot": "0",
        "type": "t_mapping(t_address,t_uint256)"
      }
    ],
    "types": {
      "t_address": {
        "encoding": "inplace",
        "label": "address",
        "numberOfBytes": "20"
      },
      "t_mapping(t_address,t_uint256)": {
        "encoding": "mapping",
        "key": "t_address",
        "label": "mapping(address => uint256)",
        "numberOfBytes": "32",
        "value": "t_uint256"
      },
      "t_uint256": {
        "encoding": "inplace",
        "label": "uint256",
        "numberOfBytes": "32"
      }
    }
  }
}