{
  "address": "0xb0FbFDC52f372a4D0d4e65612224E98826EBF834",
  "abi": [
    {
      "inputs": [
        {
          "internalType": "uint256",
          "name": "_postInterval",
          "type": "uint256"
        },
        {
          "internalType": "address",
          "name": "_gelatoRelay",
          "type": "address"
        },
        {
          "internalType": "contract IERC721MetaTxEnumerable",
          "name": "_koruDaoNft",
          "type": "address"
        },
        {
          "internalType": "contract ILensHub",
          "name": "_lensHub",
          "type": "address"
        }
      ],
      "stateMutability": "nonpayable",
      "type": "constructor"
    },
    {
      "anonymous": false,
      "inputs": [
        {
          "indexed": true,
          "internalType": "address",
          "name": "user",
          "type": "address"
        },
        {
          "indexed": true,
          "internalType": "uint256",
          "name": "token",
          "type": "uint256"
        },
        {
          "indexed": true,
          "internalType": "uint256",
          "name": "pubId",
          "type": "uint256"
        },
        {
          "indexed": false,
          "internalType": "uint256",
          "name": "time",
          "type": "uint256"
        }
      ],
      "name": "LogPost",
      "type": "event"
    },
    {
      "inputs": [
        {
          "internalType": "uint256",
          "name": "_token",
          "type": "uint256"
        }
      ],
      "name": "canPost",
      "outputs": [
        {
          "internalType": "bool",
          "name": "",
          "type": "bool"
        }
      ],
      "stateMutability": "view",
      "type": "function"
    },
    {
      "inputs": [
        {
          "internalType": "address",
          "name": "forwarder",
          "type": "address"
        }
      ],
      "name": "isTrustedForwarder",
      "outputs": [
        {
          "internalType": "bool",
          "name": "",
          "type": "bool"
        }
      ],
      "stateMutability": "view",
      "type": "function"
    },
    {
      "inputs": [],
      "name": "koruDaoNft",
      "outputs": [
        {
          "internalType": "contract IERC721MetaTxEnumerable",
          "name": "",
          "type": "address"
        }
      ],
      "stateMutability": "view",
      "type": "function"
    },
    {
      "inputs": [
        {
          "internalType": "uint256",
          "name": "",
          "type": "uint256"
        }
      ],
      "name": "lastPost",
      "outputs": [
        {
          "internalType": "uint256",
          "name": "",
          "type": "uint256"
        }
      ],
      "stateMutability": "view",
      "type": "function"
    },
    {
      "inputs": [],
      "name": "lensHub",
      "outputs": [
        {
          "internalType": "contract ILensHub",
          "name": "",
          "type": "address"
        }
      ],
      "stateMutability": "view",
      "type": "function"
    },
    {
      "inputs": [
        {
          "internalType": "address",
          "name": "",
          "type": "address"
        },
        {
          "internalType": "address",
          "name": "",
          "type": "address"
        },
        {
          "internalType": "uint256",
          "name": "",
          "type": "uint256"
        },
        {
          "internalType": "bytes",
          "name": "",
          "type": "bytes"
        }
      ],
      "name": "onERC721Received",
      "outputs": [
        {
          "internalType": "bytes4",
          "name": "",
          "type": "bytes4"
        }
      ],
      "stateMutability": "nonpayable",
      "type": "function"
    },
    {
      "inputs": [
        {
          "components": [
            {
              "internalType": "uint256",
              "name": "profileId",
              "type": "uint256"
            },
            {
              "internalType": "string",
              "name": "contentURI",
              "type": "string"
            },
            {
              "internalType": "address",
              "name": "collectModule",
              "type": "address"
            },
            {
              "internalType": "bytes",
              "name": "collectModuleInitData",
              "type": "bytes"
            },
            {
              "internalType": "address",
              "name": "referenceModule",
              "type": "address"
            },
            {
              "internalType": "bytes",
              "name": "referenceModuleInitData",
              "type": "bytes"
            }
          ],
          "internalType": "struct DataTypes.PostData",
          "name": "_postVars",
          "type": "tuple"
        }
      ],
      "name": "post",
      "outputs": [],
      "stateMutability": "nonpayable",
      "type": "function"
    },
    {
      "inputs": [],
      "name": "postInterval",
      "outputs": [
        {
          "internalType": "uint256",
          "name": "",
          "type": "uint256"
        }
      ],
      "stateMutability": "view",
      "type": "function"
    },
    {
      "inputs": [
        {
          "internalType": "uint256",
          "name": "_profileId",
          "type": "uint256"
        }
      ],
      "name": "setDefaultProfile",
      "outputs": [],
      "stateMutability": "nonpayable",
      "type": "function"
    }
  ],
  "transactionHash": "0x3d39d923f3b9f4753c599ae031ac6350ad88e8f205fb2c94faca78104ce07c04",
  "args": [
    86400,
    "0xcEDdF46A0B2AFBFEeD1E27ebD99CB804E03706B3",
    "0x3Fc16819b0271Ad887BE36885b58Cff37117Ec79",
    "0xDb46d1Dc155634FbC732f92E853b10B288AD5a1d"
  ],
  "numDeployments": 6,
  "solcInputHash": "86180d6184d359953566e0a595ede7a8",
  "bytecode": "0x6101006040523480156200001257600080fd5b50604051620014fe380380620014fe833981810160405281019062000038919062000217565b828073ffffffffffffffffffffffffffffffffffffffff1660808173ffffffffffffffffffffffffffffffffffffffff1681525050508360a081815250508173ffffffffffffffffffffffffffffffffffffffff1660c08173ffffffffffffffffffffffffffffffffffffffff16815250508073ffffffffffffffffffffffffffffffffffffffff1660e08173ffffffffffffffffffffffffffffffffffffffff16815250505050505062000289565b600080fd5b6000819050919050565b6200010281620000ed565b81146200010e57600080fd5b50565b6000815190506200012281620000f7565b92915050565b600073ffffffffffffffffffffffffffffffffffffffff82169050919050565b6000620001558262000128565b9050919050565b620001678162000148565b81146200017357600080fd5b50565b60008151905062000187816200015c565b92915050565b60006200019a8262000148565b9050919050565b620001ac816200018d565b8114620001b857600080fd5b50565b600081519050620001cc81620001a1565b92915050565b6000620001df8262000148565b9050919050565b620001f181620001d2565b8114620001fd57600080fd5b50565b6000815190506200021181620001e6565b92915050565b60008060008060808587031215620002345762000233620000e8565b5b6000620002448782880162000111565b9450506020620002578782880162000176565b93505060406200026a87828801620001bb565b92505060606200027d8782880162000200565b91505092959194509250565b60805160a05160c05160e051611218620002e66000396000818161052b0152818161063601526106cf0152600081816102d40152818161036601526104420152600081816101ed01526102580152600061027e01526112186000f3fe608060405234801561001057600080fd5b50600436106100925760003560e01c80636729635011610066578063672963501461014557806375dc9bd514610163578063963ff14114610193578063b02cfdc3146101af578063f1b2f8bc146101cd57610092565b80627e468514610097578063150b7a02146100c75780635034227b146100f7578063572b6c0514610115575b600080fd5b6100b160048036038101906100ac9190610808565b6101e9565b6040516100be9190610850565b60405180910390f35b6100e160048036038101906100dc9190610a0f565b610242565b6040516100ee9190610acd565b60405180910390f35b6100ff610256565b60405161010c9190610af7565b60405180910390f35b61012f600480360381019061012a9190610b12565b61027a565b60405161013c9190610850565b60405180910390f35b61014d6102d2565b60405161015a9190610b9e565b60405180910390f35b61017d60048036038101906101789190610808565b6102f6565b60405161018a9190610af7565b60405180910390f35b6101ad60048036038101906101a89190610bdd565b61030e565b005b6101b7610634565b6040516101c49190610c47565b60405180910390f35b6101e760048036038101906101e29190610808565b610658565b005b60007f0000000000000000000000000000000000000000000000000000000000000000600080848152602001908152602001600020544261022a9190610c91565b10610238576001905061023d565b600090505b919050565b600063150b7a0260e01b9050949350505050565b7f000000000000000000000000000000000000000000000000000000000000000081565b60007f000000000000000000000000000000000000000000000000000000000000000073ffffffffffffffffffffffffffffffffffffffff168273ffffffffffffffffffffffffffffffffffffffff16149050919050565b7f000000000000000000000000000000000000000000000000000000000000000081565b60006020528060005260406000206000915090505481565b6103173361027a565b610356576040517f08c379a000000000000000000000000000000000000000000000000000000000815260040161034d90610d22565b60405180910390fd5b600061036061075b565b905060007f000000000000000000000000000000000000000000000000000000000000000073ffffffffffffffffffffffffffffffffffffffff166370a08231836040518263ffffffff1660e01b81526004016103bd9190610d51565b602060405180830381865afa1580156103da573d6000803e3d6000fd5b505050506040513d601f19601f820116820180604052508101906103fe9190610d81565b1161043e576040517f08c379a000000000000000000000000000000000000000000000000000000000815260040161043590610dfa565b60405180910390fd5b60007f000000000000000000000000000000000000000000000000000000000000000073ffffffffffffffffffffffffffffffffffffffff16632f745c598360006040518363ffffffff1660e01b815260040161049c929190610e55565b602060405180830381865afa1580156104b9573d6000803e3d6000fd5b505050506040513d601f19601f820116820180604052508101906104dd9190610d81565b90506104e8816101e9565b610527576040517f08c379a000000000000000000000000000000000000000000000000000000000815260040161051e90610eca565b60405180910390fd5b60007f000000000000000000000000000000000000000000000000000000000000000073ffffffffffffffffffffffffffffffffffffffff1663963ff141856040518263ffffffff1660e01b81526004016105829190611154565b6020604051808303816000875af11580156105a1573d6000803e3d6000fd5b505050506040513d601f19601f820116820180604052508101906105c59190610d81565b9050426000808481526020019081526020016000208190555080828473ffffffffffffffffffffffffffffffffffffffff167fb3de7ef76dc0d0512b40164c07da30a2bd66a76a55c8748f0c2fe7bcc6cc39e1426040516106269190610af7565b60405180910390a450505050565b7f000000000000000000000000000000000000000000000000000000000000000081565b61066061078d565b73ffffffffffffffffffffffffffffffffffffffff163373ffffffffffffffffffffffffffffffffffffffff16146106cd576040517f08c379a00000000000000000000000000000000000000000000000000000000081526004016106c4906111c2565b60405180910390fd5b7f000000000000000000000000000000000000000000000000000000000000000073ffffffffffffffffffffffffffffffffffffffff1663f1b2f8bc826040518263ffffffff1660e01b81526004016107269190610af7565b600060405180830381600087803b15801561074057600080fd5b505af1158015610754573d6000803e3d6000fd5b5050505050565b60006107663361027a565b1561077a57601436033560601c9050610789565b6107826107b6565b905061078a565b5b90565b60007fb53127684a568b3173ae13b9f8a6016e243e63b6e8ee1178d6a717850b5d610354905090565b600033905090565b6000604051905090565b600080fd5b600080fd5b6000819050919050565b6107e5816107d2565b81146107f057600080fd5b50565b600081359050610802816107dc565b92915050565b60006020828403121561081e5761081d6107c8565b5b600061082c848285016107f3565b91505092915050565b60008115159050919050565b61084a81610835565b82525050565b60006020820190506108656000830184610841565b92915050565b600073ffffffffffffffffffffffffffffffffffffffff82169050919050565b60006108968261086b565b9050919050565b6108a68161088b565b81146108b157600080fd5b50565b6000813590506108c38161089d565b92915050565b600080fd5b600080fd5b6000601f19601f8301169050919050565b7f4e487b7100000000000000000000000000000000000000000000000000000000600052604160045260246000fd5b61091c826108d3565b810181811067ffffffffffffffff8211171561093b5761093a6108e4565b5b80604052505050565b600061094e6107be565b905061095a8282610913565b919050565b600067ffffffffffffffff82111561097a576109796108e4565b5b610983826108d3565b9050602081019050919050565b82818337600083830152505050565b60006109b26109ad8461095f565b610944565b9050828152602081018484840111156109ce576109cd6108ce565b5b6109d9848285610990565b509392505050565b600082601f8301126109f6576109f56108c9565b5b8135610a0684826020860161099f565b91505092915050565b60008060008060808587031215610a2957610a286107c8565b5b6000610a37878288016108b4565b9450506020610a48878288016108b4565b9350506040610a59878288016107f3565b925050606085013567ffffffffffffffff811115610a7a57610a796107cd565b5b610a86878288016109e1565b91505092959194509250565b60007fffffffff0000000000000000000000000000000000000000000000000000000082169050919050565b610ac781610a92565b82525050565b6000602082019050610ae26000830184610abe565b92915050565b610af1816107d2565b82525050565b6000602082019050610b0c6000830184610ae8565b92915050565b600060208284031215610b2857610b276107c8565b5b6000610b36848285016108b4565b91505092915050565b6000819050919050565b6000610b64610b5f610b5a8461086b565b610b3f565b61086b565b9050919050565b6000610b7682610b49565b9050919050565b6000610b8882610b6b565b9050919050565b610b9881610b7d565b82525050565b6000602082019050610bb36000830184610b8f565b92915050565b600080fd5b600060c08284031215610bd457610bd3610bb9565b5b81905092915050565b600060208284031215610bf357610bf26107c8565b5b600082013567ffffffffffffffff811115610c1157610c106107cd565b5b610c1d84828501610bbe565b91505092915050565b6000610c3182610b6b565b9050919050565b610c4181610c26565b82525050565b6000602082019050610c5c6000830184610c38565b92915050565b7f4e487b7100000000000000000000000000000000000000000000000000000000600052601160045260246000fd5b6000610c9c826107d2565b9150610ca7836107d2565b925082821015610cba57610cb9610c62565b5b828203905092915050565b600082825260208201905092915050565b7f4b6f727544616f3a204f6e6c792047656c61746f52656c617900000000000000600082015250565b6000610d0c601983610cc5565b9150610d1782610cd6565b602082019050919050565b60006020820190508181036000830152610d3b81610cff565b9050919050565b610d4b8161088b565b82525050565b6000602082019050610d666000830184610d42565b92915050565b600081519050610d7b816107dc565b92915050565b600060208284031215610d9757610d966107c8565b5b6000610da584828501610d6c565b91505092915050565b7f4b6f727544616f3a204e6f204b6f727544616f4e667400000000000000000000600082015250565b6000610de4601683610cc5565b9150610def82610dae565b602082019050919050565b60006020820190508181036000830152610e1381610dd7565b9050919050565b6000819050919050565b6000610e3f610e3a610e3584610e1a565b610b3f565b6107d2565b9050919050565b610e4f81610e24565b82525050565b6000604082019050610e6a6000830185610d42565b610e776020830184610e46565b9392505050565b7f4b6f727544616f3a20506f737420746f6f206672657175656e74000000000000600082015250565b6000610eb4601a83610cc5565b9150610ebf82610e7e565b602082019050919050565b60006020820190508181036000830152610ee381610ea7565b9050919050565b6000610ef960208401846107f3565b905092915050565b610f0a816107d2565b82525050565b600080fd5b600080fd5b600080fd5b60008083356001602003843603038112610f3c57610f3b610f1a565b5b83810192508235915060208301925067ffffffffffffffff821115610f6457610f63610f10565b5b600182023603831315610f7a57610f79610f15565b5b509250929050565b600082825260208201905092915050565b6000610f9f8385610f82565b9350610fac838584610990565b610fb5836108d3565b840190509392505050565b6000610fcf60208401846108b4565b905092915050565b610fe08161088b565b82525050565b6000808335600160200384360303811261100357611002610f1a565b5b83810192508235915060208301925067ffffffffffffffff82111561102b5761102a610f10565b5b60018202360383131561104157611040610f15565b5b509250929050565b600082825260208201905092915050565b60006110668385611049565b9350611073838584610990565b61107c836108d3565b840190509392505050565b600060c0830161109a6000840184610eea565b6110a76000860182610f01565b506110b56020840184610f1f565b85830360208701526110c8838284610f93565b925050506110d96040840184610fc0565b6110e66040860182610fd7565b506110f46060840184610fe6565b858303606087015261110783828461105a565b925050506111186080840184610fc0565b6111256080860182610fd7565b5061113360a0840184610fe6565b85830360a087015261114683828461105a565b925050508091505092915050565b6000602082019050818103600083015261116e8184611087565b905092915050565b7f4e4f545f415554484f52495a4544000000000000000000000000000000000000600082015250565b60006111ac600e83610cc5565b91506111b782611176565b602082019050919050565b600060208201905081810360008301526111db8161119f565b905091905056fea264697066735822122031070fcf6062c49b668dcab42f3ad50714cd8fe12537d3098dcfab4cf39cf7e164736f6c634300080e0033",
  "devdoc": {
    "kind": "dev",
    "methods": {
      "onERC721Received(address,address,uint256,bytes)": {
        "details": "See {IERC721Receiver-onERC721Received}. Always returns `IERC721Receiver.onERC721Received.selector`."
      }
    },
    "version": 1
  },
  "userdoc": {
    "kind": "user",
    "methods": {},
    "version": 1
  },
  "storageLayout": {
    "storage": [
      {
        "astId": 1187,
        "contract": "contracts/KoruDao.sol:KoruDao",
        "label": "lastPost",
        "offset": 0,
        "slot": "0",
        "type": "t_mapping(t_uint256,t_uint256)"
      }
    ],
    "types": {
      "t_mapping(t_uint256,t_uint256)": {
        "encoding": "mapping",
        "key": "t_uint256",
        "label": "mapping(uint256 => uint256)",
        "numberOfBytes": "32",
        "value": "t_uint256"
      },
      "t_uint256": {
        "encoding": "inplace",
        "label": "uint256",
        "numberOfBytes": "32"
      }
    }
  }
}