{
  "address": "0xAdFB8A4C79770F9F32E41FA6A84FF7701580AD45",
  "abi": [
    {
      "inputs": [
        {
          "internalType": "bool",
          "name": "_restricted",
          "type": "bool"
        },
        {
          "internalType": "uint256",
          "name": "_maxSupply",
          "type": "uint256"
        },
        {
          "internalType": "uint256",
          "name": "_koruDaoProfileId",
          "type": "uint256"
        },
        {
          "internalType": "uint256",
          "name": "_minPubCount",
          "type": "uint256"
        },
        {
          "internalType": "uint256",
          "name": "_minFollowers",
          "type": "uint256"
        },
        {
          "internalType": "address",
          "name": "_gelatoRelay",
          "type": "address"
        },
        {
          "internalType": "contract ILensHub",
          "name": "_lensHub",
          "type": "address"
        }
      ],
      "stateMutability": "nonpayable",
      "type": "constructor"
    },
    {
      "anonymous": false,
      "inputs": [
        {
          "indexed": true,
          "internalType": "address",
          "name": "owner",
          "type": "address"
        },
        {
          "indexed": true,
          "internalType": "address",
          "name": "approved",
          "type": "address"
        },
        {
          "indexed": true,
          "internalType": "uint256",
          "name": "tokenId",
          "type": "uint256"
        }
      ],
      "name": "Approval",
      "type": "event"
    },
    {
      "anonymous": false,
      "inputs": [
        {
          "indexed": true,
          "internalType": "address",
          "name": "owner",
          "type": "address"
        },
        {
          "indexed": true,
          "internalType": "address",
          "name": "operator",
          "type": "address"
        },
        {
          "indexed": false,
          "internalType": "bool",
          "name": "approved",
          "type": "bool"
        }
      ],
      "name": "ApprovalForAll",
      "type": "event"
    },
    {
      "anonymous": false,
      "inputs": [
        {
          "indexed": true,
          "internalType": "address",
          "name": "from",
          "type": "address"
        },
        {
          "indexed": true,
          "internalType": "address",
          "name": "to",
          "type": "address"
        },
        {
          "indexed": true,
          "internalType": "uint256",
          "name": "tokenId",
          "type": "uint256"
        }
      ],
      "name": "Transfer",
      "type": "event"
    },
    {
      "inputs": [
        {
          "internalType": "address",
          "name": "to",
          "type": "address"
        },
        {
          "internalType": "uint256",
          "name": "tokenId",
          "type": "uint256"
        }
      ],
      "name": "approve",
      "outputs": [],
      "stateMutability": "nonpayable",
      "type": "function"
    },
    {
      "inputs": [
        {
          "internalType": "address",
          "name": "owner",
          "type": "address"
        }
      ],
      "name": "balanceOf",
      "outputs": [
        {
          "internalType": "uint256",
          "name": "",
          "type": "uint256"
        }
      ],
      "stateMutability": "view",
      "type": "function"
    },
    {
      "inputs": [],
      "name": "baseUri",
      "outputs": [
        {
          "internalType": "string",
          "name": "",
          "type": "string"
        }
      ],
      "stateMutability": "view",
      "type": "function"
    },
    {
      "inputs": [
        {
          "internalType": "uint256",
          "name": "tokenId",
          "type": "uint256"
        }
      ],
      "name": "getApproved",
      "outputs": [
        {
          "internalType": "address",
          "name": "",
          "type": "address"
        }
      ],
      "stateMutability": "view",
      "type": "function"
    },
    {
      "inputs": [
        {
          "internalType": "address",
          "name": "owner",
          "type": "address"
        },
        {
          "internalType": "address",
          "name": "operator",
          "type": "address"
        }
      ],
      "name": "isApprovedForAll",
      "outputs": [
        {
          "internalType": "bool",
          "name": "",
          "type": "bool"
        }
      ],
      "stateMutability": "view",
      "type": "function"
    },
    {
      "inputs": [
        {
          "internalType": "address",
          "name": "_wallet",
          "type": "address"
        }
      ],
      "name": "isEligible",
      "outputs": [
        {
          "internalType": "bool",
          "name": "",
          "type": "bool"
        },
        {
          "internalType": "bool[]",
          "name": "",
          "type": "bool[]"
        }
      ],
      "stateMutability": "view",
      "type": "function"
    },
    {
      "inputs": [
        {
          "internalType": "address",
          "name": "forwarder",
          "type": "address"
        }
      ],
      "name": "isTrustedForwarder",
      "outputs": [
        {
          "internalType": "bool",
          "name": "",
          "type": "bool"
        }
      ],
      "stateMutability": "view",
      "type": "function"
    },
    {
      "inputs": [],
      "name": "koruDaoProfileId",
      "outputs": [
        {
          "internalType": "uint256",
          "name": "",
          "type": "uint256"
        }
      ],
      "stateMutability": "view",
      "type": "function"
    },
    {
      "inputs": [],
      "name": "lensHub",
      "outputs": [
        {
          "internalType": "contract ILensHub",
          "name": "",
          "type": "address"
        }
      ],
      "stateMutability": "view",
      "type": "function"
    },
    {
      "inputs": [],
      "name": "maxSupply",
      "outputs": [
        {
          "internalType": "uint256",
          "name": "",
          "type": "uint256"
        }
      ],
      "stateMutability": "view",
      "type": "function"
    },
    {
      "inputs": [],
      "name": "minFollowers",
      "outputs": [
        {
          "internalType": "uint256",
          "name": "",
          "type": "uint256"
        }
      ],
      "stateMutability": "view",
      "type": "function"
    },
    {
      "inputs": [],
      "name": "minPubCount",
      "outputs": [
        {
          "internalType": "uint256",
          "name": "",
          "type": "uint256"
        }
      ],
      "stateMutability": "view",
      "type": "function"
    },
    {
      "inputs": [],
      "name": "mint",
      "outputs": [],
      "stateMutability": "nonpayable",
      "type": "function"
    },
    {
      "inputs": [],
      "name": "name",
      "outputs": [
        {
          "internalType": "string",
          "name": "",
          "type": "string"
        }
      ],
      "stateMutability": "pure",
      "type": "function"
    },
    {
      "inputs": [
        {
          "internalType": "address[]",
          "name": "_users",
          "type": "address[]"
        }
      ],
      "name": "ownerMint",
      "outputs": [],
      "stateMutability": "nonpayable",
      "type": "function"
    },
    {
      "inputs": [
        {
          "internalType": "uint256",
          "name": "tokenId",
          "type": "uint256"
        }
      ],
      "name": "ownerOf",
      "outputs": [
        {
          "internalType": "address",
          "name": "",
          "type": "address"
        }
      ],
      "stateMutability": "view",
      "type": "function"
    },
    {
      "inputs": [],
      "name": "paused",
      "outputs": [
        {
          "internalType": "bool",
          "name": "",
          "type": "bool"
        }
      ],
      "stateMutability": "view",
      "type": "function"
    },
    {
      "inputs": [],
      "name": "restricted",
      "outputs": [
        {
          "internalType": "bool",
          "name": "",
          "type": "bool"
        }
      ],
      "stateMutability": "view",
      "type": "function"
    },
    {
      "inputs": [
        {
          "internalType": "address",
          "name": "from",
          "type": "address"
        },
        {
          "internalType": "address",
          "name": "to",
          "type": "address"
        },
        {
          "internalType": "uint256",
          "name": "tokenId",
          "type": "uint256"
        }
      ],
      "name": "safeTransferFrom",
      "outputs": [],
      "stateMutability": "nonpayable",
      "type": "function"
    },
    {
      "inputs": [
        {
          "internalType": "address",
          "name": "from",
          "type": "address"
        },
        {
          "internalType": "address",
          "name": "to",
          "type": "address"
        },
        {
          "internalType": "uint256",
          "name": "tokenId",
          "type": "uint256"
        },
        {
          "internalType": "bytes",
          "name": "_data",
          "type": "bytes"
        }
      ],
      "name": "safeTransferFrom",
      "outputs": [],
      "stateMutability": "nonpayable",
      "type": "function"
    },
    {
      "inputs": [
        {
          "internalType": "address",
          "name": "operator",
          "type": "address"
        },
        {
          "internalType": "bool",
          "name": "approved",
          "type": "bool"
        }
      ],
      "name": "setApprovalForAll",
      "outputs": [],
      "stateMutability": "nonpayable",
      "type": "function"
    },
    {
      "inputs": [
        {
          "internalType": "string",
          "name": "_baseUri",
          "type": "string"
        }
      ],
      "name": "setBaseUri",
      "outputs": [],
      "stateMutability": "nonpayable",
      "type": "function"
    },
    {
      "inputs": [
        {
          "internalType": "bool",
          "name": "_paused",
          "type": "bool"
        }
      ],
      "name": "setPaused",
      "outputs": [],
      "stateMutability": "nonpayable",
      "type": "function"
    },
    {
      "inputs": [
        {
          "internalType": "bytes4",
          "name": "interfaceId",
          "type": "bytes4"
        }
      ],
      "name": "supportsInterface",
      "outputs": [
        {
          "internalType": "bool",
          "name": "",
          "type": "bool"
        }
      ],
      "stateMutability": "view",
      "type": "function"
    },
    {
      "inputs": [],
      "name": "symbol",
      "outputs": [
        {
          "internalType": "string",
          "name": "",
          "type": "string"
        }
      ],
      "stateMutability": "pure",
      "type": "function"
    },
    {
      "inputs": [
        {
          "internalType": "uint256",
          "name": "index",
          "type": "uint256"
        }
      ],
      "name": "tokenByIndex",
      "outputs": [
        {
          "internalType": "uint256",
          "name": "",
          "type": "uint256"
        }
      ],
      "stateMutability": "view",
      "type": "function"
    },
    {
      "inputs": [
        {
          "internalType": "address",
          "name": "owner",
          "type": "address"
        },
        {
          "internalType": "uint256",
          "name": "index",
          "type": "uint256"
        }
      ],
      "name": "tokenOfOwnerByIndex",
      "outputs": [
        {
          "internalType": "uint256",
          "name": "",
          "type": "uint256"
        }
      ],
      "stateMutability": "view",
      "type": "function"
    },
    {
      "inputs": [
        {
          "internalType": "uint256",
          "name": "tokenId",
          "type": "uint256"
        }
      ],
      "name": "tokenURI",
      "outputs": [
        {
          "internalType": "string",
          "name": "",
          "type": "string"
        }
      ],
      "stateMutability": "view",
      "type": "function"
    },
    {
      "inputs": [],
      "name": "totalSupply",
      "outputs": [
        {
          "internalType": "uint256",
          "name": "",
          "type": "uint256"
        }
      ],
      "stateMutability": "view",
      "type": "function"
    },
    {
      "inputs": [
        {
          "internalType": "address",
          "name": "from",
          "type": "address"
        },
        {
          "internalType": "address",
          "name": "to",
          "type": "address"
        },
        {
          "internalType": "uint256",
          "name": "tokenId",
          "type": "uint256"
        }
      ],
      "name": "transferFrom",
      "outputs": [],
      "stateMutability": "nonpayable",
      "type": "function"
    }
  ],
  "transactionHash": "0xdb9ace7a93f8429b1137490f4807fe74a49231a44be9dd0bcffcef80ec95bfdc",
  "args": [
    true,
    282,
    42808,
    2,
    2,
    "0xcEDdF46A0B2AFBFEeD1E27ebD99CB804E03706B3",
    "0xDb46d1Dc155634FbC732f92E853b10B288AD5a1d"
  ],
  "numDeployments": 16,
  "solcInputHash": "86180d6184d359953566e0a595ede7a8",
  "bytecode": "0x6101606040523480156200001257600080fd5b5060405162004bf738038062004bf7833981810160405281019062000038919062000361565b6040518060400160405280600c81526020017f4b6f72752044616f204e465400000000000000000000000000000000000000008152506040518060400160405280600781526020017f4b4f525544414f0000000000000000000000000000000000000000000000000081525083808a898989888415156080811515815250508360a081815250508260c081815250508160e081815250508073ffffffffffffffffffffffffffffffffffffffff166101008173ffffffffffffffffffffffffffffffffffffffff168152505050505050508073ffffffffffffffffffffffffffffffffffffffff166101208173ffffffffffffffffffffffffffffffffffffffff1681525050508260009080519060200190620001579291906200018a565b508160019080519060200190620001709291906200018a565b505050508561014081815250505050505050505062000478565b828054620001989062000443565b90600052602060002090601f016020900481019282620001bc576000855562000208565b82601f10620001d757805160ff191683800117855562000208565b8280016001018555821562000208579182015b8281111562000207578251825591602001919060010190620001ea565b5b5090506200021791906200021b565b5090565b5b80821115620002365760008160009055506001016200021c565b5090565b600080fd5b60008115159050919050565b62000256816200023f565b81146200026257600080fd5b50565b60008151905062000276816200024b565b92915050565b6000819050919050565b62000291816200027c565b81146200029d57600080fd5b50565b600081519050620002b18162000286565b92915050565b600073ffffffffffffffffffffffffffffffffffffffff82169050919050565b6000620002e482620002b7565b9050919050565b620002f681620002d7565b81146200030257600080fd5b50565b6000815190506200031681620002eb565b92915050565b60006200032982620002d7565b9050919050565b6200033b816200031c565b81146200034757600080fd5b50565b6000815190506200035b8162000330565b92915050565b600080600080600080600060e0888a0312156200038357620003826200023a565b5b6000620003938a828b0162000265565b9750506020620003a68a828b01620002a0565b9650506040620003b98a828b01620002a0565b9550506060620003cc8a828b01620002a0565b9450506080620003df8a828b01620002a0565b93505060a0620003f28a828b0162000305565b92505060c0620004058a828b016200034a565b91505092959891949750929550565b7f4e487b7100000000000000000000000000000000000000000000000000000000600052602260045260246000fd5b600060028204905060018216806200045c57607f821691505b60208210810362000472576200047162000414565b5b50919050565b60805160a05160c05160e0516101005161012051610140516146c26200053560003960008181611381015281816113b10152818161143c015261175f01526000610ba9015260008181610dbe0152818161125601528181611b4c01528181611bf101528181611d740152611e3f015260008181610cc30152611f8c0152600081816112dc0152611e100152600081816110c20152611c2d0152600081816108e901528181610fe701528181611358015261173901526146c26000f3fe608060405234801561001057600080fd5b50600436106101da5760003560e01c8063661e3e3611610104578063a0bcfc7f116100a2578063c631029e11610071578063c631029e14610558578063c87b56dd14610576578063d5abeb01146105a6578063e985e9c5146105c4576101da565b8063a0bcfc7f146104e6578063a22cb46514610502578063b02cfdc31461051e578063b88d4fde1461053c576101da565b806370a08231116100de57806370a082311461045c57806384af9a921461048c57806395d89b41146104aa5780639abc8320146104c8576101da565b8063661e3e36146103f157806366e305fd1461040d5780637072c6b11461043e576101da565b806323b872dd1161017c578063572b6c051161014b578063572b6c05146103555780635c975abb146103855780636352211e146103a357806363631410146103d3576101da565b806323b872dd146102bd5780632f745c59146102d957806342842e0e146103095780634f6ccce714610325576101da565b8063095ea7b3116101b8578063095ea7b31461025d5780631249c58b1461027957806316c38b3c1461028357806318160ddd1461029f576101da565b806301ffc9a7146101df57806306fdde031461020f578063081812fc1461022d575b600080fd5b6101f960048036038101906101f49190612dad565b6105f4565b6040516102069190612df5565b60405180910390f35b61021761066e565b6040516102249190612ea9565b60405180910390f35b61024760048036038101906102429190612f01565b6106ab565b6040516102549190612f6f565b60405180910390f35b61027760048036038101906102729190612fb6565b610730565b005b610281610847565b005b61029d60048036038101906102989190613022565b610970565b005b6102a7610a02565b6040516102b4919061305e565b60405180910390f35b6102d760048036038101906102d29190613079565b610a0f565b005b6102f360048036038101906102ee9190612fb6565b610a6f565b604051610300919061305e565b60405180910390f35b610323600480360381019061031e9190613079565b610b14565b005b61033f600480360381019061033a9190612f01565b610b34565b60405161034c919061305e565b60405180910390f35b61036f600480360381019061036a91906130cc565b610ba5565b60405161037c9190612df5565b60405180910390f35b61038d610bfd565b60405161039a9190612df5565b60405180910390f35b6103bd60048036038101906103b89190612f01565b610c10565b6040516103ca9190612f6f565b60405180910390f35b6103db610cc1565b6040516103e8919061305e565b60405180910390f35b61040b6004803603810190610406919061315e565b610ce5565b005b610427600480360381019061042291906130cc565b610db6565b604051610435929190613269565b60405180910390f35b610446610fe5565b6040516104539190612df5565b60405180910390f35b610476600480360381019061047191906130cc565b611009565b604051610483919061305e565b60405180910390f35b6104946110c0565b6040516104a1919061305e565b60405180910390f35b6104b26110e4565b6040516104bf9190612ea9565b60405180910390f35b6104d0611121565b6040516104dd9190612ea9565b60405180910390f35b61050060048036038101906104fb91906133c9565b6111af565b005b61051c60048036038101906105179190613412565b61123e565b005b610526611254565b60405161053391906134b1565b60405180910390f35b6105566004803603810190610551919061356d565b611278565b005b6105606112da565b60405161056d919061305e565b60405180910390f35b610590600480360381019061058b9190612f01565b6112fe565b60405161059d9190612ea9565b60405180910390f35b6105ae61143a565b6040516105bb919061305e565b60405180910390f35b6105de60048036038101906105d991906135f0565b61145e565b6040516105eb9190612df5565b60405180910390f35b60007f780e9d63000000000000000000000000000000000000000000000000000000007bffffffffffffffffffffffffffffffffffffffffffffffffffffffff1916827bffffffffffffffffffffffffffffffffffffffffffffffffffffffff191614806106675750610666826114f2565b5b9050919050565b60606040518060400160405280600881526020017f4b6f72752044616f000000000000000000000000000000000000000000000000815250905090565b60006106b6826115d4565b6106f5576040517f08c379a00000000000000000000000000000000000000000000000000000000081526004016106ec906136a2565b60405180910390fd5b6004600083815260200190815260200160002060009054906101000a900473ffffffffffffffffffffffffffffffffffffffff169050919050565b600061073b82610c10565b90508073ffffffffffffffffffffffffffffffffffffffff168373ffffffffffffffffffffffffffffffffffffffff16036107ab576040517f08c379a00000000000000000000000000000000000000000000000000000000081526004016107a290613734565b60405180910390fd5b8073ffffffffffffffffffffffffffffffffffffffff166107ca611640565b73ffffffffffffffffffffffffffffffffffffffff1614806107f957506107f8816107f3611640565b61145e565b5b610838576040517f08c379a000000000000000000000000000000000000000000000000000000000815260040161082f906137c6565b60405180910390fd5b6108428383611672565b505050565b600b60009054906101000a900460ff1615610897576040517f08c379a000000000000000000000000000000000000000000000000000000000815260040161088e90613832565b60405180910390fd5b6108a033610ba5565b6108df576040517f08c379a00000000000000000000000000000000000000000000000000000000081526004016108d69061389e565b60405180910390fd5b6108e7611640565b7f00000000000000000000000000000000000000000000000000000000000000001561095d57600061091882610db6565b5090508061095b576040517f08c379a000000000000000000000000000000000000000000000000000000000815260040161095290613930565b60405180910390fd5b505b61096d610968611640565b61172b565b50565b6109786117da565b73ffffffffffffffffffffffffffffffffffffffff163373ffffffffffffffffffffffffffffffffffffffff16146109e5576040517f08c379a00000000000000000000000000000000000000000000000000000000081526004016109dc9061399c565b60405180910390fd5b80600b60006101000a81548160ff02191690831515021790555050565b6000600880549050905090565b610a20610a1a611640565b82611803565b610a5f576040517f08c379a0000000000000000000000000000000000000000000000000000000008152600401610a5690613a2e565b60405180910390fd5b610a6a8383836118e1565b505050565b6000610a7a83611009565b8210610abb576040517f08c379a0000000000000000000000000000000000000000000000000000000008152600401610ab290613ac0565b60405180910390fd5b600660008473ffffffffffffffffffffffffffffffffffffffff1673ffffffffffffffffffffffffffffffffffffffff168152602001908152602001600020600083815260200190815260200160002054905092915050565b610b2f83838360405180602001604052806000815250611278565b505050565b6000610b3e610a02565b8210610b7f576040517f08c379a0000000000000000000000000000000000000000000000000000000008152600401610b7690613b52565b60405180910390fd5b60088281548110610b9357610b92613b72565b5b90600052602060002001549050919050565b60007f000000000000000000000000000000000000000000000000000000000000000073ffffffffffffffffffffffffffffffffffffffff168273ffffffffffffffffffffffffffffffffffffffff16149050919050565b600b60009054906101000a900460ff1681565b6000806002600084815260200190815260200160002060009054906101000a900473ffffffffffffffffffffffffffffffffffffffff169050600073ffffffffffffffffffffffffffffffffffffffff168173ffffffffffffffffffffffffffffffffffffffff1603610cb8576040517f08c379a0000000000000000000000000000000000000000000000000000000008152600401610caf90613c13565b60405180910390fd5b80915050919050565b7f000000000000000000000000000000000000000000000000000000000000000081565b610ced6117da565b73ffffffffffffffffffffffffffffffffffffffff163373ffffffffffffffffffffffffffffffffffffffff1614610d5a576040517f08c379a0000000000000000000000000000000000000000000000000000000008152600401610d519061399c565b60405180910390fd5b600082829050905060005b81811015610db057610d9d848483818110610d8357610d82613b72565b5b9050602002016020810190610d9891906130cc565b61172b565b8080610da890613c62565b915050610d65565b50505050565b6000606060007f000000000000000000000000000000000000000000000000000000000000000073ffffffffffffffffffffffffffffffffffffffff166392254a62856040518263ffffffff1660e01b8152600401610e159190612f6f565b602060405180830381865afa158015610e32573d6000803e3d6000fd5b505050506040513d601f19601f82011682018060405250810190610e569190613cbf565b905060008103610e9b576040517f08c379a0000000000000000000000000000000000000000000000000000000008152600401610e9290613d5e565b60405180910390fd5b6000600190506000600467ffffffffffffffff811115610ebe57610ebd61329e565b5b604051908082528060200260200182016040528015610eec5781602001602082028036833780820191505090505b509050610ef886611b47565b610f2957600181600081518110610f1257610f11613b72565b5b602002602001019015159081151581525050600091505b610f3286611bec565b610f6357600181600181518110610f4c57610f4b613b72565b5b602002602001019015159081151581525050600091505b610f6c83611d6f565b610f9d57600181600281518110610f8657610f85613b72565b5b602002602001019015159081151581525050600091505b610fa683611e3a565b610fd757600181600381518110610fc057610fbf613b72565b5b602002602001019015159081151581525050600091505b818194509450505050915091565b7f000000000000000000000000000000000000000000000000000000000000000081565b60008073ffffffffffffffffffffffffffffffffffffffff168273ffffffffffffffffffffffffffffffffffffffff1603611079576040517f08c379a000000000000000000000000000000000000000000000000000000000815260040161107090613df0565b60405180910390fd5b600360008373ffffffffffffffffffffffffffffffffffffffff1673ffffffffffffffffffffffffffffffffffffffff168152602001908152602001600020549050919050565b7f000000000000000000000000000000000000000000000000000000000000000081565b60606040518060400160405280600781526020017f4b4f525544414f00000000000000000000000000000000000000000000000000815250905090565b600a805461112e90613e3f565b80601f016020809104026020016040519081016040528092919081815260200182805461115a90613e3f565b80156111a75780601f1061117c576101008083540402835291602001916111a7565b820191906000526020600020905b81548152906001019060200180831161118a57829003601f168201915b505050505081565b6111b76117da565b73ffffffffffffffffffffffffffffffffffffffff163373ffffffffffffffffffffffffffffffffffffffff1614611224576040517f08c379a000000000000000000000000000000000000000000000000000000000815260040161121b9061399c565b60405180910390fd5b80600a908051906020019061123a929190612c9e565b5050565b611250611249611640565b8383611fb8565b5050565b7f000000000000000000000000000000000000000000000000000000000000000081565b611289611283611640565b83611803565b6112c8576040517f08c379a00000000000000000000000000000000000000000000000000000000081526004016112bf90613a2e565b60405180910390fd5b6112d484848484612124565b50505050565b7f000000000000000000000000000000000000000000000000000000000000000081565b6060611309826115d4565b611348576040517f08c379a000000000000000000000000000000000000000000000000000000000815260040161133f90613ee2565b60405180910390fd5b6000611352612180565b905060007f00000000000000000000000000000000000000000000000000000000000000001580156113a357507f000000000000000000000000000000000000000000000000000000000000000084115b6113ad57836113e6565b60017f0000000000000000000000000000000000000000000000000000000000000000856113db9190613f31565b6113e59190613f62565b5b905060008251116114065760405180602001604052806000815250611431565b8161141082612212565b604051602001611421929190614040565b6040516020818303038152906040525b92505050919050565b7f000000000000000000000000000000000000000000000000000000000000000081565b6000600560008473ffffffffffffffffffffffffffffffffffffffff1673ffffffffffffffffffffffffffffffffffffffff16815260200190815260200160002060008373ffffffffffffffffffffffffffffffffffffffff1673ffffffffffffffffffffffffffffffffffffffff16815260200190815260200160002060009054906101000a900460ff16905092915050565b60007f80ac58cd000000000000000000000000000000000000000000000000000000007bffffffffffffffffffffffffffffffffffffffffffffffffffffffff1916827bffffffffffffffffffffffffffffffffffffffffffffffffffffffff191614806115bd57507f5b5e139f000000000000000000000000000000000000000000000000000000007bffffffffffffffffffffffffffffffffffffffffffffffffffffffff1916827bffffffffffffffffffffffffffffffffffffffffffffffffffffffff1916145b806115cd57506115cc82612372565b5b9050919050565b60008073ffffffffffffffffffffffffffffffffffffffff166002600084815260200190815260200160002060009054906101000a900473ffffffffffffffffffffffffffffffffffffffff1673ffffffffffffffffffffffffffffffffffffffff1614159050919050565b600061164b33610ba5565b1561165f57601436033560601c905061166e565b6116676123dc565b905061166f565b5b90565b816004600083815260200190815260200160002060006101000a81548173ffffffffffffffffffffffffffffffffffffffff021916908373ffffffffffffffffffffffffffffffffffffffff160217905550808273ffffffffffffffffffffffffffffffffffffffff166116e583610c10565b73ffffffffffffffffffffffffffffffffffffffff167f8c5be1e5ebec7d5bd14f71427d1e84f3dd0314c0f7b2291e5b200ac8c7c3b92560405160405180910390a45050565b6000611735610a02565b90507f0000000000000000000000000000000000000000000000000000000000000000156117c0577f000000000000000000000000000000000000000000000000000000000000000081106117bf576040517f08c379a00000000000000000000000000000000000000000000000000000000081526004016117b6906140bb565b60405180910390fd5b5b6117d6826001836117d19190613f62565b6123e4565b5050565b60007fb53127684a568b3173ae13b9f8a6016e243e63b6e8ee1178d6a717850b5d610354905090565b600061180e826115d4565b61184d576040517f08c379a00000000000000000000000000000000000000000000000000000000081526004016118449061414d565b60405180910390fd5b600061185883610c10565b90508073ffffffffffffffffffffffffffffffffffffffff168473ffffffffffffffffffffffffffffffffffffffff1614806118c757508373ffffffffffffffffffffffffffffffffffffffff166118af846106ab565b73ffffffffffffffffffffffffffffffffffffffff16145b806118d857506118d7818561145e565b5b91505092915050565b8273ffffffffffffffffffffffffffffffffffffffff1661190182610c10565b73ffffffffffffffffffffffffffffffffffffffff1614611957576040517f08c379a000000000000000000000000000000000000000000000000000000000815260040161194e906141df565b60405180910390fd5b600073ffffffffffffffffffffffffffffffffffffffff168273ffffffffffffffffffffffffffffffffffffffff16036119c6576040517f08c379a00000000000000000000000000000000000000000000000000000000081526004016119bd90614271565b60405180910390fd5b6119d1838383612402565b6119dc600082611672565b6001600360008573ffffffffffffffffffffffffffffffffffffffff1673ffffffffffffffffffffffffffffffffffffffff1681526020019081526020016000206000828254611a2c9190614291565b925050819055506001600360008473ffffffffffffffffffffffffffffffffffffffff1673ffffffffffffffffffffffffffffffffffffffff1681526020019081526020016000206000828254611a839190613f62565b92505081905550816002600083815260200190815260200160002060006101000a81548173ffffffffffffffffffffffffffffffffffffffff021916908373ffffffffffffffffffffffffffffffffffffffff160217905550808273ffffffffffffffffffffffffffffffffffffffff168473ffffffffffffffffffffffffffffffffffffffff167fddf252ad1be2c89b69c2b068fc378daa952ba7f163c4a11628f55a4df523b3ef60405160405180910390a4611b42838383612450565b505050565b6000807f000000000000000000000000000000000000000000000000000000000000000073ffffffffffffffffffffffffffffffffffffffff166370a08231846040518263ffffffff1660e01b8152600401611ba39190612f6f565b602060405180830381865afa158015611bc0573d6000803e3d6000fd5b505050506040513d601f19601f82011682018060405250810190611be49190613cbf565b119050919050565b6000807f000000000000000000000000000000000000000000000000000000000000000073ffffffffffffffffffffffffffffffffffffffff1663a9ec65637f00000000000000000000000000000000000000000000000000000000000000006040518263ffffffff1660e01b8152600401611c68919061305e565b602060405180830381865afa158015611c85573d6000803e3d6000fd5b505050506040513d601f19601f82011682018060405250810190611ca991906142da565b9050600073ffffffffffffffffffffffffffffffffffffffff168173ffffffffffffffffffffffffffffffffffffffff1603611ce9576000915050611d6a565b60008173ffffffffffffffffffffffffffffffffffffffff166370a08231856040518263ffffffff1660e01b8152600401611d249190612f6f565b602060405180830381865afa158015611d41573d6000803e3d6000fd5b505050506040513d601f19601f82011682018060405250810190611d659190613cbf565b119150505b919050565b6000807f000000000000000000000000000000000000000000000000000000000000000073ffffffffffffffffffffffffffffffffffffffff16633a15ff07846040518263ffffffff1660e01b8152600401611dcb919061305e565b602060405180830381865afa158015611de8573d6000803e3d6000fd5b505050506040513d601f19601f82011682018060405250810190611e0c9190613cbf565b90507f0000000000000000000000000000000000000000000000000000000000000000811015915050919050565b6000807f000000000000000000000000000000000000000000000000000000000000000073ffffffffffffffffffffffffffffffffffffffff1663a9ec6563846040518263ffffffff1660e01b8152600401611e96919061305e565b602060405180830381865afa158015611eb3573d6000803e3d6000fd5b505050506040513d601f19601f82011682018060405250810190611ed791906142da565b9050600073ffffffffffffffffffffffffffffffffffffffff168173ffffffffffffffffffffffffffffffffffffffff1603611f17576000915050611fb3565b60008173ffffffffffffffffffffffffffffffffffffffff166318160ddd6040518163ffffffff1660e01b8152600401602060405180830381865afa158015611f64573d6000803e3d6000fd5b505050506040513d601f19601f82011682018060405250810190611f889190613cbf565b90507f0000000000000000000000000000000000000000000000000000000000000000811015925050505b919050565b8173ffffffffffffffffffffffffffffffffffffffff168373ffffffffffffffffffffffffffffffffffffffff1603612026576040517f08c379a000000000000000000000000000000000000000000000000000000000815260040161201d90614353565b60405180910390fd5b80600560008573ffffffffffffffffffffffffffffffffffffffff1673ffffffffffffffffffffffffffffffffffffffff16815260200190815260200160002060008473ffffffffffffffffffffffffffffffffffffffff1673ffffffffffffffffffffffffffffffffffffffff16815260200190815260200160002060006101000a81548160ff0219169083151502179055508173ffffffffffffffffffffffffffffffffffffffff168373ffffffffffffffffffffffffffffffffffffffff167f17307eab39ab6107e8899845ad3d59bd9653f200f220920489ca2b5937696c31836040516121179190612df5565b60405180910390a3505050565b61212f8484846118e1565b61213b84848484612455565b61217a576040517f08c379a0000000000000000000000000000000000000000000000000000000008152600401612171906143e5565b60405180910390fd5b50505050565b6060600a805461218f90613e3f565b80601f01602080910402602001604051908101604052809291908181526020018280546121bb90613e3f565b80156122085780601f106121dd57610100808354040283529160200191612208565b820191906000526020600020905b8154815290600101906020018083116121eb57829003601f168201915b5050505050905090565b606060008203612259576040518060400160405280600181526020017f3000000000000000000000000000000000000000000000000000000000000000815250905061236d565b600082905060005b6000821461228b57808061227490613c62565b915050600a826122849190614405565b9150612261565b60008167ffffffffffffffff8111156122a7576122a661329e565b5b6040519080825280601f01601f1916602001820160405280156122d95781602001600182028036833780820191505090505b5090505b60008514612366576001826122f29190614291565b9150600a856123019190613f31565b603061230d9190613f62565b60f81b81838151811061232357612322613b72565b5b60200101907effffffffffffffffffffffffffffffffffffffffffffffffffffffffffffff1916908160001a905350600a8561235f9190614405565b94506122dd565b8093505050505b919050565b60007f01ffc9a7000000000000000000000000000000000000000000000000000000007bffffffffffffffffffffffffffffffffffffffffffffffffffffffff1916827bffffffffffffffffffffffffffffffffffffffffffffffffffffffff1916149050919050565b600033905090565b6123fe8282604051806020016040528060008152506125dc565b5050565b600073ffffffffffffffffffffffffffffffffffffffff168273ffffffffffffffffffffffffffffffffffffffff16146124405761243f82612637565b5b61244b838383612685565b505050565b505050565b60006124768473ffffffffffffffffffffffffffffffffffffffff16612797565b156125cf578373ffffffffffffffffffffffffffffffffffffffff1663150b7a0261249f611640565b8786866040518563ffffffff1660e01b81526004016124c1949392919061448b565b6020604051808303816000875af19250505080156124fd57506040513d601f19601f820116820180604052508101906124fa91906144ec565b60015b61257f573d806000811461252d576040519150601f19603f3d011682016040523d82523d6000602084013e612532565b606091505b506000815103612577576040517f08c379a000000000000000000000000000000000000000000000000000000000815260040161256e906143e5565b60405180910390fd5b805181602001fd5b63150b7a0260e01b7bffffffffffffffffffffffffffffffffffffffffffffffffffffffff1916817bffffffffffffffffffffffffffffffffffffffffffffffffffffffff1916149150506125d4565b600190505b949350505050565b6125e683836127ba565b6125f36000848484612455565b612632576040517f08c379a0000000000000000000000000000000000000000000000000000000008152600401612629906143e5565b60405180910390fd5b505050565b600061264282611009565b14612682576040517f08c379a000000000000000000000000000000000000000000000000000000000815260040161267990614565565b60405180910390fd5b50565b612690838383612993565b600073ffffffffffffffffffffffffffffffffffffffff168373ffffffffffffffffffffffffffffffffffffffff16036126d2576126cd81612998565b612711565b8173ffffffffffffffffffffffffffffffffffffffff168373ffffffffffffffffffffffffffffffffffffffff16146127105761270f83826129e1565b5b5b600073ffffffffffffffffffffffffffffffffffffffff168273ffffffffffffffffffffffffffffffffffffffff16036127535761274e81612b4e565b612792565b8273ffffffffffffffffffffffffffffffffffffffff168273ffffffffffffffffffffffffffffffffffffffff1614612791576127908282612c1f565b5b5b505050565b6000808273ffffffffffffffffffffffffffffffffffffffff163b119050919050565b600073ffffffffffffffffffffffffffffffffffffffff168273ffffffffffffffffffffffffffffffffffffffff1603612829576040517f08c379a0000000000000000000000000000000000000000000000000000000008152600401612820906145d1565b60405180910390fd5b612832816115d4565b15612872576040517f08c379a00000000000000000000000000000000000000000000000000000000081526004016128699061463d565b60405180910390fd5b61287e60008383612402565b6001600360008473ffffffffffffffffffffffffffffffffffffffff1673ffffffffffffffffffffffffffffffffffffffff16815260200190815260200160002060008282546128ce9190613f62565b92505081905550816002600083815260200190815260200160002060006101000a81548173ffffffffffffffffffffffffffffffffffffffff021916908373ffffffffffffffffffffffffffffffffffffffff160217905550808273ffffffffffffffffffffffffffffffffffffffff16600073ffffffffffffffffffffffffffffffffffffffff167fddf252ad1be2c89b69c2b068fc378daa952ba7f163c4a11628f55a4df523b3ef60405160405180910390a461298f60008383612450565b5050565b505050565b6008805490506009600083815260200190815260200160002081905550600881908060018154018082558091505060019003906000526020600020016000909190919091505550565b600060016129ee84611009565b6129f89190614291565b9050600060076000848152602001908152602001600020549050818114612add576000600660008673ffffffffffffffffffffffffffffffffffffffff1673ffffffffffffffffffffffffffffffffffffffff168152602001908152602001600020600084815260200190815260200160002054905080600660008773ffffffffffffffffffffffffffffffffffffffff1673ffffffffffffffffffffffffffffffffffffffff168152602001908152602001600020600084815260200190815260200160002081905550816007600083815260200190815260200160002081905550505b6007600084815260200190815260200160002060009055600660008573ffffffffffffffffffffffffffffffffffffffff1673ffffffffffffffffffffffffffffffffffffffff16815260200190815260200160002060008381526020019081526020016000206000905550505050565b60006001600880549050612b629190614291565b9050600060096000848152602001908152602001600020549050600060088381548110612b9257612b91613b72565b5b906000526020600020015490508060088381548110612bb457612bb3613b72565b5b906000526020600020018190555081600960008381526020019081526020016000208190555060096000858152602001908152602001600020600090556008805480612c0357612c0261465d565b5b6001900381819060005260206000200160009055905550505050565b6000612c2a83611009565b905081600660008573ffffffffffffffffffffffffffffffffffffffff1673ffffffffffffffffffffffffffffffffffffffff168152602001908152602001600020600083815260200190815260200160002081905550806007600084815260200190815260200160002081905550505050565b828054612caa90613e3f565b90600052602060002090601f016020900481019282612ccc5760008555612d13565b82601f10612ce557805160ff1916838001178555612d13565b82800160010185558215612d13579182015b82811115612d12578251825591602001919060010190612cf7565b5b509050612d209190612d24565b5090565b5b80821115612d3d576000816000905550600101612d25565b5090565b6000604051905090565b600080fd5b600080fd5b60007fffffffff0000000000000000000000000000000000000000000000000000000082169050919050565b612d8a81612d55565b8114612d9557600080fd5b50565b600081359050612da781612d81565b92915050565b600060208284031215612dc357612dc2612d4b565b5b6000612dd184828501612d98565b91505092915050565b60008115159050919050565b612def81612dda565b82525050565b6000602082019050612e0a6000830184612de6565b92915050565b600081519050919050565b600082825260208201905092915050565b60005b83811015612e4a578082015181840152602081019050612e2f565b83811115612e59576000848401525b50505050565b6000601f19601f8301169050919050565b6000612e7b82612e10565b612e858185612e1b565b9350612e95818560208601612e2c565b612e9e81612e5f565b840191505092915050565b60006020820190508181036000830152612ec38184612e70565b905092915050565b6000819050919050565b612ede81612ecb565b8114612ee957600080fd5b50565b600081359050612efb81612ed5565b92915050565b600060208284031215612f1757612f16612d4b565b5b6000612f2584828501612eec565b91505092915050565b600073ffffffffffffffffffffffffffffffffffffffff82169050919050565b6000612f5982612f2e565b9050919050565b612f6981612f4e565b82525050565b6000602082019050612f846000830184612f60565b92915050565b612f9381612f4e565b8114612f9e57600080fd5b50565b600081359050612fb081612f8a565b92915050565b60008060408385031215612fcd57612fcc612d4b565b5b6000612fdb85828601612fa1565b9250506020612fec85828601612eec565b9150509250929050565b612fff81612dda565b811461300a57600080fd5b50565b60008135905061301c81612ff6565b92915050565b60006020828403121561303857613037612d4b565b5b60006130468482850161300d565b91505092915050565b61305881612ecb565b82525050565b6000602082019050613073600083018461304f565b92915050565b60008060006060848603121561309257613091612d4b565b5b60006130a086828701612fa1565b93505060206130b186828701612fa1565b92505060406130c286828701612eec565b9150509250925092565b6000602082840312156130e2576130e1612d4b565b5b60006130f084828501612fa1565b91505092915050565b600080fd5b600080fd5b600080fd5b60008083601f84011261311e5761311d6130f9565b5b8235905067ffffffffffffffff81111561313b5761313a6130fe565b5b60208301915083602082028301111561315757613156613103565b5b9250929050565b6000806020838503121561317557613174612d4b565b5b600083013567ffffffffffffffff81111561319357613192612d50565b5b61319f85828601613108565b92509250509250929050565b600081519050919050565b600082825260208201905092915050565b6000819050602082019050919050565b6131e081612dda565b82525050565b60006131f283836131d7565b60208301905092915050565b6000602082019050919050565b6000613216826131ab565b61322081856131b6565b935061322b836131c7565b8060005b8381101561325c57815161324388826131e6565b975061324e836131fe565b92505060018101905061322f565b5085935050505092915050565b600060408201905061327e6000830185612de6565b8181036020830152613290818461320b565b90509392505050565b600080fd5b7f4e487b7100000000000000000000000000000000000000000000000000000000600052604160045260246000fd5b6132d682612e5f565b810181811067ffffffffffffffff821117156132f5576132f461329e565b5b80604052505050565b6000613308612d41565b905061331482826132cd565b919050565b600067ffffffffffffffff8211156133345761333361329e565b5b61333d82612e5f565b9050602081019050919050565b82818337600083830152505050565b600061336c61336784613319565b6132fe565b90508281526020810184848401111561338857613387613299565b5b61339384828561334a565b509392505050565b600082601f8301126133b0576133af6130f9565b5b81356133c0848260208601613359565b91505092915050565b6000602082840312156133df576133de612d4b565b5b600082013567ffffffffffffffff8111156133fd576133fc612d50565b5b6134098482850161339b565b91505092915050565b6000806040838503121561342957613428612d4b565b5b600061343785828601612fa1565b92505060206134488582860161300d565b9150509250929050565b6000819050919050565b600061347761347261346d84612f2e565b613452565b612f2e565b9050919050565b60006134898261345c565b9050919050565b600061349b8261347e565b9050919050565b6134ab81613490565b82525050565b60006020820190506134c660008301846134a2565b92915050565b600067ffffffffffffffff8211156134e7576134e661329e565b5b6134f082612e5f565b9050602081019050919050565b600061351061350b846134cc565b6132fe565b90508281526020810184848401111561352c5761352b613299565b5b61353784828561334a565b509392505050565b600082601f830112613554576135536130f9565b5b81356135648482602086016134fd565b91505092915050565b6000806000806080858703121561358757613586612d4b565b5b600061359587828801612fa1565b94505060206135a687828801612fa1565b93505060406135b787828801612eec565b925050606085013567ffffffffffffffff8111156135d8576135d7612d50565b5b6135e48782880161353f565b91505092959194509250565b6000806040838503121561360757613606612d4b565b5b600061361585828601612fa1565b925050602061362685828601612fa1565b9150509250929050565b7f4552433732313a20617070726f76656420717565727920666f72206e6f6e657860008201527f697374656e7420746f6b656e0000000000000000000000000000000000000000602082015250565b600061368c602c83612e1b565b915061369782613630565b604082019050919050565b600060208201905081810360008301526136bb8161367f565b9050919050565b7f4552433732313a20617070726f76616c20746f2063757272656e74206f776e6560008201527f7200000000000000000000000000000000000000000000000000000000000000602082015250565b600061371e602183612e1b565b9150613729826136c2565b604082019050919050565b6000602082019050818103600083015261374d81613711565b9050919050565b7f4552433732313a20617070726f76652063616c6c6572206973206e6f74206f7760008201527f6e6572206e6f7220617070726f76656420666f7220616c6c0000000000000000602082015250565b60006137b0603883612e1b565b91506137bb82613754565b604082019050919050565b600060208201905081810360008301526137df816137a3565b9050919050565b7f4b6f727544616f4e46543a205061757365640000000000000000000000000000600082015250565b600061381c601283612e1b565b9150613827826137e6565b602082019050919050565b6000602082019050818103600083015261384b8161380f565b9050919050565b7f4b6f727544616f3a204f6e6c792047656c61746f52656c617900000000000000600082015250565b6000613888601983612e1b565b915061389382613852565b602082019050919050565b600060208201905081810360008301526138b78161387b565b9050919050565b7f4d696e745265737472696374696f6e733a2053656e64657220646f6573206e6f60008201527f74206d6565742063726974657269610000000000000000000000000000000000602082015250565b600061391a602f83612e1b565b9150613925826138be565b604082019050919050565b600060208201905081810360008301526139498161390d565b9050919050565b7f4e4f545f415554484f52495a4544000000000000000000000000000000000000600082015250565b6000613986600e83612e1b565b915061399182613950565b602082019050919050565b600060208201905081810360008301526139b581613979565b9050919050565b7f4552433732313a207472616e736665722063616c6c6572206973206e6f74206f60008201527f776e6572206e6f7220617070726f766564000000000000000000000000000000602082015250565b6000613a18603183612e1b565b9150613a23826139bc565b604082019050919050565b60006020820190508181036000830152613a4781613a0b565b9050919050565b7f455243373231456e756d657261626c653a206f776e657220696e646578206f7560008201527f74206f6620626f756e6473000000000000000000000000000000000000000000602082015250565b6000613aaa602b83612e1b565b9150613ab582613a4e565b604082019050919050565b60006020820190508181036000830152613ad981613a9d565b9050919050565b7f455243373231456e756d657261626c653a20676c6f62616c20696e646578206f60008201527f7574206f6620626f756e64730000000000000000000000000000000000000000602082015250565b6000613b3c602c83612e1b565b9150613b4782613ae0565b604082019050919050565b60006020820190508181036000830152613b6b81613b2f565b9050919050565b7f4e487b7100000000000000000000000000000000000000000000000000000000600052603260045260246000fd5b7f4552433732313a206f776e657220717565727920666f72206e6f6e657869737460008201527f656e7420746f6b656e0000000000000000000000000000000000000000000000602082015250565b6000613bfd602983612e1b565b9150613c0882613ba1565b604082019050919050565b60006020820190508181036000830152613c2c81613bf0565b9050919050565b7f4e487b7100000000000000000000000000000000000000000000000000000000600052601160045260246000fd5b6000613c6d82612ecb565b91507fffffffffffffffffffffffffffffffffffffffffffffffffffffffffffffffff8203613c9f57613c9e613c33565b5b600182019050919050565b600081519050613cb981612ed5565b92915050565b600060208284031215613cd557613cd4612d4b565b5b6000613ce384828501613caa565b91505092915050565b7f4d696e745265737472696374696f6e733a2057616c6c657420646f6573206e6f60008201527f7420686176652064656661756c742070726f66696c6500000000000000000000602082015250565b6000613d48603683612e1b565b9150613d5382613cec565b604082019050919050565b60006020820190508181036000830152613d7781613d3b565b9050919050565b7f4552433732313a2062616c616e636520717565727920666f7220746865207a6560008201527f726f206164647265737300000000000000000000000000000000000000000000602082015250565b6000613dda602a83612e1b565b9150613de582613d7e565b604082019050919050565b60006020820190508181036000830152613e0981613dcd565b9050919050565b7f4e487b7100000000000000000000000000000000000000000000000000000000600052602260045260246000fd5b60006002820490506001821680613e5757607f821691505b602082108103613e6a57613e69613e10565b5b50919050565b7f4552433732314d657461646174613a2055524920717565727920666f72206e6f60008201527f6e6578697374656e7420746f6b656e0000000000000000000000000000000000602082015250565b6000613ecc602f83612e1b565b9150613ed782613e70565b604082019050919050565b60006020820190508181036000830152613efb81613ebf565b9050919050565b7f4e487b7100000000000000000000000000000000000000000000000000000000600052601260045260246000fd5b6000613f3c82612ecb565b9150613f4783612ecb565b925082613f5757613f56613f02565b5b828206905092915050565b6000613f6d82612ecb565b9150613f7883612ecb565b9250827fffffffffffffffffffffffffffffffffffffffffffffffffffffffffffffffff03821115613fad57613fac613c33565b5b828201905092915050565b600081905092915050565b6000613fce82612e10565b613fd88185613fb8565b9350613fe8818560208601612e2c565b80840191505092915050565b7f2e6a736f6e000000000000000000000000000000000000000000000000000000600082015250565b600061402a600583613fb8565b915061403582613ff4565b600582019050919050565b600061404c8285613fc3565b91506140588284613fc3565b91506140638261401d565b91508190509392505050565b7f4b6f727544616f4e46543a204d617820537570706c7900000000000000000000600082015250565b60006140a5601683612e1b565b91506140b08261406f565b602082019050919050565b600060208201905081810360008301526140d481614098565b9050919050565b7f4552433732313a206f70657261746f7220717565727920666f72206e6f6e657860008201527f697374656e7420746f6b656e0000000000000000000000000000000000000000602082015250565b6000614137602c83612e1b565b9150614142826140db565b604082019050919050565b600060208201905081810360008301526141668161412a565b9050919050565b7f4552433732313a207472616e736665722066726f6d20696e636f72726563742060008201527f6f776e6572000000000000000000000000000000000000000000000000000000602082015250565b60006141c9602583612e1b565b91506141d48261416d565b604082019050919050565b600060208201905081810360008301526141f8816141bc565b9050919050565b7f4552433732313a207472616e7366657220746f20746865207a65726f2061646460008201527f7265737300000000000000000000000000000000000000000000000000000000602082015250565b600061425b602483612e1b565b9150614266826141ff565b604082019050919050565b6000602082019050818103600083015261428a8161424e565b9050919050565b600061429c82612ecb565b91506142a783612ecb565b9250828210156142ba576142b9613c33565b5b828203905092915050565b6000815190506142d481612f8a565b92915050565b6000602082840312156142f0576142ef612d4b565b5b60006142fe848285016142c5565b91505092915050565b7f4552433732313a20617070726f766520746f2063616c6c657200000000000000600082015250565b600061433d601983612e1b565b915061434882614307565b602082019050919050565b6000602082019050818103600083015261436c81614330565b9050919050565b7f4552433732313a207472616e7366657220746f206e6f6e20455243373231526560008201527f63656976657220696d706c656d656e7465720000000000000000000000000000602082015250565b60006143cf603283612e1b565b91506143da82614373565b604082019050919050565b600060208201905081810360008301526143fe816143c2565b9050919050565b600061441082612ecb565b915061441b83612ecb565b92508261442b5761442a613f02565b5b828204905092915050565b600081519050919050565b600082825260208201905092915050565b600061445d82614436565b6144678185614441565b9350614477818560208601612e2c565b61448081612e5f565b840191505092915050565b60006080820190506144a06000830187612f60565b6144ad6020830186612f60565b6144ba604083018561304f565b81810360608301526144cc8184614452565b905095945050505050565b6000815190506144e681612d81565b92915050565b60006020828403121561450257614501612d4b565b5b6000614510848285016144d7565b91505092915050565b7f4b6f727544616f4e46543a204f6e6520706572206163636f756e740000000000600082015250565b600061454f601b83612e1b565b915061455a82614519565b602082019050919050565b6000602082019050818103600083015261457e81614542565b9050919050565b7f4552433732313a206d696e7420746f20746865207a65726f2061646472657373600082015250565b60006145bb602083612e1b565b91506145c682614585565b602082019050919050565b600060208201905081810360008301526145ea816145ae565b9050919050565b7f4552433732313a20746f6b656e20616c7265616479206d696e74656400000000600082015250565b6000614627601c83612e1b565b9150614632826145f1565b602082019050919050565b600060208201905081810360008301526146568161461a565b9050919050565b7f4e487b7100000000000000000000000000000000000000000000000000000000600052603160045260246000fdfea264697066735822122078c8d09a8a69bf2eb5bd24eb15881c53d5bb79d6d0d81887c03ec7640ee031f764736f6c634300080e0033",
  "devdoc": {
    "kind": "dev",
    "methods": {
      "approve(address,uint256)": {
        "details": "See {IERC721-approve}."
      },
      "balanceOf(address)": {
        "details": "See {IERC721-balanceOf}."
      },
      "getApproved(uint256)": {
        "details": "See {IERC721-getApproved}."
      },
      "isApprovedForAll(address,address)": {
        "details": "See {IERC721-isApprovedForAll}."
      },
      "name()": {
        "details": "See {IERC721Metadata-name}."
      },
      "ownerOf(uint256)": {
        "details": "See {IERC721-ownerOf}."
      },
      "safeTransferFrom(address,address,uint256)": {
        "details": "See {IERC721-safeTransferFrom}."
      },
      "safeTransferFrom(address,address,uint256,bytes)": {
        "details": "See {IERC721-safeTransferFrom}."
      },
      "setApprovalForAll(address,bool)": {
        "details": "See {IERC721-setApprovalForAll}."
      },
      "supportsInterface(bytes4)": {
        "details": "See {IERC165-supportsInterface}."
      },
      "symbol()": {
        "details": "See {IERC721Metadata-symbol}."
      },
      "tokenByIndex(uint256)": {
        "details": "See {IERC721Enumerable-tokenByIndex}."
      },
      "tokenOfOwnerByIndex(address,uint256)": {
        "details": "See {IERC721Enumerable-tokenOfOwnerByIndex}."
      },
      "tokenURI(uint256)": {
        "details": "See {IERC721Metadata-tokenURI}."
      },
      "totalSupply()": {
        "details": "See {IERC721Enumerable-totalSupply}."
      },
      "transferFrom(address,address,uint256)": {
        "details": "See {IERC721-transferFrom}."
      }
    },
    "version": 1
  },
  "userdoc": {
    "kind": "user",
    "methods": {},
    "version": 1
  },
  "storageLayout": {
    "storage": [
      {
        "astId": 3644,
        "contract": "contracts/KoruDaoNFT.sol:KoruDaoNFT",
        "label": "_name",
        "offset": 0,
        "slot": "0",
        "type": "t_string_storage"
      },
      {
        "astId": 3646,
        "contract": "contracts/KoruDaoNFT.sol:KoruDaoNFT",
        "label": "_symbol",
        "offset": 0,
        "slot": "1",
        "type": "t_string_storage"
      },
      {
        "astId": 3650,
        "contract": "contracts/KoruDaoNFT.sol:KoruDaoNFT",
        "label": "_owners",
        "offset": 0,
        "slot": "2",
        "type": "t_mapping(t_uint256,t_address)"
      },
      {
        "astId": 3654,
        "contract": "contracts/KoruDaoNFT.sol:KoruDaoNFT",
        "label": "_balances",
        "offset": 0,
        "slot": "3",
        "type": "t_mapping(t_address,t_uint256)"
      },
      {
        "astId": 3658,
        "contract": "contracts/KoruDaoNFT.sol:KoruDaoNFT",
        "label": "_tokenApprovals",
        "offset": 0,
        "slot": "4",
        "type": "t_mapping(t_uint256,t_address)"
      },
      {
        "astId": 3664,
        "contract": "contracts/KoruDaoNFT.sol:KoruDaoNFT",
        "label": "_operatorApprovals",
        "offset": 0,
        "slot": "5",
        "type": "t_mapping(t_address,t_mapping(t_address,t_bool))"
      },
      {
        "astId": 4504,
        "contract": "contracts/KoruDaoNFT.sol:KoruDaoNFT",
        "label": "_ownedTokens",
        "offset": 0,
        "slot": "6",
        "type": "t_mapping(t_address,t_mapping(t_uint256,t_uint256))"
      },
      {
        "astId": 4508,
        "contract": "contracts/KoruDaoNFT.sol:KoruDaoNFT",
        "label": "_ownedTokensIndex",
        "offset": 0,
        "slot": "7",
        "type": "t_mapping(t_uint256,t_uint256)"
      },
      {
        "astId": 4511,
        "contract": "contracts/KoruDaoNFT.sol:KoruDaoNFT",
        "label": "_allTokens",
        "offset": 0,
        "slot": "8",
        "type": "t_array(t_uint256)dyn_storage"
      },
      {
        "astId": 4515,
        "contract": "contracts/KoruDaoNFT.sol:KoruDaoNFT",
        "label": "_allTokensIndex",
        "offset": 0,
        "slot": "9",
        "type": "t_mapping(t_uint256,t_uint256)"
      },
      {
        "astId": 1362,
        "contract": "contracts/KoruDaoNFT.sol:KoruDaoNFT",
        "label": "baseUri",
        "offset": 0,
        "slot": "10",
        "type": "t_string_storage"
      },
      {
        "astId": 1364,
        "contract": "contracts/KoruDaoNFT.sol:KoruDaoNFT",
        "label": "paused",
        "offset": 0,
        "slot": "11",
        "type": "t_bool"
      }
    ],
    "types": {
      "t_address": {
        "encoding": "inplace",
        "label": "address",
        "numberOfBytes": "20"
      },
      "t_array(t_uint256)dyn_storage": {
        "base": "t_uint256",
        "encoding": "dynamic_array",
        "label": "uint256[]",
        "numberOfBytes": "32"
      },
      "t_bool": {
        "encoding": "inplace",
        "label": "bool",
        "numberOfBytes": "1"
      },
      "t_mapping(t_address,t_bool)": {
        "encoding": "mapping",
        "key": "t_address",
        "label": "mapping(address => bool)",
        "numberOfBytes": "32",
        "value": "t_bool"
      },
      "t_mapping(t_address,t_mapping(t_address,t_bool))": {
        "encoding": "mapping",
        "key": "t_address",
        "label": "mapping(address => mapping(address => bool))",
        "numberOfBytes": "32",
        "value": "t_mapping(t_address,t_bool)"
      },
      "t_mapping(t_address,t_mapping(t_uint256,t_uint256))": {
        "encoding": "mapping",
        "key": "t_address",
        "label": "mapping(address => mapping(uint256 => uint256))",
        "numberOfBytes": "32",
        "value": "t_mapping(t_uint256,t_uint256)"
      },
      "t_mapping(t_address,t_uint256)": {
        "encoding": "mapping",
        "key": "t_address",
        "label": "mapping(address => uint256)",
        "numberOfBytes": "32",
        "value": "t_uint256"
      },
      "t_mapping(t_uint256,t_address)": {
        "encoding": "mapping",
        "key": "t_uint256",
        "label": "mapping(uint256 => address)",
        "numberOfBytes": "32",
        "value": "t_address"
      },
      "t_mapping(t_uint256,t_uint256)": {
        "encoding": "mapping",
        "key": "t_uint256",
        "label": "mapping(uint256 => uint256)",
        "numberOfBytes": "32",
        "value": "t_uint256"
      },
      "t_string_storage": {
        "encoding": "bytes",
        "label": "string",
        "numberOfBytes": "32"
      },
      "t_uint256": {
        "encoding": "inplace",
        "label": "uint256",
        "numberOfBytes": "32"
      }
    }
  }
}