{
  "address": "0x599d5706862E53fC3E1a63163CCD650eA579bb75",
  "abi": [
    {
      "inputs": [
        {
          "internalType": "bool",
          "name": "_restricted",
          "type": "bool"
        },
        {
          "internalType": "uint256",
          "name": "_mintTime",
          "type": "uint256"
        },
        {
          "internalType": "uint256",
          "name": "_maxSupply",
          "type": "uint256"
        },
        {
          "internalType": "uint256",
          "name": "_koruDaoProfileId",
          "type": "uint256"
        },
        {
          "internalType": "uint256",
          "name": "_minPubCount",
          "type": "uint256"
        },
        {
          "internalType": "uint256",
          "name": "_minFollowers",
          "type": "uint256"
        },
        {
          "internalType": "address",
          "name": "_gelatoRelay",
          "type": "address"
        },
        {
          "internalType": "contract ILensHub",
          "name": "_lensHub",
          "type": "address"
        }
      ],
      "stateMutability": "nonpayable",
      "type": "constructor"
    },
    {
      "inputs": [
        {
          "internalType": "address",
          "name": "operator",
          "type": "address"
        }
      ],
      "name": "OperatorNotAllowed",
      "type": "error"
    },
    {
      "anonymous": false,
      "inputs": [
        {
          "indexed": true,
          "internalType": "address",
          "name": "owner",
          "type": "address"
        },
        {
          "indexed": true,
          "internalType": "address",
          "name": "approved",
          "type": "address"
        },
        {
          "indexed": true,
          "internalType": "uint256",
          "name": "tokenId",
          "type": "uint256"
        }
      ],
      "name": "Approval",
      "type": "event"
    },
    {
      "anonymous": false,
      "inputs": [
        {
          "indexed": true,
          "internalType": "address",
          "name": "owner",
          "type": "address"
        },
        {
          "indexed": true,
          "internalType": "address",
          "name": "operator",
          "type": "address"
        },
        {
          "indexed": false,
          "internalType": "bool",
          "name": "approved",
          "type": "bool"
        }
      ],
      "name": "ApprovalForAll",
      "type": "event"
    },
    {
      "anonymous": false,
      "inputs": [
        {
          "indexed": true,
          "internalType": "address",
          "name": "from",
          "type": "address"
        },
        {
          "indexed": true,
          "internalType": "address",
          "name": "to",
          "type": "address"
        },
        {
          "indexed": true,
          "internalType": "uint256",
          "name": "tokenId",
          "type": "uint256"
        }
      ],
      "name": "Transfer",
      "type": "event"
    },
    {
      "inputs": [
        {
          "internalType": "address",
          "name": "operator",
          "type": "address"
        },
        {
          "internalType": "uint256",
          "name": "tokenId",
          "type": "uint256"
        }
      ],
      "name": "approve",
      "outputs": [],
      "stateMutability": "nonpayable",
      "type": "function"
    },
    {
      "inputs": [
        {
          "internalType": "address",
          "name": "owner",
          "type": "address"
        }
      ],
      "name": "balanceOf",
      "outputs": [
        {
          "internalType": "uint256",
          "name": "",
          "type": "uint256"
        }
      ],
      "stateMutability": "view",
      "type": "function"
    },
    {
      "inputs": [],
      "name": "baseUri",
      "outputs": [
        {
          "internalType": "string",
          "name": "",
          "type": "string"
        }
      ],
      "stateMutability": "view",
      "type": "function"
    },
    {
      "inputs": [],
      "name": "gelatoRelay",
      "outputs": [
        {
          "internalType": "address",
          "name": "",
          "type": "address"
        }
      ],
      "stateMutability": "view",
      "type": "function"
    },
    {
      "inputs": [
        {
          "internalType": "uint256",
          "name": "tokenId",
          "type": "uint256"
        }
      ],
      "name": "getApproved",
      "outputs": [
        {
          "internalType": "address",
          "name": "",
          "type": "address"
        }
      ],
      "stateMutability": "view",
      "type": "function"
    },
    {
      "inputs": [
        {
          "internalType": "string",
          "name": "_name",
          "type": "string"
        },
        {
          "internalType": "string",
          "name": "_symbol",
          "type": "string"
        },
        {
          "internalType": "string",
          "name": "_baseUri",
          "type": "string"
        },
        {
          "internalType": "bool",
          "name": "_paused",
          "type": "bool"
        }
      ],
      "name": "initialize",
      "outputs": [],
      "stateMutability": "nonpayable",
      "type": "function"
    },
    {
      "inputs": [
        {
          "internalType": "address",
          "name": "owner",
          "type": "address"
        },
        {
          "internalType": "address",
          "name": "operator",
          "type": "address"
        }
      ],
      "name": "isApprovedForAll",
      "outputs": [
        {
          "internalType": "bool",
          "name": "",
          "type": "bool"
        }
      ],
      "stateMutability": "view",
      "type": "function"
    },
    {
      "inputs": [
        {
          "internalType": "address",
          "name": "_wallet",
          "type": "address"
        }
      ],
      "name": "isEligible",
      "outputs": [
        {
          "internalType": "bool",
          "name": "",
          "type": "bool"
        },
        {
          "internalType": "bool[]",
          "name": "",
          "type": "bool[]"
        }
      ],
      "stateMutability": "view",
      "type": "function"
    },
    {
      "inputs": [],
      "name": "koruDaoProfileId",
      "outputs": [
        {
          "internalType": "uint256",
          "name": "",
          "type": "uint256"
        }
      ],
      "stateMutability": "view",
      "type": "function"
    },
    {
      "inputs": [],
      "name": "lensHub",
      "outputs": [
        {
          "internalType": "contract ILensHub",
          "name": "",
          "type": "address"
        }
      ],
      "stateMutability": "view",
      "type": "function"
    },
    {
      "inputs": [
        {
          "internalType": "uint256",
          "name": "",
          "type": "uint256"
        }
      ],
      "name": "lensProfileMinted",
      "outputs": [
        {
          "internalType": "bool",
          "name": "",
          "type": "bool"
        }
      ],
      "stateMutability": "view",
      "type": "function"
    },
    {
      "inputs": [],
      "name": "maxSupply",
      "outputs": [
        {
          "internalType": "uint256",
          "name": "",
          "type": "uint256"
        }
      ],
      "stateMutability": "view",
      "type": "function"
    },
    {
      "inputs": [],
      "name": "minFollowers",
      "outputs": [
        {
          "internalType": "uint256",
          "name": "",
          "type": "uint256"
        }
      ],
      "stateMutability": "view",
      "type": "function"
    },
    {
      "inputs": [],
      "name": "minPubCount",
      "outputs": [
        {
          "internalType": "uint256",
          "name": "",
          "type": "uint256"
        }
      ],
      "stateMutability": "view",
      "type": "function"
    },
    {
      "inputs": [],
      "name": "mint",
      "outputs": [],
      "stateMutability": "nonpayable",
      "type": "function"
    },
    {
      "inputs": [],
      "name": "mintTime",
      "outputs": [
        {
          "internalType": "uint256",
          "name": "",
          "type": "uint256"
        }
      ],
      "stateMutability": "view",
      "type": "function"
    },
    {
      "inputs": [],
      "name": "name",
      "outputs": [
        {
          "internalType": "string",
          "name": "",
          "type": "string"
        }
      ],
      "stateMutability": "view",
      "type": "function"
    },
    {
      "inputs": [
        {
          "internalType": "address[]",
          "name": "_users",
          "type": "address[]"
        }
      ],
      "name": "ownerMint",
      "outputs": [],
      "stateMutability": "nonpayable",
      "type": "function"
    },
    {
      "inputs": [
        {
          "internalType": "uint256",
          "name": "tokenId",
          "type": "uint256"
        }
      ],
      "name": "ownerOf",
      "outputs": [
        {
          "internalType": "address",
          "name": "",
          "type": "address"
        }
      ],
      "stateMutability": "view",
      "type": "function"
    },
    {
      "inputs": [],
      "name": "paused",
      "outputs": [
        {
          "internalType": "bool",
          "name": "",
          "type": "bool"
        }
      ],
      "stateMutability": "view",
      "type": "function"
    },
    {
      "inputs": [],
      "name": "restricted",
      "outputs": [
        {
          "internalType": "bool",
          "name": "",
          "type": "bool"
        }
      ],
      "stateMutability": "view",
      "type": "function"
    },
    {
      "inputs": [
        {
          "internalType": "address",
          "name": "from",
          "type": "address"
        },
        {
          "internalType": "address",
          "name": "to",
          "type": "address"
        },
        {
          "internalType": "uint256",
          "name": "tokenId",
          "type": "uint256"
        }
      ],
      "name": "safeTransferFrom",
      "outputs": [],
      "stateMutability": "nonpayable",
      "type": "function"
    },
    {
      "inputs": [
        {
          "internalType": "address",
          "name": "from",
          "type": "address"
        },
        {
          "internalType": "address",
          "name": "to",
          "type": "address"
        },
        {
          "internalType": "uint256",
          "name": "tokenId",
          "type": "uint256"
        },
        {
          "internalType": "bytes",
          "name": "data",
          "type": "bytes"
        }
      ],
      "name": "safeTransferFrom",
      "outputs": [],
      "stateMutability": "nonpayable",
      "type": "function"
    },
    {
      "inputs": [
        {
          "internalType": "address",
          "name": "operator",
          "type": "address"
        },
        {
          "internalType": "bool",
          "name": "approved",
          "type": "bool"
        }
      ],
      "name": "setApprovalForAll",
      "outputs": [],
      "stateMutability": "nonpayable",
      "type": "function"
    },
    {
      "inputs": [
        {
          "internalType": "string",
          "name": "_baseUri",
          "type": "string"
        }
      ],
      "name": "setBaseUri",
      "outputs": [],
      "stateMutability": "nonpayable",
      "type": "function"
    },
    {
      "inputs": [
        {
          "internalType": "bool",
          "name": "_paused",
          "type": "bool"
        }
      ],
      "name": "setPaused",
      "outputs": [],
      "stateMutability": "nonpayable",
      "type": "function"
    },
    {
      "inputs": [
        {
          "internalType": "bytes4",
          "name": "interfaceId",
          "type": "bytes4"
        }
      ],
      "name": "supportsInterface",
      "outputs": [
        {
          "internalType": "bool",
          "name": "",
          "type": "bool"
        }
      ],
      "stateMutability": "view",
      "type": "function"
    },
    {
      "inputs": [],
      "name": "symbol",
      "outputs": [
        {
          "internalType": "string",
          "name": "",
          "type": "string"
        }
      ],
      "stateMutability": "view",
      "type": "function"
    },
    {
      "inputs": [
        {
          "internalType": "uint256",
          "name": "index",
          "type": "uint256"
        }
      ],
      "name": "tokenByIndex",
      "outputs": [
        {
          "internalType": "uint256",
          "name": "",
          "type": "uint256"
        }
      ],
      "stateMutability": "view",
      "type": "function"
    },
    {
      "inputs": [
        {
          "internalType": "address",
          "name": "owner",
          "type": "address"
        },
        {
          "internalType": "uint256",
          "name": "index",
          "type": "uint256"
        }
      ],
      "name": "tokenOfOwnerByIndex",
      "outputs": [
        {
          "internalType": "uint256",
          "name": "",
          "type": "uint256"
        }
      ],
      "stateMutability": "view",
      "type": "function"
    },
    {
      "inputs": [
        {
          "internalType": "uint256",
          "name": "tokenId",
          "type": "uint256"
        }
      ],
      "name": "tokenURI",
      "outputs": [
        {
          "internalType": "string",
          "name": "",
          "type": "string"
        }
      ],
      "stateMutability": "view",
      "type": "function"
    },
    {
      "inputs": [],
      "name": "totalSupply",
      "outputs": [
        {
          "internalType": "uint256",
          "name": "",
          "type": "uint256"
        }
      ],
      "stateMutability": "view",
      "type": "function"
    },
    {
      "inputs": [
        {
          "internalType": "address",
          "name": "from",
          "type": "address"
        },
        {
          "internalType": "address",
          "name": "to",
          "type": "address"
        },
        {
          "internalType": "uint256",
          "name": "tokenId",
          "type": "uint256"
        }
      ],
      "name": "transferFrom",
      "outputs": [],
      "stateMutability": "nonpayable",
      "type": "function"
    }
  ],
  "transactionHash": "0x5215749240fb5e69f9d5be987b8373ef472a40370b796ce950c67aeb42ec5f8d",
  "args": [
    true,
    1676475000,
    282,
    42808,
    10,
    300,
    "0xBf175FCC7086b4f9bd59d5EAE8eA67b8f940DE0d",
    "0xDb46d1Dc155634FbC732f92E853b10B288AD5a1d"
  ],
  "numDeployments": 2,
  "solcInputHash": "5349308aba14fa56ee6922d3fd6ba424",
  "bytecode": "0x6101806040523480156200001257600080fd5b5060405162005f6038038062005f60833981810160405281019062000038919062000219565b8188868686858415156080811515815250508360a081815250508260c081815250508160e081815250508073ffffffffffffffffffffffffffffffffffffffff166101008173ffffffffffffffffffffffffffffffffffffffff168152505050505050508073ffffffffffffffffffffffffffffffffffffffff166101208173ffffffffffffffffffffffffffffffffffffffff1681525050508661016081815250508561014081815250505050505050505050620002e2565b600080fd5b60008115159050919050565b6200010e81620000f7565b81146200011a57600080fd5b50565b6000815190506200012e8162000103565b92915050565b6000819050919050565b620001498162000134565b81146200015557600080fd5b50565b60008151905062000169816200013e565b92915050565b600073ffffffffffffffffffffffffffffffffffffffff82169050919050565b60006200019c826200016f565b9050919050565b620001ae816200018f565b8114620001ba57600080fd5b50565b600081519050620001ce81620001a3565b92915050565b6000620001e1826200018f565b9050919050565b620001f381620001d4565b8114620001ff57600080fd5b50565b6000815190506200021381620001e8565b92915050565b600080600080600080600080610100898b0312156200023d576200023c620000f2565b5b60006200024d8b828c016200011d565b9850506020620002608b828c0162000158565b9750506040620002738b828c0162000158565b9650506060620002868b828c0162000158565b9550506080620002998b828c0162000158565b94505060a0620002ac8b828c0162000158565b93505060c0620002bf8b828c01620001bd565b92505060e0620002d28b828c0162000202565b9150509295985092959890939650565b60805160a05160c05160e05161010051610120516101405161016051615b93620003cd60003960008181610921015261173a015260008181611c3301528181611c6301528181611cee01526120e7015260008181610ff3015261202d015260008181610a7e0152818161141101528181611a170152818161228e01528181612333015281816124b6015261258101526000818161129c01526126ce015260008181611b8e0152612552015260008181611716015261236f0152600081816109d401528181610a56015281816113950152818161163b01528181611c0a01526120c10152615b936000f3fe608060405234801561001057600080fd5b50600436106101fb5760003560e01c8063661e3e361161011a578063a0bcfc7f116100ad578063c631029e1161007c578063c631029e146105a1578063c87b56dd146105bf578063d5abeb01146105ef578063e985e9c51461060d578063f5e2f8be1461063d576101fb565b8063a0bcfc7f1461052f578063a22cb4651461054b578063b02cfdc314610567578063b88d4fde14610585576101fb565b806384af9a92116100e957806384af9a92146104b757806386478122146104d557806395d89b41146104f35780639abc832014610511576101fb565b8063661e3e361461041c57806366e305fd146104385780637072c6b11461046957806370a0823114610487576101fb565b80632c375026116101925780634f6ccce7116101615780634f6ccce7146103805780635c975abb146103b05780636352211e146103ce57806363631410146103fe576101fb565b80632c375026146102fa5780632f745c59146103165780633552221a1461034657806342842e0e14610364576101fb565b80631249c58b116101ce5780631249c58b1461029a57806316c38b3c146102a457806318160ddd146102c057806323b872dd146102de576101fb565b806301ffc9a71461020057806306fdde0314610230578063081812fc1461024e578063095ea7b31461027e575b600080fd5b61021a60048036038101906102159190613f3e565b61066d565b6040516102279190613f86565b60405180910390f35b6102386106e7565b604051610245919061403a565b60405180910390f35b61026860048036038101906102639190614092565b610779565b6040516102759190614100565b60405180910390f35b61029860048036038101906102939190614147565b6107fe565b005b6102a2610908565b005b6102be60048036038101906102b991906141b3565b610bb4565b005b6102c8610c46565b6040516102d591906141ef565b60405180910390f35b6102f860048036038101906102f3919061420a565b610c53565b005b610314600480360381019061030f91906142c2565b610da3565b005b610330600480360381019061032b9190614147565b610f4c565b60405161033d91906141ef565b60405180910390f35b61034e610ff1565b60405161035b9190614100565b60405180910390f35b61037e6004803603810190610379919061420a565b611015565b005b61039a60048036038101906103959190614092565b611165565b6040516103a791906141ef565b60405180910390f35b6103b86111d6565b6040516103c59190613f86565b60405180910390f35b6103e860048036038101906103e39190614092565b6111e9565b6040516103f59190614100565b60405180910390f35b61040661129a565b60405161041391906141ef565b60405180910390f35b610436600480360381019061043191906143e1565b6112be565b005b610452600480360381019061044d919061442e565b61138f565b604051610460929190614519565b60405180910390f35b610471611639565b60405161047e9190613f86565b60405180910390f35b6104a1600480360381019061049c919061442e565b61165d565b6040516104ae91906141ef565b60405180910390f35b6104bf611714565b6040516104cc91906141ef565b60405180910390f35b6104dd611738565b6040516104ea91906141ef565b60405180910390f35b6104fb61175c565b604051610508919061403a565b60405180910390f35b6105196117ee565b604051610526919061403a565b60405180910390f35b61054960048036038101906105449190614679565b61187c565b005b610565600480360381019061056091906146c2565b61190b565b005b61056f611a15565b60405161057c9190614761565b60405180910390f35b61059f600480360381019061059a919061481d565b611a39565b005b6105a9611b8c565b6040516105b691906141ef565b60405180910390f35b6105d960048036038101906105d49190614092565b611bb0565b6040516105e6919061403a565b60405180910390f35b6105f7611cec565b60405161060491906141ef565b60405180910390f35b610627600480360381019061062291906148a0565b611d10565b6040516106349190613f86565b60405180910390f35b61065760048036038101906106529190614092565b611da4565b6040516106649190613f86565b60405180910390f35b60007f780e9d63000000000000000000000000000000000000000000000000000000007bffffffffffffffffffffffffffffffffffffffffffffffffffffffff1916827bffffffffffffffffffffffffffffffffffffffffffffffffffffffff191614806106e057506106df82611dc4565b5b9050919050565b6060606580546106f69061490f565b80601f01602080910402602001604051908101604052809291908181526020018280546107229061490f565b801561076f5780601f106107445761010080835404028352916020019161076f565b820191906000526020600020905b81548152906001019060200180831161075257829003601f168201915b5050505050905090565b600061078482611ea6565b6107c3576040517f08c379a00000000000000000000000000000000000000000000000000000000081526004016107ba906149b2565b60405180910390fd5b6069600083815260200190815260200160002060009054906101000a900473ffffffffffffffffffffffffffffffffffffffff169050919050565b8160006daaeb6d7670e522a718067333cd4e73ffffffffffffffffffffffffffffffffffffffff163b11156108f9576daaeb6d7670e522a718067333cd4e73ffffffffffffffffffffffffffffffffffffffff1663c617113430836040518363ffffffff1660e01b81526004016108769291906149d2565b602060405180830381865afa158015610893573d6000803e3d6000fd5b505050506040513d601f19601f820116820180604052508101906108b79190614a10565b6108f857806040517fede71dcc0000000000000000000000000000000000000000000000000000000081526004016108ef9190614100565b60405180910390fd5b5b6109038383611f12565b505050565b60ca60009054906101000a900460ff16158061094357507f000000000000000000000000000000000000000000000000000000000000000042115b610982576040517f08c379a000000000000000000000000000000000000000000000000000000000815260040161097990614a89565b60405180910390fd5b61098b33612029565b6109ca576040517f08c379a00000000000000000000000000000000000000000000000000000000081526004016109c190614af5565b60405180910390fd5b6109d2612081565b7f000000000000000000000000000000000000000000000000000000000000000015610a48576000610a038261138f565b50905080610a46576040517f08c379a0000000000000000000000000000000000000000000000000000000008152600401610a3d90614b87565b60405180910390fd5b505b6000610a52612081565b90507f000000000000000000000000000000000000000000000000000000000000000015610ba75760007f000000000000000000000000000000000000000000000000000000000000000073ffffffffffffffffffffffffffffffffffffffff166392254a62836040518263ffffffff1660e01b8152600401610ad59190614100565b602060405180830381865afa158015610af2573d6000803e3d6000fd5b505050506040513d601f19601f82011682018060405250810190610b169190614bbc565b905060cb600082815260200190815260200160002060009054906101000a900460ff1615610b79576040517f08c379a0000000000000000000000000000000000000000000000000000000008152600401610b7090614c5b565b60405180910390fd5b600160cb600083815260200190815260200160002060006101000a81548160ff021916908315150217905550505b610bb0816120b3565b5050565b610bbc612162565b73ffffffffffffffffffffffffffffffffffffffff163373ffffffffffffffffffffffffffffffffffffffff1614610c29576040517f08c379a0000000000000000000000000000000000000000000000000000000008152600401610c2090614cc7565b60405180910390fd5b8060ca60006101000a81548160ff02191690831515021790555050565b6000609980549050905090565b8260006daaeb6d7670e522a718067333cd4e73ffffffffffffffffffffffffffffffffffffffff163b1115610d91573373ffffffffffffffffffffffffffffffffffffffff168173ffffffffffffffffffffffffffffffffffffffff1603610cc557610cc084848461218b565b610d9d565b6daaeb6d7670e522a718067333cd4e73ffffffffffffffffffffffffffffffffffffffff1663c617113430336040518363ffffffff1660e01b8152600401610d0e9291906149d2565b602060405180830381865afa158015610d2b573d6000803e3d6000fd5b505050506040513d601f19601f82011682018060405250810190610d4f9190614a10565b610d9057336040517fede71dcc000000000000000000000000000000000000000000000000000000008152600401610d879190614100565b60405180910390fd5b5b610d9c84848461218b565b5b50505050565b600060019054906101000a900460ff16610dcb5760008054906101000a900460ff1615610dd4565b610dd36121eb565b5b610e13576040517f08c379a0000000000000000000000000000000000000000000000000000000008152600401610e0a90614d59565b60405180910390fd5b60008060019054906101000a900460ff161590508015610e63576001600060016101000a81548160ff02191690831515021790555060016000806101000a81548160ff0219169083151502179055505b610ef588888080601f016020809104026020016040519081016040528093929190818152602001838380828437600081840152601f19601f8201169050808301925050505050505087878080601f016020809104026020016040519081016040528093929190818152602001838380828437600081840152601f19601f820116905080830192505050505050506121fc565b838360c99190610f06929190613da9565b508160ca60006101000a81548160ff0219169083151502179055508015610f425760008060016101000a81548160ff0219169083151502179055505b5050505050505050565b6000610f578361165d565b8210610f98576040517f08c379a0000000000000000000000000000000000000000000000000000000008152600401610f8f90614deb565b60405180910390fd5b609760008473ffffffffffffffffffffffffffffffffffffffff1673ffffffffffffffffffffffffffffffffffffffff168152602001908152602001600020600083815260200190815260200160002054905092915050565b7f000000000000000000000000000000000000000000000000000000000000000081565b8260006daaeb6d7670e522a718067333cd4e73ffffffffffffffffffffffffffffffffffffffff163b1115611153573373ffffffffffffffffffffffffffffffffffffffff168173ffffffffffffffffffffffffffffffffffffffff160361108757611082848484612269565b61115f565b6daaeb6d7670e522a718067333cd4e73ffffffffffffffffffffffffffffffffffffffff1663c617113430336040518363ffffffff1660e01b81526004016110d09291906149d2565b602060405180830381865afa1580156110ed573d6000803e3d6000fd5b505050506040513d601f19601f820116820180604052508101906111119190614a10565b61115257336040517fede71dcc0000000000000000000000000000000000000000000000000000000081526004016111499190614100565b60405180910390fd5b5b61115e848484612269565b5b50505050565b600061116f610c46565b82106111b0576040517f08c379a00000000000000000000000000000000000000000000000000000000081526004016111a790614e7d565b60405180910390fd5b609982815481106111c4576111c3614e9d565b5b90600052602060002001549050919050565b60ca60009054906101000a900460ff1681565b6000806067600084815260200190815260200160002060009054906101000a900473ffffffffffffffffffffffffffffffffffffffff169050600073ffffffffffffffffffffffffffffffffffffffff168173ffffffffffffffffffffffffffffffffffffffff1603611291576040517f08c379a000000000000000000000000000000000000000000000000000000000815260040161128890614f3e565b60405180910390fd5b80915050919050565b7f000000000000000000000000000000000000000000000000000000000000000081565b6112c6612162565b73ffffffffffffffffffffffffffffffffffffffff163373ffffffffffffffffffffffffffffffffffffffff1614611333576040517f08c379a000000000000000000000000000000000000000000000000000000000815260040161132a90614cc7565b60405180910390fd5b600082829050905060005b818110156113895761137684848381811061135c5761135b614e9d565b5b9050602002016020810190611371919061442e565b6120b3565b808061138190614f8d565b91505061133e565b50505050565b600060607f000000000000000000000000000000000000000000000000000000000000000061140d576001600467ffffffffffffffff8111156113d5576113d461454e565b5b6040519080825280602002602001820160405280156114035781602001602082028036833780820191505090505b5091509150611634565b60007f000000000000000000000000000000000000000000000000000000000000000073ffffffffffffffffffffffffffffffffffffffff166392254a62856040518263ffffffff1660e01b81526004016114689190614100565b602060405180830381865afa158015611485573d6000803e3d6000fd5b505050506040513d601f19601f820116820180604052508101906114a99190614bbc565b9050600081036114ee576040517f08c379a00000000000000000000000000000000000000000000000000000000081526004016114e590615047565b60405180910390fd5b6000600190506000600467ffffffffffffffff8111156115115761151061454e565b5b60405190808252806020026020018201604052801561153f5781602001602082028036833780820191505090505b50905061154b86612289565b61157c5760018160008151811061156557611564614e9d565b5b602002602001019015159081151581525050600091505b6115858661232e565b6115b65760018160018151811061159f5761159e614e9d565b5b602002602001019015159081151581525050600091505b6115bf836124b1565b6115f0576001816002815181106115d9576115d8614e9d565b5b602002602001019015159081151581525050600091505b6115f98361257c565b61162a5760018160038151811061161357611612614e9d565b5b602002602001019015159081151581525050600091505b8181945094505050505b915091565b7f000000000000000000000000000000000000000000000000000000000000000081565b60008073ffffffffffffffffffffffffffffffffffffffff168273ffffffffffffffffffffffffffffffffffffffff16036116cd576040517f08c379a00000000000000000000000000000000000000000000000000000000081526004016116c4906150d9565b60405180910390fd5b606860008373ffffffffffffffffffffffffffffffffffffffff1673ffffffffffffffffffffffffffffffffffffffff168152602001908152602001600020549050919050565b7f000000000000000000000000000000000000000000000000000000000000000081565b7f000000000000000000000000000000000000000000000000000000000000000081565b60606066805461176b9061490f565b80601f01602080910402602001604051908101604052809291908181526020018280546117979061490f565b80156117e45780601f106117b9576101008083540402835291602001916117e4565b820191906000526020600020905b8154815290600101906020018083116117c757829003601f168201915b5050505050905090565b60c980546117fb9061490f565b80601f01602080910402602001604051908101604052809291908181526020018280546118279061490f565b80156118745780601f1061184957610100808354040283529160200191611874565b820191906000526020600020905b81548152906001019060200180831161185757829003601f168201915b505050505081565b611884612162565b73ffffffffffffffffffffffffffffffffffffffff163373ffffffffffffffffffffffffffffffffffffffff16146118f1576040517f08c379a00000000000000000000000000000000000000000000000000000000081526004016118e890614cc7565b60405180910390fd5b8060c99080519060200190611907929190613e2f565b5050565b8160006daaeb6d7670e522a718067333cd4e73ffffffffffffffffffffffffffffffffffffffff163b1115611a06576daaeb6d7670e522a718067333cd4e73ffffffffffffffffffffffffffffffffffffffff1663c617113430836040518363ffffffff1660e01b81526004016119839291906149d2565b602060405180830381865afa1580156119a0573d6000803e3d6000fd5b505050506040513d601f19601f820116820180604052508101906119c49190614a10565b611a0557806040517fede71dcc0000000000000000000000000000000000000000000000000000000081526004016119fc9190614100565b60405180910390fd5b5b611a1083836126fa565b505050565b7f000000000000000000000000000000000000000000000000000000000000000081565b8360006daaeb6d7670e522a718067333cd4e73ffffffffffffffffffffffffffffffffffffffff163b1115611b78573373ffffffffffffffffffffffffffffffffffffffff168173ffffffffffffffffffffffffffffffffffffffff1603611aac57611aa785858585612710565b611b85565b6daaeb6d7670e522a718067333cd4e73ffffffffffffffffffffffffffffffffffffffff1663c617113430336040518363ffffffff1660e01b8152600401611af59291906149d2565b602060405180830381865afa158015611b12573d6000803e3d6000fd5b505050506040513d601f19601f82011682018060405250810190611b369190614a10565b611b7757336040517fede71dcc000000000000000000000000000000000000000000000000000000008152600401611b6e9190614100565b60405180910390fd5b5b611b8485858585612710565b5b5050505050565b7f000000000000000000000000000000000000000000000000000000000000000081565b6060611bbb82611ea6565b611bfa576040517f08c379a0000000000000000000000000000000000000000000000000000000008152600401611bf19061516b565b60405180910390fd5b6000611c04612772565b905060007f0000000000000000000000000000000000000000000000000000000000000000158015611c5557507f000000000000000000000000000000000000000000000000000000000000000084115b611c5f5783611c98565b60017f000000000000000000000000000000000000000000000000000000000000000085611c8d91906151ba565b611c9791906151eb565b5b90506000825111611cb85760405180602001604052806000815250611ce3565b81611cc282612804565b604051602001611cd39291906152c9565b6040516020818303038152906040525b92505050919050565b7f000000000000000000000000000000000000000000000000000000000000000081565b6000606a60008473ffffffffffffffffffffffffffffffffffffffff1673ffffffffffffffffffffffffffffffffffffffff16815260200190815260200160002060008373ffffffffffffffffffffffffffffffffffffffff1673ffffffffffffffffffffffffffffffffffffffff16815260200190815260200160002060009054906101000a900460ff16905092915050565b60cb6020528060005260406000206000915054906101000a900460ff1681565b60007f80ac58cd000000000000000000000000000000000000000000000000000000007bffffffffffffffffffffffffffffffffffffffffffffffffffffffff1916827bffffffffffffffffffffffffffffffffffffffffffffffffffffffff19161480611e8f57507f5b5e139f000000000000000000000000000000000000000000000000000000007bffffffffffffffffffffffffffffffffffffffffffffffffffffffff1916827bffffffffffffffffffffffffffffffffffffffffffffffffffffffff1916145b80611e9f5750611e9e82612964565b5b9050919050565b60008073ffffffffffffffffffffffffffffffffffffffff166067600084815260200190815260200160002060009054906101000a900473ffffffffffffffffffffffffffffffffffffffff1673ffffffffffffffffffffffffffffffffffffffff1614159050919050565b6000611f1d826111e9565b90508073ffffffffffffffffffffffffffffffffffffffff168373ffffffffffffffffffffffffffffffffffffffff1603611f8d576040517f08c379a0000000000000000000000000000000000000000000000000000000008152600401611f849061536a565b60405180910390fd5b8073ffffffffffffffffffffffffffffffffffffffff16611fac612081565b73ffffffffffffffffffffffffffffffffffffffff161480611fdb5750611fda81611fd5612081565b611d10565b5b61201a576040517f08c379a0000000000000000000000000000000000000000000000000000000008152600401612011906153fc565b60405180910390fd5b61202483836129ce565b505050565b60007f000000000000000000000000000000000000000000000000000000000000000073ffffffffffffffffffffffffffffffffffffffff168273ffffffffffffffffffffffffffffffffffffffff16149050919050565b600061208c33612029565b156120a057601436033560601c90506120af565b6120a8612a87565b90506120b0565b5b90565b60006120bd610c46565b90507f000000000000000000000000000000000000000000000000000000000000000015612148577f00000000000000000000000000000000000000000000000000000000000000008110612147576040517f08c379a000000000000000000000000000000000000000000000000000000000815260040161213e90615468565b60405180910390fd5b5b61215e8260018361215991906151eb565b612a8f565b5050565b60007fb53127684a568b3173ae13b9f8a6016e243e63b6e8ee1178d6a717850b5d610354905090565b61219c612196612081565b82612aad565b6121db576040517f08c379a00000000000000000000000000000000000000000000000000000000081526004016121d2906154fa565b60405180910390fd5b6121e6838383612b8b565b505050565b60006121f630612de6565b15905090565b600060019054906101000a900460ff1661224b576040517f08c379a00000000000000000000000000000000000000000000000000000000081526004016122429061558c565b60405180910390fd5b612253612df9565b61225d8282612e62565b612265612ecf565b5050565b61228483838360405180602001604052806000815250611a39565b505050565b6000807f000000000000000000000000000000000000000000000000000000000000000073ffffffffffffffffffffffffffffffffffffffff166370a08231846040518263ffffffff1660e01b81526004016122e59190614100565b602060405180830381865afa158015612302573d6000803e3d6000fd5b505050506040513d601f19601f820116820180604052508101906123269190614bbc565b119050919050565b6000807f000000000000000000000000000000000000000000000000000000000000000073ffffffffffffffffffffffffffffffffffffffff1663a9ec65637f00000000000000000000000000000000000000000000000000000000000000006040518263ffffffff1660e01b81526004016123aa91906141ef565b602060405180830381865afa1580156123c7573d6000803e3d6000fd5b505050506040513d601f19601f820116820180604052508101906123eb91906155c1565b9050600073ffffffffffffffffffffffffffffffffffffffff168173ffffffffffffffffffffffffffffffffffffffff160361242b5760009150506124ac565b60008173ffffffffffffffffffffffffffffffffffffffff166370a08231856040518263ffffffff1660e01b81526004016124669190614100565b602060405180830381865afa158015612483573d6000803e3d6000fd5b505050506040513d601f19601f820116820180604052508101906124a79190614bbc565b119150505b919050565b6000807f000000000000000000000000000000000000000000000000000000000000000073ffffffffffffffffffffffffffffffffffffffff16633a15ff07846040518263ffffffff1660e01b815260040161250d91906141ef565b602060405180830381865afa15801561252a573d6000803e3d6000fd5b505050506040513d601f19601f8201168201806040525081019061254e9190614bbc565b90507f0000000000000000000000000000000000000000000000000000000000000000811015915050919050565b6000807f000000000000000000000000000000000000000000000000000000000000000073ffffffffffffffffffffffffffffffffffffffff1663a9ec6563846040518263ffffffff1660e01b81526004016125d891906141ef565b602060405180830381865afa1580156125f5573d6000803e3d6000fd5b505050506040513d601f19601f8201168201806040525081019061261991906155c1565b9050600073ffffffffffffffffffffffffffffffffffffffff168173ffffffffffffffffffffffffffffffffffffffff16036126595760009150506126f5565b60008173ffffffffffffffffffffffffffffffffffffffff166318160ddd6040518163ffffffff1660e01b8152600401602060405180830381865afa1580156126a6573d6000803e3d6000fd5b505050506040513d601f19601f820116820180604052508101906126ca9190614bbc565b90507f0000000000000000000000000000000000000000000000000000000000000000811015925050505b919050565b61270c612705612081565b8383612f3f565b5050565b61272161271b612081565b83612aad565b612760576040517f08c379a0000000000000000000000000000000000000000000000000000000008152600401612757906154fa565b60405180910390fd5b61276c848484846130ab565b50505050565b606060c980546127819061490f565b80601f01602080910402602001604051908101604052809291908181526020018280546127ad9061490f565b80156127fa5780601f106127cf576101008083540402835291602001916127fa565b820191906000526020600020905b8154815290600101906020018083116127dd57829003601f168201915b5050505050905090565b60606000820361284b576040518060400160405280600181526020017f3000000000000000000000000000000000000000000000000000000000000000815250905061295f565b600082905060005b6000821461287d57808061286690614f8d565b915050600a8261287691906155ee565b9150612853565b60008167ffffffffffffffff8111156128995761289861454e565b5b6040519080825280601f01601f1916602001820160405280156128cb5781602001600182028036833780820191505090505b5090505b60008514612958576001826128e4919061561f565b9150600a856128f391906151ba565b60306128ff91906151eb565b60f81b81838151811061291557612914614e9d565b5b60200101907effffffffffffffffffffffffffffffffffffffffffffffffffffffffffffff1916908160001a905350600a8561295191906155ee565b94506128cf565b8093505050505b919050565b60007f01ffc9a7000000000000000000000000000000000000000000000000000000007bffffffffffffffffffffffffffffffffffffffffffffffffffffffff1916827bffffffffffffffffffffffffffffffffffffffffffffffffffffffff1916149050919050565b816069600083815260200190815260200160002060006101000a81548173ffffffffffffffffffffffffffffffffffffffff021916908373ffffffffffffffffffffffffffffffffffffffff160217905550808273ffffffffffffffffffffffffffffffffffffffff16612a41836111e9565b73ffffffffffffffffffffffffffffffffffffffff167f8c5be1e5ebec7d5bd14f71427d1e84f3dd0314c0f7b2291e5b200ac8c7c3b92560405160405180910390a45050565b600033905090565b612aa9828260405180602001604052806000815250613107565b5050565b6000612ab882611ea6565b612af7576040517f08c379a0000000000000000000000000000000000000000000000000000000008152600401612aee906156c5565b60405180910390fd5b6000612b02836111e9565b90508073ffffffffffffffffffffffffffffffffffffffff168473ffffffffffffffffffffffffffffffffffffffff161480612b7157508373ffffffffffffffffffffffffffffffffffffffff16612b5984610779565b73ffffffffffffffffffffffffffffffffffffffff16145b80612b825750612b818185611d10565b5b91505092915050565b8273ffffffffffffffffffffffffffffffffffffffff16612bab826111e9565b73ffffffffffffffffffffffffffffffffffffffff1614612c01576040517f08c379a0000000000000000000000000000000000000000000000000000000008152600401612bf890615757565b60405180910390fd5b600073ffffffffffffffffffffffffffffffffffffffff168273ffffffffffffffffffffffffffffffffffffffff1603612c70576040517f08c379a0000000000000000000000000000000000000000000000000000000008152600401612c67906157e9565b60405180910390fd5b612c7b838383613162565b612c866000826129ce565b6001606860008573ffffffffffffffffffffffffffffffffffffffff1673ffffffffffffffffffffffffffffffffffffffff1681526020019081526020016000206000828254612cd6919061561f565b925050819055506001606860008473ffffffffffffffffffffffffffffffffffffffff1673ffffffffffffffffffffffffffffffffffffffff1681526020019081526020016000206000828254612d2d91906151eb565b92505081905550816067600083815260200190815260200160002060006101000a81548173ffffffffffffffffffffffffffffffffffffffff021916908373ffffffffffffffffffffffffffffffffffffffff160217905550808273ffffffffffffffffffffffffffffffffffffffff168473ffffffffffffffffffffffffffffffffffffffff167fddf252ad1be2c89b69c2b068fc378daa952ba7f163c4a11628f55a4df523b3ef60405160405180910390a4505050565b600080823b905060008111915050919050565b600060019054906101000a900460ff16612e48576040517f08c379a0000000000000000000000000000000000000000000000000000000008152600401612e3f9061558c565b60405180910390fd5b612e506131b0565b612e58613201565b612e60613252565b565b600060019054906101000a900460ff16612eb1576040517f08c379a0000000000000000000000000000000000000000000000000000000008152600401612ea89061558c565b60405180910390fd5b612eb96131b0565b612ec1613201565b612ecb82826132a3565b5050565b600060019054906101000a900460ff16612f1e576040517f08c379a0000000000000000000000000000000000000000000000000000000008152600401612f159061558c565b60405180910390fd5b612f3d733cc6cdda760b79bafa08df41ecfa224f810dceb66001613324565b565b8173ffffffffffffffffffffffffffffffffffffffff168373ffffffffffffffffffffffffffffffffffffffff1603612fad576040517f08c379a0000000000000000000000000000000000000000000000000000000008152600401612fa490615855565b60405180910390fd5b80606a60008573ffffffffffffffffffffffffffffffffffffffff1673ffffffffffffffffffffffffffffffffffffffff16815260200190815260200160002060008473ffffffffffffffffffffffffffffffffffffffff1673ffffffffffffffffffffffffffffffffffffffff16815260200190815260200160002060006101000a81548160ff0219169083151502179055508173ffffffffffffffffffffffffffffffffffffffff168373ffffffffffffffffffffffffffffffffffffffff167f17307eab39ab6107e8899845ad3d59bd9653f200f220920489ca2b5937696c318360405161309e9190613f86565b60405180910390a3505050565b6130b6848484612b8b565b6130c2848484846135ea565b613101576040517f08c379a00000000000000000000000000000000000000000000000000000000081526004016130f8906158e7565b60405180910390fd5b50505050565b6131118383613771565b61311e60008484846135ea565b61315d576040517f08c379a0000000000000000000000000000000000000000000000000000000008152600401613154906158e7565b60405180910390fd5b505050565b600073ffffffffffffffffffffffffffffffffffffffff168273ffffffffffffffffffffffffffffffffffffffff16146131a05761319f8261393e565b5b6131ab83838361398c565b505050565b600060019054906101000a900460ff166131ff576040517f08c379a00000000000000000000000000000000000000000000000000000000081526004016131f69061558c565b60405180910390fd5b565b600060019054906101000a900460ff16613250576040517f08c379a00000000000000000000000000000000000000000000000000000000081526004016132479061558c565b60405180910390fd5b565b600060019054906101000a900460ff166132a1576040517f08c379a00000000000000000000000000000000000000000000000000000000081526004016132989061558c565b60405180910390fd5b565b600060019054906101000a900460ff166132f2576040517f08c379a00000000000000000000000000000000000000000000000000000000081526004016132e99061558c565b60405180910390fd5b8160659080519060200190613308929190613e2f565b50806066908051906020019061331f929190613e2f565b505050565b600060019054906101000a900460ff16613373576040517f08c379a000000000000000000000000000000000000000000000000000000000815260040161336a9061558c565b60405180910390fd5b60006daaeb6d7670e522a718067333cd4e73ffffffffffffffffffffffffffffffffffffffff163b11156135e6576daaeb6d7670e522a718067333cd4e73ffffffffffffffffffffffffffffffffffffffff1663c3c5a547306040518263ffffffff1660e01b81526004016133e89190614100565b6020604051808303816000875af1158015613407573d6000803e3d6000fd5b505050506040513d601f19601f8201168201806040525081019061342b9190614a10565b6135e55780156134b5576daaeb6d7670e522a718067333cd4e73ffffffffffffffffffffffffffffffffffffffff16637d3e3dbe30846040518363ffffffff1660e01b815260040161347e9291906149d2565b600060405180830381600087803b15801561349857600080fd5b505af11580156134ac573d6000803e3d6000fd5b505050506135e4565b600073ffffffffffffffffffffffffffffffffffffffff168273ffffffffffffffffffffffffffffffffffffffff1614613569576daaeb6d7670e522a718067333cd4e73ffffffffffffffffffffffffffffffffffffffff1663a0af290330846040518363ffffffff1660e01b81526004016135329291906149d2565b600060405180830381600087803b15801561354c57600080fd5b505af1158015613560573d6000803e3d6000fd5b505050506135e3565b6daaeb6d7670e522a718067333cd4e73ffffffffffffffffffffffffffffffffffffffff16634420e486306040518263ffffffff1660e01b81526004016135b09190614100565b600060405180830381600087803b1580156135ca57600080fd5b505af11580156135de573d6000803e3d6000fd5b505050505b5b5b5b5050565b600061360b8473ffffffffffffffffffffffffffffffffffffffff16612de6565b15613764578373ffffffffffffffffffffffffffffffffffffffff1663150b7a02613634612081565b8786866040518563ffffffff1660e01b8152600401613656949392919061595c565b6020604051808303816000875af192505050801561369257506040513d601f19601f8201168201806040525081019061368f91906159bd565b60015b613714573d80600081146136c2576040519150601f19603f3d011682016040523d82523d6000602084013e6136c7565b606091505b50600081510361370c576040517f08c379a0000000000000000000000000000000000000000000000000000000008152600401613703906158e7565b60405180910390fd5b805181602001fd5b63150b7a0260e01b7bffffffffffffffffffffffffffffffffffffffffffffffffffffffff1916817bffffffffffffffffffffffffffffffffffffffffffffffffffffffff191614915050613769565b600190505b949350505050565b600073ffffffffffffffffffffffffffffffffffffffff168273ffffffffffffffffffffffffffffffffffffffff16036137e0576040517f08c379a00000000000000000000000000000000000000000000000000000000081526004016137d790615a36565b60405180910390fd5b6137e981611ea6565b15613829576040517f08c379a000000000000000000000000000000000000000000000000000000000815260040161382090615aa2565b60405180910390fd5b61383560008383613162565b6001606860008473ffffffffffffffffffffffffffffffffffffffff1673ffffffffffffffffffffffffffffffffffffffff168152602001908152602001600020600082825461388591906151eb565b92505081905550816067600083815260200190815260200160002060006101000a81548173ffffffffffffffffffffffffffffffffffffffff021916908373ffffffffffffffffffffffffffffffffffffffff160217905550808273ffffffffffffffffffffffffffffffffffffffff16600073ffffffffffffffffffffffffffffffffffffffff167fddf252ad1be2c89b69c2b068fc378daa952ba7f163c4a11628f55a4df523b3ef60405160405180910390a45050565b60006139498261165d565b14613989576040517f08c379a000000000000000000000000000000000000000000000000000000000815260040161398090615b0e565b60405180910390fd5b50565b613997838383613a9e565b600073ffffffffffffffffffffffffffffffffffffffff168373ffffffffffffffffffffffffffffffffffffffff16036139d9576139d481613aa3565b613a18565b8173ffffffffffffffffffffffffffffffffffffffff168373ffffffffffffffffffffffffffffffffffffffff1614613a1757613a168382613aec565b5b5b600073ffffffffffffffffffffffffffffffffffffffff168273ffffffffffffffffffffffffffffffffffffffff1603613a5a57613a5581613c59565b613a99565b8273ffffffffffffffffffffffffffffffffffffffff168273ffffffffffffffffffffffffffffffffffffffff1614613a9857613a978282613d2a565b5b5b505050565b505050565b609980549050609a600083815260200190815260200160002081905550609981908060018154018082558091505060019003906000526020600020016000909190919091505550565b60006001613af98461165d565b613b03919061561f565b9050600060986000848152602001908152602001600020549050818114613be8576000609760008673ffffffffffffffffffffffffffffffffffffffff1673ffffffffffffffffffffffffffffffffffffffff168152602001908152602001600020600084815260200190815260200160002054905080609760008773ffffffffffffffffffffffffffffffffffffffff1673ffffffffffffffffffffffffffffffffffffffff168152602001908152602001600020600084815260200190815260200160002081905550816098600083815260200190815260200160002081905550505b6098600084815260200190815260200160002060009055609760008573ffffffffffffffffffffffffffffffffffffffff1673ffffffffffffffffffffffffffffffffffffffff16815260200190815260200160002060008381526020019081526020016000206000905550505050565b60006001609980549050613c6d919061561f565b90506000609a6000848152602001908152602001600020549050600060998381548110613c9d57613c9c614e9d565b5b906000526020600020015490508060998381548110613cbf57613cbe614e9d565b5b906000526020600020018190555081609a600083815260200190815260200160002081905550609a6000858152602001908152602001600020600090556099805480613d0e57613d0d615b2e565b5b6001900381819060005260206000200160009055905550505050565b6000613d358361165d565b905081609760008573ffffffffffffffffffffffffffffffffffffffff1673ffffffffffffffffffffffffffffffffffffffff168152602001908152602001600020600083815260200190815260200160002081905550806098600084815260200190815260200160002081905550505050565b828054613db59061490f565b90600052602060002090601f016020900481019282613dd75760008555613e1e565b82601f10613df057803560ff1916838001178555613e1e565b82800160010185558215613e1e579182015b82811115613e1d578235825591602001919060010190613e02565b5b509050613e2b9190613eb5565b5090565b828054613e3b9061490f565b90600052602060002090601f016020900481019282613e5d5760008555613ea4565b82601f10613e7657805160ff1916838001178555613ea4565b82800160010185558215613ea4579182015b82811115613ea3578251825591602001919060010190613e88565b5b509050613eb19190613eb5565b5090565b5b80821115613ece576000816000905550600101613eb6565b5090565b6000604051905090565b600080fd5b600080fd5b60007fffffffff0000000000000000000000000000000000000000000000000000000082169050919050565b613f1b81613ee6565b8114613f2657600080fd5b50565b600081359050613f3881613f12565b92915050565b600060208284031215613f5457613f53613edc565b5b6000613f6284828501613f29565b91505092915050565b60008115159050919050565b613f8081613f6b565b82525050565b6000602082019050613f9b6000830184613f77565b92915050565b600081519050919050565b600082825260208201905092915050565b60005b83811015613fdb578082015181840152602081019050613fc0565b83811115613fea576000848401525b50505050565b6000601f19601f8301169050919050565b600061400c82613fa1565b6140168185613fac565b9350614026818560208601613fbd565b61402f81613ff0565b840191505092915050565b600060208201905081810360008301526140548184614001565b905092915050565b6000819050919050565b61406f8161405c565b811461407a57600080fd5b50565b60008135905061408c81614066565b92915050565b6000602082840312156140a8576140a7613edc565b5b60006140b68482850161407d565b91505092915050565b600073ffffffffffffffffffffffffffffffffffffffff82169050919050565b60006140ea826140bf565b9050919050565b6140fa816140df565b82525050565b600060208201905061411560008301846140f1565b92915050565b614124816140df565b811461412f57600080fd5b50565b6000813590506141418161411b565b92915050565b6000806040838503121561415e5761415d613edc565b5b600061416c85828601614132565b925050602061417d8582860161407d565b9150509250929050565b61419081613f6b565b811461419b57600080fd5b50565b6000813590506141ad81614187565b92915050565b6000602082840312156141c9576141c8613edc565b5b60006141d78482850161419e565b91505092915050565b6141e98161405c565b82525050565b600060208201905061420460008301846141e0565b92915050565b60008060006060848603121561422357614222613edc565b5b600061423186828701614132565b935050602061424286828701614132565b92505060406142538682870161407d565b9150509250925092565b600080fd5b600080fd5b600080fd5b60008083601f8401126142825761428161425d565b5b8235905067ffffffffffffffff81111561429f5761429e614262565b5b6020830191508360018202830111156142bb576142ba614267565b5b9250929050565b60008060008060008060006080888a0312156142e1576142e0613edc565b5b600088013567ffffffffffffffff8111156142ff576142fe613ee1565b5b61430b8a828b0161426c565b9750975050602088013567ffffffffffffffff81111561432e5761432d613ee1565b5b61433a8a828b0161426c565b9550955050604088013567ffffffffffffffff81111561435d5761435c613ee1565b5b6143698a828b0161426c565b9350935050606061437c8a828b0161419e565b91505092959891949750929550565b60008083601f8401126143a1576143a061425d565b5b8235905067ffffffffffffffff8111156143be576143bd614262565b5b6020830191508360208202830111156143da576143d9614267565b5b9250929050565b600080602083850312156143f8576143f7613edc565b5b600083013567ffffffffffffffff81111561441657614415613ee1565b5b6144228582860161438b565b92509250509250929050565b60006020828403121561444457614443613edc565b5b600061445284828501614132565b91505092915050565b600081519050919050565b600082825260208201905092915050565b6000819050602082019050919050565b61449081613f6b565b82525050565b60006144a28383614487565b60208301905092915050565b6000602082019050919050565b60006144c68261445b565b6144d08185614466565b93506144db83614477565b8060005b8381101561450c5781516144f38882614496565b97506144fe836144ae565b9250506001810190506144df565b5085935050505092915050565b600060408201905061452e6000830185613f77565b818103602083015261454081846144bb565b90509392505050565b600080fd5b7f4e487b7100000000000000000000000000000000000000000000000000000000600052604160045260246000fd5b61458682613ff0565b810181811067ffffffffffffffff821117156145a5576145a461454e565b5b80604052505050565b60006145b8613ed2565b90506145c4828261457d565b919050565b600067ffffffffffffffff8211156145e4576145e361454e565b5b6145ed82613ff0565b9050602081019050919050565b82818337600083830152505050565b600061461c614617846145c9565b6145ae565b90508281526020810184848401111561463857614637614549565b5b6146438482856145fa565b509392505050565b600082601f8301126146605761465f61425d565b5b8135614670848260208601614609565b91505092915050565b60006020828403121561468f5761468e613edc565b5b600082013567ffffffffffffffff8111156146ad576146ac613ee1565b5b6146b98482850161464b565b91505092915050565b600080604083850312156146d9576146d8613edc565b5b60006146e785828601614132565b92505060206146f88582860161419e565b9150509250929050565b6000819050919050565b600061472761472261471d846140bf565b614702565b6140bf565b9050919050565b60006147398261470c565b9050919050565b600061474b8261472e565b9050919050565b61475b81614740565b82525050565b60006020820190506147766000830184614752565b92915050565b600067ffffffffffffffff8211156147975761479661454e565b5b6147a082613ff0565b9050602081019050919050565b60006147c06147bb8461477c565b6145ae565b9050828152602081018484840111156147dc576147db614549565b5b6147e78482856145fa565b509392505050565b600082601f8301126148045761480361425d565b5b81356148148482602086016147ad565b91505092915050565b6000806000806080858703121561483757614836613edc565b5b600061484587828801614132565b945050602061485687828801614132565b93505060406148678782880161407d565b925050606085013567ffffffffffffffff81111561488857614887613ee1565b5b614894878288016147ef565b91505092959194509250565b600080604083850312156148b7576148b6613edc565b5b60006148c585828601614132565b92505060206148d685828601614132565b9150509250929050565b7f4e487b7100000000000000000000000000000000000000000000000000000000600052602260045260246000fd5b6000600282049050600182168061492757607f821691505b60208210810361493a576149396148e0565b5b50919050565b7f4552433732313a20617070726f76656420717565727920666f72206e6f6e657860008201527f697374656e7420746f6b656e0000000000000000000000000000000000000000602082015250565b600061499c602c83613fac565b91506149a782614940565b604082019050919050565b600060208201905081810360008301526149cb8161498f565b9050919050565b60006040820190506149e760008301856140f1565b6149f460208301846140f1565b9392505050565b600081519050614a0a81614187565b92915050565b600060208284031215614a2657614a25613edc565b5b6000614a34848285016149fb565b91505092915050565b7f4b6f727544616f4e46543a205061757365640000000000000000000000000000600082015250565b6000614a73601283613fac565b9150614a7e82614a3d565b602082019050919050565b60006020820190508181036000830152614aa281614a66565b9050919050565b7f4f6e6c792047656c61746f52656c617900000000000000000000000000000000600082015250565b6000614adf601083613fac565b9150614aea82614aa9565b602082019050919050565b60006020820190508181036000830152614b0e81614ad2565b9050919050565b7f4d696e745265737472696374696f6e733a2057616c6c657420646f6573206e6f60008201527f74206d6565742063726974657269610000000000000000000000000000000000602082015250565b6000614b71602f83613fac565b9150614b7c82614b15565b604082019050919050565b60006020820190508181036000830152614ba081614b64565b9050919050565b600081519050614bb681614066565b92915050565b600060208284031215614bd257614bd1613edc565b5b6000614be084828501614ba7565b91505092915050565b7f4d696e745265737472696374696f6e733a20416c7265616479206d696e74656460008201527f2077697468206c656e732070726f66696c650000000000000000000000000000602082015250565b6000614c45603283613fac565b9150614c5082614be9565b604082019050919050565b60006020820190508181036000830152614c7481614c38565b9050919050565b7f4e4f545f415554484f52495a4544000000000000000000000000000000000000600082015250565b6000614cb1600e83613fac565b9150614cbc82614c7b565b602082019050919050565b60006020820190508181036000830152614ce081614ca4565b9050919050565b7f496e697469616c697a61626c653a20636f6e747261637420697320616c72656160008201527f647920696e697469616c697a6564000000000000000000000000000000000000602082015250565b6000614d43602e83613fac565b9150614d4e82614ce7565b604082019050919050565b60006020820190508181036000830152614d7281614d36565b9050919050565b7f455243373231456e756d657261626c653a206f776e657220696e646578206f7560008201527f74206f6620626f756e6473000000000000000000000000000000000000000000602082015250565b6000614dd5602b83613fac565b9150614de082614d79565b604082019050919050565b60006020820190508181036000830152614e0481614dc8565b9050919050565b7f455243373231456e756d657261626c653a20676c6f62616c20696e646578206f60008201527f7574206f6620626f756e64730000000000000000000000000000000000000000602082015250565b6000614e67602c83613fac565b9150614e7282614e0b565b604082019050919050565b60006020820190508181036000830152614e9681614e5a565b9050919050565b7f4e487b7100000000000000000000000000000000000000000000000000000000600052603260045260246000fd5b7f4552433732313a206f776e657220717565727920666f72206e6f6e657869737460008201527f656e7420746f6b656e0000000000000000000000000000000000000000000000602082015250565b6000614f28602983613fac565b9150614f3382614ecc565b604082019050919050565b60006020820190508181036000830152614f5781614f1b565b9050919050565b7f4e487b7100000000000000000000000000000000000000000000000000000000600052601160045260246000fd5b6000614f988261405c565b91507fffffffffffffffffffffffffffffffffffffffffffffffffffffffffffffffff8203614fca57614fc9614f5e565b5b600182019050919050565b7f4d696e745265737472696374696f6e733a2057616c6c657420646f6573206e6f60008201527f7420686176652064656661756c742070726f66696c6500000000000000000000602082015250565b6000615031603683613fac565b915061503c82614fd5565b604082019050919050565b6000602082019050818103600083015261506081615024565b9050919050565b7f4552433732313a2062616c616e636520717565727920666f7220746865207a6560008201527f726f206164647265737300000000000000000000000000000000000000000000602082015250565b60006150c3602a83613fac565b91506150ce82615067565b604082019050919050565b600060208201905081810360008301526150f2816150b6565b9050919050565b7f4552433732314d657461646174613a2055524920717565727920666f72206e6f60008201527f6e6578697374656e7420746f6b656e0000000000000000000000000000000000602082015250565b6000615155602f83613fac565b9150615160826150f9565b604082019050919050565b6000602082019050818103600083015261518481615148565b9050919050565b7f4e487b7100000000000000000000000000000000000000000000000000000000600052601260045260246000fd5b60006151c58261405c565b91506151d08361405c565b9250826151e0576151df61518b565b5b828206905092915050565b60006151f68261405c565b91506152018361405c565b9250827fffffffffffffffffffffffffffffffffffffffffffffffffffffffffffffffff0382111561523657615235614f5e565b5b828201905092915050565b600081905092915050565b600061525782613fa1565b6152618185615241565b9350615271818560208601613fbd565b80840191505092915050565b7f2e6a736f6e000000000000000000000000000000000000000000000000000000600082015250565b60006152b3600583615241565b91506152be8261527d565b600582019050919050565b60006152d5828561524c565b91506152e1828461524c565b91506152ec826152a6565b91508190509392505050565b7f4552433732313a20617070726f76616c20746f2063757272656e74206f776e6560008201527f7200000000000000000000000000000000000000000000000000000000000000602082015250565b6000615354602183613fac565b915061535f826152f8565b604082019050919050565b6000602082019050818103600083015261538381615347565b9050919050565b7f4552433732313a20617070726f76652063616c6c6572206973206e6f74206f7760008201527f6e6572206e6f7220617070726f76656420666f7220616c6c0000000000000000602082015250565b60006153e6603883613fac565b91506153f18261538a565b604082019050919050565b60006020820190508181036000830152615415816153d9565b9050919050565b7f4b6f727544616f4e46543a204d617820537570706c7900000000000000000000600082015250565b6000615452601683613fac565b915061545d8261541c565b602082019050919050565b6000602082019050818103600083015261548181615445565b9050919050565b7f4552433732313a207472616e736665722063616c6c6572206973206e6f74206f60008201527f776e6572206e6f7220617070726f766564000000000000000000000000000000602082015250565b60006154e4603183613fac565b91506154ef82615488565b604082019050919050565b60006020820190508181036000830152615513816154d7565b9050919050565b7f496e697469616c697a61626c653a20636f6e7472616374206973206e6f74206960008201527f6e697469616c697a696e67000000000000000000000000000000000000000000602082015250565b6000615576602b83613fac565b91506155818261551a565b604082019050919050565b600060208201905081810360008301526155a581615569565b9050919050565b6000815190506155bb8161411b565b92915050565b6000602082840312156155d7576155d6613edc565b5b60006155e5848285016155ac565b91505092915050565b60006155f98261405c565b91506156048361405c565b9250826156145761561361518b565b5b828204905092915050565b600061562a8261405c565b91506156358361405c565b92508282101561564857615647614f5e565b5b828203905092915050565b7f4552433732313a206f70657261746f7220717565727920666f72206e6f6e657860008201527f697374656e7420746f6b656e0000000000000000000000000000000000000000602082015250565b60006156af602c83613fac565b91506156ba82615653565b604082019050919050565b600060208201905081810360008301526156de816156a2565b9050919050565b7f4552433732313a207472616e73666572206f6620746f6b656e2074686174206960008201527f73206e6f74206f776e0000000000000000000000000000000000000000000000602082015250565b6000615741602983613fac565b915061574c826156e5565b604082019050919050565b6000602082019050818103600083015261577081615734565b9050919050565b7f4552433732313a207472616e7366657220746f20746865207a65726f2061646460008201527f7265737300000000000000000000000000000000000000000000000000000000602082015250565b60006157d3602483613fac565b91506157de82615777565b604082019050919050565b60006020820190508181036000830152615802816157c6565b9050919050565b7f4552433732313a20617070726f766520746f2063616c6c657200000000000000600082015250565b600061583f601983613fac565b915061584a82615809565b602082019050919050565b6000602082019050818103600083015261586e81615832565b9050919050565b7f4552433732313a207472616e7366657220746f206e6f6e20455243373231526560008201527f63656976657220696d706c656d656e7465720000000000000000000000000000602082015250565b60006158d1603283613fac565b91506158dc82615875565b604082019050919050565b60006020820190508181036000830152615900816158c4565b9050919050565b600081519050919050565b600082825260208201905092915050565b600061592e82615907565b6159388185615912565b9350615948818560208601613fbd565b61595181613ff0565b840191505092915050565b600060808201905061597160008301876140f1565b61597e60208301866140f1565b61598b60408301856141e0565b818103606083015261599d8184615923565b905095945050505050565b6000815190506159b781613f12565b92915050565b6000602082840312156159d3576159d2613edc565b5b60006159e1848285016159a8565b91505092915050565b7f4552433732313a206d696e7420746f20746865207a65726f2061646472657373600082015250565b6000615a20602083613fac565b9150615a2b826159ea565b602082019050919050565b60006020820190508181036000830152615a4f81615a13565b9050919050565b7f4552433732313a20746f6b656e20616c7265616479206d696e74656400000000600082015250565b6000615a8c601c83613fac565b9150615a9782615a56565b602082019050919050565b60006020820190508181036000830152615abb81615a7f565b9050919050565b7f4b6f727544616f4e46543a204f6e6520706572206163636f756e740000000000600082015250565b6000615af8601b83613fac565b9150615b0382615ac2565b602082019050919050565b60006020820190508181036000830152615b2781615aeb565b9050919050565b7f4e487b7100000000000000000000000000000000000000000000000000000000600052603160045260246000fdfea264697066735822122097f88df58774dd246403c61982e52fe15997c8312628d7011b0e1ee577224c8e64736f6c634300080e0033",
  "devdoc": {
    "kind": "dev",
    "methods": {
      "balanceOf(address)": {
        "details": "See {IERC721-balanceOf}."
      },
      "getApproved(uint256)": {
        "details": "See {IERC721-getApproved}."
      },
      "isApprovedForAll(address,address)": {
        "details": "See {IERC721-isApprovedForAll}."
      },
      "name()": {
        "details": "See {IERC721Metadata-name}."
      },
      "ownerOf(uint256)": {
        "details": "See {IERC721-ownerOf}."
      },
      "supportsInterface(bytes4)": {
        "details": "See {IERC165-supportsInterface}."
      },
      "symbol()": {
        "details": "See {IERC721Metadata-symbol}."
      },
      "tokenByIndex(uint256)": {
        "details": "See {IERC721Enumerable-tokenByIndex}."
      },
      "tokenOfOwnerByIndex(address,uint256)": {
        "details": "See {IERC721Enumerable-tokenOfOwnerByIndex}."
      },
      "tokenURI(uint256)": {
        "details": "See {IERC721Metadata-tokenURI}."
      },
      "totalSupply()": {
        "details": "See {IERC721Enumerable-totalSupply}."
      }
    },
    "version": 1
  },
  "userdoc": {
    "kind": "user",
    "methods": {},
    "version": 1
  },
  "storageLayout": {
    "storage": [
      {
        "astId": 6,
        "contract": "contracts/KoruDaoNFT.sol:KoruDaoNFT",
        "label": "_initialized",
        "offset": 0,
        "slot": "0",
        "type": "t_bool"
      },
      {
        "astId": 9,
        "contract": "contracts/KoruDaoNFT.sol:KoruDaoNFT",
        "label": "_initializing",
        "offset": 1,
        "slot": "0",
        "type": "t_bool"
      },
      {
        "astId": 1780,
        "contract": "contracts/KoruDaoNFT.sol:KoruDaoNFT",
        "label": "__gap",
        "offset": 0,
        "slot": "1",
        "type": "t_array(t_uint256)50_storage"
      },
      {
        "astId": 2029,
        "contract": "contracts/KoruDaoNFT.sol:KoruDaoNFT",
        "label": "__gap",
        "offset": 0,
        "slot": "51",
        "type": "t_array(t_uint256)50_storage"
      },
      {
        "astId": 102,
        "contract": "contracts/KoruDaoNFT.sol:KoruDaoNFT",
        "label": "_name",
        "offset": 0,
        "slot": "101",
        "type": "t_string_storage"
      },
      {
        "astId": 104,
        "contract": "contracts/KoruDaoNFT.sol:KoruDaoNFT",
        "label": "_symbol",
        "offset": 0,
        "slot": "102",
        "type": "t_string_storage"
      },
      {
        "astId": 108,
        "contract": "contracts/KoruDaoNFT.sol:KoruDaoNFT",
        "label": "_owners",
        "offset": 0,
        "slot": "103",
        "type": "t_mapping(t_uint256,t_address)"
      },
      {
        "astId": 112,
        "contract": "contracts/KoruDaoNFT.sol:KoruDaoNFT",
        "label": "_balances",
        "offset": 0,
        "slot": "104",
        "type": "t_mapping(t_address,t_uint256)"
      },
      {
        "astId": 116,
        "contract": "contracts/KoruDaoNFT.sol:KoruDaoNFT",
        "label": "_tokenApprovals",
        "offset": 0,
        "slot": "105",
        "type": "t_mapping(t_uint256,t_address)"
      },
      {
        "astId": 122,
        "contract": "contracts/KoruDaoNFT.sol:KoruDaoNFT",
        "label": "_operatorApprovals",
        "offset": 0,
        "slot": "106",
        "type": "t_mapping(t_address,t_mapping(t_address,t_bool))"
      },
      {
        "astId": 933,
        "contract": "contracts/KoruDaoNFT.sol:KoruDaoNFT",
        "label": "__gap",
        "offset": 0,
        "slot": "107",
        "type": "t_array(t_uint256)44_storage"
      },
      {
        "astId": 1107,
        "contract": "contracts/KoruDaoNFT.sol:KoruDaoNFT",
        "label": "_ownedTokens",
        "offset": 0,
        "slot": "151",
        "type": "t_mapping(t_address,t_mapping(t_uint256,t_uint256))"
      },
      {
        "astId": 1111,
        "contract": "contracts/KoruDaoNFT.sol:KoruDaoNFT",
        "label": "_ownedTokensIndex",
        "offset": 0,
        "slot": "152",
        "type": "t_mapping(t_uint256,t_uint256)"
      },
      {
        "astId": 1114,
        "contract": "contracts/KoruDaoNFT.sol:KoruDaoNFT",
        "label": "_allTokens",
        "offset": 0,
        "slot": "153",
        "type": "t_array(t_uint256)dyn_storage"
      },
      {
        "astId": 1118,
        "contract": "contracts/KoruDaoNFT.sol:KoruDaoNFT",
        "label": "_allTokensIndex",
        "offset": 0,
        "slot": "154",
        "type": "t_mapping(t_uint256,t_uint256)"
      },
      {
        "astId": 1433,
        "contract": "contracts/KoruDaoNFT.sol:KoruDaoNFT",
        "label": "__gap",
        "offset": 0,
        "slot": "155",
        "type": "t_array(t_uint256)46_storage"
      },
      {
        "astId": 3740,
        "contract": "contracts/KoruDaoNFT.sol:KoruDaoNFT",
        "label": "baseUri",
        "offset": 0,
        "slot": "201",
        "type": "t_string_storage"
      },
      {
        "astId": 3742,
        "contract": "contracts/KoruDaoNFT.sol:KoruDaoNFT",
        "label": "paused",
        "offset": 0,
        "slot": "202",
        "type": "t_bool"
      },
      {
        "astId": 3746,
        "contract": "contracts/KoruDaoNFT.sol:KoruDaoNFT",
        "label": "lensProfileMinted",
        "offset": 0,
        "slot": "203",
        "type": "t_mapping(t_uint256,t_bool)"
      }
    ],
    "types": {
      "t_address": {
        "encoding": "inplace",
        "label": "address",
        "numberOfBytes": "20"
      },
      "t_array(t_uint256)44_storage": {
        "base": "t_uint256",
        "encoding": "inplace",
        "label": "uint256[44]",
        "numberOfBytes": "1408"
      },
      "t_array(t_uint256)46_storage": {
        "base": "t_uint256",
        "encoding": "inplace",
        "label": "uint256[46]",
        "numberOfBytes": "1472"
      },
      "t_array(t_uint256)50_storage": {
        "base": "t_uint256",
        "encoding": "inplace",
        "label": "uint256[50]",
        "numberOfBytes": "1600"
      },
      "t_array(t_uint256)dyn_storage": {
        "base": "t_uint256",
        "encoding": "dynamic_array",
        "label": "uint256[]",
        "numberOfBytes": "32"
      },
      "t_bool": {
        "encoding": "inplace",
        "label": "bool",
        "numberOfBytes": "1"
      },
      "t_mapping(t_address,t_bool)": {
        "encoding": "mapping",
        "key": "t_address",
        "label": "mapping(address => bool)",
        "numberOfBytes": "32",
        "value": "t_bool"
      },
      "t_mapping(t_address,t_mapping(t_address,t_bool))": {
        "encoding": "mapping",
        "key": "t_address",
        "label": "mapping(address => mapping(address => bool))",
        "numberOfBytes": "32",
        "value": "t_mapping(t_address,t_bool)"
      },
      "t_mapping(t_address,t_mapping(t_uint256,t_uint256))": {
        "encoding": "mapping",
        "key": "t_address",
        "label": "mapping(address => mapping(uint256 => uint256))",
        "numberOfBytes": "32",
        "value": "t_mapping(t_uint256,t_uint256)"
      },
      "t_mapping(t_address,t_uint256)": {
        "encoding": "mapping",
        "key": "t_address",
        "label": "mapping(address => uint256)",
        "numberOfBytes": "32",
        "value": "t_uint256"
      },
      "t_mapping(t_uint256,t_address)": {
        "encoding": "mapping",
        "key": "t_uint256",
        "label": "mapping(uint256 => address)",
        "numberOfBytes": "32",
        "value": "t_address"
      },
      "t_mapping(t_uint256,t_bool)": {
        "encoding": "mapping",
        "key": "t_uint256",
        "label": "mapping(uint256 => bool)",
        "numberOfBytes": "32",
        "value": "t_bool"
      },
      "t_mapping(t_uint256,t_uint256)": {
        "encoding": "mapping",
        "key": "t_uint256",
        "label": "mapping(uint256 => uint256)",
        "numberOfBytes": "32",
        "value": "t_uint256"
      },
      "t_string_storage": {
        "encoding": "bytes",
        "label": "string",
        "numberOfBytes": "32"
      },
      "t_uint256": {
        "encoding": "inplace",
        "label": "uint256",
        "numberOfBytes": "32"
      }
    }
  }
}