{
  "address": "0x2732AbdF8141332B5b19faCb9d5466eeaf7370a8",
  "abi": [
    {
      "inputs": [
        {
          "internalType": "address",
          "name": "_gelatoRelay",
          "type": "address"
        },
        {
          "internalType": "contract ILensHub",
          "name": "_lensHub",
          "type": "address"
        },
        {
          "internalType": "uint256",
          "name": "_koruDaoProfileId",
          "type": "uint256"
        }
      ],
      "stateMutability": "nonpayable",
      "type": "constructor"
    },
    {
      "anonymous": false,
      "inputs": [
        {
          "indexed": true,
          "internalType": "address",
          "name": "user",
          "type": "address"
        },
        {
          "indexed": true,
          "internalType": "uint256",
          "name": "token",
          "type": "uint256"
        },
        {
          "indexed": true,
          "internalType": "uint256[]",
          "name": "followTokenIds",
          "type": "uint256[]"
        },
        {
          "indexed": false,
          "internalType": "uint256",
          "name": "time",
          "type": "uint256"
        }
      ],
      "name": "LogFollow",
      "type": "event"
    },
    {
      "anonymous": false,
      "inputs": [
        {
          "indexed": true,
          "internalType": "address",
          "name": "user",
          "type": "address"
        },
        {
          "indexed": true,
          "internalType": "uint256",
          "name": "token",
          "type": "uint256"
        },
        {
          "indexed": true,
          "internalType": "uint256",
          "name": "pubId",
          "type": "uint256"
        },
        {
          "indexed": false,
          "internalType": "uint256",
          "name": "time",
          "type": "uint256"
        }
      ],
      "name": "LogMirror",
      "type": "event"
    },
    {
      "anonymous": false,
      "inputs": [
        {
          "indexed": true,
          "internalType": "address",
          "name": "user",
          "type": "address"
        },
        {
          "indexed": true,
          "internalType": "uint256",
          "name": "token",
          "type": "uint256"
        },
        {
          "indexed": true,
          "internalType": "uint256",
          "name": "pubId",
          "type": "uint256"
        },
        {
          "indexed": false,
          "internalType": "uint256",
          "name": "time",
          "type": "uint256"
        }
      ],
      "name": "LogPost",
      "type": "event"
    },
    {
      "inputs": [
        {
          "internalType": "enum IKoruDao.Action",
          "name": "",
          "type": "uint8"
        }
      ],
      "name": "actionRestriction",
      "outputs": [
        {
          "internalType": "address",
          "name": "",
          "type": "address"
        }
      ],
      "stateMutability": "view",
      "type": "function"
    },
    {
      "inputs": [
        {
          "internalType": "uint256",
          "name": "_profileId",
          "type": "uint256"
        },
        {
          "internalType": "bytes",
          "name": "_followData",
          "type": "bytes"
        }
      ],
      "name": "follow",
      "outputs": [],
      "stateMutability": "nonpayable",
      "type": "function"
    },
    {
      "inputs": [
        {
          "internalType": "address",
          "name": "forwarder",
          "type": "address"
        }
      ],
      "name": "isTrustedForwarder",
      "outputs": [
        {
          "internalType": "bool",
          "name": "",
          "type": "bool"
        }
      ],
      "stateMutability": "view",
      "type": "function"
    },
    {
      "inputs": [],
      "name": "koruDaoProfileId",
      "outputs": [
        {
          "internalType": "uint256",
          "name": "",
          "type": "uint256"
        }
      ],
      "stateMutability": "view",
      "type": "function"
    },
    {
      "inputs": [],
      "name": "lensHub",
      "outputs": [
        {
          "internalType": "contract ILensHub",
          "name": "",
          "type": "address"
        }
      ],
      "stateMutability": "view",
      "type": "function"
    },
    {
      "inputs": [
        {
          "components": [
            {
              "internalType": "uint256",
              "name": "profileId",
              "type": "uint256"
            },
            {
              "internalType": "uint256",
              "name": "profileIdPointed",
              "type": "uint256"
            },
            {
              "internalType": "uint256",
              "name": "pubIdPointed",
              "type": "uint256"
            },
            {
              "internalType": "bytes",
              "name": "referenceModuleData",
              "type": "bytes"
            },
            {
              "internalType": "address",
              "name": "referenceModule",
              "type": "address"
            },
            {
              "internalType": "bytes",
              "name": "referenceModuleInitData",
              "type": "bytes"
            }
          ],
          "internalType": "struct DataTypes.MirrorData",
          "name": "_mirrorData",
          "type": "tuple"
        }
      ],
      "name": "mirror",
      "outputs": [],
      "stateMutability": "nonpayable",
      "type": "function"
    },
    {
      "inputs": [
        {
          "internalType": "address",
          "name": "",
          "type": "address"
        },
        {
          "internalType": "address",
          "name": "",
          "type": "address"
        },
        {
          "internalType": "uint256",
          "name": "",
          "type": "uint256"
        },
        {
          "internalType": "bytes",
          "name": "",
          "type": "bytes"
        }
      ],
      "name": "onERC721Received",
      "outputs": [
        {
          "internalType": "bytes4",
          "name": "",
          "type": "bytes4"
        }
      ],
      "stateMutability": "nonpayable",
      "type": "function"
    },
    {
      "inputs": [
        {
          "components": [
            {
              "internalType": "uint256",
              "name": "profileId",
              "type": "uint256"
            },
            {
              "internalType": "string",
              "name": "contentURI",
              "type": "string"
            },
            {
              "internalType": "address",
              "name": "collectModule",
              "type": "address"
            },
            {
              "internalType": "bytes",
              "name": "collectModuleInitData",
              "type": "bytes"
            },
            {
              "internalType": "address",
              "name": "referenceModule",
              "type": "address"
            },
            {
              "internalType": "bytes",
              "name": "referenceModuleInitData",
              "type": "bytes"
            }
          ],
          "internalType": "struct DataTypes.PostData",
          "name": "_postData",
          "type": "tuple"
        }
      ],
      "name": "post",
      "outputs": [],
      "stateMutability": "nonpayable",
      "type": "function"
    },
    {
      "inputs": [
        {
          "internalType": "enum IKoruDao.Action",
          "name": "_action",
          "type": "uint8"
        },
        {
          "internalType": "address",
          "name": "_restriction",
          "type": "address"
        }
      ],
      "name": "setActionRestriction",
      "outputs": [],
      "stateMutability": "nonpayable",
      "type": "function"
    },
    {
      "inputs": [
        {
          "internalType": "uint256",
          "name": "_profileId",
          "type": "uint256"
        }
      ],
      "name": "setDefaultProfile",
      "outputs": [],
      "stateMutability": "nonpayable",
      "type": "function"
    }
  ],
  "transactionHash": "0xac02fbdeb42d57b08720150ecf353eecf6896a4d78e569500242a570473e54c5",
  "args": [
    "0xBf175FCC7086b4f9bd59d5EAE8eA67b8f940DE0d",
    "0xDb46d1Dc155634FbC732f92E853b10B288AD5a1d",
    42808
  ],
  "numDeployments": 1,
  "solcInputHash": "539fb296dbca9bc3b6eeb39eee2e42ac",
  "bytecode": "0x60e06040523480156200001157600080fd5b50604051620020ee380380620020ee83398181016040528101906200003791906200019c565b828073ffffffffffffffffffffffffffffffffffffffff1660808173ffffffffffffffffffffffffffffffffffffffff1681525050508173ffffffffffffffffffffffffffffffffffffffff1660a08173ffffffffffffffffffffffffffffffffffffffff16815250508060c08181525050505050620001f8565b600080fd5b600073ffffffffffffffffffffffffffffffffffffffff82169050919050565b6000620000e482620000b7565b9050919050565b620000f681620000d7565b81146200010257600080fd5b50565b6000815190506200011681620000eb565b92915050565b60006200012982620000d7565b9050919050565b6200013b816200011c565b81146200014757600080fd5b50565b6000815190506200015b8162000130565b92915050565b6000819050919050565b620001768162000161565b81146200018257600080fd5b50565b60008151905062000196816200016b565b92915050565b600080600060608486031215620001b857620001b7620000b2565b5b6000620001c88682870162000105565b9350506020620001db868287016200014a565b9250506040620001ee8682870162000185565b9150509250925092565b60805160a05160c051611e9c6200025260003960008181610259015281816108de015261094a01526000818161036f0152818161068301528181610a6101528181610b560152610bef0152600061079a0152611e9c6000f3fe608060405234801561001057600080fd5b506004361061009e5760003560e01c806384af9a921161006657806384af9a9214610157578063963ff14114610175578063b02cfdc314610191578063f1b2f8bc146101af578063fb706254146101cb5761009e565b8063150b7a02146100a35780632faeed81146100d357806340c8370c146100ef578063572b6c051461010b5780636f3bca211461013b575b600080fd5b6100bd60048036038101906100b89190610fce565b6101fb565b6040516100ca919061108c565b60405180910390f35b6100ed60048036038101906100e891906110cb565b61020f565b005b61010960048036038101906101049190611174565b610462565b005b610125600480360381019061012091906111d4565b610796565b604051610132919061121c565b60405180910390f35b6101556004803603810190610150919061125c565b6107ee565b005b61015f6108dc565b60405161016c91906112ab565b60405180910390f35b61018f600480360381019061018a91906112e5565b610900565b005b610199610b54565b6040516101a6919061138d565b60405180910390f35b6101c960048036038101906101c491906113a8565b610b78565b005b6101e560048036038101906101e091906113d5565b610c7b565b6040516101f29190611411565b60405180910390f35b600063150b7a0260e01b9050949350505050565b61021833610796565b610257576040517f08c379a000000000000000000000000000000000000000000000000000000000815260040161024e90611489565b60405180910390fd5b7f00000000000000000000000000000000000000000000000000000000000000008160000135146102bd576040517f08c379a00000000000000000000000000000000000000000000000000000000081526004016102b4906114f5565b60405180910390fd5b60006102c7610cae565b905060006102d56002610ce0565b905060008173ffffffffffffffffffffffffffffffffffffffff16635f183e798460028081111561030957610308611515565b5b6040518363ffffffff1660e01b8152600401610326929190611544565b6020604051808303816000875af1158015610345573d6000803e3d6000fd5b505050506040513d601f19601f820116820180604052508101906103699190611582565b905060007f000000000000000000000000000000000000000000000000000000000000000073ffffffffffffffffffffffffffffffffffffffff16632faeed81866040518263ffffffff1660e01b81526004016103c6919061176f565b6020604051808303816000875af11580156103e5573d6000803e3d6000fd5b505050506040513d601f19601f820116820180604052508101906104099190611582565b905080828573ffffffffffffffffffffffffffffffffffffffff167fe1289db23a10f53339637d9649c2ee51b4461d19877697e53870506bf33cff2b4260405161045391906112ab565b60405180910390a45050505050565b61046b33610796565b6104aa576040517f08c379a00000000000000000000000000000000000000000000000000000000081526004016104a190611489565b60405180910390fd5b60006104b4610cae565b905060006104c26001610ce0565b905060008173ffffffffffffffffffffffffffffffffffffffff16635f183e7984600160028111156104f7576104f6611515565b5b6040518363ffffffff1660e01b8152600401610514929190611544565b6020604051808303816000875af1158015610533573d6000803e3d6000fd5b505050506040513d601f19601f820116820180604052508101906105579190611582565b90506000600167ffffffffffffffff81111561057657610575610ea3565b5b6040519080825280602002602001820160405280156105a45781602001602082028036833780820191505090505b5090506000600167ffffffffffffffff8111156105c4576105c3610ea3565b5b6040519080825280602002602001820160405280156105f757816020015b60608152602001906001900390816105e25790505b509050878260008151811061060f5761060e611791565b5b60200260200101818152505086868080601f016020809104026020016040519081016040528093929190818152602001838380828437600081840152601f19601f820116905080830192505050505050508160008151811061067457610673611791565b5b602002602001018190525060007f000000000000000000000000000000000000000000000000000000000000000073ffffffffffffffffffffffffffffffffffffffff1663fb78ae6c84846040518363ffffffff1660e01b81526004016106dc9291906119a8565b6000604051808303816000875af11580156106fb573d6000803e3d6000fd5b505050506040513d6000823e3d601f19601f820116820180604052508101906107249190611aa2565b9050806040516107349190611b7b565b6040518091039020848773ffffffffffffffffffffffffffffffffffffffff167f6ca6bbf216eed80adfcac490fb89f2cbf3ffd707781aaf728bbdfb6d5ccfc1d14260405161078391906112ab565b60405180910390a4505050505050505050565b60007f000000000000000000000000000000000000000000000000000000000000000073ffffffffffffffffffffffffffffffffffffffff168273ffffffffffffffffffffffffffffffffffffffff16149050919050565b6107f6610daf565b73ffffffffffffffffffffffffffffffffffffffff163373ffffffffffffffffffffffffffffffffffffffff1614610863576040517f08c379a000000000000000000000000000000000000000000000000000000000815260040161085a90611bde565b60405180910390fd5b8060008084600281111561087a57610879611515565b5b600281111561088c5761088b611515565b5b815260200190815260200160002060006101000a81548173ffffffffffffffffffffffffffffffffffffffff021916908373ffffffffffffffffffffffffffffffffffffffff1602179055505050565b7f000000000000000000000000000000000000000000000000000000000000000081565b61090933610796565b610948576040517f08c379a000000000000000000000000000000000000000000000000000000000815260040161093f90611489565b60405180910390fd5b7f00000000000000000000000000000000000000000000000000000000000000008160000135146109ae576040517f08c379a00000000000000000000000000000000000000000000000000000000081526004016109a590611c4a565b60405180910390fd5b60006109b8610cae565b905060006109c66000610ce0565b905060008173ffffffffffffffffffffffffffffffffffffffff16635f183e7984600060028111156109fb576109fa611515565b5b6040518363ffffffff1660e01b8152600401610a18929190611544565b6020604051808303816000875af1158015610a37573d6000803e3d6000fd5b505050506040513d601f19601f82011682018060405250810190610a5b9190611582565b905060007f000000000000000000000000000000000000000000000000000000000000000073ffffffffffffffffffffffffffffffffffffffff1663963ff141866040518263ffffffff1660e01b8152600401610ab89190611dd8565b6020604051808303816000875af1158015610ad7573d6000803e3d6000fd5b505050506040513d601f19601f82011682018060405250810190610afb9190611582565b905080828573ffffffffffffffffffffffffffffffffffffffff167fb3de7ef76dc0d0512b40164c07da30a2bd66a76a55c8748f0c2fe7bcc6cc39e142604051610b4591906112ab565b60405180910390a45050505050565b7f000000000000000000000000000000000000000000000000000000000000000081565b610b80610daf565b73ffffffffffffffffffffffffffffffffffffffff163373ffffffffffffffffffffffffffffffffffffffff1614610bed576040517f08c379a0000000000000000000000000000000000000000000000000000000008152600401610be490611bde565b60405180910390fd5b7f000000000000000000000000000000000000000000000000000000000000000073ffffffffffffffffffffffffffffffffffffffff1663f1b2f8bc826040518263ffffffff1660e01b8152600401610c4691906112ab565b600060405180830381600087803b158015610c6057600080fd5b505af1158015610c74573d6000803e3d6000fd5b5050505050565b60006020528060005260406000206000915054906101000a900473ffffffffffffffffffffffffffffffffffffffff1681565b6000610cb933610796565b15610ccd57601436033560601c9050610cdc565b610cd5610dd8565b9050610cdd565b5b90565b6000806000836002811115610cf857610cf7611515565b5b6002811115610d0a57610d09611515565b5b815260200190815260200160002060009054906101000a900473ffffffffffffffffffffffffffffffffffffffff169050600073ffffffffffffffffffffffffffffffffffffffff168173ffffffffffffffffffffffffffffffffffffffff1603610daa576040517f08c379a0000000000000000000000000000000000000000000000000000000008152600401610da190611e46565b60405180910390fd5b919050565b60007fb53127684a568b3173ae13b9f8a6016e243e63b6e8ee1178d6a717850b5d610354905090565b600033905090565b6000604051905090565b600080fd5b600080fd5b600073ffffffffffffffffffffffffffffffffffffffff82169050919050565b6000610e1f82610df4565b9050919050565b610e2f81610e14565b8114610e3a57600080fd5b50565b600081359050610e4c81610e26565b92915050565b6000819050919050565b610e6581610e52565b8114610e7057600080fd5b50565b600081359050610e8281610e5c565b92915050565b600080fd5b600080fd5b6000601f19601f8301169050919050565b7f4e487b7100000000000000000000000000000000000000000000000000000000600052604160045260246000fd5b610edb82610e92565b810181811067ffffffffffffffff82111715610efa57610ef9610ea3565b5b80604052505050565b6000610f0d610de0565b9050610f198282610ed2565b919050565b600067ffffffffffffffff821115610f3957610f38610ea3565b5b610f4282610e92565b9050602081019050919050565b82818337600083830152505050565b6000610f71610f6c84610f1e565b610f03565b905082815260208101848484011115610f8d57610f8c610e8d565b5b610f98848285610f4f565b509392505050565b600082601f830112610fb557610fb4610e88565b5b8135610fc5848260208601610f5e565b91505092915050565b60008060008060808587031215610fe857610fe7610dea565b5b6000610ff687828801610e3d565b945050602061100787828801610e3d565b935050604061101887828801610e73565b925050606085013567ffffffffffffffff81111561103957611038610def565b5b61104587828801610fa0565b91505092959194509250565b60007fffffffff0000000000000000000000000000000000000000000000000000000082169050919050565b61108681611051565b82525050565b60006020820190506110a1600083018461107d565b92915050565b600080fd5b600060c082840312156110c2576110c16110a7565b5b81905092915050565b6000602082840312156110e1576110e0610dea565b5b600082013567ffffffffffffffff8111156110ff576110fe610def565b5b61110b848285016110ac565b91505092915050565b600080fd5b600080fd5b60008083601f84011261113457611133610e88565b5b8235905067ffffffffffffffff81111561115157611150611114565b5b60208301915083600182028301111561116d5761116c611119565b5b9250929050565b60008060006040848603121561118d5761118c610dea565b5b600061119b86828701610e73565b935050602084013567ffffffffffffffff8111156111bc576111bb610def565b5b6111c88682870161111e565b92509250509250925092565b6000602082840312156111ea576111e9610dea565b5b60006111f884828501610e3d565b91505092915050565b60008115159050919050565b61121681611201565b82525050565b6000602082019050611231600083018461120d565b92915050565b6003811061124457600080fd5b50565b60008135905061125681611237565b92915050565b6000806040838503121561127357611272610dea565b5b600061128185828601611247565b925050602061129285828601610e3d565b9150509250929050565b6112a581610e52565b82525050565b60006020820190506112c0600083018461129c565b92915050565b600060c082840312156112dc576112db6110a7565b5b81905092915050565b6000602082840312156112fb576112fa610dea565b5b600082013567ffffffffffffffff81111561131957611318610def565b5b611325848285016112c6565b91505092915050565b6000819050919050565b600061135361134e61134984610df4565b61132e565b610df4565b9050919050565b600061136582611338565b9050919050565b60006113778261135a565b9050919050565b6113878161136c565b82525050565b60006020820190506113a2600083018461137e565b92915050565b6000602082840312156113be576113bd610dea565b5b60006113cc84828501610e73565b91505092915050565b6000602082840312156113eb576113ea610dea565b5b60006113f984828501611247565b91505092915050565b61140b81610e14565b82525050565b60006020820190506114266000830184611402565b92915050565b600082825260208201905092915050565b7f4b6f727544616f3a204f6e6c792047656c61746f52656c617900000000000000600082015250565b600061147360198361142c565b915061147e8261143d565b602082019050919050565b600060208201905081810360008301526114a281611466565b9050919050565b7f4b6f727544616f3a204f6e6c79206d6972726f7220666f72204b6f727544616f600082015250565b60006114df60208361142c565b91506114ea826114a9565b602082019050919050565b6000602082019050818103600083015261150e816114d2565b9050919050565b7f4e487b7100000000000000000000000000000000000000000000000000000000600052602160045260246000fd5b60006040820190506115596000830185611402565b611566602083018461129c565b9392505050565b60008151905061157c81610e5c565b92915050565b60006020828403121561159857611597610dea565b5b60006115a68482850161156d565b91505092915050565b60006115be6020840184610e73565b905092915050565b6115cf81610e52565b82525050565b600080fd5b600080fd5b600080fd5b60008083356001602003843603038112611601576116006115df565b5b83810192508235915060208301925067ffffffffffffffff821115611629576116286115d5565b5b60018202360383131561163f5761163e6115da565b5b509250929050565b600082825260208201905092915050565b60006116648385611647565b9350611671838584610f4f565b61167a83610e92565b840190509392505050565b60006116946020840184610e3d565b905092915050565b6116a581610e14565b82525050565b600060c083016116be60008401846115af565b6116cb60008601826115c6565b506116d960208401846115af565b6116e660208601826115c6565b506116f460408401846115af565b61170160408601826115c6565b5061170f60608401846115e4565b8583036060870152611722838284611658565b925050506117336080840184611685565b611740608086018261169c565b5061174e60a08401846115e4565b85830360a0870152611761838284611658565b925050508091505092915050565b6000602082019050818103600083015261178981846116ab565b905092915050565b7f4e487b7100000000000000000000000000000000000000000000000000000000600052603260045260246000fd5b600081519050919050565b600082825260208201905092915050565b6000819050602082019050919050565b60006117f883836115c6565b60208301905092915050565b6000602082019050919050565b600061181c826117c0565b61182681856117cb565b9350611831836117dc565b8060005b8381101561186257815161184988826117ec565b975061185483611804565b925050600181019050611835565b5085935050505092915050565b600081519050919050565b600082825260208201905092915050565b6000819050602082019050919050565b600081519050919050565b60005b838110156118c45780820151818401526020810190506118a9565b838111156118d3576000848401525b50505050565b60006118e48261189b565b6118ee8185611647565b93506118fe8185602086016118a6565b61190781610e92565b840191505092915050565b600061191e83836118d9565b905092915050565b6000602082019050919050565b600061193e8261186f565b611948818561187a565b93508360208202850161195a8561188b565b8060005b8581101561199657848403895281516119778582611912565b945061198283611926565b925060208a0199505060018101905061195e565b50829750879550505050505092915050565b600060408201905081810360008301526119c28185611811565b905081810360208301526119d68184611933565b90509392505050565b600067ffffffffffffffff8211156119fa576119f9610ea3565b5b602082029050602081019050919050565b6000611a1e611a19846119df565b610f03565b90508083825260208201905060208402830185811115611a4157611a40611119565b5b835b81811015611a6a5780611a56888261156d565b845260208401935050602081019050611a43565b5050509392505050565b600082601f830112611a8957611a88610e88565b5b8151611a99848260208601611a0b565b91505092915050565b600060208284031215611ab857611ab7610dea565b5b600082015167ffffffffffffffff811115611ad657611ad5610def565b5b611ae284828501611a74565b91505092915050565b600081905092915050565b611aff81610e52565b82525050565b6000611b118383611af6565b60208301905092915050565b6000611b28826117c0565b611b328185611aeb565b9350611b3d836117dc565b8060005b83811015611b6e578151611b558882611b05565b9750611b6083611804565b925050600181019050611b41565b5085935050505092915050565b6000611b878284611b1d565b915081905092915050565b7f4e4f545f415554484f52495a4544000000000000000000000000000000000000600082015250565b6000611bc8600e8361142c565b9150611bd382611b92565b602082019050919050565b60006020820190508181036000830152611bf781611bbb565b9050919050565b7f4b6f727544616f3a204f6e6c7920706f737420666f72204b6f727544616f0000600082015250565b6000611c34601e8361142c565b9150611c3f82611bfe565b602082019050919050565b60006020820190508181036000830152611c6381611c27565b9050919050565b60008083356001602003843603038112611c8757611c866115df565b5b83810192508235915060208301925067ffffffffffffffff821115611caf57611cae6115d5565b5b600182023603831315611cc557611cc46115da565b5b509250929050565b600082825260208201905092915050565b6000611cea8385611ccd565b9350611cf7838584610f4f565b611d0083610e92565b840190509392505050565b600060c08301611d1e60008401846115af565b611d2b60008601826115c6565b50611d396020840184611c6a565b8583036020870152611d4c838284611cde565b92505050611d5d6040840184611685565b611d6a604086018261169c565b50611d7860608401846115e4565b8583036060870152611d8b838284611658565b92505050611d9c6080840184611685565b611da9608086018261169c565b50611db760a08401846115e4565b85830360a0870152611dca838284611658565b925050508091505092915050565b60006020820190508181036000830152611df28184611d0b565b905092915050565b7f4b6f727544616f3a20416374696f6e206e6f7420616374697665000000000000600082015250565b6000611e30601a8361142c565b9150611e3b82611dfa565b602082019050919050565b60006020820190508181036000830152611e5f81611e23565b905091905056fea26469706673582212204c2d09d97c918b7830f26c3ced90e0ef2394f87540a678368ca5b1a582c0396b64736f6c634300080e0033",
  "devdoc": {
    "kind": "dev",
    "methods": {
      "onERC721Received(address,address,uint256,bytes)": {
        "details": "See {IERC721Receiver-onERC721Received}. Always returns `IERC721Receiver.onERC721Received.selector`."
      }
    },
    "version": 1
  },
  "userdoc": {
    "kind": "user",
    "methods": {},
    "version": 1
  },
  "storageLayout": {
    "storage": [
      {
        "astId": 3411,
        "contract": "contracts/KoruDao.sol:KoruDao",
        "label": "actionRestriction",
        "offset": 0,
        "slot": "0",
        "type": "t_mapping(t_enum(Action)4655,t_address)"
      }
    ],
    "types": {
      "t_address": {
        "encoding": "inplace",
        "label": "address",
        "numberOfBytes": "20"
      },
      "t_enum(Action)4655": {
        "encoding": "inplace",
        "label": "enum IKoruDao.Action",
        "numberOfBytes": "1"
      },
      "t_mapping(t_enum(Action)4655,t_address)": {
        "encoding": "mapping",
        "key": "t_enum(Action)4655",
        "label": "mapping(enum IKoruDao.Action => address)",
        "numberOfBytes": "32",
        "value": "t_address"
      }
    }
  }
}