{
  "address": "0x5f4f0871f48b27f5d19887fD09B8e44F86395C2d",
  "abi": [
    {
      "inputs": [
        {
          "internalType": "bool",
          "name": "_restricted",
          "type": "bool"
        },
        {
          "internalType": "bool",
          "name": "_paused",
          "type": "bool"
        },
        {
          "internalType": "uint256",
          "name": "_maxSupply",
          "type": "uint256"
        },
        {
          "internalType": "contract ILensHub",
          "name": "_lensHub",
          "type": "address"
        },
        {
          "internalType": "address",
          "name": "_gelatoRelay",
          "type": "address"
        }
      ],
      "stateMutability": "nonpayable",
      "type": "constructor"
    },
    {
      "anonymous": false,
      "inputs": [
        {
          "indexed": true,
          "internalType": "address",
          "name": "owner",
          "type": "address"
        },
        {
          "indexed": true,
          "internalType": "address",
          "name": "approved",
          "type": "address"
        },
        {
          "indexed": true,
          "internalType": "uint256",
          "name": "tokenId",
          "type": "uint256"
        }
      ],
      "name": "Approval",
      "type": "event"
    },
    {
      "anonymous": false,
      "inputs": [
        {
          "indexed": true,
          "internalType": "address",
          "name": "owner",
          "type": "address"
        },
        {
          "indexed": true,
          "internalType": "address",
          "name": "operator",
          "type": "address"
        },
        {
          "indexed": false,
          "internalType": "bool",
          "name": "approved",
          "type": "bool"
        }
      ],
      "name": "ApprovalForAll",
      "type": "event"
    },
    {
      "anonymous": false,
      "inputs": [
        {
          "indexed": true,
          "internalType": "address",
          "name": "from",
          "type": "address"
        },
        {
          "indexed": true,
          "internalType": "address",
          "name": "to",
          "type": "address"
        },
        {
          "indexed": true,
          "internalType": "uint256",
          "name": "tokenId",
          "type": "uint256"
        }
      ],
      "name": "Transfer",
      "type": "event"
    },
    {
      "inputs": [
        {
          "internalType": "address",
          "name": "to",
          "type": "address"
        },
        {
          "internalType": "uint256",
          "name": "tokenId",
          "type": "uint256"
        }
      ],
      "name": "approve",
      "outputs": [],
      "stateMutability": "nonpayable",
      "type": "function"
    },
    {
      "inputs": [
        {
          "internalType": "address",
          "name": "owner",
          "type": "address"
        }
      ],
      "name": "balanceOf",
      "outputs": [
        {
          "internalType": "uint256",
          "name": "",
          "type": "uint256"
        }
      ],
      "stateMutability": "view",
      "type": "function"
    },
    {
      "inputs": [],
      "name": "baseUri",
      "outputs": [
        {
          "internalType": "string",
          "name": "",
          "type": "string"
        }
      ],
      "stateMutability": "view",
      "type": "function"
    },
    {
      "inputs": [],
      "name": "gelatoRelay",
      "outputs": [
        {
          "internalType": "address",
          "name": "",
          "type": "address"
        }
      ],
      "stateMutability": "view",
      "type": "function"
    },
    {
      "inputs": [
        {
          "internalType": "uint256",
          "name": "tokenId",
          "type": "uint256"
        }
      ],
      "name": "getApproved",
      "outputs": [
        {
          "internalType": "address",
          "name": "",
          "type": "address"
        }
      ],
      "stateMutability": "view",
      "type": "function"
    },
    {
      "inputs": [
        {
          "internalType": "address",
          "name": "_wallet",
          "type": "address"
        }
      ],
      "name": "hasLensProfile",
      "outputs": [
        {
          "internalType": "bool",
          "name": "",
          "type": "bool"
        }
      ],
      "stateMutability": "view",
      "type": "function"
    },
    {
      "inputs": [
        {
          "internalType": "address",
          "name": "owner",
          "type": "address"
        },
        {
          "internalType": "address",
          "name": "operator",
          "type": "address"
        }
      ],
      "name": "isApprovedForAll",
      "outputs": [
        {
          "internalType": "bool",
          "name": "",
          "type": "bool"
        }
      ],
      "stateMutability": "view",
      "type": "function"
    },
    {
      "inputs": [
        {
          "internalType": "address",
          "name": "forwarder",
          "type": "address"
        }
      ],
      "name": "isTrustedForwarder",
      "outputs": [
        {
          "internalType": "bool",
          "name": "",
          "type": "bool"
        }
      ],
      "stateMutability": "view",
      "type": "function"
    },
    {
      "inputs": [],
      "name": "lensHub",
      "outputs": [
        {
          "internalType": "contract ILensHub",
          "name": "",
          "type": "address"
        }
      ],
      "stateMutability": "view",
      "type": "function"
    },
    {
      "inputs": [],
      "name": "maxSupply",
      "outputs": [
        {
          "internalType": "uint256",
          "name": "",
          "type": "uint256"
        }
      ],
      "stateMutability": "view",
      "type": "function"
    },
    {
      "inputs": [],
      "name": "mint",
      "outputs": [],
      "stateMutability": "nonpayable",
      "type": "function"
    },
    {
      "inputs": [],
      "name": "name",
      "outputs": [
        {
          "internalType": "string",
          "name": "",
          "type": "string"
        }
      ],
      "stateMutability": "pure",
      "type": "function"
    },
    {
      "inputs": [
        {
          "internalType": "uint256",
          "name": "tokenId",
          "type": "uint256"
        }
      ],
      "name": "ownerOf",
      "outputs": [
        {
          "internalType": "address",
          "name": "",
          "type": "address"
        }
      ],
      "stateMutability": "view",
      "type": "function"
    },
    {
      "inputs": [],
      "name": "paused",
      "outputs": [
        {
          "internalType": "bool",
          "name": "",
          "type": "bool"
        }
      ],
      "stateMutability": "view",
      "type": "function"
    },
    {
      "inputs": [],
      "name": "restricted",
      "outputs": [
        {
          "internalType": "bool",
          "name": "",
          "type": "bool"
        }
      ],
      "stateMutability": "view",
      "type": "function"
    },
    {
      "inputs": [
        {
          "internalType": "address",
          "name": "from",
          "type": "address"
        },
        {
          "internalType": "address",
          "name": "to",
          "type": "address"
        },
        {
          "internalType": "uint256",
          "name": "tokenId",
          "type": "uint256"
        }
      ],
      "name": "safeTransferFrom",
      "outputs": [],
      "stateMutability": "nonpayable",
      "type": "function"
    },
    {
      "inputs": [
        {
          "internalType": "address",
          "name": "from",
          "type": "address"
        },
        {
          "internalType": "address",
          "name": "to",
          "type": "address"
        },
        {
          "internalType": "uint256",
          "name": "tokenId",
          "type": "uint256"
        },
        {
          "internalType": "bytes",
          "name": "_data",
          "type": "bytes"
        }
      ],
      "name": "safeTransferFrom",
      "outputs": [],
      "stateMutability": "nonpayable",
      "type": "function"
    },
    {
      "inputs": [
        {
          "internalType": "address",
          "name": "operator",
          "type": "address"
        },
        {
          "internalType": "bool",
          "name": "approved",
          "type": "bool"
        }
      ],
      "name": "setApprovalForAll",
      "outputs": [],
      "stateMutability": "nonpayable",
      "type": "function"
    },
    {
      "inputs": [
        {
          "internalType": "string",
          "name": "_baseUri",
          "type": "string"
        }
      ],
      "name": "setBaseUri",
      "outputs": [],
      "stateMutability": "nonpayable",
      "type": "function"
    },
    {
      "inputs": [
        {
          "internalType": "bool",
          "name": "_paused",
          "type": "bool"
        }
      ],
      "name": "setPaused",
      "outputs": [],
      "stateMutability": "nonpayable",
      "type": "function"
    },
    {
      "inputs": [
        {
          "internalType": "bytes4",
          "name": "interfaceId",
          "type": "bytes4"
        }
      ],
      "name": "supportsInterface",
      "outputs": [
        {
          "internalType": "bool",
          "name": "",
          "type": "bool"
        }
      ],
      "stateMutability": "view",
      "type": "function"
    },
    {
      "inputs": [],
      "name": "symbol",
      "outputs": [
        {
          "internalType": "string",
          "name": "",
          "type": "string"
        }
      ],
      "stateMutability": "pure",
      "type": "function"
    },
    {
      "inputs": [
        {
          "internalType": "uint256",
          "name": "index",
          "type": "uint256"
        }
      ],
      "name": "tokenByIndex",
      "outputs": [
        {
          "internalType": "uint256",
          "name": "",
          "type": "uint256"
        }
      ],
      "stateMutability": "view",
      "type": "function"
    },
    {
      "inputs": [
        {
          "internalType": "address",
          "name": "owner",
          "type": "address"
        },
        {
          "internalType": "uint256",
          "name": "index",
          "type": "uint256"
        }
      ],
      "name": "tokenOfOwnerByIndex",
      "outputs": [
        {
          "internalType": "uint256",
          "name": "",
          "type": "uint256"
        }
      ],
      "stateMutability": "view",
      "type": "function"
    },
    {
      "inputs": [
        {
          "internalType": "uint256",
          "name": "tokenId",
          "type": "uint256"
        }
      ],
      "name": "tokenURI",
      "outputs": [
        {
          "internalType": "string",
          "name": "",
          "type": "string"
        }
      ],
      "stateMutability": "view",
      "type": "function"
    },
    {
      "inputs": [],
      "name": "totalSupply",
      "outputs": [
        {
          "internalType": "uint256",
          "name": "",
          "type": "uint256"
        }
      ],
      "stateMutability": "view",
      "type": "function"
    },
    {
      "inputs": [
        {
          "internalType": "address",
          "name": "from",
          "type": "address"
        },
        {
          "internalType": "address",
          "name": "to",
          "type": "address"
        },
        {
          "internalType": "uint256",
          "name": "tokenId",
          "type": "uint256"
        }
      ],
      "name": "transferFrom",
      "outputs": [],
      "stateMutability": "nonpayable",
      "type": "function"
    }
  ],
  "transactionHash": "0xb9fbbf4fc7ba5c426fd98f02746a2834c97ac27081608dec26df363869df4c08",
  "args": [
    true,
    true,
    282,
    "0xDb46d1Dc155634FbC732f92E853b10B288AD5a1d",
    "0xaBcC9b596420A9E9172FD5938620E265a0f9Df92"
  ],
  "numDeployments": 10,
  "solcInputHash": "2322f9b5f3330b9d88899e2e2ff5649c",
  "bytecode": "0x6101206040523480156200001257600080fd5b50604051620041e2380380620041e283398181016040528101906200003891906200038f565b6040518060400160405280600c81526020017f4b6f72752044616f204e465400000000000000000000000000000000000000008152506040518060400160405280600781526020017f4b4f525544414f0000000000000000000000000000000000000000000000000081525082808886868215156080811515815250508173ffffffffffffffffffffffffffffffffffffffff1660a08173ffffffffffffffffffffffffffffffffffffffff16815250508073ffffffffffffffffffffffffffffffffffffffff1660c08173ffffffffffffffffffffffffffffffffffffffff16815250505050508073ffffffffffffffffffffffffffffffffffffffff1660e08173ffffffffffffffffffffffffffffffffffffffff16815250505082600090805190602001906200016d929190620001b8565b50816001908051906020019062000186929190620001b8565b5050505083600b60006101000a81548160ff02191690831515021790555082610100818152505050505050506200047b565b828054620001c69062000446565b90600052602060002090601f016020900481019282620001ea576000855562000236565b82601f106200020557805160ff191683800117855562000236565b8280016001018555821562000236579182015b828111156200023557825182559160200191906001019062000218565b5b50905062000245919062000249565b5090565b5b80821115620002645760008160009055506001016200024a565b5090565b600080fd5b60008115159050919050565b62000284816200026d565b81146200029057600080fd5b50565b600081519050620002a48162000279565b92915050565b6000819050919050565b620002bf81620002aa565b8114620002cb57600080fd5b50565b600081519050620002df81620002b4565b92915050565b600073ffffffffffffffffffffffffffffffffffffffff82169050919050565b60006200031282620002e5565b9050919050565b6000620003268262000305565b9050919050565b620003388162000319565b81146200034457600080fd5b50565b60008151905062000358816200032d565b92915050565b620003698162000305565b81146200037557600080fd5b50565b60008151905062000389816200035e565b92915050565b600080600080600060a08688031215620003ae57620003ad62000268565b5b6000620003be8882890162000293565b9550506020620003d18882890162000293565b9450506040620003e488828901620002ce565b9350506060620003f78882890162000347565b92505060806200040a8882890162000378565b9150509295509295909350565b7f4e487b7100000000000000000000000000000000000000000000000000000000600052602260045260246000fd5b600060028204905060018216806200045f57607f821691505b60208210810362000475576200047462000417565b5b50919050565b60805160a05160c05160e05161010051613cea620004f860003960008181610947015281816111380152818161116801526111f301526000610c270152600081816108100152610b70015260008181610e1f01526110310152600081816108a60152818161092101528181610d41015261110f0152613cea6000f3fe608060405234801561001057600080fd5b50600436106101a95760003560e01c80635c975abb116100f9578063a0bcfc7f11610097578063b88d4fde11610071578063b88d4fde146104d0578063c87b56dd146104ec578063d5abeb011461051c578063e985e9c51461053a576101a9565b8063a0bcfc7f1461047a578063a22cb46514610496578063b02cfdc3146104b2576101a9565b806370a08231116100d357806370a08231146103de578063908e3f851461040e57806395d89b411461043e5780639abc83201461045c576101a9565b80635c975abb146103725780636352211e146103905780637072c6b1146103c0576101a9565b806318160ddd116101665780633552221a116101405780633552221a146102d857806342842e0e146102f65780634f6ccce714610312578063572b6c0514610342576101a9565b806318160ddd1461026e57806323b872dd1461028c5780632f745c59146102a8576101a9565b806301ffc9a7146101ae57806306fdde03146101de578063081812fc146101fc578063095ea7b31461022c5780631249c58b1461024857806316c38b3c14610252575b600080fd5b6101c860048036038101906101c39190612644565b61056a565b6040516101d5919061268c565b60405180910390f35b6101e66105e4565b6040516101f39190612740565b60405180910390f35b61021660048036038101906102119190612798565b610621565b6040516102239190612806565b60405180910390f35b6102466004803603810190610241919061284d565b6106a6565b005b6102506107bd565b005b61026c600480360381019061026791906128b9565b6109ca565b005b610276610a5c565b60405161028391906128f5565b60405180910390f35b6102a660048036038101906102a19190612910565b610a69565b005b6102c260048036038101906102bd919061284d565b610ac9565b6040516102cf91906128f5565b60405180910390f35b6102e0610b6e565b6040516102ed9190612806565b60405180910390f35b610310600480360381019061030b9190612910565b610b92565b005b61032c60048036038101906103279190612798565b610bb2565b60405161033991906128f5565b60405180910390f35b61035c60048036038101906103579190612963565b610c23565b604051610369919061268c565b60405180910390f35b61037a610c7b565b604051610387919061268c565b60405180910390f35b6103aa60048036038101906103a59190612798565b610c8e565b6040516103b79190612806565b60405180910390f35b6103c8610d3f565b6040516103d5919061268c565b60405180910390f35b6103f860048036038101906103f39190612963565b610d63565b60405161040591906128f5565b60405180910390f35b61042860048036038101906104239190612963565b610e1a565b604051610435919061268c565b60405180910390f35b610446610ebf565b6040516104539190612740565b60405180910390f35b610464610efc565b6040516104719190612740565b60405180910390f35b610494600480360381019061048f9190612ac5565b610f8a565b005b6104b060048036038101906104ab9190612b0e565b611019565b005b6104ba61102f565b6040516104c79190612bad565b60405180910390f35b6104ea60048036038101906104e59190612c69565b611053565b005b61050660048036038101906105019190612798565b6110b5565b6040516105139190612740565b60405180910390f35b6105246111f1565b60405161053191906128f5565b60405180910390f35b610554600480360381019061054f9190612cec565b611215565b604051610561919061268c565b60405180910390f35b60007f780e9d63000000000000000000000000000000000000000000000000000000007bffffffffffffffffffffffffffffffffffffffffffffffffffffffff1916827bffffffffffffffffffffffffffffffffffffffffffffffffffffffff191614806105dd57506105dc826112a9565b5b9050919050565b60606040518060400160405280600881526020017f4b6f72752044616f000000000000000000000000000000000000000000000000815250905090565b600061062c8261138b565b61066b576040517f08c379a000000000000000000000000000000000000000000000000000000000815260040161066290612d9e565b60405180910390fd5b6004600083815260200190815260200160002060009054906101000a900473ffffffffffffffffffffffffffffffffffffffff169050919050565b60006106b182610c8e565b90508073ffffffffffffffffffffffffffffffffffffffff168373ffffffffffffffffffffffffffffffffffffffff1603610721576040517f08c379a000000000000000000000000000000000000000000000000000000000815260040161071890612e30565b60405180910390fd5b8073ffffffffffffffffffffffffffffffffffffffff166107406113f7565b73ffffffffffffffffffffffffffffffffffffffff16148061076f575061076e816107696113f7565b611215565b5b6107ae576040517f08c379a00000000000000000000000000000000000000000000000000000000081526004016107a590612ec2565b60405180910390fd5b6107b88383611429565b505050565b600b60009054906101000a900460ff161561080d576040517f08c379a000000000000000000000000000000000000000000000000000000000815260040161080490612f2e565b60405180910390fd5b337f000000000000000000000000000000000000000000000000000000000000000073ffffffffffffffffffffffffffffffffffffffff168173ffffffffffffffffffffffffffffffffffffffff161461089c576040517f08c379a000000000000000000000000000000000000000000000000000000000815260040161089390612f9a565b60405180910390fd5b6108a46113f7565b7f000000000000000000000000000000000000000000000000000000000000000015610913576108d381610e1a565b610912576040517f08c379a00000000000000000000000000000000000000000000000000000000081526004016109099061302c565b60405180910390fd5b5b600061091d610a5c565b90507f0000000000000000000000000000000000000000000000000000000000000000156109a8577f000000000000000000000000000000000000000000000000000000000000000081106109a7576040517f08c379a000000000000000000000000000000000000000000000000000000000815260040161099e90613098565b60405180910390fd5b5b6109c56109b36113f7565b6001836109c091906130e7565b6114e2565b505050565b6109d2611500565b73ffffffffffffffffffffffffffffffffffffffff163373ffffffffffffffffffffffffffffffffffffffff1614610a3f576040517f08c379a0000000000000000000000000000000000000000000000000000000008152600401610a3690613189565b60405180910390fd5b80600b60006101000a81548160ff02191690831515021790555050565b6000600880549050905090565b610a7a610a746113f7565b82611529565b610ab9576040517f08c379a0000000000000000000000000000000000000000000000000000000008152600401610ab09061321b565b60405180910390fd5b610ac4838383611607565b505050565b6000610ad483610d63565b8210610b15576040517f08c379a0000000000000000000000000000000000000000000000000000000008152600401610b0c906132ad565b60405180910390fd5b600660008473ffffffffffffffffffffffffffffffffffffffff1673ffffffffffffffffffffffffffffffffffffffff168152602001908152602001600020600083815260200190815260200160002054905092915050565b7f000000000000000000000000000000000000000000000000000000000000000081565b610bad83838360405180602001604052806000815250611053565b505050565b6000610bbc610a5c565b8210610bfd576040517f08c379a0000000000000000000000000000000000000000000000000000000008152600401610bf49061333f565b60405180910390fd5b60088281548110610c1157610c1061335f565b5b90600052602060002001549050919050565b60007f000000000000000000000000000000000000000000000000000000000000000073ffffffffffffffffffffffffffffffffffffffff168273ffffffffffffffffffffffffffffffffffffffff16149050919050565b600b60009054906101000a900460ff1681565b6000806002600084815260200190815260200160002060009054906101000a900473ffffffffffffffffffffffffffffffffffffffff169050600073ffffffffffffffffffffffffffffffffffffffff168173ffffffffffffffffffffffffffffffffffffffff1603610d36576040517f08c379a0000000000000000000000000000000000000000000000000000000008152600401610d2d90613400565b60405180910390fd5b80915050919050565b7f000000000000000000000000000000000000000000000000000000000000000081565b60008073ffffffffffffffffffffffffffffffffffffffff168273ffffffffffffffffffffffffffffffffffffffff1603610dd3576040517f08c379a0000000000000000000000000000000000000000000000000000000008152600401610dca90613492565b60405180910390fd5b600360008373ffffffffffffffffffffffffffffffffffffffff1673ffffffffffffffffffffffffffffffffffffffff168152602001908152602001600020549050919050565b6000807f000000000000000000000000000000000000000000000000000000000000000073ffffffffffffffffffffffffffffffffffffffff166370a08231846040518263ffffffff1660e01b8152600401610e769190612806565b602060405180830381865afa158015610e93573d6000803e3d6000fd5b505050506040513d601f19601f82011682018060405250810190610eb791906134c7565b119050919050565b60606040518060400160405280600781526020017f4b4f525544414f00000000000000000000000000000000000000000000000000815250905090565b600a8054610f0990613523565b80601f0160208091040260200160405190810160405280929190818152602001828054610f3590613523565b8015610f825780601f10610f5757610100808354040283529160200191610f82565b820191906000526020600020905b815481529060010190602001808311610f6557829003601f168201915b505050505081565b610f92611500565b73ffffffffffffffffffffffffffffffffffffffff163373ffffffffffffffffffffffffffffffffffffffff1614610fff576040517f08c379a0000000000000000000000000000000000000000000000000000000008152600401610ff690613189565b60405180910390fd5b80600a9080519060200190611015929190612535565b5050565b61102b6110246113f7565b838361186d565b5050565b7f000000000000000000000000000000000000000000000000000000000000000081565b61106461105e6113f7565b83611529565b6110a3576040517f08c379a000000000000000000000000000000000000000000000000000000000815260040161109a9061321b565b60405180910390fd5b6110af848484846119d9565b50505050565b60606110c08261138b565b6110ff576040517f08c379a00000000000000000000000000000000000000000000000000000000081526004016110f6906135c6565b60405180910390fd5b6000611109611a35565b905060007f000000000000000000000000000000000000000000000000000000000000000015801561115a57507f000000000000000000000000000000000000000000000000000000000000000084115b611164578361119d565b60017f0000000000000000000000000000000000000000000000000000000000000000856111929190613615565b61119c91906130e7565b5b905060008251116111bd57604051806020016040528060008152506111e8565b816111c782611ac7565b6040516020016111d89291906136ce565b6040516020818303038152906040525b92505050919050565b7f000000000000000000000000000000000000000000000000000000000000000081565b6000600560008473ffffffffffffffffffffffffffffffffffffffff1673ffffffffffffffffffffffffffffffffffffffff16815260200190815260200160002060008373ffffffffffffffffffffffffffffffffffffffff1673ffffffffffffffffffffffffffffffffffffffff16815260200190815260200160002060009054906101000a900460ff16905092915050565b60007f80ac58cd000000000000000000000000000000000000000000000000000000007bffffffffffffffffffffffffffffffffffffffffffffffffffffffff1916827bffffffffffffffffffffffffffffffffffffffffffffffffffffffff1916148061137457507f5b5e139f000000000000000000000000000000000000000000000000000000007bffffffffffffffffffffffffffffffffffffffffffffffffffffffff1916827bffffffffffffffffffffffffffffffffffffffffffffffffffffffff1916145b80611384575061138382611c27565b5b9050919050565b60008073ffffffffffffffffffffffffffffffffffffffff166002600084815260200190815260200160002060009054906101000a900473ffffffffffffffffffffffffffffffffffffffff1673ffffffffffffffffffffffffffffffffffffffff1614159050919050565b600061140233610c23565b1561141657601436033560601c9050611425565b61141e611c91565b9050611426565b5b90565b816004600083815260200190815260200160002060006101000a81548173ffffffffffffffffffffffffffffffffffffffff021916908373ffffffffffffffffffffffffffffffffffffffff160217905550808273ffffffffffffffffffffffffffffffffffffffff1661149c83610c8e565b73ffffffffffffffffffffffffffffffffffffffff167f8c5be1e5ebec7d5bd14f71427d1e84f3dd0314c0f7b2291e5b200ac8c7c3b92560405160405180910390a45050565b6114fc828260405180602001604052806000815250611c99565b5050565b60007fb53127684a568b3173ae13b9f8a6016e243e63b6e8ee1178d6a717850b5d610354905090565b60006115348261138b565b611573576040517f08c379a000000000000000000000000000000000000000000000000000000000815260040161156a9061376f565b60405180910390fd5b600061157e83610c8e565b90508073ffffffffffffffffffffffffffffffffffffffff168473ffffffffffffffffffffffffffffffffffffffff1614806115ed57508373ffffffffffffffffffffffffffffffffffffffff166115d584610621565b73ffffffffffffffffffffffffffffffffffffffff16145b806115fe57506115fd8185611215565b5b91505092915050565b8273ffffffffffffffffffffffffffffffffffffffff1661162782610c8e565b73ffffffffffffffffffffffffffffffffffffffff161461167d576040517f08c379a000000000000000000000000000000000000000000000000000000000815260040161167490613801565b60405180910390fd5b600073ffffffffffffffffffffffffffffffffffffffff168273ffffffffffffffffffffffffffffffffffffffff16036116ec576040517f08c379a00000000000000000000000000000000000000000000000000000000081526004016116e390613893565b60405180910390fd5b6116f7838383611cf4565b611702600082611429565b6001600360008573ffffffffffffffffffffffffffffffffffffffff1673ffffffffffffffffffffffffffffffffffffffff168152602001908152602001600020600082825461175291906138b3565b925050819055506001600360008473ffffffffffffffffffffffffffffffffffffffff1673ffffffffffffffffffffffffffffffffffffffff16815260200190815260200160002060008282546117a991906130e7565b92505081905550816002600083815260200190815260200160002060006101000a81548173ffffffffffffffffffffffffffffffffffffffff021916908373ffffffffffffffffffffffffffffffffffffffff160217905550808273ffffffffffffffffffffffffffffffffffffffff168473ffffffffffffffffffffffffffffffffffffffff167fddf252ad1be2c89b69c2b068fc378daa952ba7f163c4a11628f55a4df523b3ef60405160405180910390a4611868838383611d42565b505050565b8173ffffffffffffffffffffffffffffffffffffffff168373ffffffffffffffffffffffffffffffffffffffff16036118db576040517f08c379a00000000000000000000000000000000000000000000000000000000081526004016118d290613933565b60405180910390fd5b80600560008573ffffffffffffffffffffffffffffffffffffffff1673ffffffffffffffffffffffffffffffffffffffff16815260200190815260200160002060008473ffffffffffffffffffffffffffffffffffffffff1673ffffffffffffffffffffffffffffffffffffffff16815260200190815260200160002060006101000a81548160ff0219169083151502179055508173ffffffffffffffffffffffffffffffffffffffff168373ffffffffffffffffffffffffffffffffffffffff167f17307eab39ab6107e8899845ad3d59bd9653f200f220920489ca2b5937696c31836040516119cc919061268c565b60405180910390a3505050565b6119e4848484611607565b6119f084848484611d47565b611a2f576040517f08c379a0000000000000000000000000000000000000000000000000000000008152600401611a26906139c5565b60405180910390fd5b50505050565b6060600a8054611a4490613523565b80601f0160208091040260200160405190810160405280929190818152602001828054611a7090613523565b8015611abd5780601f10611a9257610100808354040283529160200191611abd565b820191906000526020600020905b815481529060010190602001808311611aa057829003601f168201915b5050505050905090565b606060008203611b0e576040518060400160405280600181526020017f30000000000000000000000000000000000000000000000000000000000000008152509050611c22565b600082905060005b60008214611b40578080611b29906139e5565b915050600a82611b399190613a2d565b9150611b16565b60008167ffffffffffffffff811115611b5c57611b5b61299a565b5b6040519080825280601f01601f191660200182016040528015611b8e5781602001600182028036833780820191505090505b5090505b60008514611c1b57600182611ba791906138b3565b9150600a85611bb69190613615565b6030611bc291906130e7565b60f81b818381518110611bd857611bd761335f565b5b60200101907effffffffffffffffffffffffffffffffffffffffffffffffffffffffffffff1916908160001a905350600a85611c149190613a2d565b9450611b92565b8093505050505b919050565b60007f01ffc9a7000000000000000000000000000000000000000000000000000000007bffffffffffffffffffffffffffffffffffffffffffffffffffffffff1916827bffffffffffffffffffffffffffffffffffffffffffffffffffffffff1916149050919050565b600033905090565b611ca38383611ece565b611cb06000848484611d47565b611cef576040517f08c379a0000000000000000000000000000000000000000000000000000000008152600401611ce6906139c5565b60405180910390fd5b505050565b600073ffffffffffffffffffffffffffffffffffffffff168273ffffffffffffffffffffffffffffffffffffffff1614611d3257611d31826120a7565b5b611d3d8383836120f5565b505050565b505050565b6000611d688473ffffffffffffffffffffffffffffffffffffffff16612207565b15611ec1578373ffffffffffffffffffffffffffffffffffffffff1663150b7a02611d916113f7565b8786866040518563ffffffff1660e01b8152600401611db39493929190613ab3565b6020604051808303816000875af1925050508015611def57506040513d601f19601f82011682018060405250810190611dec9190613b14565b60015b611e71573d8060008114611e1f576040519150601f19603f3d011682016040523d82523d6000602084013e611e24565b606091505b506000815103611e69576040517f08c379a0000000000000000000000000000000000000000000000000000000008152600401611e60906139c5565b60405180910390fd5b805181602001fd5b63150b7a0260e01b7bffffffffffffffffffffffffffffffffffffffffffffffffffffffff1916817bffffffffffffffffffffffffffffffffffffffffffffffffffffffff191614915050611ec6565b600190505b949350505050565b600073ffffffffffffffffffffffffffffffffffffffff168273ffffffffffffffffffffffffffffffffffffffff1603611f3d576040517f08c379a0000000000000000000000000000000000000000000000000000000008152600401611f3490613b8d565b60405180910390fd5b611f468161138b565b15611f86576040517f08c379a0000000000000000000000000000000000000000000000000000000008152600401611f7d90613bf9565b60405180910390fd5b611f9260008383611cf4565b6001600360008473ffffffffffffffffffffffffffffffffffffffff1673ffffffffffffffffffffffffffffffffffffffff1681526020019081526020016000206000828254611fe291906130e7565b92505081905550816002600083815260200190815260200160002060006101000a81548173ffffffffffffffffffffffffffffffffffffffff021916908373ffffffffffffffffffffffffffffffffffffffff160217905550808273ffffffffffffffffffffffffffffffffffffffff16600073ffffffffffffffffffffffffffffffffffffffff167fddf252ad1be2c89b69c2b068fc378daa952ba7f163c4a11628f55a4df523b3ef60405160405180910390a46120a360008383611d42565b5050565b60006120b282610d63565b146120f2576040517f08c379a00000000000000000000000000000000000000000000000000000000081526004016120e990613c65565b60405180910390fd5b50565b61210083838361222a565b600073ffffffffffffffffffffffffffffffffffffffff168373ffffffffffffffffffffffffffffffffffffffff16036121425761213d8161222f565b612181565b8173ffffffffffffffffffffffffffffffffffffffff168373ffffffffffffffffffffffffffffffffffffffff16146121805761217f8382612278565b5b5b600073ffffffffffffffffffffffffffffffffffffffff168273ffffffffffffffffffffffffffffffffffffffff16036121c3576121be816123e5565b612202565b8273ffffffffffffffffffffffffffffffffffffffff168273ffffffffffffffffffffffffffffffffffffffff16146122015761220082826124b6565b5b5b505050565b6000808273ffffffffffffffffffffffffffffffffffffffff163b119050919050565b505050565b6008805490506009600083815260200190815260200160002081905550600881908060018154018082558091505060019003906000526020600020016000909190919091505550565b6000600161228584610d63565b61228f91906138b3565b9050600060076000848152602001908152602001600020549050818114612374576000600660008673ffffffffffffffffffffffffffffffffffffffff1673ffffffffffffffffffffffffffffffffffffffff168152602001908152602001600020600084815260200190815260200160002054905080600660008773ffffffffffffffffffffffffffffffffffffffff1673ffffffffffffffffffffffffffffffffffffffff168152602001908152602001600020600084815260200190815260200160002081905550816007600083815260200190815260200160002081905550505b6007600084815260200190815260200160002060009055600660008573ffffffffffffffffffffffffffffffffffffffff1673ffffffffffffffffffffffffffffffffffffffff16815260200190815260200160002060008381526020019081526020016000206000905550505050565b600060016008805490506123f991906138b3565b90506000600960008481526020019081526020016000205490506000600883815481106124295761242861335f565b5b90600052602060002001549050806008838154811061244b5761244a61335f565b5b90600052602060002001819055508160096000838152602001908152602001600020819055506009600085815260200190815260200160002060009055600880548061249a57612499613c85565b5b6001900381819060005260206000200160009055905550505050565b60006124c183610d63565b905081600660008573ffffffffffffffffffffffffffffffffffffffff1673ffffffffffffffffffffffffffffffffffffffff168152602001908152602001600020600083815260200190815260200160002081905550806007600084815260200190815260200160002081905550505050565b82805461254190613523565b90600052602060002090601f01602090048101928261256357600085556125aa565b82601f1061257c57805160ff19168380011785556125aa565b828001600101855582156125aa579182015b828111156125a957825182559160200191906001019061258e565b5b5090506125b791906125bb565b5090565b5b808211156125d45760008160009055506001016125bc565b5090565b6000604051905090565b600080fd5b600080fd5b60007fffffffff0000000000000000000000000000000000000000000000000000000082169050919050565b612621816125ec565b811461262c57600080fd5b50565b60008135905061263e81612618565b92915050565b60006020828403121561265a576126596125e2565b5b60006126688482850161262f565b91505092915050565b60008115159050919050565b61268681612671565b82525050565b60006020820190506126a1600083018461267d565b92915050565b600081519050919050565b600082825260208201905092915050565b60005b838110156126e15780820151818401526020810190506126c6565b838111156126f0576000848401525b50505050565b6000601f19601f8301169050919050565b6000612712826126a7565b61271c81856126b2565b935061272c8185602086016126c3565b612735816126f6565b840191505092915050565b6000602082019050818103600083015261275a8184612707565b905092915050565b6000819050919050565b61277581612762565b811461278057600080fd5b50565b6000813590506127928161276c565b92915050565b6000602082840312156127ae576127ad6125e2565b5b60006127bc84828501612783565b91505092915050565b600073ffffffffffffffffffffffffffffffffffffffff82169050919050565b60006127f0826127c5565b9050919050565b612800816127e5565b82525050565b600060208201905061281b60008301846127f7565b92915050565b61282a816127e5565b811461283557600080fd5b50565b60008135905061284781612821565b92915050565b60008060408385031215612864576128636125e2565b5b600061287285828601612838565b925050602061288385828601612783565b9150509250929050565b61289681612671565b81146128a157600080fd5b50565b6000813590506128b38161288d565b92915050565b6000602082840312156128cf576128ce6125e2565b5b60006128dd848285016128a4565b91505092915050565b6128ef81612762565b82525050565b600060208201905061290a60008301846128e6565b92915050565b600080600060608486031215612929576129286125e2565b5b600061293786828701612838565b935050602061294886828701612838565b925050604061295986828701612783565b9150509250925092565b600060208284031215612979576129786125e2565b5b600061298784828501612838565b91505092915050565b600080fd5b600080fd5b7f4e487b7100000000000000000000000000000000000000000000000000000000600052604160045260246000fd5b6129d2826126f6565b810181811067ffffffffffffffff821117156129f1576129f061299a565b5b80604052505050565b6000612a046125d8565b9050612a1082826129c9565b919050565b600067ffffffffffffffff821115612a3057612a2f61299a565b5b612a39826126f6565b9050602081019050919050565b82818337600083830152505050565b6000612a68612a6384612a15565b6129fa565b905082815260208101848484011115612a8457612a83612995565b5b612a8f848285612a46565b509392505050565b600082601f830112612aac57612aab612990565b5b8135612abc848260208601612a55565b91505092915050565b600060208284031215612adb57612ada6125e2565b5b600082013567ffffffffffffffff811115612af957612af86125e7565b5b612b0584828501612a97565b91505092915050565b60008060408385031215612b2557612b246125e2565b5b6000612b3385828601612838565b9250506020612b44858286016128a4565b9150509250929050565b6000819050919050565b6000612b73612b6e612b69846127c5565b612b4e565b6127c5565b9050919050565b6000612b8582612b58565b9050919050565b6000612b9782612b7a565b9050919050565b612ba781612b8c565b82525050565b6000602082019050612bc26000830184612b9e565b92915050565b600067ffffffffffffffff821115612be357612be261299a565b5b612bec826126f6565b9050602081019050919050565b6000612c0c612c0784612bc8565b6129fa565b905082815260208101848484011115612c2857612c27612995565b5b612c33848285612a46565b509392505050565b600082601f830112612c5057612c4f612990565b5b8135612c60848260208601612bf9565b91505092915050565b60008060008060808587031215612c8357612c826125e2565b5b6000612c9187828801612838565b9450506020612ca287828801612838565b9350506040612cb387828801612783565b925050606085013567ffffffffffffffff811115612cd457612cd36125e7565b5b612ce087828801612c3b565b91505092959194509250565b60008060408385031215612d0357612d026125e2565b5b6000612d1185828601612838565b9250506020612d2285828601612838565b9150509250929050565b7f4552433732313a20617070726f76656420717565727920666f72206e6f6e657860008201527f697374656e7420746f6b656e0000000000000000000000000000000000000000602082015250565b6000612d88602c836126b2565b9150612d9382612d2c565b604082019050919050565b60006020820190508181036000830152612db781612d7b565b9050919050565b7f4552433732313a20617070726f76616c20746f2063757272656e74206f776e6560008201527f7200000000000000000000000000000000000000000000000000000000000000602082015250565b6000612e1a6021836126b2565b9150612e2582612dbe565b604082019050919050565b60006020820190508181036000830152612e4981612e0d565b9050919050565b7f4552433732313a20617070726f76652063616c6c6572206973206e6f74206f7760008201527f6e6572206e6f7220617070726f76656420666f7220616c6c0000000000000000602082015250565b6000612eac6038836126b2565b9150612eb782612e50565b604082019050919050565b60006020820190508181036000830152612edb81612e9f565b9050919050565b7f4b6f727544616f4e46543a205061757365640000000000000000000000000000600082015250565b6000612f186012836126b2565b9150612f2382612ee2565b602082019050919050565b60006020820190508181036000830152612f4781612f0b565b9050919050565b7f5265737472696374696f6e733a204f6e6c792047656c61746f2072656c617900600082015250565b6000612f84601f836126b2565b9150612f8f82612f4e565b602082019050919050565b60006020820190508181036000830152612fb381612f77565b9050919050565b7f5265737472696374696f6e733a204f6e6c79206c656e732070726f66696c652060008201527f686f6c6465720000000000000000000000000000000000000000000000000000602082015250565b60006130166026836126b2565b915061302182612fba565b604082019050919050565b6000602082019050818103600083015261304581613009565b9050919050565b7f4b6f727544616f4e46543a204d617820537570706c7900000000000000000000600082015250565b60006130826016836126b2565b915061308d8261304c565b602082019050919050565b600060208201905081810360008301526130b181613075565b9050919050565b7f4e487b7100000000000000000000000000000000000000000000000000000000600052601160045260246000fd5b60006130f282612762565b91506130fd83612762565b9250827fffffffffffffffffffffffffffffffffffffffffffffffffffffffffffffffff03821115613132576131316130b8565b5b828201905092915050565b7f4e4f545f415554484f52495a4544000000000000000000000000000000000000600082015250565b6000613173600e836126b2565b915061317e8261313d565b602082019050919050565b600060208201905081810360008301526131a281613166565b9050919050565b7f4552433732313a207472616e736665722063616c6c6572206973206e6f74206f60008201527f776e6572206e6f7220617070726f766564000000000000000000000000000000602082015250565b60006132056031836126b2565b9150613210826131a9565b604082019050919050565b60006020820190508181036000830152613234816131f8565b9050919050565b7f455243373231456e756d657261626c653a206f776e657220696e646578206f7560008201527f74206f6620626f756e6473000000000000000000000000000000000000000000602082015250565b6000613297602b836126b2565b91506132a28261323b565b604082019050919050565b600060208201905081810360008301526132c68161328a565b9050919050565b7f455243373231456e756d657261626c653a20676c6f62616c20696e646578206f60008201527f7574206f6620626f756e64730000000000000000000000000000000000000000602082015250565b6000613329602c836126b2565b9150613334826132cd565b604082019050919050565b600060208201905081810360008301526133588161331c565b9050919050565b7f4e487b7100000000000000000000000000000000000000000000000000000000600052603260045260246000fd5b7f4552433732313a206f776e657220717565727920666f72206e6f6e657869737460008201527f656e7420746f6b656e0000000000000000000000000000000000000000000000602082015250565b60006133ea6029836126b2565b91506133f58261338e565b604082019050919050565b60006020820190508181036000830152613419816133dd565b9050919050565b7f4552433732313a2062616c616e636520717565727920666f7220746865207a6560008201527f726f206164647265737300000000000000000000000000000000000000000000602082015250565b600061347c602a836126b2565b915061348782613420565b604082019050919050565b600060208201905081810360008301526134ab8161346f565b9050919050565b6000815190506134c18161276c565b92915050565b6000602082840312156134dd576134dc6125e2565b5b60006134eb848285016134b2565b91505092915050565b7f4e487b7100000000000000000000000000000000000000000000000000000000600052602260045260246000fd5b6000600282049050600182168061353b57607f821691505b60208210810361354e5761354d6134f4565b5b50919050565b7f4552433732314d657461646174613a2055524920717565727920666f72206e6f60008201527f6e6578697374656e7420746f6b656e0000000000000000000000000000000000602082015250565b60006135b0602f836126b2565b91506135bb82613554565b604082019050919050565b600060208201905081810360008301526135df816135a3565b9050919050565b7f4e487b7100000000000000000000000000000000000000000000000000000000600052601260045260246000fd5b600061362082612762565b915061362b83612762565b92508261363b5761363a6135e6565b5b828206905092915050565b600081905092915050565b600061365c826126a7565b6136668185613646565b93506136768185602086016126c3565b80840191505092915050565b7f2e6a736f6e000000000000000000000000000000000000000000000000000000600082015250565b60006136b8600583613646565b91506136c382613682565b600582019050919050565b60006136da8285613651565b91506136e68284613651565b91506136f1826136ab565b91508190509392505050565b7f4552433732313a206f70657261746f7220717565727920666f72206e6f6e657860008201527f697374656e7420746f6b656e0000000000000000000000000000000000000000602082015250565b6000613759602c836126b2565b9150613764826136fd565b604082019050919050565b600060208201905081810360008301526137888161374c565b9050919050565b7f4552433732313a207472616e736665722066726f6d20696e636f72726563742060008201527f6f776e6572000000000000000000000000000000000000000000000000000000602082015250565b60006137eb6025836126b2565b91506137f68261378f565b604082019050919050565b6000602082019050818103600083015261381a816137de565b9050919050565b7f4552433732313a207472616e7366657220746f20746865207a65726f2061646460008201527f7265737300000000000000000000000000000000000000000000000000000000602082015250565b600061387d6024836126b2565b915061388882613821565b604082019050919050565b600060208201905081810360008301526138ac81613870565b9050919050565b60006138be82612762565b91506138c983612762565b9250828210156138dc576138db6130b8565b5b828203905092915050565b7f4552433732313a20617070726f766520746f2063616c6c657200000000000000600082015250565b600061391d6019836126b2565b9150613928826138e7565b602082019050919050565b6000602082019050818103600083015261394c81613910565b9050919050565b7f4552433732313a207472616e7366657220746f206e6f6e20455243373231526560008201527f63656976657220696d706c656d656e7465720000000000000000000000000000602082015250565b60006139af6032836126b2565b91506139ba82613953565b604082019050919050565b600060208201905081810360008301526139de816139a2565b9050919050565b60006139f082612762565b91507fffffffffffffffffffffffffffffffffffffffffffffffffffffffffffffffff8203613a2257613a216130b8565b5b600182019050919050565b6000613a3882612762565b9150613a4383612762565b925082613a5357613a526135e6565b5b828204905092915050565b600081519050919050565b600082825260208201905092915050565b6000613a8582613a5e565b613a8f8185613a69565b9350613a9f8185602086016126c3565b613aa8816126f6565b840191505092915050565b6000608082019050613ac860008301876127f7565b613ad560208301866127f7565b613ae260408301856128e6565b8181036060830152613af48184613a7a565b905095945050505050565b600081519050613b0e81612618565b92915050565b600060208284031215613b2a57613b296125e2565b5b6000613b3884828501613aff565b91505092915050565b7f4552433732313a206d696e7420746f20746865207a65726f2061646472657373600082015250565b6000613b776020836126b2565b9150613b8282613b41565b602082019050919050565b60006020820190508181036000830152613ba681613b6a565b9050919050565b7f4552433732313a20746f6b656e20616c7265616479206d696e74656400000000600082015250565b6000613be3601c836126b2565b9150613bee82613bad565b602082019050919050565b60006020820190508181036000830152613c1281613bd6565b9050919050565b7f4b6f727544616f4e46543a204f6e6520706572206163636f756e740000000000600082015250565b6000613c4f601b836126b2565b9150613c5a82613c19565b602082019050919050565b60006020820190508181036000830152613c7e81613c42565b9050919050565b7f4e487b7100000000000000000000000000000000000000000000000000000000600052603160045260246000fdfea264697066735822122022fdb537bc57d3a462580b13e62f37f85a874193f1767824b7ba2b63fddb9a6864736f6c634300080e0033",
  "devdoc": {
    "kind": "dev",
    "methods": {
      "approve(address,uint256)": {
        "details": "See {IERC721-approve}."
      },
      "balanceOf(address)": {
        "details": "See {IERC721-balanceOf}."
      },
      "getApproved(uint256)": {
        "details": "See {IERC721-getApproved}."
      },
      "isApprovedForAll(address,address)": {
        "details": "See {IERC721-isApprovedForAll}."
      },
      "name()": {
        "details": "See {IERC721Metadata-name}."
      },
      "ownerOf(uint256)": {
        "details": "See {IERC721-ownerOf}."
      },
      "safeTransferFrom(address,address,uint256)": {
        "details": "See {IERC721-safeTransferFrom}."
      },
      "safeTransferFrom(address,address,uint256,bytes)": {
        "details": "See {IERC721-safeTransferFrom}."
      },
      "setApprovalForAll(address,bool)": {
        "details": "See {IERC721-setApprovalForAll}."
      },
      "supportsInterface(bytes4)": {
        "details": "See {IERC165-supportsInterface}."
      },
      "symbol()": {
        "details": "See {IERC721Metadata-symbol}."
      },
      "tokenByIndex(uint256)": {
        "details": "See {IERC721Enumerable-tokenByIndex}."
      },
      "tokenOfOwnerByIndex(address,uint256)": {
        "details": "See {IERC721Enumerable-tokenOfOwnerByIndex}."
      },
      "tokenURI(uint256)": {
        "details": "See {IERC721Metadata-tokenURI}."
      },
      "totalSupply()": {
        "details": "See {IERC721Enumerable-totalSupply}."
      },
      "transferFrom(address,address,uint256)": {
        "details": "See {IERC721-transferFrom}."
      }
    },
    "version": 1
  },
  "userdoc": {
    "kind": "user",
    "methods": {},
    "version": 1
  },
  "storageLayout": {
    "storage": [
      {
        "astId": 1915,
        "contract": "contracts/KoruDaoNFT.sol:KoruDaoNFT",
        "label": "_name",
        "offset": 0,
        "slot": "0",
        "type": "t_string_storage"
      },
      {
        "astId": 1917,
        "contract": "contracts/KoruDaoNFT.sol:KoruDaoNFT",
        "label": "_symbol",
        "offset": 0,
        "slot": "1",
        "type": "t_string_storage"
      },
      {
        "astId": 1921,
        "contract": "contracts/KoruDaoNFT.sol:KoruDaoNFT",
        "label": "_owners",
        "offset": 0,
        "slot": "2",
        "type": "t_mapping(t_uint256,t_address)"
      },
      {
        "astId": 1925,
        "contract": "contracts/KoruDaoNFT.sol:KoruDaoNFT",
        "label": "_balances",
        "offset": 0,
        "slot": "3",
        "type": "t_mapping(t_address,t_uint256)"
      },
      {
        "astId": 1929,
        "contract": "contracts/KoruDaoNFT.sol:KoruDaoNFT",
        "label": "_tokenApprovals",
        "offset": 0,
        "slot": "4",
        "type": "t_mapping(t_uint256,t_address)"
      },
      {
        "astId": 1935,
        "contract": "contracts/KoruDaoNFT.sol:KoruDaoNFT",
        "label": "_operatorApprovals",
        "offset": 0,
        "slot": "5",
        "type": "t_mapping(t_address,t_mapping(t_address,t_bool))"
      },
      {
        "astId": 2775,
        "contract": "contracts/KoruDaoNFT.sol:KoruDaoNFT",
        "label": "_ownedTokens",
        "offset": 0,
        "slot": "6",
        "type": "t_mapping(t_address,t_mapping(t_uint256,t_uint256))"
      },
      {
        "astId": 2779,
        "contract": "contracts/KoruDaoNFT.sol:KoruDaoNFT",
        "label": "_ownedTokensIndex",
        "offset": 0,
        "slot": "7",
        "type": "t_mapping(t_uint256,t_uint256)"
      },
      {
        "astId": 2782,
        "contract": "contracts/KoruDaoNFT.sol:KoruDaoNFT",
        "label": "_allTokens",
        "offset": 0,
        "slot": "8",
        "type": "t_array(t_uint256)dyn_storage"
      },
      {
        "astId": 2786,
        "contract": "contracts/KoruDaoNFT.sol:KoruDaoNFT",
        "label": "_allTokensIndex",
        "offset": 0,
        "slot": "9",
        "type": "t_mapping(t_uint256,t_uint256)"
      },
      {
        "astId": 853,
        "contract": "contracts/KoruDaoNFT.sol:KoruDaoNFT",
        "label": "baseUri",
        "offset": 0,
        "slot": "10",
        "type": "t_string_storage"
      },
      {
        "astId": 855,
        "contract": "contracts/KoruDaoNFT.sol:KoruDaoNFT",
        "label": "paused",
        "offset": 0,
        "slot": "11",
        "type": "t_bool"
      }
    ],
    "types": {
      "t_address": {
        "encoding": "inplace",
        "label": "address",
        "numberOfBytes": "20"
      },
      "t_array(t_uint256)dyn_storage": {
        "base": "t_uint256",
        "encoding": "dynamic_array",
        "label": "uint256[]",
        "numberOfBytes": "32"
      },
      "t_bool": {
        "encoding": "inplace",
        "label": "bool",
        "numberOfBytes": "1"
      },
      "t_mapping(t_address,t_bool)": {
        "encoding": "mapping",
        "key": "t_address",
        "label": "mapping(address => bool)",
        "numberOfBytes": "32",
        "value": "t_bool"
      },
      "t_mapping(t_address,t_mapping(t_address,t_bool))": {
        "encoding": "mapping",
        "key": "t_address",
        "label": "mapping(address => mapping(address => bool))",
        "numberOfBytes": "32",
        "value": "t_mapping(t_address,t_bool)"
      },
      "t_mapping(t_address,t_mapping(t_uint256,t_uint256))": {
        "encoding": "mapping",
        "key": "t_address",
        "label": "mapping(address => mapping(uint256 => uint256))",
        "numberOfBytes": "32",
        "value": "t_mapping(t_uint256,t_uint256)"
      },
      "t_mapping(t_address,t_uint256)": {
        "encoding": "mapping",
        "key": "t_address",
        "label": "mapping(address => uint256)",
        "numberOfBytes": "32",
        "value": "t_uint256"
      },
      "t_mapping(t_uint256,t_address)": {
        "encoding": "mapping",
        "key": "t_uint256",
        "label": "mapping(uint256 => address)",
        "numberOfBytes": "32",
        "value": "t_address"
      },
      "t_mapping(t_uint256,t_uint256)": {
        "encoding": "mapping",
        "key": "t_uint256",
        "label": "mapping(uint256 => uint256)",
        "numberOfBytes": "32",
        "value": "t_uint256"
      },
      "t_string_storage": {
        "encoding": "bytes",
        "label": "string",
        "numberOfBytes": "32"
      },
      "t_uint256": {
        "encoding": "inplace",
        "label": "uint256",
        "numberOfBytes": "32"
      }
    }
  }
}