{
  "address": "0x66707DADd719EeCc7f8F3dbC02C814C6f3c9108C",
  "abi": [
    {
      "inputs": [
        {
          "internalType": "bool",
          "name": "_restricted",
          "type": "bool"
        },
        {
          "internalType": "uint256",
          "name": "_maxSupply",
          "type": "uint256"
        },
        {
          "internalType": "contract ILensHub",
          "name": "_lensHub",
          "type": "address"
        },
        {
          "internalType": "address",
          "name": "_gelatoRelay",
          "type": "address"
        }
      ],
      "stateMutability": "nonpayable",
      "type": "constructor"
    },
    {
      "anonymous": false,
      "inputs": [
        {
          "indexed": true,
          "internalType": "address",
          "name": "owner",
          "type": "address"
        },
        {
          "indexed": true,
          "internalType": "address",
          "name": "approved",
          "type": "address"
        },
        {
          "indexed": true,
          "internalType": "uint256",
          "name": "tokenId",
          "type": "uint256"
        }
      ],
      "name": "Approval",
      "type": "event"
    },
    {
      "anonymous": false,
      "inputs": [
        {
          "indexed": true,
          "internalType": "address",
          "name": "owner",
          "type": "address"
        },
        {
          "indexed": true,
          "internalType": "address",
          "name": "operator",
          "type": "address"
        },
        {
          "indexed": false,
          "internalType": "bool",
          "name": "approved",
          "type": "bool"
        }
      ],
      "name": "ApprovalForAll",
      "type": "event"
    },
    {
      "anonymous": false,
      "inputs": [
        {
          "indexed": true,
          "internalType": "address",
          "name": "from",
          "type": "address"
        },
        {
          "indexed": true,
          "internalType": "address",
          "name": "to",
          "type": "address"
        },
        {
          "indexed": true,
          "internalType": "uint256",
          "name": "tokenId",
          "type": "uint256"
        }
      ],
      "name": "Transfer",
      "type": "event"
    },
    {
      "inputs": [
        {
          "internalType": "address",
          "name": "to",
          "type": "address"
        },
        {
          "internalType": "uint256",
          "name": "tokenId",
          "type": "uint256"
        }
      ],
      "name": "approve",
      "outputs": [],
      "stateMutability": "nonpayable",
      "type": "function"
    },
    {
      "inputs": [
        {
          "internalType": "address",
          "name": "owner",
          "type": "address"
        }
      ],
      "name": "balanceOf",
      "outputs": [
        {
          "internalType": "uint256",
          "name": "",
          "type": "uint256"
        }
      ],
      "stateMutability": "view",
      "type": "function"
    },
    {
      "inputs": [],
      "name": "baseUri",
      "outputs": [
        {
          "internalType": "string",
          "name": "",
          "type": "string"
        }
      ],
      "stateMutability": "view",
      "type": "function"
    },
    {
      "inputs": [],
      "name": "gelatoRelay",
      "outputs": [
        {
          "internalType": "address",
          "name": "",
          "type": "address"
        }
      ],
      "stateMutability": "view",
      "type": "function"
    },
    {
      "inputs": [
        {
          "internalType": "uint256",
          "name": "tokenId",
          "type": "uint256"
        }
      ],
      "name": "getApproved",
      "outputs": [
        {
          "internalType": "address",
          "name": "",
          "type": "address"
        }
      ],
      "stateMutability": "view",
      "type": "function"
    },
    {
      "inputs": [
        {
          "internalType": "address",
          "name": "_wallet",
          "type": "address"
        }
      ],
      "name": "hasLensProfile",
      "outputs": [
        {
          "internalType": "bool",
          "name": "",
          "type": "bool"
        }
      ],
      "stateMutability": "view",
      "type": "function"
    },
    {
      "inputs": [
        {
          "internalType": "address",
          "name": "owner",
          "type": "address"
        },
        {
          "internalType": "address",
          "name": "operator",
          "type": "address"
        }
      ],
      "name": "isApprovedForAll",
      "outputs": [
        {
          "internalType": "bool",
          "name": "",
          "type": "bool"
        }
      ],
      "stateMutability": "view",
      "type": "function"
    },
    {
      "inputs": [
        {
          "internalType": "address",
          "name": "forwarder",
          "type": "address"
        }
      ],
      "name": "isTrustedForwarder",
      "outputs": [
        {
          "internalType": "bool",
          "name": "",
          "type": "bool"
        }
      ],
      "stateMutability": "view",
      "type": "function"
    },
    {
      "inputs": [],
      "name": "lensHub",
      "outputs": [
        {
          "internalType": "contract ILensHub",
          "name": "",
          "type": "address"
        }
      ],
      "stateMutability": "view",
      "type": "function"
    },
    {
      "inputs": [],
      "name": "maxSupply",
      "outputs": [
        {
          "internalType": "uint256",
          "name": "",
          "type": "uint256"
        }
      ],
      "stateMutability": "view",
      "type": "function"
    },
    {
      "inputs": [],
      "name": "mint",
      "outputs": [],
      "stateMutability": "nonpayable",
      "type": "function"
    },
    {
      "inputs": [],
      "name": "name",
      "outputs": [
        {
          "internalType": "string",
          "name": "",
          "type": "string"
        }
      ],
      "stateMutability": "pure",
      "type": "function"
    },
    {
      "inputs": [
        {
          "internalType": "uint256",
          "name": "tokenId",
          "type": "uint256"
        }
      ],
      "name": "ownerOf",
      "outputs": [
        {
          "internalType": "address",
          "name": "",
          "type": "address"
        }
      ],
      "stateMutability": "view",
      "type": "function"
    },
    {
      "inputs": [],
      "name": "restricted",
      "outputs": [
        {
          "internalType": "bool",
          "name": "",
          "type": "bool"
        }
      ],
      "stateMutability": "view",
      "type": "function"
    },
    {
      "inputs": [
        {
          "internalType": "address",
          "name": "from",
          "type": "address"
        },
        {
          "internalType": "address",
          "name": "to",
          "type": "address"
        },
        {
          "internalType": "uint256",
          "name": "tokenId",
          "type": "uint256"
        }
      ],
      "name": "safeTransferFrom",
      "outputs": [],
      "stateMutability": "nonpayable",
      "type": "function"
    },
    {
      "inputs": [
        {
          "internalType": "address",
          "name": "from",
          "type": "address"
        },
        {
          "internalType": "address",
          "name": "to",
          "type": "address"
        },
        {
          "internalType": "uint256",
          "name": "tokenId",
          "type": "uint256"
        },
        {
          "internalType": "bytes",
          "name": "_data",
          "type": "bytes"
        }
      ],
      "name": "safeTransferFrom",
      "outputs": [],
      "stateMutability": "nonpayable",
      "type": "function"
    },
    {
      "inputs": [
        {
          "internalType": "address",
          "name": "operator",
          "type": "address"
        },
        {
          "internalType": "bool",
          "name": "approved",
          "type": "bool"
        }
      ],
      "name": "setApprovalForAll",
      "outputs": [],
      "stateMutability": "nonpayable",
      "type": "function"
    },
    {
      "inputs": [
        {
          "internalType": "string",
          "name": "_baseUri",
          "type": "string"
        }
      ],
      "name": "setBaseUri",
      "outputs": [],
      "stateMutability": "nonpayable",
      "type": "function"
    },
    {
      "inputs": [
        {
          "internalType": "bytes4",
          "name": "interfaceId",
          "type": "bytes4"
        }
      ],
      "name": "supportsInterface",
      "outputs": [
        {
          "internalType": "bool",
          "name": "",
          "type": "bool"
        }
      ],
      "stateMutability": "view",
      "type": "function"
    },
    {
      "inputs": [],
      "name": "symbol",
      "outputs": [
        {
          "internalType": "string",
          "name": "",
          "type": "string"
        }
      ],
      "stateMutability": "pure",
      "type": "function"
    },
    {
      "inputs": [
        {
          "internalType": "uint256",
          "name": "index",
          "type": "uint256"
        }
      ],
      "name": "tokenByIndex",
      "outputs": [
        {
          "internalType": "uint256",
          "name": "",
          "type": "uint256"
        }
      ],
      "stateMutability": "view",
      "type": "function"
    },
    {
      "inputs": [
        {
          "internalType": "address",
          "name": "owner",
          "type": "address"
        },
        {
          "internalType": "uint256",
          "name": "index",
          "type": "uint256"
        }
      ],
      "name": "tokenOfOwnerByIndex",
      "outputs": [
        {
          "internalType": "uint256",
          "name": "",
          "type": "uint256"
        }
      ],
      "stateMutability": "view",
      "type": "function"
    },
    {
      "inputs": [
        {
          "internalType": "uint256",
          "name": "tokenId",
          "type": "uint256"
        }
      ],
      "name": "tokenURI",
      "outputs": [
        {
          "internalType": "string",
          "name": "",
          "type": "string"
        }
      ],
      "stateMutability": "view",
      "type": "function"
    },
    {
      "inputs": [],
      "name": "totalSupply",
      "outputs": [
        {
          "internalType": "uint256",
          "name": "",
          "type": "uint256"
        }
      ],
      "stateMutability": "view",
      "type": "function"
    },
    {
      "inputs": [
        {
          "internalType": "address",
          "name": "from",
          "type": "address"
        },
        {
          "internalType": "address",
          "name": "to",
          "type": "address"
        },
        {
          "internalType": "uint256",
          "name": "tokenId",
          "type": "uint256"
        }
      ],
      "name": "transferFrom",
      "outputs": [],
      "stateMutability": "nonpayable",
      "type": "function"
    }
  ],
  "transactionHash": "0x1a32f982b05f9639b56ec9269f702966485f13181bc6cf8088cf5df53952d30b",
  "args": [
    false,
    0,
    "0x60Ae865ee4C725cd04353b5AAb364553f56ceF82",
    "0xaBcC9b596420A9E9172FD5938620E265a0f9Df92"
  ],
  "numDeployments": 9,
  "solcInputHash": "79383b9fa1f39ebc4429410624c99043",
  "bytecode": "0x6101206040523480156200001257600080fd5b5060405162003f0c38038062003f0c833981810160405281019062000038919062000374565b6040518060400160405280600c81526020017f4b6f72752044616f204e465400000000000000000000000000000000000000008152506040518060400160405280600781526020017f4b4f525544414f0000000000000000000000000000000000000000000000000081525082808786868215156080811515815250508173ffffffffffffffffffffffffffffffffffffffff1660a08173ffffffffffffffffffffffffffffffffffffffff16815250508073ffffffffffffffffffffffffffffffffffffffff1660c08173ffffffffffffffffffffffffffffffffffffffff16815250505050508073ffffffffffffffffffffffffffffffffffffffff1660e08173ffffffffffffffffffffffffffffffffffffffff16815250505082600090805190602001906200016d9291906200019d565b508160019080519060200190620001869291906200019d565b50505050826101008181525050505050506200044a565b828054620001ab9062000415565b90600052602060002090601f016020900481019282620001cf57600085556200021b565b82601f10620001ea57805160ff19168380011785556200021b565b828001600101855582156200021b579182015b828111156200021a578251825591602001919060010190620001fd565b5b5090506200022a91906200022e565b5090565b5b80821115620002495760008160009055506001016200022f565b5090565b600080fd5b60008115159050919050565b620002698162000252565b81146200027557600080fd5b50565b60008151905062000289816200025e565b92915050565b6000819050919050565b620002a4816200028f565b8114620002b057600080fd5b50565b600081519050620002c48162000299565b92915050565b600073ffffffffffffffffffffffffffffffffffffffff82169050919050565b6000620002f782620002ca565b9050919050565b60006200030b82620002ea565b9050919050565b6200031d81620002fe565b81146200032957600080fd5b50565b6000815190506200033d8162000312565b92915050565b6200034e81620002ea565b81146200035a57600080fd5b50565b6000815190506200036e8162000343565b92915050565b600080600080608085870312156200039157620003906200024d565b5b6000620003a18782880162000278565b9450506020620003b487828801620002b3565b9350506040620003c7878288016200032c565b9250506060620003da878288016200035d565b91505092959194509250565b7f4e487b7100000000000000000000000000000000000000000000000000000000600052602260045260246000fd5b600060028204905060018216806200042e57607f821691505b602082108103620004445762000443620003e6565b5b50919050565b60805160a05160c05160e05161010051613a5a620004b2600039600081816108630152818161088a0152610ffc01526000610ad80152600081816107500152610a21015260008181610cbd0152610ecf0152600081816107e60152610bdf0152613a5a6000f3fe608060405234801561001057600080fd5b50600436106101735760003560e01c80636352211e116100de578063a0bcfc7f11610097578063b88d4fde11610071578063b88d4fde14610460578063c87b56dd1461047c578063d5abeb01146104ac578063e985e9c5146104ca57610173565b8063a0bcfc7f1461040a578063a22cb46514610426578063b02cfdc31461044257610173565b80636352211e146103205780637072c6b11461035057806370a082311461036e578063908e3f851461039e57806395d89b41146103ce5780639abc8320146103ec57610173565b806323b872dd1161013057806323b872dd1461023a5780632f745c59146102565780633552221a1461028657806342842e0e146102a45780634f6ccce7146102c0578063572b6c05146102f057610173565b806301ffc9a71461017857806306fdde03146101a8578063081812fc146101c6578063095ea7b3146101f65780631249c58b1461021257806318160ddd1461021c575b600080fd5b610192600480360381019061018d919061244d565b6104fa565b60405161019f9190612495565b60405180910390f35b6101b0610574565b6040516101bd9190612549565b60405180910390f35b6101e060048036038101906101db91906125a1565b6105b1565b6040516101ed919061260f565b60405180910390f35b610210600480360381019061020b9190612656565b610636565b005b61021a61074d565b005b61022461090d565b60405161023191906126a5565b60405180910390f35b610254600480360381019061024f91906126c0565b61091a565b005b610270600480360381019061026b9190612656565b61097a565b60405161027d91906126a5565b60405180910390f35b61028e610a1f565b60405161029b919061260f565b60405180910390f35b6102be60048036038101906102b991906126c0565b610a43565b005b6102da60048036038101906102d591906125a1565b610a63565b6040516102e791906126a5565b60405180910390f35b61030a60048036038101906103059190612713565b610ad4565b6040516103179190612495565b60405180910390f35b61033a600480360381019061033591906125a1565b610b2c565b604051610347919061260f565b60405180910390f35b610358610bdd565b6040516103659190612495565b60405180910390f35b61038860048036038101906103839190612713565b610c01565b60405161039591906126a5565b60405180910390f35b6103b860048036038101906103b39190612713565b610cb8565b6040516103c59190612495565b60405180910390f35b6103d6610d5d565b6040516103e39190612549565b60405180910390f35b6103f4610d9a565b6040516104019190612549565b60405180910390f35b610424600480360381019061041f9190612875565b610e28565b005b610440600480360381019061043b91906128ea565b610eb7565b005b61044a610ecd565b6040516104579190612989565b60405180910390f35b61047a60048036038101906104759190612a45565b610ef1565b005b610496600480360381019061049191906125a1565b610f53565b6040516104a39190612549565b60405180910390f35b6104b4610ffa565b6040516104c191906126a5565b60405180910390f35b6104e460048036038101906104df9190612ac8565b61101e565b6040516104f19190612495565b60405180910390f35b60007f780e9d63000000000000000000000000000000000000000000000000000000007bffffffffffffffffffffffffffffffffffffffffffffffffffffffff1916827bffffffffffffffffffffffffffffffffffffffffffffffffffffffff1916148061056d575061056c826110b2565b5b9050919050565b60606040518060400160405280600881526020017f4b6f72752044616f000000000000000000000000000000000000000000000000815250905090565b60006105bc82611194565b6105fb576040517f08c379a00000000000000000000000000000000000000000000000000000000081526004016105f290612b7a565b60405180910390fd5b6004600083815260200190815260200160002060009054906101000a900473ffffffffffffffffffffffffffffffffffffffff169050919050565b600061064182610b2c565b90508073ffffffffffffffffffffffffffffffffffffffff168373ffffffffffffffffffffffffffffffffffffffff16036106b1576040517f08c379a00000000000000000000000000000000000000000000000000000000081526004016106a890612c0c565b60405180910390fd5b8073ffffffffffffffffffffffffffffffffffffffff166106d0611200565b73ffffffffffffffffffffffffffffffffffffffff1614806106ff57506106fe816106f9611200565b61101e565b5b61073e576040517f08c379a000000000000000000000000000000000000000000000000000000000815260040161073590612c9e565b60405180910390fd5b6107488383611232565b505050565b337f000000000000000000000000000000000000000000000000000000000000000073ffffffffffffffffffffffffffffffffffffffff168173ffffffffffffffffffffffffffffffffffffffff16146107dc576040517f08c379a00000000000000000000000000000000000000000000000000000000081526004016107d390612d0a565b60405180910390fd5b6107e4611200565b7f0000000000000000000000000000000000000000000000000000000000000000156108535761081381610cb8565b610852576040517f08c379a000000000000000000000000000000000000000000000000000000000815260040161084990612d9c565b60405180910390fd5b5b600061085d61090d565b905060007f000000000000000000000000000000000000000000000000000000000000000011156108eb577f000000000000000000000000000000000000000000000000000000000000000081106108ea576040517f08c379a00000000000000000000000000000000000000000000000000000000081526004016108e190612e08565b60405180910390fd5b5b6109086108f6611200565b6001836109039190612e57565b6112eb565b505050565b6000600880549050905090565b61092b610925611200565b82611309565b61096a576040517f08c379a000000000000000000000000000000000000000000000000000000000815260040161096190612f1f565b60405180910390fd5b6109758383836113e7565b505050565b600061098583610c01565b82106109c6576040517f08c379a00000000000000000000000000000000000000000000000000000000081526004016109bd90612fb1565b60405180910390fd5b600660008473ffffffffffffffffffffffffffffffffffffffff1673ffffffffffffffffffffffffffffffffffffffff168152602001908152602001600020600083815260200190815260200160002054905092915050565b7f000000000000000000000000000000000000000000000000000000000000000081565b610a5e83838360405180602001604052806000815250610ef1565b505050565b6000610a6d61090d565b8210610aae576040517f08c379a0000000000000000000000000000000000000000000000000000000008152600401610aa590613043565b60405180910390fd5b60088281548110610ac257610ac1613063565b5b90600052602060002001549050919050565b60007f000000000000000000000000000000000000000000000000000000000000000073ffffffffffffffffffffffffffffffffffffffff168273ffffffffffffffffffffffffffffffffffffffff16149050919050565b6000806002600084815260200190815260200160002060009054906101000a900473ffffffffffffffffffffffffffffffffffffffff169050600073ffffffffffffffffffffffffffffffffffffffff168173ffffffffffffffffffffffffffffffffffffffff1603610bd4576040517f08c379a0000000000000000000000000000000000000000000000000000000008152600401610bcb90613104565b60405180910390fd5b80915050919050565b7f000000000000000000000000000000000000000000000000000000000000000081565b60008073ffffffffffffffffffffffffffffffffffffffff168273ffffffffffffffffffffffffffffffffffffffff1603610c71576040517f08c379a0000000000000000000000000000000000000000000000000000000008152600401610c6890613196565b60405180910390fd5b600360008373ffffffffffffffffffffffffffffffffffffffff1673ffffffffffffffffffffffffffffffffffffffff168152602001908152602001600020549050919050565b6000807f000000000000000000000000000000000000000000000000000000000000000073ffffffffffffffffffffffffffffffffffffffff166370a08231846040518263ffffffff1660e01b8152600401610d14919061260f565b602060405180830381865afa158015610d31573d6000803e3d6000fd5b505050506040513d601f19601f82011682018060405250810190610d5591906131cb565b119050919050565b60606040518060400160405280600781526020017f4b4f525544414f00000000000000000000000000000000000000000000000000815250905090565b600a8054610da790613227565b80601f0160208091040260200160405190810160405280929190818152602001828054610dd390613227565b8015610e205780601f10610df557610100808354040283529160200191610e20565b820191906000526020600020905b815481529060010190602001808311610e0357829003601f168201915b505050505081565b610e3061164d565b73ffffffffffffffffffffffffffffffffffffffff163373ffffffffffffffffffffffffffffffffffffffff1614610e9d576040517f08c379a0000000000000000000000000000000000000000000000000000000008152600401610e94906132a4565b60405180910390fd5b80600a9080519060200190610eb392919061233e565b5050565b610ec9610ec2611200565b8383611676565b5050565b7f000000000000000000000000000000000000000000000000000000000000000081565b610f02610efc611200565b83611309565b610f41576040517f08c379a0000000000000000000000000000000000000000000000000000000008152600401610f3890612f1f565b60405180910390fd5b610f4d848484846117e2565b50505050565b6060610f5e82611194565b610f9d576040517f08c379a0000000000000000000000000000000000000000000000000000000008152600401610f9490613336565b60405180910390fd5b6000610fa761183e565b90506000815111610fc75760405180602001604052806000815250610ff2565b80610fd1846118d0565b604051602001610fe29291906133de565b6040516020818303038152906040525b915050919050565b7f000000000000000000000000000000000000000000000000000000000000000081565b6000600560008473ffffffffffffffffffffffffffffffffffffffff1673ffffffffffffffffffffffffffffffffffffffff16815260200190815260200160002060008373ffffffffffffffffffffffffffffffffffffffff1673ffffffffffffffffffffffffffffffffffffffff16815260200190815260200160002060009054906101000a900460ff16905092915050565b60007f80ac58cd000000000000000000000000000000000000000000000000000000007bffffffffffffffffffffffffffffffffffffffffffffffffffffffff1916827bffffffffffffffffffffffffffffffffffffffffffffffffffffffff1916148061117d57507f5b5e139f000000000000000000000000000000000000000000000000000000007bffffffffffffffffffffffffffffffffffffffffffffffffffffffff1916827bffffffffffffffffffffffffffffffffffffffffffffffffffffffff1916145b8061118d575061118c82611a30565b5b9050919050565b60008073ffffffffffffffffffffffffffffffffffffffff166002600084815260200190815260200160002060009054906101000a900473ffffffffffffffffffffffffffffffffffffffff1673ffffffffffffffffffffffffffffffffffffffff1614159050919050565b600061120b33610ad4565b1561121f57601436033560601c905061122e565b611227611a9a565b905061122f565b5b90565b816004600083815260200190815260200160002060006101000a81548173ffffffffffffffffffffffffffffffffffffffff021916908373ffffffffffffffffffffffffffffffffffffffff160217905550808273ffffffffffffffffffffffffffffffffffffffff166112a583610b2c565b73ffffffffffffffffffffffffffffffffffffffff167f8c5be1e5ebec7d5bd14f71427d1e84f3dd0314c0f7b2291e5b200ac8c7c3b92560405160405180910390a45050565b611305828260405180602001604052806000815250611aa2565b5050565b600061131482611194565b611353576040517f08c379a000000000000000000000000000000000000000000000000000000000815260040161134a9061347f565b60405180910390fd5b600061135e83610b2c565b90508073ffffffffffffffffffffffffffffffffffffffff168473ffffffffffffffffffffffffffffffffffffffff1614806113cd57508373ffffffffffffffffffffffffffffffffffffffff166113b5846105b1565b73ffffffffffffffffffffffffffffffffffffffff16145b806113de57506113dd818561101e565b5b91505092915050565b8273ffffffffffffffffffffffffffffffffffffffff1661140782610b2c565b73ffffffffffffffffffffffffffffffffffffffff161461145d576040517f08c379a000000000000000000000000000000000000000000000000000000000815260040161145490613511565b60405180910390fd5b600073ffffffffffffffffffffffffffffffffffffffff168273ffffffffffffffffffffffffffffffffffffffff16036114cc576040517f08c379a00000000000000000000000000000000000000000000000000000000081526004016114c3906135a3565b60405180910390fd5b6114d7838383611afd565b6114e2600082611232565b6001600360008573ffffffffffffffffffffffffffffffffffffffff1673ffffffffffffffffffffffffffffffffffffffff168152602001908152602001600020600082825461153291906135c3565b925050819055506001600360008473ffffffffffffffffffffffffffffffffffffffff1673ffffffffffffffffffffffffffffffffffffffff16815260200190815260200160002060008282546115899190612e57565b92505081905550816002600083815260200190815260200160002060006101000a81548173ffffffffffffffffffffffffffffffffffffffff021916908373ffffffffffffffffffffffffffffffffffffffff160217905550808273ffffffffffffffffffffffffffffffffffffffff168473ffffffffffffffffffffffffffffffffffffffff167fddf252ad1be2c89b69c2b068fc378daa952ba7f163c4a11628f55a4df523b3ef60405160405180910390a4611648838383611b4b565b505050565b60007fb53127684a568b3173ae13b9f8a6016e243e63b6e8ee1178d6a717850b5d610354905090565b8173ffffffffffffffffffffffffffffffffffffffff168373ffffffffffffffffffffffffffffffffffffffff16036116e4576040517f08c379a00000000000000000000000000000000000000000000000000000000081526004016116db90613643565b60405180910390fd5b80600560008573ffffffffffffffffffffffffffffffffffffffff1673ffffffffffffffffffffffffffffffffffffffff16815260200190815260200160002060008473ffffffffffffffffffffffffffffffffffffffff1673ffffffffffffffffffffffffffffffffffffffff16815260200190815260200160002060006101000a81548160ff0219169083151502179055508173ffffffffffffffffffffffffffffffffffffffff168373ffffffffffffffffffffffffffffffffffffffff167f17307eab39ab6107e8899845ad3d59bd9653f200f220920489ca2b5937696c31836040516117d59190612495565b60405180910390a3505050565b6117ed8484846113e7565b6117f984848484611b50565b611838576040517f08c379a000000000000000000000000000000000000000000000000000000000815260040161182f906136d5565b60405180910390fd5b50505050565b6060600a805461184d90613227565b80601f016020809104026020016040519081016040528092919081815260200182805461187990613227565b80156118c65780601f1061189b576101008083540402835291602001916118c6565b820191906000526020600020905b8154815290600101906020018083116118a957829003601f168201915b5050505050905090565b606060008203611917576040518060400160405280600181526020017f30000000000000000000000000000000000000000000000000000000000000008152509050611a2b565b600082905060005b60008214611949578080611932906136f5565b915050600a82611942919061376c565b915061191f565b60008167ffffffffffffffff8111156119655761196461274a565b5b6040519080825280601f01601f1916602001820160405280156119975781602001600182028036833780820191505090505b5090505b60008514611a24576001826119b091906135c3565b9150600a856119bf919061379d565b60306119cb9190612e57565b60f81b8183815181106119e1576119e0613063565b5b60200101907effffffffffffffffffffffffffffffffffffffffffffffffffffffffffffff1916908160001a905350600a85611a1d919061376c565b945061199b565b8093505050505b919050565b60007f01ffc9a7000000000000000000000000000000000000000000000000000000007bffffffffffffffffffffffffffffffffffffffffffffffffffffffff1916827bffffffffffffffffffffffffffffffffffffffffffffffffffffffff1916149050919050565b600033905090565b611aac8383611cd7565b611ab96000848484611b50565b611af8576040517f08c379a0000000000000000000000000000000000000000000000000000000008152600401611aef906136d5565b60405180910390fd5b505050565b600073ffffffffffffffffffffffffffffffffffffffff168273ffffffffffffffffffffffffffffffffffffffff1614611b3b57611b3a82611eb0565b5b611b46838383611efe565b505050565b505050565b6000611b718473ffffffffffffffffffffffffffffffffffffffff16612010565b15611cca578373ffffffffffffffffffffffffffffffffffffffff1663150b7a02611b9a611200565b8786866040518563ffffffff1660e01b8152600401611bbc9493929190613823565b6020604051808303816000875af1925050508015611bf857506040513d601f19601f82011682018060405250810190611bf59190613884565b60015b611c7a573d8060008114611c28576040519150601f19603f3d011682016040523d82523d6000602084013e611c2d565b606091505b506000815103611c72576040517f08c379a0000000000000000000000000000000000000000000000000000000008152600401611c69906136d5565b60405180910390fd5b805181602001fd5b63150b7a0260e01b7bffffffffffffffffffffffffffffffffffffffffffffffffffffffff1916817bffffffffffffffffffffffffffffffffffffffffffffffffffffffff191614915050611ccf565b600190505b949350505050565b600073ffffffffffffffffffffffffffffffffffffffff168273ffffffffffffffffffffffffffffffffffffffff1603611d46576040517f08c379a0000000000000000000000000000000000000000000000000000000008152600401611d3d906138fd565b60405180910390fd5b611d4f81611194565b15611d8f576040517f08c379a0000000000000000000000000000000000000000000000000000000008152600401611d8690613969565b60405180910390fd5b611d9b60008383611afd565b6001600360008473ffffffffffffffffffffffffffffffffffffffff1673ffffffffffffffffffffffffffffffffffffffff1681526020019081526020016000206000828254611deb9190612e57565b92505081905550816002600083815260200190815260200160002060006101000a81548173ffffffffffffffffffffffffffffffffffffffff021916908373ffffffffffffffffffffffffffffffffffffffff160217905550808273ffffffffffffffffffffffffffffffffffffffff16600073ffffffffffffffffffffffffffffffffffffffff167fddf252ad1be2c89b69c2b068fc378daa952ba7f163c4a11628f55a4df523b3ef60405160405180910390a4611eac60008383611b4b565b5050565b6000611ebb82610c01565b14611efb576040517f08c379a0000000000000000000000000000000000000000000000000000000008152600401611ef2906139d5565b60405180910390fd5b50565b611f09838383612033565b600073ffffffffffffffffffffffffffffffffffffffff168373ffffffffffffffffffffffffffffffffffffffff1603611f4b57611f4681612038565b611f8a565b8173ffffffffffffffffffffffffffffffffffffffff168373ffffffffffffffffffffffffffffffffffffffff1614611f8957611f888382612081565b5b5b600073ffffffffffffffffffffffffffffffffffffffff168273ffffffffffffffffffffffffffffffffffffffff1603611fcc57611fc7816121ee565b61200b565b8273ffffffffffffffffffffffffffffffffffffffff168273ffffffffffffffffffffffffffffffffffffffff161461200a5761200982826122bf565b5b5b505050565b6000808273ffffffffffffffffffffffffffffffffffffffff163b119050919050565b505050565b6008805490506009600083815260200190815260200160002081905550600881908060018154018082558091505060019003906000526020600020016000909190919091505550565b6000600161208e84610c01565b61209891906135c3565b905060006007600084815260200190815260200160002054905081811461217d576000600660008673ffffffffffffffffffffffffffffffffffffffff1673ffffffffffffffffffffffffffffffffffffffff168152602001908152602001600020600084815260200190815260200160002054905080600660008773ffffffffffffffffffffffffffffffffffffffff1673ffffffffffffffffffffffffffffffffffffffff168152602001908152602001600020600084815260200190815260200160002081905550816007600083815260200190815260200160002081905550505b6007600084815260200190815260200160002060009055600660008573ffffffffffffffffffffffffffffffffffffffff1673ffffffffffffffffffffffffffffffffffffffff16815260200190815260200160002060008381526020019081526020016000206000905550505050565b6000600160088054905061220291906135c3565b905060006009600084815260200190815260200160002054905060006008838154811061223257612231613063565b5b90600052602060002001549050806008838154811061225457612253613063565b5b9060005260206000200181905550816009600083815260200190815260200160002081905550600960008581526020019081526020016000206000905560088054806122a3576122a26139f5565b5b6001900381819060005260206000200160009055905550505050565b60006122ca83610c01565b905081600660008573ffffffffffffffffffffffffffffffffffffffff1673ffffffffffffffffffffffffffffffffffffffff168152602001908152602001600020600083815260200190815260200160002081905550806007600084815260200190815260200160002081905550505050565b82805461234a90613227565b90600052602060002090601f01602090048101928261236c57600085556123b3565b82601f1061238557805160ff19168380011785556123b3565b828001600101855582156123b3579182015b828111156123b2578251825591602001919060010190612397565b5b5090506123c091906123c4565b5090565b5b808211156123dd5760008160009055506001016123c5565b5090565b6000604051905090565b600080fd5b600080fd5b60007fffffffff0000000000000000000000000000000000000000000000000000000082169050919050565b61242a816123f5565b811461243557600080fd5b50565b60008135905061244781612421565b92915050565b600060208284031215612463576124626123eb565b5b600061247184828501612438565b91505092915050565b60008115159050919050565b61248f8161247a565b82525050565b60006020820190506124aa6000830184612486565b92915050565b600081519050919050565b600082825260208201905092915050565b60005b838110156124ea5780820151818401526020810190506124cf565b838111156124f9576000848401525b50505050565b6000601f19601f8301169050919050565b600061251b826124b0565b61252581856124bb565b93506125358185602086016124cc565b61253e816124ff565b840191505092915050565b600060208201905081810360008301526125638184612510565b905092915050565b6000819050919050565b61257e8161256b565b811461258957600080fd5b50565b60008135905061259b81612575565b92915050565b6000602082840312156125b7576125b66123eb565b5b60006125c58482850161258c565b91505092915050565b600073ffffffffffffffffffffffffffffffffffffffff82169050919050565b60006125f9826125ce565b9050919050565b612609816125ee565b82525050565b60006020820190506126246000830184612600565b92915050565b612633816125ee565b811461263e57600080fd5b50565b6000813590506126508161262a565b92915050565b6000806040838503121561266d5761266c6123eb565b5b600061267b85828601612641565b925050602061268c8582860161258c565b9150509250929050565b61269f8161256b565b82525050565b60006020820190506126ba6000830184612696565b92915050565b6000806000606084860312156126d9576126d86123eb565b5b60006126e786828701612641565b93505060206126f886828701612641565b92505060406127098682870161258c565b9150509250925092565b600060208284031215612729576127286123eb565b5b600061273784828501612641565b91505092915050565b600080fd5b600080fd5b7f4e487b7100000000000000000000000000000000000000000000000000000000600052604160045260246000fd5b612782826124ff565b810181811067ffffffffffffffff821117156127a1576127a061274a565b5b80604052505050565b60006127b46123e1565b90506127c08282612779565b919050565b600067ffffffffffffffff8211156127e0576127df61274a565b5b6127e9826124ff565b9050602081019050919050565b82818337600083830152505050565b6000612818612813846127c5565b6127aa565b90508281526020810184848401111561283457612833612745565b5b61283f8482856127f6565b509392505050565b600082601f83011261285c5761285b612740565b5b813561286c848260208601612805565b91505092915050565b60006020828403121561288b5761288a6123eb565b5b600082013567ffffffffffffffff8111156128a9576128a86123f0565b5b6128b584828501612847565b91505092915050565b6128c78161247a565b81146128d257600080fd5b50565b6000813590506128e4816128be565b92915050565b60008060408385031215612901576129006123eb565b5b600061290f85828601612641565b9250506020612920858286016128d5565b9150509250929050565b6000819050919050565b600061294f61294a612945846125ce565b61292a565b6125ce565b9050919050565b600061296182612934565b9050919050565b600061297382612956565b9050919050565b61298381612968565b82525050565b600060208201905061299e600083018461297a565b92915050565b600067ffffffffffffffff8211156129bf576129be61274a565b5b6129c8826124ff565b9050602081019050919050565b60006129e86129e3846129a4565b6127aa565b905082815260208101848484011115612a0457612a03612745565b5b612a0f8482856127f6565b509392505050565b600082601f830112612a2c57612a2b612740565b5b8135612a3c8482602086016129d5565b91505092915050565b60008060008060808587031215612a5f57612a5e6123eb565b5b6000612a6d87828801612641565b9450506020612a7e87828801612641565b9350506040612a8f8782880161258c565b925050606085013567ffffffffffffffff811115612ab057612aaf6123f0565b5b612abc87828801612a17565b91505092959194509250565b60008060408385031215612adf57612ade6123eb565b5b6000612aed85828601612641565b9250506020612afe85828601612641565b9150509250929050565b7f4552433732313a20617070726f76656420717565727920666f72206e6f6e657860008201527f697374656e7420746f6b656e0000000000000000000000000000000000000000602082015250565b6000612b64602c836124bb565b9150612b6f82612b08565b604082019050919050565b60006020820190508181036000830152612b9381612b57565b9050919050565b7f4552433732313a20617070726f76616c20746f2063757272656e74206f776e6560008201527f7200000000000000000000000000000000000000000000000000000000000000602082015250565b6000612bf66021836124bb565b9150612c0182612b9a565b604082019050919050565b60006020820190508181036000830152612c2581612be9565b9050919050565b7f4552433732313a20617070726f76652063616c6c6572206973206e6f74206f7760008201527f6e6572206e6f7220617070726f76656420666f7220616c6c0000000000000000602082015250565b6000612c886038836124bb565b9150612c9382612c2c565b604082019050919050565b60006020820190508181036000830152612cb781612c7b565b9050919050565b7f5265737472696374696f6e733a204f6e6c792047656c61746f2072656c617900600082015250565b6000612cf4601f836124bb565b9150612cff82612cbe565b602082019050919050565b60006020820190508181036000830152612d2381612ce7565b9050919050565b7f5265737472696374696f6e733a204f6e6c79206c656e732070726f66696c652060008201527f686f6c6465720000000000000000000000000000000000000000000000000000602082015250565b6000612d866026836124bb565b9150612d9182612d2a565b604082019050919050565b60006020820190508181036000830152612db581612d79565b9050919050565b7f4b6f727544616f4e46543a204d617820537570706c7900000000000000000000600082015250565b6000612df26016836124bb565b9150612dfd82612dbc565b602082019050919050565b60006020820190508181036000830152612e2181612de5565b9050919050565b7f4e487b7100000000000000000000000000000000000000000000000000000000600052601160045260246000fd5b6000612e628261256b565b9150612e6d8361256b565b9250827fffffffffffffffffffffffffffffffffffffffffffffffffffffffffffffffff03821115612ea257612ea1612e28565b5b828201905092915050565b7f4552433732313a207472616e736665722063616c6c6572206973206e6f74206f60008201527f776e6572206e6f7220617070726f766564000000000000000000000000000000602082015250565b6000612f096031836124bb565b9150612f1482612ead565b604082019050919050565b60006020820190508181036000830152612f3881612efc565b9050919050565b7f455243373231456e756d657261626c653a206f776e657220696e646578206f7560008201527f74206f6620626f756e6473000000000000000000000000000000000000000000602082015250565b6000612f9b602b836124bb565b9150612fa682612f3f565b604082019050919050565b60006020820190508181036000830152612fca81612f8e565b9050919050565b7f455243373231456e756d657261626c653a20676c6f62616c20696e646578206f60008201527f7574206f6620626f756e64730000000000000000000000000000000000000000602082015250565b600061302d602c836124bb565b915061303882612fd1565b604082019050919050565b6000602082019050818103600083015261305c81613020565b9050919050565b7f4e487b7100000000000000000000000000000000000000000000000000000000600052603260045260246000fd5b7f4552433732313a206f776e657220717565727920666f72206e6f6e657869737460008201527f656e7420746f6b656e0000000000000000000000000000000000000000000000602082015250565b60006130ee6029836124bb565b91506130f982613092565b604082019050919050565b6000602082019050818103600083015261311d816130e1565b9050919050565b7f4552433732313a2062616c616e636520717565727920666f7220746865207a6560008201527f726f206164647265737300000000000000000000000000000000000000000000602082015250565b6000613180602a836124bb565b915061318b82613124565b604082019050919050565b600060208201905081810360008301526131af81613173565b9050919050565b6000815190506131c581612575565b92915050565b6000602082840312156131e1576131e06123eb565b5b60006131ef848285016131b6565b91505092915050565b7f4e487b7100000000000000000000000000000000000000000000000000000000600052602260045260246000fd5b6000600282049050600182168061323f57607f821691505b602082108103613252576132516131f8565b5b50919050565b7f4e4f545f415554484f52495a4544000000000000000000000000000000000000600082015250565b600061328e600e836124bb565b915061329982613258565b602082019050919050565b600060208201905081810360008301526132bd81613281565b9050919050565b7f4552433732314d657461646174613a2055524920717565727920666f72206e6f60008201527f6e6578697374656e7420746f6b656e0000000000000000000000000000000000602082015250565b6000613320602f836124bb565b915061332b826132c4565b604082019050919050565b6000602082019050818103600083015261334f81613313565b9050919050565b600081905092915050565b600061336c826124b0565b6133768185613356565b93506133868185602086016124cc565b80840191505092915050565b7f2e6a736f6e000000000000000000000000000000000000000000000000000000600082015250565b60006133c8600583613356565b91506133d382613392565b600582019050919050565b60006133ea8285613361565b91506133f68284613361565b9150613401826133bb565b91508190509392505050565b7f4552433732313a206f70657261746f7220717565727920666f72206e6f6e657860008201527f697374656e7420746f6b656e0000000000000000000000000000000000000000602082015250565b6000613469602c836124bb565b91506134748261340d565b604082019050919050565b600060208201905081810360008301526134988161345c565b9050919050565b7f4552433732313a207472616e736665722066726f6d20696e636f72726563742060008201527f6f776e6572000000000000000000000000000000000000000000000000000000602082015250565b60006134fb6025836124bb565b91506135068261349f565b604082019050919050565b6000602082019050818103600083015261352a816134ee565b9050919050565b7f4552433732313a207472616e7366657220746f20746865207a65726f2061646460008201527f7265737300000000000000000000000000000000000000000000000000000000602082015250565b600061358d6024836124bb565b915061359882613531565b604082019050919050565b600060208201905081810360008301526135bc81613580565b9050919050565b60006135ce8261256b565b91506135d98361256b565b9250828210156135ec576135eb612e28565b5b828203905092915050565b7f4552433732313a20617070726f766520746f2063616c6c657200000000000000600082015250565b600061362d6019836124bb565b9150613638826135f7565b602082019050919050565b6000602082019050818103600083015261365c81613620565b9050919050565b7f4552433732313a207472616e7366657220746f206e6f6e20455243373231526560008201527f63656976657220696d706c656d656e7465720000000000000000000000000000602082015250565b60006136bf6032836124bb565b91506136ca82613663565b604082019050919050565b600060208201905081810360008301526136ee816136b2565b9050919050565b60006137008261256b565b91507fffffffffffffffffffffffffffffffffffffffffffffffffffffffffffffffff820361373257613731612e28565b5b600182019050919050565b7f4e487b7100000000000000000000000000000000000000000000000000000000600052601260045260246000fd5b60006137778261256b565b91506137828361256b565b9250826137925761379161373d565b5b828204905092915050565b60006137a88261256b565b91506137b38361256b565b9250826137c3576137c261373d565b5b828206905092915050565b600081519050919050565b600082825260208201905092915050565b60006137f5826137ce565b6137ff81856137d9565b935061380f8185602086016124cc565b613818816124ff565b840191505092915050565b60006080820190506138386000830187612600565b6138456020830186612600565b6138526040830185612696565b818103606083015261386481846137ea565b905095945050505050565b60008151905061387e81612421565b92915050565b60006020828403121561389a576138996123eb565b5b60006138a88482850161386f565b91505092915050565b7f4552433732313a206d696e7420746f20746865207a65726f2061646472657373600082015250565b60006138e76020836124bb565b91506138f2826138b1565b602082019050919050565b60006020820190508181036000830152613916816138da565b9050919050565b7f4552433732313a20746f6b656e20616c7265616479206d696e74656400000000600082015250565b6000613953601c836124bb565b915061395e8261391d565b602082019050919050565b6000602082019050818103600083015261398281613946565b9050919050565b7f4b6f727544616f4e46543a204f6e6520706572206163636f756e740000000000600082015250565b60006139bf601b836124bb565b91506139ca82613989565b602082019050919050565b600060208201905081810360008301526139ee816139b2565b9050919050565b7f4e487b7100000000000000000000000000000000000000000000000000000000600052603160045260246000fdfea264697066735822122040c876d8ba43964d337c98fc145c6b1dafdc25331418850ae94a4b715a53fb0564736f6c634300080e0033",
  "devdoc": {
    "kind": "dev",
    "methods": {
      "approve(address,uint256)": {
        "details": "See {IERC721-approve}."
      },
      "balanceOf(address)": {
        "details": "See {IERC721-balanceOf}."
      },
      "getApproved(uint256)": {
        "details": "See {IERC721-getApproved}."
      },
      "isApprovedForAll(address,address)": {
        "details": "See {IERC721-isApprovedForAll}."
      },
      "name()": {
        "details": "See {IERC721Metadata-name}."
      },
      "ownerOf(uint256)": {
        "details": "See {IERC721-ownerOf}."
      },
      "safeTransferFrom(address,address,uint256)": {
        "details": "See {IERC721-safeTransferFrom}."
      },
      "safeTransferFrom(address,address,uint256,bytes)": {
        "details": "See {IERC721-safeTransferFrom}."
      },
      "setApprovalForAll(address,bool)": {
        "details": "See {IERC721-setApprovalForAll}."
      },
      "supportsInterface(bytes4)": {
        "details": "See {IERC165-supportsInterface}."
      },
      "symbol()": {
        "details": "See {IERC721Metadata-symbol}."
      },
      "tokenByIndex(uint256)": {
        "details": "See {IERC721Enumerable-tokenByIndex}."
      },
      "tokenOfOwnerByIndex(address,uint256)": {
        "details": "See {IERC721Enumerable-tokenOfOwnerByIndex}."
      },
      "tokenURI(uint256)": {
        "details": "See {IERC721Metadata-tokenURI}."
      },
      "totalSupply()": {
        "details": "See {IERC721Enumerable-totalSupply}."
      },
      "transferFrom(address,address,uint256)": {
        "details": "See {IERC721-transferFrom}."
      }
    },
    "version": 1
  },
  "userdoc": {
    "kind": "user",
    "methods": {},
    "version": 1
  },
  "storageLayout": {
    "storage": [
      {
        "astId": 1868,
        "contract": "contracts/KoruDaoNFT.sol:KoruDaoNFT",
        "label": "_name",
        "offset": 0,
        "slot": "0",
        "type": "t_string_storage"
      },
      {
        "astId": 1870,
        "contract": "contracts/KoruDaoNFT.sol:KoruDaoNFT",
        "label": "_symbol",
        "offset": 0,
        "slot": "1",
        "type": "t_string_storage"
      },
      {
        "astId": 1874,
        "contract": "contracts/KoruDaoNFT.sol:KoruDaoNFT",
        "label": "_owners",
        "offset": 0,
        "slot": "2",
        "type": "t_mapping(t_uint256,t_address)"
      },
      {
        "astId": 1878,
        "contract": "contracts/KoruDaoNFT.sol:KoruDaoNFT",
        "label": "_balances",
        "offset": 0,
        "slot": "3",
        "type": "t_mapping(t_address,t_uint256)"
      },
      {
        "astId": 1882,
        "contract": "contracts/KoruDaoNFT.sol:KoruDaoNFT",
        "label": "_tokenApprovals",
        "offset": 0,
        "slot": "4",
        "type": "t_mapping(t_uint256,t_address)"
      },
      {
        "astId": 1888,
        "contract": "contracts/KoruDaoNFT.sol:KoruDaoNFT",
        "label": "_operatorApprovals",
        "offset": 0,
        "slot": "5",
        "type": "t_mapping(t_address,t_mapping(t_address,t_bool))"
      },
      {
        "astId": 2728,
        "contract": "contracts/KoruDaoNFT.sol:KoruDaoNFT",
        "label": "_ownedTokens",
        "offset": 0,
        "slot": "6",
        "type": "t_mapping(t_address,t_mapping(t_uint256,t_uint256))"
      },
      {
        "astId": 2732,
        "contract": "contracts/KoruDaoNFT.sol:KoruDaoNFT",
        "label": "_ownedTokensIndex",
        "offset": 0,
        "slot": "7",
        "type": "t_mapping(t_uint256,t_uint256)"
      },
      {
        "astId": 2735,
        "contract": "contracts/KoruDaoNFT.sol:KoruDaoNFT",
        "label": "_allTokens",
        "offset": 0,
        "slot": "8",
        "type": "t_array(t_uint256)dyn_storage"
      },
      {
        "astId": 2739,
        "contract": "contracts/KoruDaoNFT.sol:KoruDaoNFT",
        "label": "_allTokensIndex",
        "offset": 0,
        "slot": "9",
        "type": "t_mapping(t_uint256,t_uint256)"
      },
      {
        "astId": 853,
        "contract": "contracts/KoruDaoNFT.sol:KoruDaoNFT",
        "label": "baseUri",
        "offset": 0,
        "slot": "10",
        "type": "t_string_storage"
      }
    ],
    "types": {
      "t_address": {
        "encoding": "inplace",
        "label": "address",
        "numberOfBytes": "20"
      },
      "t_array(t_uint256)dyn_storage": {
        "base": "t_uint256",
        "encoding": "dynamic_array",
        "label": "uint256[]",
        "numberOfBytes": "32"
      },
      "t_bool": {
        "encoding": "inplace",
        "label": "bool",
        "numberOfBytes": "1"
      },
      "t_mapping(t_address,t_bool)": {
        "encoding": "mapping",
        "key": "t_address",
        "label": "mapping(address => bool)",
        "numberOfBytes": "32",
        "value": "t_bool"
      },
      "t_mapping(t_address,t_mapping(t_address,t_bool))": {
        "encoding": "mapping",
        "key": "t_address",
        "label": "mapping(address => mapping(address => bool))",
        "numberOfBytes": "32",
        "value": "t_mapping(t_address,t_bool)"
      },
      "t_mapping(t_address,t_mapping(t_uint256,t_uint256))": {
        "encoding": "mapping",
        "key": "t_address",
        "label": "mapping(address => mapping(uint256 => uint256))",
        "numberOfBytes": "32",
        "value": "t_mapping(t_uint256,t_uint256)"
      },
      "t_mapping(t_address,t_uint256)": {
        "encoding": "mapping",
        "key": "t_address",
        "label": "mapping(address => uint256)",
        "numberOfBytes": "32",
        "value": "t_uint256"
      },
      "t_mapping(t_uint256,t_address)": {
        "encoding": "mapping",
        "key": "t_uint256",
        "label": "mapping(uint256 => address)",
        "numberOfBytes": "32",
        "value": "t_address"
      },
      "t_mapping(t_uint256,t_uint256)": {
        "encoding": "mapping",
        "key": "t_uint256",
        "label": "mapping(uint256 => uint256)",
        "numberOfBytes": "32",
        "value": "t_uint256"
      },
      "t_string_storage": {
        "encoding": "bytes",
        "label": "string",
        "numberOfBytes": "32"
      },
      "t_uint256": {
        "encoding": "inplace",
        "label": "uint256",
        "numberOfBytes": "32"
      }
    }
  }
}