{
  "address": "0xC094eA4aC18a918a9033Be65f6d24a9bd71e7fcb",
  "abi": [
    {
      "inputs": [
        {
          "internalType": "contract IERC721MetaTxEnumerable",
          "name": "_koruDaoNft",
          "type": "address"
        },
        {
          "internalType": "uint256",
          "name": "_postInterval",
          "type": "uint256"
        },
        {
          "internalType": "contract ILensHub",
          "name": "_lensHub",
          "type": "address"
        },
        {
          "internalType": "address",
          "name": "_gelatoMetaBox",
          "type": "address"
        }
      ],
      "stateMutability": "nonpayable",
      "type": "constructor"
    },
    {
      "inputs": [
        {
          "internalType": "address",
          "name": "_user",
          "type": "address"
        }
      ],
      "name": "canPost",
      "outputs": [
        {
          "internalType": "bool",
          "name": "",
          "type": "bool"
        }
      ],
      "stateMutability": "view",
      "type": "function"
    },
    {
      "inputs": [
        {
          "internalType": "address",
          "name": "_wallet",
          "type": "address"
        }
      ],
      "name": "hasLensProfile",
      "outputs": [
        {
          "internalType": "bool",
          "name": "",
          "type": "bool"
        }
      ],
      "stateMutability": "view",
      "type": "function"
    },
    {
      "inputs": [
        {
          "internalType": "address",
          "name": "forwarder",
          "type": "address"
        }
      ],
      "name": "isTrustedForwarder",
      "outputs": [
        {
          "internalType": "bool",
          "name": "",
          "type": "bool"
        }
      ],
      "stateMutability": "view",
      "type": "function"
    },
    {
      "inputs": [],
      "name": "koruDaoNft",
      "outputs": [
        {
          "internalType": "contract IERC721MetaTxEnumerable",
          "name": "",
          "type": "address"
        }
      ],
      "stateMutability": "view",
      "type": "function"
    },
    {
      "inputs": [
        {
          "internalType": "address",
          "name": "",
          "type": "address"
        }
      ],
      "name": "lastPost",
      "outputs": [
        {
          "internalType": "uint256",
          "name": "",
          "type": "uint256"
        }
      ],
      "stateMutability": "view",
      "type": "function"
    },
    {
      "inputs": [],
      "name": "lensHub",
      "outputs": [
        {
          "internalType": "contract ILensHub",
          "name": "",
          "type": "address"
        }
      ],
      "stateMutability": "view",
      "type": "function"
    },
    {
      "inputs": [
        {
          "internalType": "address",
          "name": "",
          "type": "address"
        },
        {
          "internalType": "address",
          "name": "",
          "type": "address"
        },
        {
          "internalType": "uint256",
          "name": "",
          "type": "uint256"
        },
        {
          "internalType": "bytes",
          "name": "",
          "type": "bytes"
        }
      ],
      "name": "onERC721Received",
      "outputs": [
        {
          "internalType": "bytes4",
          "name": "",
          "type": "bytes4"
        }
      ],
      "stateMutability": "nonpayable",
      "type": "function"
    },
    {
      "inputs": [
        {
          "components": [
            {
              "internalType": "uint256",
              "name": "profileId",
              "type": "uint256"
            },
            {
              "internalType": "string",
              "name": "contentURI",
              "type": "string"
            },
            {
              "internalType": "address",
              "name": "collectModule",
              "type": "address"
            },
            {
              "internalType": "bytes",
              "name": "collectModuleInitData",
              "type": "bytes"
            },
            {
              "internalType": "address",
              "name": "referenceModule",
              "type": "address"
            },
            {
              "internalType": "bytes",
              "name": "referenceModuleInitData",
              "type": "bytes"
            }
          ],
          "internalType": "struct DataTypes.PostData",
          "name": "_vars",
          "type": "tuple"
        }
      ],
      "name": "post",
      "outputs": [],
      "stateMutability": "nonpayable",
      "type": "function"
    },
    {
      "inputs": [],
      "name": "postInterval",
      "outputs": [
        {
          "internalType": "uint256",
          "name": "",
          "type": "uint256"
        }
      ],
      "stateMutability": "view",
      "type": "function"
    }
  ],
  "transactionHash": "0x98c47a9b00f922e639c9263e2c413e9d3cc6ef0138a531b4ba8fa97360fed680",
  "args": [
    "0x1d1a00E6222CAB32f116D8fB6680335eA9C3e81a",
    43200,
    "0x60Ae865ee4C725cd04353b5AAb364553f56ceF82",
    "0x8F2510b3D61CE21b470d1fa4Fd657D82F692Cc6C"
  ],
  "numDeployments": 4,
  "solcInputHash": "4d8a434246c8a001cfb9c2edb742bebc",
  "bytecode": "0x6101006040523480156200001257600080fd5b506040516200131b3803806200131b833981810160405281019062000038919062000219565b80828073ffffffffffffffffffffffffffffffffffffffff1660808173ffffffffffffffffffffffffffffffffffffffff1681525050508073ffffffffffffffffffffffffffffffffffffffff1660a08173ffffffffffffffffffffffffffffffffffffffff1681525050508373ffffffffffffffffffffffffffffffffffffffff1660c08173ffffffffffffffffffffffffffffffffffffffff16815250508260e08181525050505050506200028b565b600080fd5b600073ffffffffffffffffffffffffffffffffffffffff82169050919050565b60006200011c82620000ef565b9050919050565b600062000130826200010f565b9050919050565b620001428162000123565b81146200014e57600080fd5b50565b600081519050620001628162000137565b92915050565b6000819050919050565b6200017d8162000168565b81146200018957600080fd5b50565b6000815190506200019d8162000172565b92915050565b6000620001b0826200010f565b9050919050565b620001c281620001a3565b8114620001ce57600080fd5b50565b600081519050620001e281620001b7565b92915050565b620001f3816200010f565b8114620001ff57600080fd5b50565b6000815190506200021381620001e8565b92915050565b60008060008060808587031215620002365762000235620000ea565b5b6000620002468782880162000151565b945050602062000259878288016200018c565b93505060406200026c87828801620001d1565b92505060606200027f8782880162000202565b91505092959194509250565b60805160a05160c05160e05161103a620002e1600039600081816102140152610292015260008181610315015261043c0152600061023a01526000818161033c0152818161055e0152610643015261103a6000f3fe608060405234801561001057600080fd5b50600436106100935760003560e01c806367296350116100665780636729635014610146578063908e3f8514610164578063963ff14114610194578063b02cfdc3146101b0578063ca20344f146101ce57610093565b8063150b7a02146100985780635034227b146100c8578063572b6c05146100e657806362d3576b14610116575b600080fd5b6100b260048036038101906100ad91906108a5565b6101fe565b6040516100bf9190610963565b60405180910390f35b6100d0610212565b6040516100dd919061098d565b60405180910390f35b61010060048036038101906100fb91906109a8565b610236565b60405161010d91906109f0565b60405180910390f35b610130600480360381019061012b91906109a8565b61028e565b60405161013d91906109f0565b60405180910390f35b61014e610313565b60405161015b9190610a6a565b60405180910390f35b61017e600480360381019061017991906109a8565b610337565b60405161018b91906109f0565b60405180910390f35b6101ae60048036038101906101a99190610aa9565b6103dc565b005b6101b8610641565b6040516101c59190610b13565b60405180910390f35b6101e860048036038101906101e391906109a8565b610665565b6040516101f5919061098d565b60405180910390f35b600063150b7a0260e01b9050949350505050565b7f000000000000000000000000000000000000000000000000000000000000000081565b60007f000000000000000000000000000000000000000000000000000000000000000073ffffffffffffffffffffffffffffffffffffffff168273ffffffffffffffffffffffffffffffffffffffff16149050919050565b60007f00000000000000000000000000000000000000000000000000000000000000006000808473ffffffffffffffffffffffffffffffffffffffff1673ffffffffffffffffffffffffffffffffffffffff16815260200190815260200160002054426102fb9190610b5d565b10610309576001905061030e565b600090505b919050565b7f000000000000000000000000000000000000000000000000000000000000000081565b6000807f000000000000000000000000000000000000000000000000000000000000000073ffffffffffffffffffffffffffffffffffffffff166370a08231846040518263ffffffff1660e01b81526004016103939190610ba0565b602060405180830381865afa1580156103b0573d6000803e3d6000fd5b505050506040513d601f19601f820116820180604052508101906103d49190610bd0565b119050919050565b6103e461067d565b6103ed81610337565b61042c576040517f08c379a000000000000000000000000000000000000000000000000000000000815260040161042390610c80565b60405180910390fd5b600061043661067d565b905060007f000000000000000000000000000000000000000000000000000000000000000073ffffffffffffffffffffffffffffffffffffffff166370a08231836040518263ffffffff1660e01b81526004016104939190610ba0565b602060405180830381865afa1580156104b0573d6000803e3d6000fd5b505050506040513d601f19601f820116820180604052508101906104d49190610bd0565b11610514576040517f08c379a000000000000000000000000000000000000000000000000000000000815260040161050b90610cec565b60405180910390fd5b61051d8161028e565b61055c576040517f08c379a000000000000000000000000000000000000000000000000000000000815260040161055390610d58565b60405180910390fd5b7f000000000000000000000000000000000000000000000000000000000000000073ffffffffffffffffffffffffffffffffffffffff1663963ff141846040518263ffffffff1660e01b81526004016105b59190610fe2565b6020604051808303816000875af11580156105d4573d6000803e3d6000fd5b505050506040513d601f19601f820116820180604052508101906105f89190610bd0565b50426000808373ffffffffffffffffffffffffffffffffffffffff1673ffffffffffffffffffffffffffffffffffffffff16815260200190815260200160002081905550505050565b7f000000000000000000000000000000000000000000000000000000000000000081565b60006020528060005260406000206000915090505481565b600061068833610236565b1561069c57601436033560601c90506106ab565b6106a46106af565b90506106ac565b5b90565b600033905090565b6000604051905090565b600080fd5b600080fd5b600073ffffffffffffffffffffffffffffffffffffffff82169050919050565b60006106f6826106cb565b9050919050565b610706816106eb565b811461071157600080fd5b50565b600081359050610723816106fd565b92915050565b6000819050919050565b61073c81610729565b811461074757600080fd5b50565b60008135905061075981610733565b92915050565b600080fd5b600080fd5b6000601f19601f8301169050919050565b7f4e487b7100000000000000000000000000000000000000000000000000000000600052604160045260246000fd5b6107b282610769565b810181811067ffffffffffffffff821117156107d1576107d061077a565b5b80604052505050565b60006107e46106b7565b90506107f082826107a9565b919050565b600067ffffffffffffffff8211156108105761080f61077a565b5b61081982610769565b9050602081019050919050565b82818337600083830152505050565b6000610848610843846107f5565b6107da565b90508281526020810184848401111561086457610863610764565b5b61086f848285610826565b509392505050565b600082601f83011261088c5761088b61075f565b5b813561089c848260208601610835565b91505092915050565b600080600080608085870312156108bf576108be6106c1565b5b60006108cd87828801610714565b94505060206108de87828801610714565b93505060406108ef8782880161074a565b925050606085013567ffffffffffffffff8111156109105761090f6106c6565b5b61091c87828801610877565b91505092959194509250565b60007fffffffff0000000000000000000000000000000000000000000000000000000082169050919050565b61095d81610928565b82525050565b60006020820190506109786000830184610954565b92915050565b61098781610729565b82525050565b60006020820190506109a2600083018461097e565b92915050565b6000602082840312156109be576109bd6106c1565b5b60006109cc84828501610714565b91505092915050565b60008115159050919050565b6109ea816109d5565b82525050565b6000602082019050610a0560008301846109e1565b92915050565b6000819050919050565b6000610a30610a2b610a26846106cb565b610a0b565b6106cb565b9050919050565b6000610a4282610a15565b9050919050565b6000610a5482610a37565b9050919050565b610a6481610a49565b82525050565b6000602082019050610a7f6000830184610a5b565b92915050565b600080fd5b600060c08284031215610aa057610a9f610a85565b5b81905092915050565b600060208284031215610abf57610abe6106c1565b5b600082013567ffffffffffffffff811115610add57610adc6106c6565b5b610ae984828501610a8a565b91505092915050565b6000610afd82610a37565b9050919050565b610b0d81610af2565b82525050565b6000602082019050610b286000830184610b04565b92915050565b7f4e487b7100000000000000000000000000000000000000000000000000000000600052601160045260246000fd5b6000610b6882610729565b9150610b7383610729565b925082821015610b8657610b85610b2e565b5b828203905092915050565b610b9a816106eb565b82525050565b6000602082019050610bb56000830184610b91565b92915050565b600081519050610bca81610733565b92915050565b600060208284031215610be657610be56106c1565b5b6000610bf484828501610bbb565b91505092915050565b600082825260208201905092915050565b7f4b6f727544616f4e46543a204f6e6c79206c656e732070726f66696c6520686f60008201527f6c64657200000000000000000000000000000000000000000000000000000000602082015250565b6000610c6a602483610bfd565b9150610c7582610c0e565b604082019050919050565b60006020820190508181036000830152610c9981610c5d565b9050919050565b7f4b6f727544616f3a204e6f204b6f727544616f4e667400000000000000000000600082015250565b6000610cd6601683610bfd565b9150610ce182610ca0565b602082019050919050565b60006020820190508181036000830152610d0581610cc9565b9050919050565b7f4b6f727544616f3a20506f737420746f6f206672657175656e74000000000000600082015250565b6000610d42601a83610bfd565b9150610d4d82610d0c565b602082019050919050565b60006020820190508181036000830152610d7181610d35565b9050919050565b6000610d87602084018461074a565b905092915050565b610d9881610729565b82525050565b600080fd5b600080fd5b600080fd5b60008083356001602003843603038112610dca57610dc9610da8565b5b83810192508235915060208301925067ffffffffffffffff821115610df257610df1610d9e565b5b600182023603831315610e0857610e07610da3565b5b509250929050565b600082825260208201905092915050565b6000610e2d8385610e10565b9350610e3a838584610826565b610e4383610769565b840190509392505050565b6000610e5d6020840184610714565b905092915050565b610e6e816106eb565b82525050565b60008083356001602003843603038112610e9157610e90610da8565b5b83810192508235915060208301925067ffffffffffffffff821115610eb957610eb8610d9e565b5b600182023603831315610ecf57610ece610da3565b5b509250929050565b600082825260208201905092915050565b6000610ef48385610ed7565b9350610f01838584610826565b610f0a83610769565b840190509392505050565b600060c08301610f286000840184610d78565b610f356000860182610d8f565b50610f436020840184610dad565b8583036020870152610f56838284610e21565b92505050610f676040840184610e4e565b610f746040860182610e65565b50610f826060840184610e74565b8583036060870152610f95838284610ee8565b92505050610fa66080840184610e4e565b610fb36080860182610e65565b50610fc160a0840184610e74565b85830360a0870152610fd4838284610ee8565b925050508091505092915050565b60006020820190508181036000830152610ffc8184610f15565b90509291505056fea2646970667358221220fc91d05840f972581ce986b54c100cfac4e29103a9e9631f430c6cbb40dd6ff864736f6c634300080e0033",
  "devdoc": {
    "kind": "dev",
    "methods": {
      "onERC721Received(address,address,uint256,bytes)": {
        "details": "See {IERC721Receiver-onERC721Received}. Always returns `IERC721Receiver.onERC721Received.selector`."
      }
    },
    "version": 1
  },
  "userdoc": {
    "kind": "user",
    "methods": {},
    "version": 1
  },
  "storageLayout": {
    "storage": [
      {
        "astId": 337,
        "contract": "contracts/KoruDao.sol:KoruDao",
        "label": "lastPost",
        "offset": 0,
        "slot": "0",
        "type": "t_mapping(t_address,t_uint256)"
      }
    ],
    "types": {
      "t_address": {
        "encoding": "inplace",
        "label": "address",
        "numberOfBytes": "20"
      },
      "t_mapping(t_address,t_uint256)": {
        "encoding": "mapping",
        "key": "t_address",
        "label": "mapping(address => uint256)",
        "numberOfBytes": "32",
        "value": "t_uint256"
      },
      "t_uint256": {
        "encoding": "inplace",
        "label": "uint256",
        "numberOfBytes": "32"
      }
    }
  }
}