{
  "address": "0x6124cC5cF2C11155C8F065E1fBa99639CBbe1f3f",
  "abi": [
    {
      "inputs": [
        {
          "internalType": "bool",
          "name": "_restricted",
          "type": "bool"
        },
        {
          "internalType": "bool",
          "name": "_paused",
          "type": "bool"
        },
        {
          "internalType": "uint256",
          "name": "_maxSupply",
          "type": "uint256"
        },
        {
          "internalType": "uint256",
          "name": "_koruDaoProfileId",
          "type": "uint256"
        },
        {
          "internalType": "uint256",
          "name": "_minPubCount",
          "type": "uint256"
        },
        {
          "internalType": "uint256",
          "name": "_minFollowers",
          "type": "uint256"
        },
        {
          "internalType": "address",
          "name": "_gelatoRelay",
          "type": "address"
        },
        {
          "internalType": "contract ILensHub",
          "name": "_lensHub",
          "type": "address"
        }
      ],
      "stateMutability": "nonpayable",
      "type": "constructor"
    },
    {
      "anonymous": false,
      "inputs": [
        {
          "indexed": true,
          "internalType": "address",
          "name": "owner",
          "type": "address"
        },
        {
          "indexed": true,
          "internalType": "address",
          "name": "approved",
          "type": "address"
        },
        {
          "indexed": true,
          "internalType": "uint256",
          "name": "tokenId",
          "type": "uint256"
        }
      ],
      "name": "Approval",
      "type": "event"
    },
    {
      "anonymous": false,
      "inputs": [
        {
          "indexed": true,
          "internalType": "address",
          "name": "owner",
          "type": "address"
        },
        {
          "indexed": true,
          "internalType": "address",
          "name": "operator",
          "type": "address"
        },
        {
          "indexed": false,
          "internalType": "bool",
          "name": "approved",
          "type": "bool"
        }
      ],
      "name": "ApprovalForAll",
      "type": "event"
    },
    {
      "anonymous": false,
      "inputs": [
        {
          "indexed": true,
          "internalType": "address",
          "name": "from",
          "type": "address"
        },
        {
          "indexed": true,
          "internalType": "address",
          "name": "to",
          "type": "address"
        },
        {
          "indexed": true,
          "internalType": "uint256",
          "name": "tokenId",
          "type": "uint256"
        }
      ],
      "name": "Transfer",
      "type": "event"
    },
    {
      "inputs": [
        {
          "internalType": "address",
          "name": "to",
          "type": "address"
        },
        {
          "internalType": "uint256",
          "name": "tokenId",
          "type": "uint256"
        }
      ],
      "name": "approve",
      "outputs": [],
      "stateMutability": "nonpayable",
      "type": "function"
    },
    {
      "inputs": [
        {
          "internalType": "address",
          "name": "owner",
          "type": "address"
        }
      ],
      "name": "balanceOf",
      "outputs": [
        {
          "internalType": "uint256",
          "name": "",
          "type": "uint256"
        }
      ],
      "stateMutability": "view",
      "type": "function"
    },
    {
      "inputs": [],
      "name": "baseUri",
      "outputs": [
        {
          "internalType": "string",
          "name": "",
          "type": "string"
        }
      ],
      "stateMutability": "view",
      "type": "function"
    },
    {
      "inputs": [],
      "name": "gelatoRelay",
      "outputs": [
        {
          "internalType": "address",
          "name": "",
          "type": "address"
        }
      ],
      "stateMutability": "view",
      "type": "function"
    },
    {
      "inputs": [
        {
          "internalType": "uint256",
          "name": "tokenId",
          "type": "uint256"
        }
      ],
      "name": "getApproved",
      "outputs": [
        {
          "internalType": "address",
          "name": "",
          "type": "address"
        }
      ],
      "stateMutability": "view",
      "type": "function"
    },
    {
      "inputs": [
        {
          "internalType": "address",
          "name": "owner",
          "type": "address"
        },
        {
          "internalType": "address",
          "name": "operator",
          "type": "address"
        }
      ],
      "name": "isApprovedForAll",
      "outputs": [
        {
          "internalType": "bool",
          "name": "",
          "type": "bool"
        }
      ],
      "stateMutability": "view",
      "type": "function"
    },
    {
      "inputs": [
        {
          "internalType": "address",
          "name": "_wallet",
          "type": "address"
        }
      ],
      "name": "isEligible",
      "outputs": [
        {
          "internalType": "bool",
          "name": "",
          "type": "bool"
        },
        {
          "internalType": "bool[]",
          "name": "",
          "type": "bool[]"
        }
      ],
      "stateMutability": "view",
      "type": "function"
    },
    {
      "inputs": [
        {
          "internalType": "address",
          "name": "forwarder",
          "type": "address"
        }
      ],
      "name": "isTrustedForwarder",
      "outputs": [
        {
          "internalType": "bool",
          "name": "",
          "type": "bool"
        }
      ],
      "stateMutability": "view",
      "type": "function"
    },
    {
      "inputs": [],
      "name": "koruDaoProfileId",
      "outputs": [
        {
          "internalType": "uint256",
          "name": "",
          "type": "uint256"
        }
      ],
      "stateMutability": "view",
      "type": "function"
    },
    {
      "inputs": [],
      "name": "lensHub",
      "outputs": [
        {
          "internalType": "contract ILensHub",
          "name": "",
          "type": "address"
        }
      ],
      "stateMutability": "view",
      "type": "function"
    },
    {
      "inputs": [],
      "name": "maxSupply",
      "outputs": [
        {
          "internalType": "uint256",
          "name": "",
          "type": "uint256"
        }
      ],
      "stateMutability": "view",
      "type": "function"
    },
    {
      "inputs": [],
      "name": "minFollowers",
      "outputs": [
        {
          "internalType": "uint256",
          "name": "",
          "type": "uint256"
        }
      ],
      "stateMutability": "view",
      "type": "function"
    },
    {
      "inputs": [],
      "name": "minPubCount",
      "outputs": [
        {
          "internalType": "uint256",
          "name": "",
          "type": "uint256"
        }
      ],
      "stateMutability": "view",
      "type": "function"
    },
    {
      "inputs": [],
      "name": "mint",
      "outputs": [],
      "stateMutability": "nonpayable",
      "type": "function"
    },
    {
      "inputs": [],
      "name": "name",
      "outputs": [
        {
          "internalType": "string",
          "name": "",
          "type": "string"
        }
      ],
      "stateMutability": "pure",
      "type": "function"
    },
    {
      "inputs": [
        {
          "internalType": "address[]",
          "name": "_users",
          "type": "address[]"
        }
      ],
      "name": "ownerMint",
      "outputs": [],
      "stateMutability": "nonpayable",
      "type": "function"
    },
    {
      "inputs": [
        {
          "internalType": "uint256",
          "name": "tokenId",
          "type": "uint256"
        }
      ],
      "name": "ownerOf",
      "outputs": [
        {
          "internalType": "address",
          "name": "",
          "type": "address"
        }
      ],
      "stateMutability": "view",
      "type": "function"
    },
    {
      "inputs": [],
      "name": "paused",
      "outputs": [
        {
          "internalType": "bool",
          "name": "",
          "type": "bool"
        }
      ],
      "stateMutability": "view",
      "type": "function"
    },
    {
      "inputs": [],
      "name": "restricted",
      "outputs": [
        {
          "internalType": "bool",
          "name": "",
          "type": "bool"
        }
      ],
      "stateMutability": "view",
      "type": "function"
    },
    {
      "inputs": [
        {
          "internalType": "address",
          "name": "from",
          "type": "address"
        },
        {
          "internalType": "address",
          "name": "to",
          "type": "address"
        },
        {
          "internalType": "uint256",
          "name": "tokenId",
          "type": "uint256"
        }
      ],
      "name": "safeTransferFrom",
      "outputs": [],
      "stateMutability": "nonpayable",
      "type": "function"
    },
    {
      "inputs": [
        {
          "internalType": "address",
          "name": "from",
          "type": "address"
        },
        {
          "internalType": "address",
          "name": "to",
          "type": "address"
        },
        {
          "internalType": "uint256",
          "name": "tokenId",
          "type": "uint256"
        },
        {
          "internalType": "bytes",
          "name": "_data",
          "type": "bytes"
        }
      ],
      "name": "safeTransferFrom",
      "outputs": [],
      "stateMutability": "nonpayable",
      "type": "function"
    },
    {
      "inputs": [
        {
          "internalType": "address",
          "name": "operator",
          "type": "address"
        },
        {
          "internalType": "bool",
          "name": "approved",
          "type": "bool"
        }
      ],
      "name": "setApprovalForAll",
      "outputs": [],
      "stateMutability": "nonpayable",
      "type": "function"
    },
    {
      "inputs": [
        {
          "internalType": "string",
          "name": "_baseUri",
          "type": "string"
        }
      ],
      "name": "setBaseUri",
      "outputs": [],
      "stateMutability": "nonpayable",
      "type": "function"
    },
    {
      "inputs": [
        {
          "internalType": "bool",
          "name": "_paused",
          "type": "bool"
        }
      ],
      "name": "setPaused",
      "outputs": [],
      "stateMutability": "nonpayable",
      "type": "function"
    },
    {
      "inputs": [
        {
          "internalType": "bytes4",
          "name": "interfaceId",
          "type": "bytes4"
        }
      ],
      "name": "supportsInterface",
      "outputs": [
        {
          "internalType": "bool",
          "name": "",
          "type": "bool"
        }
      ],
      "stateMutability": "view",
      "type": "function"
    },
    {
      "inputs": [],
      "name": "symbol",
      "outputs": [
        {
          "internalType": "string",
          "name": "",
          "type": "string"
        }
      ],
      "stateMutability": "pure",
      "type": "function"
    },
    {
      "inputs": [
        {
          "internalType": "uint256",
          "name": "index",
          "type": "uint256"
        }
      ],
      "name": "tokenByIndex",
      "outputs": [
        {
          "internalType": "uint256",
          "name": "",
          "type": "uint256"
        }
      ],
      "stateMutability": "view",
      "type": "function"
    },
    {
      "inputs": [
        {
          "internalType": "address",
          "name": "owner",
          "type": "address"
        },
        {
          "internalType": "uint256",
          "name": "index",
          "type": "uint256"
        }
      ],
      "name": "tokenOfOwnerByIndex",
      "outputs": [
        {
          "internalType": "uint256",
          "name": "",
          "type": "uint256"
        }
      ],
      "stateMutability": "view",
      "type": "function"
    },
    {
      "inputs": [
        {
          "internalType": "uint256",
          "name": "tokenId",
          "type": "uint256"
        }
      ],
      "name": "tokenURI",
      "outputs": [
        {
          "internalType": "string",
          "name": "",
          "type": "string"
        }
      ],
      "stateMutability": "view",
      "type": "function"
    },
    {
      "inputs": [],
      "name": "totalSupply",
      "outputs": [
        {
          "internalType": "uint256",
          "name": "",
          "type": "uint256"
        }
      ],
      "stateMutability": "view",
      "type": "function"
    },
    {
      "inputs": [
        {
          "internalType": "address",
          "name": "from",
          "type": "address"
        },
        {
          "internalType": "address",
          "name": "to",
          "type": "address"
        },
        {
          "internalType": "uint256",
          "name": "tokenId",
          "type": "uint256"
        }
      ],
      "name": "transferFrom",
      "outputs": [],
      "stateMutability": "nonpayable",
      "type": "function"
    }
  ],
  "transactionHash": "0x733981afc205059eb04bf721a418a9e79e49d7e49343d18b1e14bda4f6034742",
  "args": [
    false,
    false,
    282,
    16978,
    2,
    2,
    "0xC401cA07564D54bA47b542eD9838A2a36648C954",
    "0x60Ae865ee4C725cd04353b5AAb364553f56ceF82"
  ],
  "numDeployments": 19,
  "solcInputHash": "e0f3c4319dd0b0a7724b67840c77001f",
  "bytecode": "0x6101806040523480156200001257600080fd5b5060405162004d0a38038062004d0a8339818101604052810190620000389190620003b9565b6040518060400160405280600c81526020017f4b6f72752044616f204e465400000000000000000000000000000000000000008152506040518060400160405280600781526020017f4b4f525544414f0000000000000000000000000000000000000000000000000081525083808b89898989898582828215156080811515815250508073ffffffffffffffffffffffffffffffffffffffff1660c08173ffffffffffffffffffffffffffffffffffffffff16815250508173ffffffffffffffffffffffffffffffffffffffff1660a08173ffffffffffffffffffffffffffffffffffffffff16815250505050508460e081815250508361010081815250508261012081815250505050505050508073ffffffffffffffffffffffffffffffffffffffff166101408173ffffffffffffffffffffffffffffffffffffffff168152505050826000908051906020019062000194929190620001e2565b508160019080519060200190620001ad929190620001e2565b5050505086600b60006101000a81548160ff0219169083151502179055508561016081815250505050505050505050620004e6565b828054620001f090620004b1565b90600052602060002090601f01602090048101928262000214576000855562000260565b82601f106200022f57805160ff191683800117855562000260565b8280016001018555821562000260579182015b828111156200025f57825182559160200191906001019062000242565b5b5090506200026f919062000273565b5090565b5b808211156200028e57600081600090555060010162000274565b5090565b600080fd5b60008115159050919050565b620002ae8162000297565b8114620002ba57600080fd5b50565b600081519050620002ce81620002a3565b92915050565b6000819050919050565b620002e981620002d4565b8114620002f557600080fd5b50565b6000815190506200030981620002de565b92915050565b600073ffffffffffffffffffffffffffffffffffffffff82169050919050565b60006200033c826200030f565b9050919050565b6200034e816200032f565b81146200035a57600080fd5b50565b6000815190506200036e8162000343565b92915050565b600062000381826200032f565b9050919050565b620003938162000374565b81146200039f57600080fd5b50565b600081519050620003b38162000388565b92915050565b600080600080600080600080610100898b031215620003dd57620003dc62000292565b5b6000620003ed8b828c01620002bd565b9850506020620004008b828c01620002bd565b9750506040620004138b828c01620002f8565b9650506060620004268b828c01620002f8565b9550506080620004398b828c01620002f8565b94505060a06200044c8b828c01620002f8565b93505060c06200045f8b828c016200035d565b92505060e0620004728b828c01620003a2565b9150509295985092959890939650565b7f4e487b7100000000000000000000000000000000000000000000000000000000600052602260045260246000fd5b60006002820490506001821680620004ca57607f821691505b602082108103620004e057620004df62000482565b5b50919050565b60805160a05160c05160e05161010051610120516101405161016051614755620005b56000396000818161141401528181611444015281816114cf01526117f201526000610c3c015260008181610d56015261201f01526000818161136f0152611ea30152600081816111550152611cc0015260008181610e51015281816112e901528181611bdf01528181611c8401528181611e070152611ed20152600081816108c20152610b850152600081816109580152818161107a015281816113eb01526117cc01526147556000f3fe608060405234801561001057600080fd5b50600436106101e55760003560e01c8063636314101161010f578063a0bcfc7f116100a2578063c631029e11610071578063c631029e14610581578063c87b56dd1461059f578063d5abeb01146105cf578063e985e9c5146105ed576101e5565b8063a0bcfc7f1461050f578063a22cb4651461052b578063b02cfdc314610547578063b88d4fde14610565576101e5565b806370a08231116100de57806370a082311461048557806384af9a92146104b557806395d89b41146104d35780639abc8320146104f1576101e5565b806363631410146103fc578063661e3e361461041a57806366e305fd146104365780637072c6b114610467576101e5565b806323b872dd116101875780634f6ccce7116101565780634f6ccce71461034e578063572b6c051461037e5780635c975abb146103ae5780636352211e146103cc576101e5565b806323b872dd146102c85780632f745c59146102e45780633552221a1461031457806342842e0e14610332576101e5565b8063095ea7b3116101c3578063095ea7b3146102685780631249c58b1461028457806316c38b3c1461028e57806318160ddd146102aa576101e5565b806301ffc9a7146101ea57806306fdde031461021a578063081812fc14610238575b600080fd5b61020460048036038101906101ff9190612e40565b61061d565b6040516102119190612e88565b60405180910390f35b610222610697565b60405161022f9190612f3c565b60405180910390f35b610252600480360381019061024d9190612f94565b6106d4565b60405161025f9190613002565b60405180910390f35b610282600480360381019061027d9190613049565b610759565b005b61028c610870565b005b6102a860048036038101906102a391906130b5565b6109df565b005b6102b2610a71565b6040516102bf91906130f1565b60405180910390f35b6102e260048036038101906102dd919061310c565b610a7e565b005b6102fe60048036038101906102f99190613049565b610ade565b60405161030b91906130f1565b60405180910390f35b61031c610b83565b6040516103299190613002565b60405180910390f35b61034c6004803603810190610347919061310c565b610ba7565b005b61036860048036038101906103639190612f94565b610bc7565b60405161037591906130f1565b60405180910390f35b6103986004803603810190610393919061315f565b610c38565b6040516103a59190612e88565b60405180910390f35b6103b6610c90565b6040516103c39190612e88565b60405180910390f35b6103e660048036038101906103e19190612f94565b610ca3565b6040516103f39190613002565b60405180910390f35b610404610d54565b60405161041191906130f1565b60405180910390f35b610434600480360381019061042f91906131f1565b610d78565b005b610450600480360381019061044b919061315f565b610e49565b60405161045e9291906132fc565b60405180910390f35b61046f611078565b60405161047c9190612e88565b60405180910390f35b61049f600480360381019061049a919061315f565b61109c565b6040516104ac91906130f1565b60405180910390f35b6104bd611153565b6040516104ca91906130f1565b60405180910390f35b6104db611177565b6040516104e89190612f3c565b60405180910390f35b6104f96111b4565b6040516105069190612f3c565b60405180910390f35b6105296004803603810190610524919061345c565b611242565b005b610545600480360381019061054091906134a5565b6112d1565b005b61054f6112e7565b60405161055c9190613544565b60405180910390f35b61057f600480360381019061057a9190613600565b61130b565b005b61058961136d565b60405161059691906130f1565b60405180910390f35b6105b960048036038101906105b49190612f94565b611391565b6040516105c69190612f3c565b60405180910390f35b6105d76114cd565b6040516105e491906130f1565b60405180910390f35b61060760048036038101906106029190613683565b6114f1565b6040516106149190612e88565b60405180910390f35b60007f780e9d63000000000000000000000000000000000000000000000000000000007bffffffffffffffffffffffffffffffffffffffffffffffffffffffff1916827bffffffffffffffffffffffffffffffffffffffffffffffffffffffff19161480610690575061068f82611585565b5b9050919050565b60606040518060400160405280600881526020017f4b6f72752044616f000000000000000000000000000000000000000000000000815250905090565b60006106df82611667565b61071e576040517f08c379a000000000000000000000000000000000000000000000000000000000815260040161071590613735565b60405180910390fd5b6004600083815260200190815260200160002060009054906101000a900473ffffffffffffffffffffffffffffffffffffffff169050919050565b600061076482610ca3565b90508073ffffffffffffffffffffffffffffffffffffffff168373ffffffffffffffffffffffffffffffffffffffff16036107d4576040517f08c379a00000000000000000000000000000000000000000000000000000000081526004016107cb906137c7565b60405180910390fd5b8073ffffffffffffffffffffffffffffffffffffffff166107f36116d3565b73ffffffffffffffffffffffffffffffffffffffff16148061082257506108218161081c6116d3565b6114f1565b5b610861576040517f08c379a000000000000000000000000000000000000000000000000000000000815260040161085890613859565b60405180910390fd5b61086b8383611705565b505050565b600b60009054906101000a900460ff16156108c0576040517f08c379a00000000000000000000000000000000000000000000000000000000081526004016108b7906138c5565b60405180910390fd5b7f000000000000000000000000000000000000000000000000000000000000000073ffffffffffffffffffffffffffffffffffffffff163373ffffffffffffffffffffffffffffffffffffffff161461094e576040517f08c379a000000000000000000000000000000000000000000000000000000000815260040161094590613931565b60405180910390fd5b6109566116d3565b7f0000000000000000000000000000000000000000000000000000000000000000156109cc57600061098782610e49565b509050806109ca576040517f08c379a00000000000000000000000000000000000000000000000000000000081526004016109c1906139c3565b60405180910390fd5b505b6109dc6109d76116d3565b6117be565b50565b6109e761186d565b73ffffffffffffffffffffffffffffffffffffffff163373ffffffffffffffffffffffffffffffffffffffff1614610a54576040517f08c379a0000000000000000000000000000000000000000000000000000000008152600401610a4b90613a2f565b60405180910390fd5b80600b60006101000a81548160ff02191690831515021790555050565b6000600880549050905090565b610a8f610a896116d3565b82611896565b610ace576040517f08c379a0000000000000000000000000000000000000000000000000000000008152600401610ac590613ac1565b60405180910390fd5b610ad9838383611974565b505050565b6000610ae98361109c565b8210610b2a576040517f08c379a0000000000000000000000000000000000000000000000000000000008152600401610b2190613b53565b60405180910390fd5b600660008473ffffffffffffffffffffffffffffffffffffffff1673ffffffffffffffffffffffffffffffffffffffff168152602001908152602001600020600083815260200190815260200160002054905092915050565b7f000000000000000000000000000000000000000000000000000000000000000081565b610bc28383836040518060200160405280600081525061130b565b505050565b6000610bd1610a71565b8210610c12576040517f08c379a0000000000000000000000000000000000000000000000000000000008152600401610c0990613be5565b60405180910390fd5b60088281548110610c2657610c25613c05565b5b90600052602060002001549050919050565b60007f000000000000000000000000000000000000000000000000000000000000000073ffffffffffffffffffffffffffffffffffffffff168273ffffffffffffffffffffffffffffffffffffffff16149050919050565b600b60009054906101000a900460ff1681565b6000806002600084815260200190815260200160002060009054906101000a900473ffffffffffffffffffffffffffffffffffffffff169050600073ffffffffffffffffffffffffffffffffffffffff168173ffffffffffffffffffffffffffffffffffffffff1603610d4b576040517f08c379a0000000000000000000000000000000000000000000000000000000008152600401610d4290613ca6565b60405180910390fd5b80915050919050565b7f000000000000000000000000000000000000000000000000000000000000000081565b610d8061186d565b73ffffffffffffffffffffffffffffffffffffffff163373ffffffffffffffffffffffffffffffffffffffff1614610ded576040517f08c379a0000000000000000000000000000000000000000000000000000000008152600401610de490613a2f565b60405180910390fd5b600082829050905060005b81811015610e4357610e30848483818110610e1657610e15613c05565b5b9050602002016020810190610e2b919061315f565b6117be565b8080610e3b90613cf5565b915050610df8565b50505050565b6000606060007f000000000000000000000000000000000000000000000000000000000000000073ffffffffffffffffffffffffffffffffffffffff166392254a62856040518263ffffffff1660e01b8152600401610ea89190613002565b602060405180830381865afa158015610ec5573d6000803e3d6000fd5b505050506040513d601f19601f82011682018060405250810190610ee99190613d52565b905060008103610f2e576040517f08c379a0000000000000000000000000000000000000000000000000000000008152600401610f2590613df1565b60405180910390fd5b6000600190506000600467ffffffffffffffff811115610f5157610f50613331565b5b604051908082528060200260200182016040528015610f7f5781602001602082028036833780820191505090505b509050610f8b86611bda565b610fbc57600181600081518110610fa557610fa4613c05565b5b602002602001019015159081151581525050600091505b610fc586611c7f565b610ff657600181600181518110610fdf57610fde613c05565b5b602002602001019015159081151581525050600091505b610fff83611e02565b6110305760018160028151811061101957611018613c05565b5b602002602001019015159081151581525050600091505b61103983611ecd565b61106a5760018160038151811061105357611052613c05565b5b602002602001019015159081151581525050600091505b818194509450505050915091565b7f000000000000000000000000000000000000000000000000000000000000000081565b60008073ffffffffffffffffffffffffffffffffffffffff168273ffffffffffffffffffffffffffffffffffffffff160361110c576040517f08c379a000000000000000000000000000000000000000000000000000000000815260040161110390613e83565b60405180910390fd5b600360008373ffffffffffffffffffffffffffffffffffffffff1673ffffffffffffffffffffffffffffffffffffffff168152602001908152602001600020549050919050565b7f000000000000000000000000000000000000000000000000000000000000000081565b60606040518060400160405280600781526020017f4b4f525544414f00000000000000000000000000000000000000000000000000815250905090565b600a80546111c190613ed2565b80601f01602080910402602001604051908101604052809291908181526020018280546111ed90613ed2565b801561123a5780601f1061120f5761010080835404028352916020019161123a565b820191906000526020600020905b81548152906001019060200180831161121d57829003601f168201915b505050505081565b61124a61186d565b73ffffffffffffffffffffffffffffffffffffffff163373ffffffffffffffffffffffffffffffffffffffff16146112b7576040517f08c379a00000000000000000000000000000000000000000000000000000000081526004016112ae90613a2f565b60405180910390fd5b80600a90805190602001906112cd929190612d31565b5050565b6112e36112dc6116d3565b838361204b565b5050565b7f000000000000000000000000000000000000000000000000000000000000000081565b61131c6113166116d3565b83611896565b61135b576040517f08c379a000000000000000000000000000000000000000000000000000000000815260040161135290613ac1565b60405180910390fd5b611367848484846121b7565b50505050565b7f000000000000000000000000000000000000000000000000000000000000000081565b606061139c82611667565b6113db576040517f08c379a00000000000000000000000000000000000000000000000000000000081526004016113d290613f75565b60405180910390fd5b60006113e5612213565b905060007f000000000000000000000000000000000000000000000000000000000000000015801561143657507f000000000000000000000000000000000000000000000000000000000000000084115b6114405783611479565b60017f00000000000000000000000000000000000000000000000000000000000000008561146e9190613fc4565b6114789190613ff5565b5b9050600082511161149957604051806020016040528060008152506114c4565b816114a3826122a5565b6040516020016114b49291906140d3565b6040516020818303038152906040525b92505050919050565b7f000000000000000000000000000000000000000000000000000000000000000081565b6000600560008473ffffffffffffffffffffffffffffffffffffffff1673ffffffffffffffffffffffffffffffffffffffff16815260200190815260200160002060008373ffffffffffffffffffffffffffffffffffffffff1673ffffffffffffffffffffffffffffffffffffffff16815260200190815260200160002060009054906101000a900460ff16905092915050565b60007f80ac58cd000000000000000000000000000000000000000000000000000000007bffffffffffffffffffffffffffffffffffffffffffffffffffffffff1916827bffffffffffffffffffffffffffffffffffffffffffffffffffffffff1916148061165057507f5b5e139f000000000000000000000000000000000000000000000000000000007bffffffffffffffffffffffffffffffffffffffffffffffffffffffff1916827bffffffffffffffffffffffffffffffffffffffffffffffffffffffff1916145b80611660575061165f82612405565b5b9050919050565b60008073ffffffffffffffffffffffffffffffffffffffff166002600084815260200190815260200160002060009054906101000a900473ffffffffffffffffffffffffffffffffffffffff1673ffffffffffffffffffffffffffffffffffffffff1614159050919050565b60006116de33610c38565b156116f257601436033560601c9050611701565b6116fa61246f565b9050611702565b5b90565b816004600083815260200190815260200160002060006101000a81548173ffffffffffffffffffffffffffffffffffffffff021916908373ffffffffffffffffffffffffffffffffffffffff160217905550808273ffffffffffffffffffffffffffffffffffffffff1661177883610ca3565b73ffffffffffffffffffffffffffffffffffffffff167f8c5be1e5ebec7d5bd14f71427d1e84f3dd0314c0f7b2291e5b200ac8c7c3b92560405160405180910390a45050565b60006117c8610a71565b90507f000000000000000000000000000000000000000000000000000000000000000015611853577f00000000000000000000000000000000000000000000000000000000000000008110611852576040517f08c379a00000000000000000000000000000000000000000000000000000000081526004016118499061414e565b60405180910390fd5b5b611869826001836118649190613ff5565b612477565b5050565b60007fb53127684a568b3173ae13b9f8a6016e243e63b6e8ee1178d6a717850b5d610354905090565b60006118a182611667565b6118e0576040517f08c379a00000000000000000000000000000000000000000000000000000000081526004016118d7906141e0565b60405180910390fd5b60006118eb83610ca3565b90508073ffffffffffffffffffffffffffffffffffffffff168473ffffffffffffffffffffffffffffffffffffffff16148061195a57508373ffffffffffffffffffffffffffffffffffffffff16611942846106d4565b73ffffffffffffffffffffffffffffffffffffffff16145b8061196b575061196a81856114f1565b5b91505092915050565b8273ffffffffffffffffffffffffffffffffffffffff1661199482610ca3565b73ffffffffffffffffffffffffffffffffffffffff16146119ea576040517f08c379a00000000000000000000000000000000000000000000000000000000081526004016119e190614272565b60405180910390fd5b600073ffffffffffffffffffffffffffffffffffffffff168273ffffffffffffffffffffffffffffffffffffffff1603611a59576040517f08c379a0000000000000000000000000000000000000000000000000000000008152600401611a5090614304565b60405180910390fd5b611a64838383612495565b611a6f600082611705565b6001600360008573ffffffffffffffffffffffffffffffffffffffff1673ffffffffffffffffffffffffffffffffffffffff1681526020019081526020016000206000828254611abf9190614324565b925050819055506001600360008473ffffffffffffffffffffffffffffffffffffffff1673ffffffffffffffffffffffffffffffffffffffff1681526020019081526020016000206000828254611b169190613ff5565b92505081905550816002600083815260200190815260200160002060006101000a81548173ffffffffffffffffffffffffffffffffffffffff021916908373ffffffffffffffffffffffffffffffffffffffff160217905550808273ffffffffffffffffffffffffffffffffffffffff168473ffffffffffffffffffffffffffffffffffffffff167fddf252ad1be2c89b69c2b068fc378daa952ba7f163c4a11628f55a4df523b3ef60405160405180910390a4611bd58383836124e3565b505050565b6000807f000000000000000000000000000000000000000000000000000000000000000073ffffffffffffffffffffffffffffffffffffffff166370a08231846040518263ffffffff1660e01b8152600401611c369190613002565b602060405180830381865afa158015611c53573d6000803e3d6000fd5b505050506040513d601f19601f82011682018060405250810190611c779190613d52565b119050919050565b6000807f000000000000000000000000000000000000000000000000000000000000000073ffffffffffffffffffffffffffffffffffffffff1663a9ec65637f00000000000000000000000000000000000000000000000000000000000000006040518263ffffffff1660e01b8152600401611cfb91906130f1565b602060405180830381865afa158015611d18573d6000803e3d6000fd5b505050506040513d601f19601f82011682018060405250810190611d3c919061436d565b9050600073ffffffffffffffffffffffffffffffffffffffff168173ffffffffffffffffffffffffffffffffffffffff1603611d7c576000915050611dfd565b60008173ffffffffffffffffffffffffffffffffffffffff166370a08231856040518263ffffffff1660e01b8152600401611db79190613002565b602060405180830381865afa158015611dd4573d6000803e3d6000fd5b505050506040513d601f19601f82011682018060405250810190611df89190613d52565b119150505b919050565b6000807f000000000000000000000000000000000000000000000000000000000000000073ffffffffffffffffffffffffffffffffffffffff16633a15ff07846040518263ffffffff1660e01b8152600401611e5e91906130f1565b602060405180830381865afa158015611e7b573d6000803e3d6000fd5b505050506040513d601f19601f82011682018060405250810190611e9f9190613d52565b90507f0000000000000000000000000000000000000000000000000000000000000000811015915050919050565b6000807f000000000000000000000000000000000000000000000000000000000000000073ffffffffffffffffffffffffffffffffffffffff1663a9ec6563846040518263ffffffff1660e01b8152600401611f2991906130f1565b602060405180830381865afa158015611f46573d6000803e3d6000fd5b505050506040513d601f19601f82011682018060405250810190611f6a919061436d565b9050600073ffffffffffffffffffffffffffffffffffffffff168173ffffffffffffffffffffffffffffffffffffffff1603611faa576000915050612046565b60008173ffffffffffffffffffffffffffffffffffffffff166318160ddd6040518163ffffffff1660e01b8152600401602060405180830381865afa158015611ff7573d6000803e3d6000fd5b505050506040513d601f19601f8201168201806040525081019061201b9190613d52565b90507f0000000000000000000000000000000000000000000000000000000000000000811015925050505b919050565b8173ffffffffffffffffffffffffffffffffffffffff168373ffffffffffffffffffffffffffffffffffffffff16036120b9576040517f08c379a00000000000000000000000000000000000000000000000000000000081526004016120b0906143e6565b60405180910390fd5b80600560008573ffffffffffffffffffffffffffffffffffffffff1673ffffffffffffffffffffffffffffffffffffffff16815260200190815260200160002060008473ffffffffffffffffffffffffffffffffffffffff1673ffffffffffffffffffffffffffffffffffffffff16815260200190815260200160002060006101000a81548160ff0219169083151502179055508173ffffffffffffffffffffffffffffffffffffffff168373ffffffffffffffffffffffffffffffffffffffff167f17307eab39ab6107e8899845ad3d59bd9653f200f220920489ca2b5937696c31836040516121aa9190612e88565b60405180910390a3505050565b6121c2848484611974565b6121ce848484846124e8565b61220d576040517f08c379a000000000000000000000000000000000000000000000000000000000815260040161220490614478565b60405180910390fd5b50505050565b6060600a805461222290613ed2565b80601f016020809104026020016040519081016040528092919081815260200182805461224e90613ed2565b801561229b5780601f106122705761010080835404028352916020019161229b565b820191906000526020600020905b81548152906001019060200180831161227e57829003601f168201915b5050505050905090565b6060600082036122ec576040518060400160405280600181526020017f30000000000000000000000000000000000000000000000000000000000000008152509050612400565b600082905060005b6000821461231e57808061230790613cf5565b915050600a826123179190614498565b91506122f4565b60008167ffffffffffffffff81111561233a57612339613331565b5b6040519080825280601f01601f19166020018201604052801561236c5781602001600182028036833780820191505090505b5090505b600085146123f9576001826123859190614324565b9150600a856123949190613fc4565b60306123a09190613ff5565b60f81b8183815181106123b6576123b5613c05565b5b60200101907effffffffffffffffffffffffffffffffffffffffffffffffffffffffffffff1916908160001a905350600a856123f29190614498565b9450612370565b8093505050505b919050565b60007f01ffc9a7000000000000000000000000000000000000000000000000000000007bffffffffffffffffffffffffffffffffffffffffffffffffffffffff1916827bffffffffffffffffffffffffffffffffffffffffffffffffffffffff1916149050919050565b600033905090565b61249182826040518060200160405280600081525061266f565b5050565b600073ffffffffffffffffffffffffffffffffffffffff168273ffffffffffffffffffffffffffffffffffffffff16146124d3576124d2826126ca565b5b6124de838383612718565b505050565b505050565b60006125098473ffffffffffffffffffffffffffffffffffffffff1661282a565b15612662578373ffffffffffffffffffffffffffffffffffffffff1663150b7a026125326116d3565b8786866040518563ffffffff1660e01b8152600401612554949392919061451e565b6020604051808303816000875af192505050801561259057506040513d601f19601f8201168201806040525081019061258d919061457f565b60015b612612573d80600081146125c0576040519150601f19603f3d011682016040523d82523d6000602084013e6125c5565b606091505b50600081510361260a576040517f08c379a000000000000000000000000000000000000000000000000000000000815260040161260190614478565b60405180910390fd5b805181602001fd5b63150b7a0260e01b7bffffffffffffffffffffffffffffffffffffffffffffffffffffffff1916817bffffffffffffffffffffffffffffffffffffffffffffffffffffffff191614915050612667565b600190505b949350505050565b612679838361284d565b61268660008484846124e8565b6126c5576040517f08c379a00000000000000000000000000000000000000000000000000000000081526004016126bc90614478565b60405180910390fd5b505050565b60006126d58261109c565b14612715576040517f08c379a000000000000000000000000000000000000000000000000000000000815260040161270c906145f8565b60405180910390fd5b50565b612723838383612a26565b600073ffffffffffffffffffffffffffffffffffffffff168373ffffffffffffffffffffffffffffffffffffffff16036127655761276081612a2b565b6127a4565b8173ffffffffffffffffffffffffffffffffffffffff168373ffffffffffffffffffffffffffffffffffffffff16146127a3576127a28382612a74565b5b5b600073ffffffffffffffffffffffffffffffffffffffff168273ffffffffffffffffffffffffffffffffffffffff16036127e6576127e181612be1565b612825565b8273ffffffffffffffffffffffffffffffffffffffff168273ffffffffffffffffffffffffffffffffffffffff1614612824576128238282612cb2565b5b5b505050565b6000808273ffffffffffffffffffffffffffffffffffffffff163b119050919050565b600073ffffffffffffffffffffffffffffffffffffffff168273ffffffffffffffffffffffffffffffffffffffff16036128bc576040517f08c379a00000000000000000000000000000000000000000000000000000000081526004016128b390614664565b60405180910390fd5b6128c581611667565b15612905576040517f08c379a00000000000000000000000000000000000000000000000000000000081526004016128fc906146d0565b60405180910390fd5b61291160008383612495565b6001600360008473ffffffffffffffffffffffffffffffffffffffff1673ffffffffffffffffffffffffffffffffffffffff16815260200190815260200160002060008282546129619190613ff5565b92505081905550816002600083815260200190815260200160002060006101000a81548173ffffffffffffffffffffffffffffffffffffffff021916908373ffffffffffffffffffffffffffffffffffffffff160217905550808273ffffffffffffffffffffffffffffffffffffffff16600073ffffffffffffffffffffffffffffffffffffffff167fddf252ad1be2c89b69c2b068fc378daa952ba7f163c4a11628f55a4df523b3ef60405160405180910390a4612a22600083836124e3565b5050565b505050565b6008805490506009600083815260200190815260200160002081905550600881908060018154018082558091505060019003906000526020600020016000909190919091505550565b60006001612a818461109c565b612a8b9190614324565b9050600060076000848152602001908152602001600020549050818114612b70576000600660008673ffffffffffffffffffffffffffffffffffffffff1673ffffffffffffffffffffffffffffffffffffffff168152602001908152602001600020600084815260200190815260200160002054905080600660008773ffffffffffffffffffffffffffffffffffffffff1673ffffffffffffffffffffffffffffffffffffffff168152602001908152602001600020600084815260200190815260200160002081905550816007600083815260200190815260200160002081905550505b6007600084815260200190815260200160002060009055600660008573ffffffffffffffffffffffffffffffffffffffff1673ffffffffffffffffffffffffffffffffffffffff16815260200190815260200160002060008381526020019081526020016000206000905550505050565b60006001600880549050612bf59190614324565b9050600060096000848152602001908152602001600020549050600060088381548110612c2557612c24613c05565b5b906000526020600020015490508060088381548110612c4757612c46613c05565b5b906000526020600020018190555081600960008381526020019081526020016000208190555060096000858152602001908152602001600020600090556008805480612c9657612c956146f0565b5b6001900381819060005260206000200160009055905550505050565b6000612cbd8361109c565b905081600660008573ffffffffffffffffffffffffffffffffffffffff1673ffffffffffffffffffffffffffffffffffffffff168152602001908152602001600020600083815260200190815260200160002081905550806007600084815260200190815260200160002081905550505050565b828054612d3d90613ed2565b90600052602060002090601f016020900481019282612d5f5760008555612da6565b82601f10612d7857805160ff1916838001178555612da6565b82800160010185558215612da6579182015b82811115612da5578251825591602001919060010190612d8a565b5b509050612db39190612db7565b5090565b5b80821115612dd0576000816000905550600101612db8565b5090565b6000604051905090565b600080fd5b600080fd5b60007fffffffff0000000000000000000000000000000000000000000000000000000082169050919050565b612e1d81612de8565b8114612e2857600080fd5b50565b600081359050612e3a81612e14565b92915050565b600060208284031215612e5657612e55612dde565b5b6000612e6484828501612e2b565b91505092915050565b60008115159050919050565b612e8281612e6d565b82525050565b6000602082019050612e9d6000830184612e79565b92915050565b600081519050919050565b600082825260208201905092915050565b60005b83811015612edd578082015181840152602081019050612ec2565b83811115612eec576000848401525b50505050565b6000601f19601f8301169050919050565b6000612f0e82612ea3565b612f188185612eae565b9350612f28818560208601612ebf565b612f3181612ef2565b840191505092915050565b60006020820190508181036000830152612f568184612f03565b905092915050565b6000819050919050565b612f7181612f5e565b8114612f7c57600080fd5b50565b600081359050612f8e81612f68565b92915050565b600060208284031215612faa57612fa9612dde565b5b6000612fb884828501612f7f565b91505092915050565b600073ffffffffffffffffffffffffffffffffffffffff82169050919050565b6000612fec82612fc1565b9050919050565b612ffc81612fe1565b82525050565b60006020820190506130176000830184612ff3565b92915050565b61302681612fe1565b811461303157600080fd5b50565b6000813590506130438161301d565b92915050565b600080604083850312156130605761305f612dde565b5b600061306e85828601613034565b925050602061307f85828601612f7f565b9150509250929050565b61309281612e6d565b811461309d57600080fd5b50565b6000813590506130af81613089565b92915050565b6000602082840312156130cb576130ca612dde565b5b60006130d9848285016130a0565b91505092915050565b6130eb81612f5e565b82525050565b600060208201905061310660008301846130e2565b92915050565b60008060006060848603121561312557613124612dde565b5b600061313386828701613034565b935050602061314486828701613034565b925050604061315586828701612f7f565b9150509250925092565b60006020828403121561317557613174612dde565b5b600061318384828501613034565b91505092915050565b600080fd5b600080fd5b600080fd5b60008083601f8401126131b1576131b061318c565b5b8235905067ffffffffffffffff8111156131ce576131cd613191565b5b6020830191508360208202830111156131ea576131e9613196565b5b9250929050565b6000806020838503121561320857613207612dde565b5b600083013567ffffffffffffffff81111561322657613225612de3565b5b6132328582860161319b565b92509250509250929050565b600081519050919050565b600082825260208201905092915050565b6000819050602082019050919050565b61327381612e6d565b82525050565b6000613285838361326a565b60208301905092915050565b6000602082019050919050565b60006132a98261323e565b6132b38185613249565b93506132be8361325a565b8060005b838110156132ef5781516132d68882613279565b97506132e183613291565b9250506001810190506132c2565b5085935050505092915050565b60006040820190506133116000830185612e79565b8181036020830152613323818461329e565b90509392505050565b600080fd5b7f4e487b7100000000000000000000000000000000000000000000000000000000600052604160045260246000fd5b61336982612ef2565b810181811067ffffffffffffffff8211171561338857613387613331565b5b80604052505050565b600061339b612dd4565b90506133a78282613360565b919050565b600067ffffffffffffffff8211156133c7576133c6613331565b5b6133d082612ef2565b9050602081019050919050565b82818337600083830152505050565b60006133ff6133fa846133ac565b613391565b90508281526020810184848401111561341b5761341a61332c565b5b6134268482856133dd565b509392505050565b600082601f8301126134435761344261318c565b5b81356134538482602086016133ec565b91505092915050565b60006020828403121561347257613471612dde565b5b600082013567ffffffffffffffff8111156134905761348f612de3565b5b61349c8482850161342e565b91505092915050565b600080604083850312156134bc576134bb612dde565b5b60006134ca85828601613034565b92505060206134db858286016130a0565b9150509250929050565b6000819050919050565b600061350a61350561350084612fc1565b6134e5565b612fc1565b9050919050565b600061351c826134ef565b9050919050565b600061352e82613511565b9050919050565b61353e81613523565b82525050565b60006020820190506135596000830184613535565b92915050565b600067ffffffffffffffff82111561357a57613579613331565b5b61358382612ef2565b9050602081019050919050565b60006135a361359e8461355f565b613391565b9050828152602081018484840111156135bf576135be61332c565b5b6135ca8482856133dd565b509392505050565b600082601f8301126135e7576135e661318c565b5b81356135f7848260208601613590565b91505092915050565b6000806000806080858703121561361a57613619612dde565b5b600061362887828801613034565b945050602061363987828801613034565b935050604061364a87828801612f7f565b925050606085013567ffffffffffffffff81111561366b5761366a612de3565b5b613677878288016135d2565b91505092959194509250565b6000806040838503121561369a57613699612dde565b5b60006136a885828601613034565b92505060206136b985828601613034565b9150509250929050565b7f4552433732313a20617070726f76656420717565727920666f72206e6f6e657860008201527f697374656e7420746f6b656e0000000000000000000000000000000000000000602082015250565b600061371f602c83612eae565b915061372a826136c3565b604082019050919050565b6000602082019050818103600083015261374e81613712565b9050919050565b7f4552433732313a20617070726f76616c20746f2063757272656e74206f776e6560008201527f7200000000000000000000000000000000000000000000000000000000000000602082015250565b60006137b1602183612eae565b91506137bc82613755565b604082019050919050565b600060208201905081810360008301526137e0816137a4565b9050919050565b7f4552433732313a20617070726f76652063616c6c6572206973206e6f74206f7760008201527f6e6572206e6f7220617070726f76656420666f7220616c6c0000000000000000602082015250565b6000613843603883612eae565b915061384e826137e7565b604082019050919050565b6000602082019050818103600083015261387281613836565b9050919050565b7f4b6f727544616f4e46543a205061757365640000000000000000000000000000600082015250565b60006138af601283612eae565b91506138ba82613879565b602082019050919050565b600060208201905081810360008301526138de816138a2565b9050919050565b7f5265737472696374696f6e733a204f6e6c792047656c61746f2072656c617900600082015250565b600061391b601f83612eae565b9150613926826138e5565b602082019050919050565b6000602082019050818103600083015261394a8161390e565b9050919050565b7f4d696e745265737472696374696f6e733a2053656e64657220646f6573206e6f60008201527f74206d6565742063726974657269610000000000000000000000000000000000602082015250565b60006139ad602f83612eae565b91506139b882613951565b604082019050919050565b600060208201905081810360008301526139dc816139a0565b9050919050565b7f4e4f545f415554484f52495a4544000000000000000000000000000000000000600082015250565b6000613a19600e83612eae565b9150613a24826139e3565b602082019050919050565b60006020820190508181036000830152613a4881613a0c565b9050919050565b7f4552433732313a207472616e736665722063616c6c6572206973206e6f74206f60008201527f776e6572206e6f7220617070726f766564000000000000000000000000000000602082015250565b6000613aab603183612eae565b9150613ab682613a4f565b604082019050919050565b60006020820190508181036000830152613ada81613a9e565b9050919050565b7f455243373231456e756d657261626c653a206f776e657220696e646578206f7560008201527f74206f6620626f756e6473000000000000000000000000000000000000000000602082015250565b6000613b3d602b83612eae565b9150613b4882613ae1565b604082019050919050565b60006020820190508181036000830152613b6c81613b30565b9050919050565b7f455243373231456e756d657261626c653a20676c6f62616c20696e646578206f60008201527f7574206f6620626f756e64730000000000000000000000000000000000000000602082015250565b6000613bcf602c83612eae565b9150613bda82613b73565b604082019050919050565b60006020820190508181036000830152613bfe81613bc2565b9050919050565b7f4e487b7100000000000000000000000000000000000000000000000000000000600052603260045260246000fd5b7f4552433732313a206f776e657220717565727920666f72206e6f6e657869737460008201527f656e7420746f6b656e0000000000000000000000000000000000000000000000602082015250565b6000613c90602983612eae565b9150613c9b82613c34565b604082019050919050565b60006020820190508181036000830152613cbf81613c83565b9050919050565b7f4e487b7100000000000000000000000000000000000000000000000000000000600052601160045260246000fd5b6000613d0082612f5e565b91507fffffffffffffffffffffffffffffffffffffffffffffffffffffffffffffffff8203613d3257613d31613cc6565b5b600182019050919050565b600081519050613d4c81612f68565b92915050565b600060208284031215613d6857613d67612dde565b5b6000613d7684828501613d3d565b91505092915050565b7f4d696e745265737472696374696f6e733a2057616c6c657420646f6573206e6f60008201527f7420686176652064656661756c742070726f66696c6500000000000000000000602082015250565b6000613ddb603683612eae565b9150613de682613d7f565b604082019050919050565b60006020820190508181036000830152613e0a81613dce565b9050919050565b7f4552433732313a2062616c616e636520717565727920666f7220746865207a6560008201527f726f206164647265737300000000000000000000000000000000000000000000602082015250565b6000613e6d602a83612eae565b9150613e7882613e11565b604082019050919050565b60006020820190508181036000830152613e9c81613e60565b9050919050565b7f4e487b7100000000000000000000000000000000000000000000000000000000600052602260045260246000fd5b60006002820490506001821680613eea57607f821691505b602082108103613efd57613efc613ea3565b5b50919050565b7f4552433732314d657461646174613a2055524920717565727920666f72206e6f60008201527f6e6578697374656e7420746f6b656e0000000000000000000000000000000000602082015250565b6000613f5f602f83612eae565b9150613f6a82613f03565b604082019050919050565b60006020820190508181036000830152613f8e81613f52565b9050919050565b7f4e487b7100000000000000000000000000000000000000000000000000000000600052601260045260246000fd5b6000613fcf82612f5e565b9150613fda83612f5e565b925082613fea57613fe9613f95565b5b828206905092915050565b600061400082612f5e565b915061400b83612f5e565b9250827fffffffffffffffffffffffffffffffffffffffffffffffffffffffffffffffff038211156140405761403f613cc6565b5b828201905092915050565b600081905092915050565b600061406182612ea3565b61406b818561404b565b935061407b818560208601612ebf565b80840191505092915050565b7f2e6a736f6e000000000000000000000000000000000000000000000000000000600082015250565b60006140bd60058361404b565b91506140c882614087565b600582019050919050565b60006140df8285614056565b91506140eb8284614056565b91506140f6826140b0565b91508190509392505050565b7f4b6f727544616f4e46543a204d617820537570706c7900000000000000000000600082015250565b6000614138601683612eae565b915061414382614102565b602082019050919050565b600060208201905081810360008301526141678161412b565b9050919050565b7f4552433732313a206f70657261746f7220717565727920666f72206e6f6e657860008201527f697374656e7420746f6b656e0000000000000000000000000000000000000000602082015250565b60006141ca602c83612eae565b91506141d58261416e565b604082019050919050565b600060208201905081810360008301526141f9816141bd565b9050919050565b7f4552433732313a207472616e736665722066726f6d20696e636f72726563742060008201527f6f776e6572000000000000000000000000000000000000000000000000000000602082015250565b600061425c602583612eae565b915061426782614200565b604082019050919050565b6000602082019050818103600083015261428b8161424f565b9050919050565b7f4552433732313a207472616e7366657220746f20746865207a65726f2061646460008201527f7265737300000000000000000000000000000000000000000000000000000000602082015250565b60006142ee602483612eae565b91506142f982614292565b604082019050919050565b6000602082019050818103600083015261431d816142e1565b9050919050565b600061432f82612f5e565b915061433a83612f5e565b92508282101561434d5761434c613cc6565b5b828203905092915050565b6000815190506143678161301d565b92915050565b60006020828403121561438357614382612dde565b5b600061439184828501614358565b91505092915050565b7f4552433732313a20617070726f766520746f2063616c6c657200000000000000600082015250565b60006143d0601983612eae565b91506143db8261439a565b602082019050919050565b600060208201905081810360008301526143ff816143c3565b9050919050565b7f4552433732313a207472616e7366657220746f206e6f6e20455243373231526560008201527f63656976657220696d706c656d656e7465720000000000000000000000000000602082015250565b6000614462603283612eae565b915061446d82614406565b604082019050919050565b6000602082019050818103600083015261449181614455565b9050919050565b60006144a382612f5e565b91506144ae83612f5e565b9250826144be576144bd613f95565b5b828204905092915050565b600081519050919050565b600082825260208201905092915050565b60006144f0826144c9565b6144fa81856144d4565b935061450a818560208601612ebf565b61451381612ef2565b840191505092915050565b60006080820190506145336000830187612ff3565b6145406020830186612ff3565b61454d60408301856130e2565b818103606083015261455f81846144e5565b905095945050505050565b60008151905061457981612e14565b92915050565b60006020828403121561459557614594612dde565b5b60006145a38482850161456a565b91505092915050565b7f4b6f727544616f4e46543a204f6e6520706572206163636f756e740000000000600082015250565b60006145e2601b83612eae565b91506145ed826145ac565b602082019050919050565b60006020820190508181036000830152614611816145d5565b9050919050565b7f4552433732313a206d696e7420746f20746865207a65726f2061646472657373600082015250565b600061464e602083612eae565b915061465982614618565b602082019050919050565b6000602082019050818103600083015261467d81614641565b9050919050565b7f4552433732313a20746f6b656e20616c7265616479206d696e74656400000000600082015250565b60006146ba601c83612eae565b91506146c582614684565b602082019050919050565b600060208201905081810360008301526146e9816146ad565b9050919050565b7f4e487b7100000000000000000000000000000000000000000000000000000000600052603160045260246000fdfea26469706673582212205cef5fade442ce7bc81b23fd9ad8fc3eaf08953c71f0413d1f00703fb243b48864736f6c634300080e0033",
  "devdoc": {
    "kind": "dev",
    "methods": {
      "approve(address,uint256)": {
        "details": "See {IERC721-approve}."
      },
      "balanceOf(address)": {
        "details": "See {IERC721-balanceOf}."
      },
      "getApproved(uint256)": {
        "details": "See {IERC721-getApproved}."
      },
      "isApprovedForAll(address,address)": {
        "details": "See {IERC721-isApprovedForAll}."
      },
      "name()": {
        "details": "See {IERC721Metadata-name}."
      },
      "ownerOf(uint256)": {
        "details": "See {IERC721-ownerOf}."
      },
      "safeTransferFrom(address,address,uint256)": {
        "details": "See {IERC721-safeTransferFrom}."
      },
      "safeTransferFrom(address,address,uint256,bytes)": {
        "details": "See {IERC721-safeTransferFrom}."
      },
      "setApprovalForAll(address,bool)": {
        "details": "See {IERC721-setApprovalForAll}."
      },
      "supportsInterface(bytes4)": {
        "details": "See {IERC165-supportsInterface}."
      },
      "symbol()": {
        "details": "See {IERC721Metadata-symbol}."
      },
      "tokenByIndex(uint256)": {
        "details": "See {IERC721Enumerable-tokenByIndex}."
      },
      "tokenOfOwnerByIndex(address,uint256)": {
        "details": "See {IERC721Enumerable-tokenOfOwnerByIndex}."
      },
      "tokenURI(uint256)": {
        "details": "See {IERC721Metadata-tokenURI}."
      },
      "totalSupply()": {
        "details": "See {IERC721Enumerable-totalSupply}."
      },
      "transferFrom(address,address,uint256)": {
        "details": "See {IERC721-transferFrom}."
      }
    },
    "version": 1
  },
  "userdoc": {
    "kind": "user",
    "methods": {},
    "version": 1
  },
  "storageLayout": {
    "storage": [
      {
        "astId": 3437,
        "contract": "contracts/KoruDaoNFT.sol:KoruDaoNFT",
        "label": "_name",
        "offset": 0,
        "slot": "0",
        "type": "t_string_storage"
      },
      {
        "astId": 3439,
        "contract": "contracts/KoruDaoNFT.sol:KoruDaoNFT",
        "label": "_symbol",
        "offset": 0,
        "slot": "1",
        "type": "t_string_storage"
      },
      {
        "astId": 3443,
        "contract": "contracts/KoruDaoNFT.sol:KoruDaoNFT",
        "label": "_owners",
        "offset": 0,
        "slot": "2",
        "type": "t_mapping(t_uint256,t_address)"
      },
      {
        "astId": 3447,
        "contract": "contracts/KoruDaoNFT.sol:KoruDaoNFT",
        "label": "_balances",
        "offset": 0,
        "slot": "3",
        "type": "t_mapping(t_address,t_uint256)"
      },
      {
        "astId": 3451,
        "contract": "contracts/KoruDaoNFT.sol:KoruDaoNFT",
        "label": "_tokenApprovals",
        "offset": 0,
        "slot": "4",
        "type": "t_mapping(t_uint256,t_address)"
      },
      {
        "astId": 3457,
        "contract": "contracts/KoruDaoNFT.sol:KoruDaoNFT",
        "label": "_operatorApprovals",
        "offset": 0,
        "slot": "5",
        "type": "t_mapping(t_address,t_mapping(t_address,t_bool))"
      },
      {
        "astId": 4297,
        "contract": "contracts/KoruDaoNFT.sol:KoruDaoNFT",
        "label": "_ownedTokens",
        "offset": 0,
        "slot": "6",
        "type": "t_mapping(t_address,t_mapping(t_uint256,t_uint256))"
      },
      {
        "astId": 4301,
        "contract": "contracts/KoruDaoNFT.sol:KoruDaoNFT",
        "label": "_ownedTokensIndex",
        "offset": 0,
        "slot": "7",
        "type": "t_mapping(t_uint256,t_uint256)"
      },
      {
        "astId": 4304,
        "contract": "contracts/KoruDaoNFT.sol:KoruDaoNFT",
        "label": "_allTokens",
        "offset": 0,
        "slot": "8",
        "type": "t_array(t_uint256)dyn_storage"
      },
      {
        "astId": 4308,
        "contract": "contracts/KoruDaoNFT.sol:KoruDaoNFT",
        "label": "_allTokensIndex",
        "offset": 0,
        "slot": "9",
        "type": "t_mapping(t_uint256,t_uint256)"
      },
      {
        "astId": 1331,
        "contract": "contracts/KoruDaoNFT.sol:KoruDaoNFT",
        "label": "baseUri",
        "offset": 0,
        "slot": "10",
        "type": "t_string_storage"
      },
      {
        "astId": 1333,
        "contract": "contracts/KoruDaoNFT.sol:KoruDaoNFT",
        "label": "paused",
        "offset": 0,
        "slot": "11",
        "type": "t_bool"
      }
    ],
    "types": {
      "t_address": {
        "encoding": "inplace",
        "label": "address",
        "numberOfBytes": "20"
      },
      "t_array(t_uint256)dyn_storage": {
        "base": "t_uint256",
        "encoding": "dynamic_array",
        "label": "uint256[]",
        "numberOfBytes": "32"
      },
      "t_bool": {
        "encoding": "inplace",
        "label": "bool",
        "numberOfBytes": "1"
      },
      "t_mapping(t_address,t_bool)": {
        "encoding": "mapping",
        "key": "t_address",
        "label": "mapping(address => bool)",
        "numberOfBytes": "32",
        "value": "t_bool"
      },
      "t_mapping(t_address,t_mapping(t_address,t_bool))": {
        "encoding": "mapping",
        "key": "t_address",
        "label": "mapping(address => mapping(address => bool))",
        "numberOfBytes": "32",
        "value": "t_mapping(t_address,t_bool)"
      },
      "t_mapping(t_address,t_mapping(t_uint256,t_uint256))": {
        "encoding": "mapping",
        "key": "t_address",
        "label": "mapping(address => mapping(uint256 => uint256))",
        "numberOfBytes": "32",
        "value": "t_mapping(t_uint256,t_uint256)"
      },
      "t_mapping(t_address,t_uint256)": {
        "encoding": "mapping",
        "key": "t_address",
        "label": "mapping(address => uint256)",
        "numberOfBytes": "32",
        "value": "t_uint256"
      },
      "t_mapping(t_uint256,t_address)": {
        "encoding": "mapping",
        "key": "t_uint256",
        "label": "mapping(uint256 => address)",
        "numberOfBytes": "32",
        "value": "t_address"
      },
      "t_mapping(t_uint256,t_uint256)": {
        "encoding": "mapping",
        "key": "t_uint256",
        "label": "mapping(uint256 => uint256)",
        "numberOfBytes": "32",
        "value": "t_uint256"
      },
      "t_string_storage": {
        "encoding": "bytes",
        "label": "string",
        "numberOfBytes": "32"
      },
      "t_uint256": {
        "encoding": "inplace",
        "label": "uint256",
        "numberOfBytes": "32"
      }
    }
  }
}