{
  "address": "0x4BD5ae82a08f9D0e82161Ee11ade84b8851c2E1A",
  "abi": [
    {
      "inputs": [
        {
          "internalType": "bool",
          "name": "_restricted",
          "type": "bool"
        },
        {
          "internalType": "uint256",
          "name": "_maxSupply",
          "type": "uint256"
        },
        {
          "internalType": "uint256",
          "name": "_koruDaoProfileId",
          "type": "uint256"
        },
        {
          "internalType": "uint256",
          "name": "_minPubCount",
          "type": "uint256"
        },
        {
          "internalType": "uint256",
          "name": "_minFollowers",
          "type": "uint256"
        },
        {
          "internalType": "address",
          "name": "_gelatoRelay",
          "type": "address"
        },
        {
          "internalType": "contract ILensHub",
          "name": "_lensHub",
          "type": "address"
        }
      ],
      "stateMutability": "nonpayable",
      "type": "constructor"
    },
    {
      "inputs": [
        {
          "internalType": "address",
          "name": "operator",
          "type": "address"
        }
      ],
      "name": "OperatorNotAllowed",
      "type": "error"
    },
    {
      "anonymous": false,
      "inputs": [
        {
          "indexed": true,
          "internalType": "address",
          "name": "owner",
          "type": "address"
        },
        {
          "indexed": true,
          "internalType": "address",
          "name": "approved",
          "type": "address"
        },
        {
          "indexed": true,
          "internalType": "uint256",
          "name": "tokenId",
          "type": "uint256"
        }
      ],
      "name": "Approval",
      "type": "event"
    },
    {
      "anonymous": false,
      "inputs": [
        {
          "indexed": true,
          "internalType": "address",
          "name": "owner",
          "type": "address"
        },
        {
          "indexed": true,
          "internalType": "address",
          "name": "operator",
          "type": "address"
        },
        {
          "indexed": false,
          "internalType": "bool",
          "name": "approved",
          "type": "bool"
        }
      ],
      "name": "ApprovalForAll",
      "type": "event"
    },
    {
      "anonymous": false,
      "inputs": [
        {
          "indexed": true,
          "internalType": "address",
          "name": "from",
          "type": "address"
        },
        {
          "indexed": true,
          "internalType": "address",
          "name": "to",
          "type": "address"
        },
        {
          "indexed": true,
          "internalType": "uint256",
          "name": "tokenId",
          "type": "uint256"
        }
      ],
      "name": "Transfer",
      "type": "event"
    },
    {
      "inputs": [
        {
          "internalType": "address",
          "name": "operator",
          "type": "address"
        },
        {
          "internalType": "uint256",
          "name": "tokenId",
          "type": "uint256"
        }
      ],
      "name": "approve",
      "outputs": [],
      "stateMutability": "nonpayable",
      "type": "function"
    },
    {
      "inputs": [
        {
          "internalType": "address",
          "name": "owner",
          "type": "address"
        }
      ],
      "name": "balanceOf",
      "outputs": [
        {
          "internalType": "uint256",
          "name": "",
          "type": "uint256"
        }
      ],
      "stateMutability": "view",
      "type": "function"
    },
    {
      "inputs": [],
      "name": "baseUri",
      "outputs": [
        {
          "internalType": "string",
          "name": "",
          "type": "string"
        }
      ],
      "stateMutability": "view",
      "type": "function"
    },
    {
      "inputs": [],
      "name": "gelatoRelay",
      "outputs": [
        {
          "internalType": "address",
          "name": "",
          "type": "address"
        }
      ],
      "stateMutability": "view",
      "type": "function"
    },
    {
      "inputs": [
        {
          "internalType": "uint256",
          "name": "tokenId",
          "type": "uint256"
        }
      ],
      "name": "getApproved",
      "outputs": [
        {
          "internalType": "address",
          "name": "",
          "type": "address"
        }
      ],
      "stateMutability": "view",
      "type": "function"
    },
    {
      "inputs": [
        {
          "internalType": "string",
          "name": "_name",
          "type": "string"
        },
        {
          "internalType": "string",
          "name": "_symbol",
          "type": "string"
        },
        {
          "internalType": "string",
          "name": "_baseUri",
          "type": "string"
        },
        {
          "internalType": "bool",
          "name": "_paused",
          "type": "bool"
        }
      ],
      "name": "initialize",
      "outputs": [],
      "stateMutability": "nonpayable",
      "type": "function"
    },
    {
      "inputs": [
        {
          "internalType": "address",
          "name": "owner",
          "type": "address"
        },
        {
          "internalType": "address",
          "name": "operator",
          "type": "address"
        }
      ],
      "name": "isApprovedForAll",
      "outputs": [
        {
          "internalType": "bool",
          "name": "",
          "type": "bool"
        }
      ],
      "stateMutability": "view",
      "type": "function"
    },
    {
      "inputs": [
        {
          "internalType": "address",
          "name": "_wallet",
          "type": "address"
        }
      ],
      "name": "isEligible",
      "outputs": [
        {
          "internalType": "bool",
          "name": "",
          "type": "bool"
        },
        {
          "internalType": "bool[]",
          "name": "",
          "type": "bool[]"
        }
      ],
      "stateMutability": "view",
      "type": "function"
    },
    {
      "inputs": [],
      "name": "koruDaoProfileId",
      "outputs": [
        {
          "internalType": "uint256",
          "name": "",
          "type": "uint256"
        }
      ],
      "stateMutability": "view",
      "type": "function"
    },
    {
      "inputs": [],
      "name": "lensHub",
      "outputs": [
        {
          "internalType": "contract ILensHub",
          "name": "",
          "type": "address"
        }
      ],
      "stateMutability": "view",
      "type": "function"
    },
    {
      "inputs": [
        {
          "internalType": "uint256",
          "name": "",
          "type": "uint256"
        }
      ],
      "name": "lensProfileMinted",
      "outputs": [
        {
          "internalType": "bool",
          "name": "",
          "type": "bool"
        }
      ],
      "stateMutability": "view",
      "type": "function"
    },
    {
      "inputs": [],
      "name": "maxSupply",
      "outputs": [
        {
          "internalType": "uint256",
          "name": "",
          "type": "uint256"
        }
      ],
      "stateMutability": "view",
      "type": "function"
    },
    {
      "inputs": [],
      "name": "minFollowers",
      "outputs": [
        {
          "internalType": "uint256",
          "name": "",
          "type": "uint256"
        }
      ],
      "stateMutability": "view",
      "type": "function"
    },
    {
      "inputs": [],
      "name": "minPubCount",
      "outputs": [
        {
          "internalType": "uint256",
          "name": "",
          "type": "uint256"
        }
      ],
      "stateMutability": "view",
      "type": "function"
    },
    {
      "inputs": [],
      "name": "mint",
      "outputs": [],
      "stateMutability": "nonpayable",
      "type": "function"
    },
    {
      "inputs": [],
      "name": "name",
      "outputs": [
        {
          "internalType": "string",
          "name": "",
          "type": "string"
        }
      ],
      "stateMutability": "view",
      "type": "function"
    },
    {
      "inputs": [
        {
          "internalType": "address[]",
          "name": "_users",
          "type": "address[]"
        }
      ],
      "name": "ownerMint",
      "outputs": [],
      "stateMutability": "nonpayable",
      "type": "function"
    },
    {
      "inputs": [
        {
          "internalType": "uint256",
          "name": "tokenId",
          "type": "uint256"
        }
      ],
      "name": "ownerOf",
      "outputs": [
        {
          "internalType": "address",
          "name": "",
          "type": "address"
        }
      ],
      "stateMutability": "view",
      "type": "function"
    },
    {
      "inputs": [],
      "name": "paused",
      "outputs": [
        {
          "internalType": "bool",
          "name": "",
          "type": "bool"
        }
      ],
      "stateMutability": "view",
      "type": "function"
    },
    {
      "inputs": [],
      "name": "restricted",
      "outputs": [
        {
          "internalType": "bool",
          "name": "",
          "type": "bool"
        }
      ],
      "stateMutability": "view",
      "type": "function"
    },
    {
      "inputs": [
        {
          "internalType": "address",
          "name": "from",
          "type": "address"
        },
        {
          "internalType": "address",
          "name": "to",
          "type": "address"
        },
        {
          "internalType": "uint256",
          "name": "tokenId",
          "type": "uint256"
        }
      ],
      "name": "safeTransferFrom",
      "outputs": [],
      "stateMutability": "nonpayable",
      "type": "function"
    },
    {
      "inputs": [
        {
          "internalType": "address",
          "name": "from",
          "type": "address"
        },
        {
          "internalType": "address",
          "name": "to",
          "type": "address"
        },
        {
          "internalType": "uint256",
          "name": "tokenId",
          "type": "uint256"
        },
        {
          "internalType": "bytes",
          "name": "data",
          "type": "bytes"
        }
      ],
      "name": "safeTransferFrom",
      "outputs": [],
      "stateMutability": "nonpayable",
      "type": "function"
    },
    {
      "inputs": [
        {
          "internalType": "address",
          "name": "operator",
          "type": "address"
        },
        {
          "internalType": "bool",
          "name": "approved",
          "type": "bool"
        }
      ],
      "name": "setApprovalForAll",
      "outputs": [],
      "stateMutability": "nonpayable",
      "type": "function"
    },
    {
      "inputs": [
        {
          "internalType": "string",
          "name": "_baseUri",
          "type": "string"
        }
      ],
      "name": "setBaseUri",
      "outputs": [],
      "stateMutability": "nonpayable",
      "type": "function"
    },
    {
      "inputs": [
        {
          "internalType": "bool",
          "name": "_paused",
          "type": "bool"
        }
      ],
      "name": "setPaused",
      "outputs": [],
      "stateMutability": "nonpayable",
      "type": "function"
    },
    {
      "inputs": [
        {
          "internalType": "bytes4",
          "name": "interfaceId",
          "type": "bytes4"
        }
      ],
      "name": "supportsInterface",
      "outputs": [
        {
          "internalType": "bool",
          "name": "",
          "type": "bool"
        }
      ],
      "stateMutability": "view",
      "type": "function"
    },
    {
      "inputs": [],
      "name": "symbol",
      "outputs": [
        {
          "internalType": "string",
          "name": "",
          "type": "string"
        }
      ],
      "stateMutability": "view",
      "type": "function"
    },
    {
      "inputs": [
        {
          "internalType": "uint256",
          "name": "index",
          "type": "uint256"
        }
      ],
      "name": "tokenByIndex",
      "outputs": [
        {
          "internalType": "uint256",
          "name": "",
          "type": "uint256"
        }
      ],
      "stateMutability": "view",
      "type": "function"
    },
    {
      "inputs": [
        {
          "internalType": "address",
          "name": "owner",
          "type": "address"
        },
        {
          "internalType": "uint256",
          "name": "index",
          "type": "uint256"
        }
      ],
      "name": "tokenOfOwnerByIndex",
      "outputs": [
        {
          "internalType": "uint256",
          "name": "",
          "type": "uint256"
        }
      ],
      "stateMutability": "view",
      "type": "function"
    },
    {
      "inputs": [
        {
          "internalType": "uint256",
          "name": "tokenId",
          "type": "uint256"
        }
      ],
      "name": "tokenURI",
      "outputs": [
        {
          "internalType": "string",
          "name": "",
          "type": "string"
        }
      ],
      "stateMutability": "view",
      "type": "function"
    },
    {
      "inputs": [],
      "name": "totalSupply",
      "outputs": [
        {
          "internalType": "uint256",
          "name": "",
          "type": "uint256"
        }
      ],
      "stateMutability": "view",
      "type": "function"
    },
    {
      "inputs": [
        {
          "internalType": "address",
          "name": "from",
          "type": "address"
        },
        {
          "internalType": "address",
          "name": "to",
          "type": "address"
        },
        {
          "internalType": "uint256",
          "name": "tokenId",
          "type": "uint256"
        }
      ],
      "name": "transferFrom",
      "outputs": [],
      "stateMutability": "nonpayable",
      "type": "function"
    }
  ],
  "transactionHash": "0x96c91a07c977193b50c3ba18a3b972f206b68432ba7ed48192efe9a730a90405",
  "args": [
    false,
    282,
    16978,
    0,
    0,
    "0xBf175FCC7086b4f9bd59d5EAE8eA67b8f940DE0d",
    "0x60Ae865ee4C725cd04353b5AAb364553f56ceF82"
  ],
  "numDeployments": 22,
  "solcInputHash": "c37ca5b260c297cde2600d5e5d49fc0e",
  "bytecode": "0x6101606040523480156200001257600080fd5b5060405162005eb738038062005eb783398181016040528101906200003891906200020f565b8187868686858415156080811515815250508360a081815250508260c081815250508160e081815250508073ffffffffffffffffffffffffffffffffffffffff166101008173ffffffffffffffffffffffffffffffffffffffff168152505050505050508073ffffffffffffffffffffffffffffffffffffffff166101208173ffffffffffffffffffffffffffffffffffffffff16815250505085610140818152505050505050505050620002c2565b600080fd5b60008115159050919050565b6200010481620000ed565b81146200011057600080fd5b50565b6000815190506200012481620000f9565b92915050565b6000819050919050565b6200013f816200012a565b81146200014b57600080fd5b50565b6000815190506200015f8162000134565b92915050565b600073ffffffffffffffffffffffffffffffffffffffff82169050919050565b6000620001928262000165565b9050919050565b620001a48162000185565b8114620001b057600080fd5b50565b600081519050620001c48162000199565b92915050565b6000620001d78262000185565b9050919050565b620001e981620001ca565b8114620001f557600080fd5b50565b6000815190506200020981620001de565b92915050565b600080600080600080600060e0888a031215620002315762000230620000e8565b5b6000620002418a828b0162000113565b9750506020620002548a828b016200014e565b9650506040620002678a828b016200014e565b95505060606200027a8a828b016200014e565b94505060806200028d8a828b016200014e565b93505060a0620002a08a828b01620001b3565b92505060c0620002b38a828b01620001f8565b91505092959891949750929550565b60805160a05160c05160e051610100516101205161014051615b1c6200039b60003960008181611bbc01528181611bec01528181611c770152612070015260008181610fa00152611fb6015260008181610a2b015281816113be015281816119a001528181612217015281816122bc0152818161243f015261250a0152600081816112490152612657015260008181611b1701526124db0152600081816116c301526122f801526000818161098101528181610a0301528181611342015281816115e801528181611b93015261204a0152615b1c6000f3fe608060405234801561001057600080fd5b50600436106101f05760003560e01c8063661e3e361161010f578063a22cb465116100a2578063c87b56dd11610071578063c87b56dd14610596578063d5abeb01146105c6578063e985e9c5146105e4578063f5e2f8be14610614576101f0565b8063a22cb46514610522578063b02cfdc31461053e578063b88d4fde1461055c578063c631029e14610578576101f0565b806384af9a92116100de57806384af9a92146104ac57806395d89b41146104ca5780639abc8320146104e8578063a0bcfc7f14610506576101f0565b8063661e3e361461041157806366e305fd1461042d5780637072c6b11461045e57806370a082311461047c576101f0565b80632c375026116101875780634f6ccce7116101565780634f6ccce7146103755780635c975abb146103a55780636352211e146103c357806363631410146103f3576101f0565b80632c375026146102ef5780632f745c591461030b5780633552221a1461033b57806342842e0e14610359576101f0565b80631249c58b116101c35780631249c58b1461028f57806316c38b3c1461029957806318160ddd146102b557806323b872dd146102d3576101f0565b806301ffc9a7146101f557806306fdde0314610225578063081812fc14610243578063095ea7b314610273575b600080fd5b61020f600480360381019061020a9190613ec7565b610644565b60405161021c9190613f0f565b60405180910390f35b61022d6106be565b60405161023a9190613fc3565b60405180910390f35b61025d6004803603810190610258919061401b565b610750565b60405161026a9190614089565b60405180910390f35b61028d600480360381019061028891906140d0565b6107d5565b005b6102976108df565b005b6102b360048036038101906102ae919061413c565b610b61565b005b6102bd610bf3565b6040516102ca9190614178565b60405180910390f35b6102ed60048036038101906102e89190614193565b610c00565b005b6103096004803603810190610304919061424b565b610d50565b005b610325600480360381019061032091906140d0565b610ef9565b6040516103329190614178565b60405180910390f35b610343610f9e565b6040516103509190614089565b60405180910390f35b610373600480360381019061036e9190614193565b610fc2565b005b61038f600480360381019061038a919061401b565b611112565b60405161039c9190614178565b60405180910390f35b6103ad611183565b6040516103ba9190613f0f565b60405180910390f35b6103dd60048036038101906103d8919061401b565b611196565b6040516103ea9190614089565b60405180910390f35b6103fb611247565b6040516104089190614178565b60405180910390f35b61042b6004803603810190610426919061436a565b61126b565b005b610447600480360381019061044291906143b7565b61133c565b6040516104559291906144a2565b60405180910390f35b6104666115e6565b6040516104739190613f0f565b60405180910390f35b610496600480360381019061049191906143b7565b61160a565b6040516104a39190614178565b60405180910390f35b6104b46116c1565b6040516104c19190614178565b60405180910390f35b6104d26116e5565b6040516104df9190613fc3565b60405180910390f35b6104f0611777565b6040516104fd9190613fc3565b60405180910390f35b610520600480360381019061051b9190614602565b611805565b005b61053c6004803603810190610537919061464b565b611894565b005b61054661199e565b60405161055391906146ea565b60405180910390f35b610576600480360381019061057191906147a6565b6119c2565b005b610580611b15565b60405161058d9190614178565b60405180910390f35b6105b060048036038101906105ab919061401b565b611b39565b6040516105bd9190613fc3565b60405180910390f35b6105ce611c75565b6040516105db9190614178565b60405180910390f35b6105fe60048036038101906105f99190614829565b611c99565b60405161060b9190613f0f565b60405180910390f35b61062e6004803603810190610629919061401b565b611d2d565b60405161063b9190613f0f565b60405180910390f35b60007f780e9d63000000000000000000000000000000000000000000000000000000007bffffffffffffffffffffffffffffffffffffffffffffffffffffffff1916827bffffffffffffffffffffffffffffffffffffffffffffffffffffffff191614806106b757506106b682611d4d565b5b9050919050565b6060606580546106cd90614898565b80601f01602080910402602001604051908101604052809291908181526020018280546106f990614898565b80156107465780601f1061071b57610100808354040283529160200191610746565b820191906000526020600020905b81548152906001019060200180831161072957829003601f168201915b5050505050905090565b600061075b82611e2f565b61079a576040517f08c379a00000000000000000000000000000000000000000000000000000000081526004016107919061493b565b60405180910390fd5b6069600083815260200190815260200160002060009054906101000a900473ffffffffffffffffffffffffffffffffffffffff169050919050565b8160006daaeb6d7670e522a718067333cd4e73ffffffffffffffffffffffffffffffffffffffff163b11156108d0576daaeb6d7670e522a718067333cd4e73ffffffffffffffffffffffffffffffffffffffff1663c617113430836040518363ffffffff1660e01b815260040161084d92919061495b565b602060405180830381865afa15801561086a573d6000803e3d6000fd5b505050506040513d601f19601f8201168201806040525081019061088e9190614999565b6108cf57806040517fede71dcc0000000000000000000000000000000000000000000000000000000081526004016108c69190614089565b60405180910390fd5b5b6108da8383611e9b565b505050565b60ca60009054906101000a900460ff161561092f576040517f08c379a000000000000000000000000000000000000000000000000000000000815260040161092690614a12565b60405180910390fd5b61093833611fb2565b610977576040517f08c379a000000000000000000000000000000000000000000000000000000000815260040161096e90614a7e565b60405180910390fd5b61097f61200a565b7f0000000000000000000000000000000000000000000000000000000000000000156109f55760006109b08261133c565b509050806109f3576040517f08c379a00000000000000000000000000000000000000000000000000000000081526004016109ea90614b10565b60405180910390fd5b505b60006109ff61200a565b90507f000000000000000000000000000000000000000000000000000000000000000015610b545760007f000000000000000000000000000000000000000000000000000000000000000073ffffffffffffffffffffffffffffffffffffffff166392254a62836040518263ffffffff1660e01b8152600401610a829190614089565b602060405180830381865afa158015610a9f573d6000803e3d6000fd5b505050506040513d601f19601f82011682018060405250810190610ac39190614b45565b905060cb600082815260200190815260200160002060009054906101000a900460ff1615610b26576040517f08c379a0000000000000000000000000000000000000000000000000000000008152600401610b1d90614be4565b60405180910390fd5b600160cb600083815260200190815260200160002060006101000a81548160ff021916908315150217905550505b610b5d8161203c565b5050565b610b696120eb565b73ffffffffffffffffffffffffffffffffffffffff163373ffffffffffffffffffffffffffffffffffffffff1614610bd6576040517f08c379a0000000000000000000000000000000000000000000000000000000008152600401610bcd90614c50565b60405180910390fd5b8060ca60006101000a81548160ff02191690831515021790555050565b6000609980549050905090565b8260006daaeb6d7670e522a718067333cd4e73ffffffffffffffffffffffffffffffffffffffff163b1115610d3e573373ffffffffffffffffffffffffffffffffffffffff168173ffffffffffffffffffffffffffffffffffffffff1603610c7257610c6d848484612114565b610d4a565b6daaeb6d7670e522a718067333cd4e73ffffffffffffffffffffffffffffffffffffffff1663c617113430336040518363ffffffff1660e01b8152600401610cbb92919061495b565b602060405180830381865afa158015610cd8573d6000803e3d6000fd5b505050506040513d601f19601f82011682018060405250810190610cfc9190614999565b610d3d57336040517fede71dcc000000000000000000000000000000000000000000000000000000008152600401610d349190614089565b60405180910390fd5b5b610d49848484612114565b5b50505050565b600060019054906101000a900460ff16610d785760008054906101000a900460ff1615610d81565b610d80612174565b5b610dc0576040517f08c379a0000000000000000000000000000000000000000000000000000000008152600401610db790614ce2565b60405180910390fd5b60008060019054906101000a900460ff161590508015610e10576001600060016101000a81548160ff02191690831515021790555060016000806101000a81548160ff0219169083151502179055505b610ea288888080601f016020809104026020016040519081016040528093929190818152602001838380828437600081840152601f19601f8201169050808301925050505050505087878080601f016020809104026020016040519081016040528093929190818152602001838380828437600081840152601f19601f82011690508083019250505050505050612185565b838360c99190610eb3929190613d32565b508160ca60006101000a81548160ff0219169083151502179055508015610eef5760008060016101000a81548160ff0219169083151502179055505b5050505050505050565b6000610f048361160a565b8210610f45576040517f08c379a0000000000000000000000000000000000000000000000000000000008152600401610f3c90614d74565b60405180910390fd5b609760008473ffffffffffffffffffffffffffffffffffffffff1673ffffffffffffffffffffffffffffffffffffffff168152602001908152602001600020600083815260200190815260200160002054905092915050565b7f000000000000000000000000000000000000000000000000000000000000000081565b8260006daaeb6d7670e522a718067333cd4e73ffffffffffffffffffffffffffffffffffffffff163b1115611100573373ffffffffffffffffffffffffffffffffffffffff168173ffffffffffffffffffffffffffffffffffffffff16036110345761102f8484846121f2565b61110c565b6daaeb6d7670e522a718067333cd4e73ffffffffffffffffffffffffffffffffffffffff1663c617113430336040518363ffffffff1660e01b815260040161107d92919061495b565b602060405180830381865afa15801561109a573d6000803e3d6000fd5b505050506040513d601f19601f820116820180604052508101906110be9190614999565b6110ff57336040517fede71dcc0000000000000000000000000000000000000000000000000000000081526004016110f69190614089565b60405180910390fd5b5b61110b8484846121f2565b5b50505050565b600061111c610bf3565b821061115d576040517f08c379a000000000000000000000000000000000000000000000000000000000815260040161115490614e06565b60405180910390fd5b6099828154811061117157611170614e26565b5b90600052602060002001549050919050565b60ca60009054906101000a900460ff1681565b6000806067600084815260200190815260200160002060009054906101000a900473ffffffffffffffffffffffffffffffffffffffff169050600073ffffffffffffffffffffffffffffffffffffffff168173ffffffffffffffffffffffffffffffffffffffff160361123e576040517f08c379a000000000000000000000000000000000000000000000000000000000815260040161123590614ec7565b60405180910390fd5b80915050919050565b7f000000000000000000000000000000000000000000000000000000000000000081565b6112736120eb565b73ffffffffffffffffffffffffffffffffffffffff163373ffffffffffffffffffffffffffffffffffffffff16146112e0576040517f08c379a00000000000000000000000000000000000000000000000000000000081526004016112d790614c50565b60405180910390fd5b600082829050905060005b818110156113365761132384848381811061130957611308614e26565b5b905060200201602081019061131e91906143b7565b61203c565b808061132e90614f16565b9150506112eb565b50505050565b600060607f00000000000000000000000000000000000000000000000000000000000000006113ba576001600467ffffffffffffffff811115611382576113816144d7565b5b6040519080825280602002602001820160405280156113b05781602001602082028036833780820191505090505b50915091506115e1565b60007f000000000000000000000000000000000000000000000000000000000000000073ffffffffffffffffffffffffffffffffffffffff166392254a62856040518263ffffffff1660e01b81526004016114159190614089565b602060405180830381865afa158015611432573d6000803e3d6000fd5b505050506040513d601f19601f820116820180604052508101906114569190614b45565b90506000810361149b576040517f08c379a000000000000000000000000000000000000000000000000000000000815260040161149290614fd0565b60405180910390fd5b6000600190506000600467ffffffffffffffff8111156114be576114bd6144d7565b5b6040519080825280602002602001820160405280156114ec5781602001602082028036833780820191505090505b5090506114f886612212565b6115295760018160008151811061151257611511614e26565b5b602002602001019015159081151581525050600091505b611532866122b7565b6115635760018160018151811061154c5761154b614e26565b5b602002602001019015159081151581525050600091505b61156c8361243a565b61159d5760018160028151811061158657611585614e26565b5b602002602001019015159081151581525050600091505b6115a683612505565b6115d7576001816003815181106115c0576115bf614e26565b5b602002602001019015159081151581525050600091505b8181945094505050505b915091565b7f000000000000000000000000000000000000000000000000000000000000000081565b60008073ffffffffffffffffffffffffffffffffffffffff168273ffffffffffffffffffffffffffffffffffffffff160361167a576040517f08c379a000000000000000000000000000000000000000000000000000000000815260040161167190615062565b60405180910390fd5b606860008373ffffffffffffffffffffffffffffffffffffffff1673ffffffffffffffffffffffffffffffffffffffff168152602001908152602001600020549050919050565b7f000000000000000000000000000000000000000000000000000000000000000081565b6060606680546116f490614898565b80601f016020809104026020016040519081016040528092919081815260200182805461172090614898565b801561176d5780601f106117425761010080835404028352916020019161176d565b820191906000526020600020905b81548152906001019060200180831161175057829003601f168201915b5050505050905090565b60c9805461178490614898565b80601f01602080910402602001604051908101604052809291908181526020018280546117b090614898565b80156117fd5780601f106117d2576101008083540402835291602001916117fd565b820191906000526020600020905b8154815290600101906020018083116117e057829003601f168201915b505050505081565b61180d6120eb565b73ffffffffffffffffffffffffffffffffffffffff163373ffffffffffffffffffffffffffffffffffffffff161461187a576040517f08c379a000000000000000000000000000000000000000000000000000000000815260040161187190614c50565b60405180910390fd5b8060c99080519060200190611890929190613db8565b5050565b8160006daaeb6d7670e522a718067333cd4e73ffffffffffffffffffffffffffffffffffffffff163b111561198f576daaeb6d7670e522a718067333cd4e73ffffffffffffffffffffffffffffffffffffffff1663c617113430836040518363ffffffff1660e01b815260040161190c92919061495b565b602060405180830381865afa158015611929573d6000803e3d6000fd5b505050506040513d601f19601f8201168201806040525081019061194d9190614999565b61198e57806040517fede71dcc0000000000000000000000000000000000000000000000000000000081526004016119859190614089565b60405180910390fd5b5b6119998383612683565b505050565b7f000000000000000000000000000000000000000000000000000000000000000081565b8360006daaeb6d7670e522a718067333cd4e73ffffffffffffffffffffffffffffffffffffffff163b1115611b01573373ffffffffffffffffffffffffffffffffffffffff168173ffffffffffffffffffffffffffffffffffffffff1603611a3557611a3085858585612699565b611b0e565b6daaeb6d7670e522a718067333cd4e73ffffffffffffffffffffffffffffffffffffffff1663c617113430336040518363ffffffff1660e01b8152600401611a7e92919061495b565b602060405180830381865afa158015611a9b573d6000803e3d6000fd5b505050506040513d601f19601f82011682018060405250810190611abf9190614999565b611b0057336040517fede71dcc000000000000000000000000000000000000000000000000000000008152600401611af79190614089565b60405180910390fd5b5b611b0d85858585612699565b5b5050505050565b7f000000000000000000000000000000000000000000000000000000000000000081565b6060611b4482611e2f565b611b83576040517f08c379a0000000000000000000000000000000000000000000000000000000008152600401611b7a906150f4565b60405180910390fd5b6000611b8d6126fb565b905060007f0000000000000000000000000000000000000000000000000000000000000000158015611bde57507f000000000000000000000000000000000000000000000000000000000000000084115b611be85783611c21565b60017f000000000000000000000000000000000000000000000000000000000000000085611c169190615143565b611c209190615174565b5b90506000825111611c415760405180602001604052806000815250611c6c565b81611c4b8261278d565b604051602001611c5c929190615252565b6040516020818303038152906040525b92505050919050565b7f000000000000000000000000000000000000000000000000000000000000000081565b6000606a60008473ffffffffffffffffffffffffffffffffffffffff1673ffffffffffffffffffffffffffffffffffffffff16815260200190815260200160002060008373ffffffffffffffffffffffffffffffffffffffff1673ffffffffffffffffffffffffffffffffffffffff16815260200190815260200160002060009054906101000a900460ff16905092915050565b60cb6020528060005260406000206000915054906101000a900460ff1681565b60007f80ac58cd000000000000000000000000000000000000000000000000000000007bffffffffffffffffffffffffffffffffffffffffffffffffffffffff1916827bffffffffffffffffffffffffffffffffffffffffffffffffffffffff19161480611e1857507f5b5e139f000000000000000000000000000000000000000000000000000000007bffffffffffffffffffffffffffffffffffffffffffffffffffffffff1916827bffffffffffffffffffffffffffffffffffffffffffffffffffffffff1916145b80611e285750611e27826128ed565b5b9050919050565b60008073ffffffffffffffffffffffffffffffffffffffff166067600084815260200190815260200160002060009054906101000a900473ffffffffffffffffffffffffffffffffffffffff1673ffffffffffffffffffffffffffffffffffffffff1614159050919050565b6000611ea682611196565b90508073ffffffffffffffffffffffffffffffffffffffff168373ffffffffffffffffffffffffffffffffffffffff1603611f16576040517f08c379a0000000000000000000000000000000000000000000000000000000008152600401611f0d906152f3565b60405180910390fd5b8073ffffffffffffffffffffffffffffffffffffffff16611f3561200a565b73ffffffffffffffffffffffffffffffffffffffff161480611f645750611f6381611f5e61200a565b611c99565b5b611fa3576040517f08c379a0000000000000000000000000000000000000000000000000000000008152600401611f9a90615385565b60405180910390fd5b611fad8383612957565b505050565b60007f000000000000000000000000000000000000000000000000000000000000000073ffffffffffffffffffffffffffffffffffffffff168273ffffffffffffffffffffffffffffffffffffffff16149050919050565b600061201533611fb2565b1561202957601436033560601c9050612038565b612031612a10565b9050612039565b5b90565b6000612046610bf3565b90507f0000000000000000000000000000000000000000000000000000000000000000156120d1577f000000000000000000000000000000000000000000000000000000000000000081106120d0576040517f08c379a00000000000000000000000000000000000000000000000000000000081526004016120c7906153f1565b60405180910390fd5b5b6120e7826001836120e29190615174565b612a18565b5050565b60007fb53127684a568b3173ae13b9f8a6016e243e63b6e8ee1178d6a717850b5d610354905090565b61212561211f61200a565b82612a36565b612164576040517f08c379a000000000000000000000000000000000000000000000000000000000815260040161215b90615483565b60405180910390fd5b61216f838383612b14565b505050565b600061217f30612d6f565b15905090565b600060019054906101000a900460ff166121d4576040517f08c379a00000000000000000000000000000000000000000000000000000000081526004016121cb90615515565b60405180910390fd5b6121dc612d82565b6121e68282612deb565b6121ee612e58565b5050565b61220d838383604051806020016040528060008152506119c2565b505050565b6000807f000000000000000000000000000000000000000000000000000000000000000073ffffffffffffffffffffffffffffffffffffffff166370a08231846040518263ffffffff1660e01b815260040161226e9190614089565b602060405180830381865afa15801561228b573d6000803e3d6000fd5b505050506040513d601f19601f820116820180604052508101906122af9190614b45565b119050919050565b6000807f000000000000000000000000000000000000000000000000000000000000000073ffffffffffffffffffffffffffffffffffffffff1663a9ec65637f00000000000000000000000000000000000000000000000000000000000000006040518263ffffffff1660e01b81526004016123339190614178565b602060405180830381865afa158015612350573d6000803e3d6000fd5b505050506040513d601f19601f82011682018060405250810190612374919061554a565b9050600073ffffffffffffffffffffffffffffffffffffffff168173ffffffffffffffffffffffffffffffffffffffff16036123b4576000915050612435565b60008173ffffffffffffffffffffffffffffffffffffffff166370a08231856040518263ffffffff1660e01b81526004016123ef9190614089565b602060405180830381865afa15801561240c573d6000803e3d6000fd5b505050506040513d601f19601f820116820180604052508101906124309190614b45565b119150505b919050565b6000807f000000000000000000000000000000000000000000000000000000000000000073ffffffffffffffffffffffffffffffffffffffff16633a15ff07846040518263ffffffff1660e01b81526004016124969190614178565b602060405180830381865afa1580156124b3573d6000803e3d6000fd5b505050506040513d601f19601f820116820180604052508101906124d79190614b45565b90507f0000000000000000000000000000000000000000000000000000000000000000811015915050919050565b6000807f000000000000000000000000000000000000000000000000000000000000000073ffffffffffffffffffffffffffffffffffffffff1663a9ec6563846040518263ffffffff1660e01b81526004016125619190614178565b602060405180830381865afa15801561257e573d6000803e3d6000fd5b505050506040513d601f19601f820116820180604052508101906125a2919061554a565b9050600073ffffffffffffffffffffffffffffffffffffffff168173ffffffffffffffffffffffffffffffffffffffff16036125e257600091505061267e565b60008173ffffffffffffffffffffffffffffffffffffffff166318160ddd6040518163ffffffff1660e01b8152600401602060405180830381865afa15801561262f573d6000803e3d6000fd5b505050506040513d601f19601f820116820180604052508101906126539190614b45565b90507f0000000000000000000000000000000000000000000000000000000000000000811015925050505b919050565b61269561268e61200a565b8383612ec8565b5050565b6126aa6126a461200a565b83612a36565b6126e9576040517f08c379a00000000000000000000000000000000000000000000000000000000081526004016126e090615483565b60405180910390fd5b6126f584848484613034565b50505050565b606060c9805461270a90614898565b80601f016020809104026020016040519081016040528092919081815260200182805461273690614898565b80156127835780601f1061275857610100808354040283529160200191612783565b820191906000526020600020905b81548152906001019060200180831161276657829003601f168201915b5050505050905090565b6060600082036127d4576040518060400160405280600181526020017f300000000000000000000000000000000000000000000000000000000000000081525090506128e8565b600082905060005b600082146128065780806127ef90614f16565b915050600a826127ff9190615577565b91506127dc565b60008167ffffffffffffffff811115612822576128216144d7565b5b6040519080825280601f01601f1916602001820160405280156128545781602001600182028036833780820191505090505b5090505b600085146128e15760018261286d91906155a8565b9150600a8561287c9190615143565b60306128889190615174565b60f81b81838151811061289e5761289d614e26565b5b60200101907effffffffffffffffffffffffffffffffffffffffffffffffffffffffffffff1916908160001a905350600a856128da9190615577565b9450612858565b8093505050505b919050565b60007f01ffc9a7000000000000000000000000000000000000000000000000000000007bffffffffffffffffffffffffffffffffffffffffffffffffffffffff1916827bffffffffffffffffffffffffffffffffffffffffffffffffffffffff1916149050919050565b816069600083815260200190815260200160002060006101000a81548173ffffffffffffffffffffffffffffffffffffffff021916908373ffffffffffffffffffffffffffffffffffffffff160217905550808273ffffffffffffffffffffffffffffffffffffffff166129ca83611196565b73ffffffffffffffffffffffffffffffffffffffff167f8c5be1e5ebec7d5bd14f71427d1e84f3dd0314c0f7b2291e5b200ac8c7c3b92560405160405180910390a45050565b600033905090565b612a32828260405180602001604052806000815250613090565b5050565b6000612a4182611e2f565b612a80576040517f08c379a0000000000000000000000000000000000000000000000000000000008152600401612a779061564e565b60405180910390fd5b6000612a8b83611196565b90508073ffffffffffffffffffffffffffffffffffffffff168473ffffffffffffffffffffffffffffffffffffffff161480612afa57508373ffffffffffffffffffffffffffffffffffffffff16612ae284610750565b73ffffffffffffffffffffffffffffffffffffffff16145b80612b0b5750612b0a8185611c99565b5b91505092915050565b8273ffffffffffffffffffffffffffffffffffffffff16612b3482611196565b73ffffffffffffffffffffffffffffffffffffffff1614612b8a576040517f08c379a0000000000000000000000000000000000000000000000000000000008152600401612b81906156e0565b60405180910390fd5b600073ffffffffffffffffffffffffffffffffffffffff168273ffffffffffffffffffffffffffffffffffffffff1603612bf9576040517f08c379a0000000000000000000000000000000000000000000000000000000008152600401612bf090615772565b60405180910390fd5b612c048383836130eb565b612c0f600082612957565b6001606860008573ffffffffffffffffffffffffffffffffffffffff1673ffffffffffffffffffffffffffffffffffffffff1681526020019081526020016000206000828254612c5f91906155a8565b925050819055506001606860008473ffffffffffffffffffffffffffffffffffffffff1673ffffffffffffffffffffffffffffffffffffffff1681526020019081526020016000206000828254612cb69190615174565b92505081905550816067600083815260200190815260200160002060006101000a81548173ffffffffffffffffffffffffffffffffffffffff021916908373ffffffffffffffffffffffffffffffffffffffff160217905550808273ffffffffffffffffffffffffffffffffffffffff168473ffffffffffffffffffffffffffffffffffffffff167fddf252ad1be2c89b69c2b068fc378daa952ba7f163c4a11628f55a4df523b3ef60405160405180910390a4505050565b600080823b905060008111915050919050565b600060019054906101000a900460ff16612dd1576040517f08c379a0000000000000000000000000000000000000000000000000000000008152600401612dc890615515565b60405180910390fd5b612dd9613139565b612de161318a565b612de96131db565b565b600060019054906101000a900460ff16612e3a576040517f08c379a0000000000000000000000000000000000000000000000000000000008152600401612e3190615515565b60405180910390fd5b612e42613139565b612e4a61318a565b612e54828261322c565b5050565b600060019054906101000a900460ff16612ea7576040517f08c379a0000000000000000000000000000000000000000000000000000000008152600401612e9e90615515565b60405180910390fd5b612ec6733cc6cdda760b79bafa08df41ecfa224f810dceb660016132ad565b565b8173ffffffffffffffffffffffffffffffffffffffff168373ffffffffffffffffffffffffffffffffffffffff1603612f36576040517f08c379a0000000000000000000000000000000000000000000000000000000008152600401612f2d906157de565b60405180910390fd5b80606a60008573ffffffffffffffffffffffffffffffffffffffff1673ffffffffffffffffffffffffffffffffffffffff16815260200190815260200160002060008473ffffffffffffffffffffffffffffffffffffffff1673ffffffffffffffffffffffffffffffffffffffff16815260200190815260200160002060006101000a81548160ff0219169083151502179055508173ffffffffffffffffffffffffffffffffffffffff168373ffffffffffffffffffffffffffffffffffffffff167f17307eab39ab6107e8899845ad3d59bd9653f200f220920489ca2b5937696c31836040516130279190613f0f565b60405180910390a3505050565b61303f848484612b14565b61304b84848484613573565b61308a576040517f08c379a000000000000000000000000000000000000000000000000000000000815260040161308190615870565b60405180910390fd5b50505050565b61309a83836136fa565b6130a76000848484613573565b6130e6576040517f08c379a00000000000000000000000000000000000000000000000000000000081526004016130dd90615870565b60405180910390fd5b505050565b600073ffffffffffffffffffffffffffffffffffffffff168273ffffffffffffffffffffffffffffffffffffffff161461312957613128826138c7565b5b613134838383613915565b505050565b600060019054906101000a900460ff16613188576040517f08c379a000000000000000000000000000000000000000000000000000000000815260040161317f90615515565b60405180910390fd5b565b600060019054906101000a900460ff166131d9576040517f08c379a00000000000000000000000000000000000000000000000000000000081526004016131d090615515565b60405180910390fd5b565b600060019054906101000a900460ff1661322a576040517f08c379a000000000000000000000000000000000000000000000000000000000815260040161322190615515565b60405180910390fd5b565b600060019054906101000a900460ff1661327b576040517f08c379a000000000000000000000000000000000000000000000000000000000815260040161327290615515565b60405180910390fd5b8160659080519060200190613291929190613db8565b5080606690805190602001906132a8929190613db8565b505050565b600060019054906101000a900460ff166132fc576040517f08c379a00000000000000000000000000000000000000000000000000000000081526004016132f390615515565b60405180910390fd5b60006daaeb6d7670e522a718067333cd4e73ffffffffffffffffffffffffffffffffffffffff163b111561356f576daaeb6d7670e522a718067333cd4e73ffffffffffffffffffffffffffffffffffffffff1663c3c5a547306040518263ffffffff1660e01b81526004016133719190614089565b6020604051808303816000875af1158015613390573d6000803e3d6000fd5b505050506040513d601f19601f820116820180604052508101906133b49190614999565b61356e57801561343e576daaeb6d7670e522a718067333cd4e73ffffffffffffffffffffffffffffffffffffffff16637d3e3dbe30846040518363ffffffff1660e01b815260040161340792919061495b565b600060405180830381600087803b15801561342157600080fd5b505af1158015613435573d6000803e3d6000fd5b5050505061356d565b600073ffffffffffffffffffffffffffffffffffffffff168273ffffffffffffffffffffffffffffffffffffffff16146134f2576daaeb6d7670e522a718067333cd4e73ffffffffffffffffffffffffffffffffffffffff1663a0af290330846040518363ffffffff1660e01b81526004016134bb92919061495b565b600060405180830381600087803b1580156134d557600080fd5b505af11580156134e9573d6000803e3d6000fd5b5050505061356c565b6daaeb6d7670e522a718067333cd4e73ffffffffffffffffffffffffffffffffffffffff16634420e486306040518263ffffffff1660e01b81526004016135399190614089565b600060405180830381600087803b15801561355357600080fd5b505af1158015613567573d6000803e3d6000fd5b505050505b5b5b5b5050565b60006135948473ffffffffffffffffffffffffffffffffffffffff16612d6f565b156136ed578373ffffffffffffffffffffffffffffffffffffffff1663150b7a026135bd61200a565b8786866040518563ffffffff1660e01b81526004016135df94939291906158e5565b6020604051808303816000875af192505050801561361b57506040513d601f19601f820116820180604052508101906136189190615946565b60015b61369d573d806000811461364b576040519150601f19603f3d011682016040523d82523d6000602084013e613650565b606091505b506000815103613695576040517f08c379a000000000000000000000000000000000000000000000000000000000815260040161368c90615870565b60405180910390fd5b805181602001fd5b63150b7a0260e01b7bffffffffffffffffffffffffffffffffffffffffffffffffffffffff1916817bffffffffffffffffffffffffffffffffffffffffffffffffffffffff1916149150506136f2565b600190505b949350505050565b600073ffffffffffffffffffffffffffffffffffffffff168273ffffffffffffffffffffffffffffffffffffffff1603613769576040517f08c379a0000000000000000000000000000000000000000000000000000000008152600401613760906159bf565b60405180910390fd5b61377281611e2f565b156137b2576040517f08c379a00000000000000000000000000000000000000000000000000000000081526004016137a990615a2b565b60405180910390fd5b6137be600083836130eb565b6001606860008473ffffffffffffffffffffffffffffffffffffffff1673ffffffffffffffffffffffffffffffffffffffff168152602001908152602001600020600082825461380e9190615174565b92505081905550816067600083815260200190815260200160002060006101000a81548173ffffffffffffffffffffffffffffffffffffffff021916908373ffffffffffffffffffffffffffffffffffffffff160217905550808273ffffffffffffffffffffffffffffffffffffffff16600073ffffffffffffffffffffffffffffffffffffffff167fddf252ad1be2c89b69c2b068fc378daa952ba7f163c4a11628f55a4df523b3ef60405160405180910390a45050565b60006138d28261160a565b14613912576040517f08c379a000000000000000000000000000000000000000000000000000000000815260040161390990615a97565b60405180910390fd5b50565b613920838383613a27565b600073ffffffffffffffffffffffffffffffffffffffff168373ffffffffffffffffffffffffffffffffffffffff16036139625761395d81613a2c565b6139a1565b8173ffffffffffffffffffffffffffffffffffffffff168373ffffffffffffffffffffffffffffffffffffffff16146139a05761399f8382613a75565b5b5b600073ffffffffffffffffffffffffffffffffffffffff168273ffffffffffffffffffffffffffffffffffffffff16036139e3576139de81613be2565b613a22565b8273ffffffffffffffffffffffffffffffffffffffff168273ffffffffffffffffffffffffffffffffffffffff1614613a2157613a208282613cb3565b5b5b505050565b505050565b609980549050609a600083815260200190815260200160002081905550609981908060018154018082558091505060019003906000526020600020016000909190919091505550565b60006001613a828461160a565b613a8c91906155a8565b9050600060986000848152602001908152602001600020549050818114613b71576000609760008673ffffffffffffffffffffffffffffffffffffffff1673ffffffffffffffffffffffffffffffffffffffff168152602001908152602001600020600084815260200190815260200160002054905080609760008773ffffffffffffffffffffffffffffffffffffffff1673ffffffffffffffffffffffffffffffffffffffff168152602001908152602001600020600084815260200190815260200160002081905550816098600083815260200190815260200160002081905550505b6098600084815260200190815260200160002060009055609760008573ffffffffffffffffffffffffffffffffffffffff1673ffffffffffffffffffffffffffffffffffffffff16815260200190815260200160002060008381526020019081526020016000206000905550505050565b60006001609980549050613bf691906155a8565b90506000609a6000848152602001908152602001600020549050600060998381548110613c2657613c25614e26565b5b906000526020600020015490508060998381548110613c4857613c47614e26565b5b906000526020600020018190555081609a600083815260200190815260200160002081905550609a6000858152602001908152602001600020600090556099805480613c9757613c96615ab7565b5b6001900381819060005260206000200160009055905550505050565b6000613cbe8361160a565b905081609760008573ffffffffffffffffffffffffffffffffffffffff1673ffffffffffffffffffffffffffffffffffffffff168152602001908152602001600020600083815260200190815260200160002081905550806098600084815260200190815260200160002081905550505050565b828054613d3e90614898565b90600052602060002090601f016020900481019282613d605760008555613da7565b82601f10613d7957803560ff1916838001178555613da7565b82800160010185558215613da7579182015b82811115613da6578235825591602001919060010190613d8b565b5b509050613db49190613e3e565b5090565b828054613dc490614898565b90600052602060002090601f016020900481019282613de65760008555613e2d565b82601f10613dff57805160ff1916838001178555613e2d565b82800160010185558215613e2d579182015b82811115613e2c578251825591602001919060010190613e11565b5b509050613e3a9190613e3e565b5090565b5b80821115613e57576000816000905550600101613e3f565b5090565b6000604051905090565b600080fd5b600080fd5b60007fffffffff0000000000000000000000000000000000000000000000000000000082169050919050565b613ea481613e6f565b8114613eaf57600080fd5b50565b600081359050613ec181613e9b565b92915050565b600060208284031215613edd57613edc613e65565b5b6000613eeb84828501613eb2565b91505092915050565b60008115159050919050565b613f0981613ef4565b82525050565b6000602082019050613f246000830184613f00565b92915050565b600081519050919050565b600082825260208201905092915050565b60005b83811015613f64578082015181840152602081019050613f49565b83811115613f73576000848401525b50505050565b6000601f19601f8301169050919050565b6000613f9582613f2a565b613f9f8185613f35565b9350613faf818560208601613f46565b613fb881613f79565b840191505092915050565b60006020820190508181036000830152613fdd8184613f8a565b905092915050565b6000819050919050565b613ff881613fe5565b811461400357600080fd5b50565b60008135905061401581613fef565b92915050565b60006020828403121561403157614030613e65565b5b600061403f84828501614006565b91505092915050565b600073ffffffffffffffffffffffffffffffffffffffff82169050919050565b600061407382614048565b9050919050565b61408381614068565b82525050565b600060208201905061409e600083018461407a565b92915050565b6140ad81614068565b81146140b857600080fd5b50565b6000813590506140ca816140a4565b92915050565b600080604083850312156140e7576140e6613e65565b5b60006140f5858286016140bb565b925050602061410685828601614006565b9150509250929050565b61411981613ef4565b811461412457600080fd5b50565b60008135905061413681614110565b92915050565b60006020828403121561415257614151613e65565b5b600061416084828501614127565b91505092915050565b61417281613fe5565b82525050565b600060208201905061418d6000830184614169565b92915050565b6000806000606084860312156141ac576141ab613e65565b5b60006141ba868287016140bb565b93505060206141cb868287016140bb565b92505060406141dc86828701614006565b9150509250925092565b600080fd5b600080fd5b600080fd5b60008083601f84011261420b5761420a6141e6565b5b8235905067ffffffffffffffff811115614228576142276141eb565b5b602083019150836001820283011115614244576142436141f0565b5b9250929050565b60008060008060008060006080888a03121561426a57614269613e65565b5b600088013567ffffffffffffffff81111561428857614287613e6a565b5b6142948a828b016141f5565b9750975050602088013567ffffffffffffffff8111156142b7576142b6613e6a565b5b6142c38a828b016141f5565b9550955050604088013567ffffffffffffffff8111156142e6576142e5613e6a565b5b6142f28a828b016141f5565b935093505060606143058a828b01614127565b91505092959891949750929550565b60008083601f84011261432a576143296141e6565b5b8235905067ffffffffffffffff811115614347576143466141eb565b5b602083019150836020820283011115614363576143626141f0565b5b9250929050565b6000806020838503121561438157614380613e65565b5b600083013567ffffffffffffffff81111561439f5761439e613e6a565b5b6143ab85828601614314565b92509250509250929050565b6000602082840312156143cd576143cc613e65565b5b60006143db848285016140bb565b91505092915050565b600081519050919050565b600082825260208201905092915050565b6000819050602082019050919050565b61441981613ef4565b82525050565b600061442b8383614410565b60208301905092915050565b6000602082019050919050565b600061444f826143e4565b61445981856143ef565b935061446483614400565b8060005b8381101561449557815161447c888261441f565b975061448783614437565b925050600181019050614468565b5085935050505092915050565b60006040820190506144b76000830185613f00565b81810360208301526144c98184614444565b90509392505050565b600080fd5b7f4e487b7100000000000000000000000000000000000000000000000000000000600052604160045260246000fd5b61450f82613f79565b810181811067ffffffffffffffff8211171561452e5761452d6144d7565b5b80604052505050565b6000614541613e5b565b905061454d8282614506565b919050565b600067ffffffffffffffff82111561456d5761456c6144d7565b5b61457682613f79565b9050602081019050919050565b82818337600083830152505050565b60006145a56145a084614552565b614537565b9050828152602081018484840111156145c1576145c06144d2565b5b6145cc848285614583565b509392505050565b600082601f8301126145e9576145e86141e6565b5b81356145f9848260208601614592565b91505092915050565b60006020828403121561461857614617613e65565b5b600082013567ffffffffffffffff81111561463657614635613e6a565b5b614642848285016145d4565b91505092915050565b6000806040838503121561466257614661613e65565b5b6000614670858286016140bb565b925050602061468185828601614127565b9150509250929050565b6000819050919050565b60006146b06146ab6146a684614048565b61468b565b614048565b9050919050565b60006146c282614695565b9050919050565b60006146d4826146b7565b9050919050565b6146e4816146c9565b82525050565b60006020820190506146ff60008301846146db565b92915050565b600067ffffffffffffffff8211156147205761471f6144d7565b5b61472982613f79565b9050602081019050919050565b600061474961474484614705565b614537565b905082815260208101848484011115614765576147646144d2565b5b614770848285614583565b509392505050565b600082601f83011261478d5761478c6141e6565b5b813561479d848260208601614736565b91505092915050565b600080600080608085870312156147c0576147bf613e65565b5b60006147ce878288016140bb565b94505060206147df878288016140bb565b93505060406147f087828801614006565b925050606085013567ffffffffffffffff81111561481157614810613e6a565b5b61481d87828801614778565b91505092959194509250565b600080604083850312156148405761483f613e65565b5b600061484e858286016140bb565b925050602061485f858286016140bb565b9150509250929050565b7f4e487b7100000000000000000000000000000000000000000000000000000000600052602260045260246000fd5b600060028204905060018216806148b057607f821691505b6020821081036148c3576148c2614869565b5b50919050565b7f4552433732313a20617070726f76656420717565727920666f72206e6f6e657860008201527f697374656e7420746f6b656e0000000000000000000000000000000000000000602082015250565b6000614925602c83613f35565b9150614930826148c9565b604082019050919050565b6000602082019050818103600083015261495481614918565b9050919050565b6000604082019050614970600083018561407a565b61497d602083018461407a565b9392505050565b60008151905061499381614110565b92915050565b6000602082840312156149af576149ae613e65565b5b60006149bd84828501614984565b91505092915050565b7f4b6f727544616f4e46543a205061757365640000000000000000000000000000600082015250565b60006149fc601283613f35565b9150614a07826149c6565b602082019050919050565b60006020820190508181036000830152614a2b816149ef565b9050919050565b7f4f6e6c792047656c61746f52656c617900000000000000000000000000000000600082015250565b6000614a68601083613f35565b9150614a7382614a32565b602082019050919050565b60006020820190508181036000830152614a9781614a5b565b9050919050565b7f4d696e745265737472696374696f6e733a2057616c6c657420646f6573206e6f60008201527f74206d6565742063726974657269610000000000000000000000000000000000602082015250565b6000614afa602f83613f35565b9150614b0582614a9e565b604082019050919050565b60006020820190508181036000830152614b2981614aed565b9050919050565b600081519050614b3f81613fef565b92915050565b600060208284031215614b5b57614b5a613e65565b5b6000614b6984828501614b30565b91505092915050565b7f4d696e745265737472696374696f6e733a20416c7265616479206d696e74656460008201527f2077697468206c656e732070726f66696c650000000000000000000000000000602082015250565b6000614bce603283613f35565b9150614bd982614b72565b604082019050919050565b60006020820190508181036000830152614bfd81614bc1565b9050919050565b7f4e4f545f415554484f52495a4544000000000000000000000000000000000000600082015250565b6000614c3a600e83613f35565b9150614c4582614c04565b602082019050919050565b60006020820190508181036000830152614c6981614c2d565b9050919050565b7f496e697469616c697a61626c653a20636f6e747261637420697320616c72656160008201527f647920696e697469616c697a6564000000000000000000000000000000000000602082015250565b6000614ccc602e83613f35565b9150614cd782614c70565b604082019050919050565b60006020820190508181036000830152614cfb81614cbf565b9050919050565b7f455243373231456e756d657261626c653a206f776e657220696e646578206f7560008201527f74206f6620626f756e6473000000000000000000000000000000000000000000602082015250565b6000614d5e602b83613f35565b9150614d6982614d02565b604082019050919050565b60006020820190508181036000830152614d8d81614d51565b9050919050565b7f455243373231456e756d657261626c653a20676c6f62616c20696e646578206f60008201527f7574206f6620626f756e64730000000000000000000000000000000000000000602082015250565b6000614df0602c83613f35565b9150614dfb82614d94565b604082019050919050565b60006020820190508181036000830152614e1f81614de3565b9050919050565b7f4e487b7100000000000000000000000000000000000000000000000000000000600052603260045260246000fd5b7f4552433732313a206f776e657220717565727920666f72206e6f6e657869737460008201527f656e7420746f6b656e0000000000000000000000000000000000000000000000602082015250565b6000614eb1602983613f35565b9150614ebc82614e55565b604082019050919050565b60006020820190508181036000830152614ee081614ea4565b9050919050565b7f4e487b7100000000000000000000000000000000000000000000000000000000600052601160045260246000fd5b6000614f2182613fe5565b91507fffffffffffffffffffffffffffffffffffffffffffffffffffffffffffffffff8203614f5357614f52614ee7565b5b600182019050919050565b7f4d696e745265737472696374696f6e733a2057616c6c657420646f6573206e6f60008201527f7420686176652064656661756c742070726f66696c6500000000000000000000602082015250565b6000614fba603683613f35565b9150614fc582614f5e565b604082019050919050565b60006020820190508181036000830152614fe981614fad565b9050919050565b7f4552433732313a2062616c616e636520717565727920666f7220746865207a6560008201527f726f206164647265737300000000000000000000000000000000000000000000602082015250565b600061504c602a83613f35565b915061505782614ff0565b604082019050919050565b6000602082019050818103600083015261507b8161503f565b9050919050565b7f4552433732314d657461646174613a2055524920717565727920666f72206e6f60008201527f6e6578697374656e7420746f6b656e0000000000000000000000000000000000602082015250565b60006150de602f83613f35565b91506150e982615082565b604082019050919050565b6000602082019050818103600083015261510d816150d1565b9050919050565b7f4e487b7100000000000000000000000000000000000000000000000000000000600052601260045260246000fd5b600061514e82613fe5565b915061515983613fe5565b92508261516957615168615114565b5b828206905092915050565b600061517f82613fe5565b915061518a83613fe5565b9250827fffffffffffffffffffffffffffffffffffffffffffffffffffffffffffffffff038211156151bf576151be614ee7565b5b828201905092915050565b600081905092915050565b60006151e082613f2a565b6151ea81856151ca565b93506151fa818560208601613f46565b80840191505092915050565b7f2e6a736f6e000000000000000000000000000000000000000000000000000000600082015250565b600061523c6005836151ca565b915061524782615206565b600582019050919050565b600061525e82856151d5565b915061526a82846151d5565b91506152758261522f565b91508190509392505050565b7f4552433732313a20617070726f76616c20746f2063757272656e74206f776e6560008201527f7200000000000000000000000000000000000000000000000000000000000000602082015250565b60006152dd602183613f35565b91506152e882615281565b604082019050919050565b6000602082019050818103600083015261530c816152d0565b9050919050565b7f4552433732313a20617070726f76652063616c6c6572206973206e6f74206f7760008201527f6e6572206e6f7220617070726f76656420666f7220616c6c0000000000000000602082015250565b600061536f603883613f35565b915061537a82615313565b604082019050919050565b6000602082019050818103600083015261539e81615362565b9050919050565b7f4b6f727544616f4e46543a204d617820537570706c7900000000000000000000600082015250565b60006153db601683613f35565b91506153e6826153a5565b602082019050919050565b6000602082019050818103600083015261540a816153ce565b9050919050565b7f4552433732313a207472616e736665722063616c6c6572206973206e6f74206f60008201527f776e6572206e6f7220617070726f766564000000000000000000000000000000602082015250565b600061546d603183613f35565b915061547882615411565b604082019050919050565b6000602082019050818103600083015261549c81615460565b9050919050565b7f496e697469616c697a61626c653a20636f6e7472616374206973206e6f74206960008201527f6e697469616c697a696e67000000000000000000000000000000000000000000602082015250565b60006154ff602b83613f35565b915061550a826154a3565b604082019050919050565b6000602082019050818103600083015261552e816154f2565b9050919050565b600081519050615544816140a4565b92915050565b6000602082840312156155605761555f613e65565b5b600061556e84828501615535565b91505092915050565b600061558282613fe5565b915061558d83613fe5565b92508261559d5761559c615114565b5b828204905092915050565b60006155b382613fe5565b91506155be83613fe5565b9250828210156155d1576155d0614ee7565b5b828203905092915050565b7f4552433732313a206f70657261746f7220717565727920666f72206e6f6e657860008201527f697374656e7420746f6b656e0000000000000000000000000000000000000000602082015250565b6000615638602c83613f35565b9150615643826155dc565b604082019050919050565b600060208201905081810360008301526156678161562b565b9050919050565b7f4552433732313a207472616e73666572206f6620746f6b656e2074686174206960008201527f73206e6f74206f776e0000000000000000000000000000000000000000000000602082015250565b60006156ca602983613f35565b91506156d58261566e565b604082019050919050565b600060208201905081810360008301526156f9816156bd565b9050919050565b7f4552433732313a207472616e7366657220746f20746865207a65726f2061646460008201527f7265737300000000000000000000000000000000000000000000000000000000602082015250565b600061575c602483613f35565b915061576782615700565b604082019050919050565b6000602082019050818103600083015261578b8161574f565b9050919050565b7f4552433732313a20617070726f766520746f2063616c6c657200000000000000600082015250565b60006157c8601983613f35565b91506157d382615792565b602082019050919050565b600060208201905081810360008301526157f7816157bb565b9050919050565b7f4552433732313a207472616e7366657220746f206e6f6e20455243373231526560008201527f63656976657220696d706c656d656e7465720000000000000000000000000000602082015250565b600061585a603283613f35565b9150615865826157fe565b604082019050919050565b600060208201905081810360008301526158898161584d565b9050919050565b600081519050919050565b600082825260208201905092915050565b60006158b782615890565b6158c1818561589b565b93506158d1818560208601613f46565b6158da81613f79565b840191505092915050565b60006080820190506158fa600083018761407a565b615907602083018661407a565b6159146040830185614169565b818103606083015261592681846158ac565b905095945050505050565b60008151905061594081613e9b565b92915050565b60006020828403121561595c5761595b613e65565b5b600061596a84828501615931565b91505092915050565b7f4552433732313a206d696e7420746f20746865207a65726f2061646472657373600082015250565b60006159a9602083613f35565b91506159b482615973565b602082019050919050565b600060208201905081810360008301526159d88161599c565b9050919050565b7f4552433732313a20746f6b656e20616c7265616479206d696e74656400000000600082015250565b6000615a15601c83613f35565b9150615a20826159df565b602082019050919050565b60006020820190508181036000830152615a4481615a08565b9050919050565b7f4b6f727544616f4e46543a204f6e6520706572206163636f756e740000000000600082015250565b6000615a81601b83613f35565b9150615a8c82615a4b565b602082019050919050565b60006020820190508181036000830152615ab081615a74565b9050919050565b7f4e487b7100000000000000000000000000000000000000000000000000000000600052603160045260246000fdfea2646970667358221220ea659e2b13a2bcf54d9d1c3ef50585f6ba7e9024cf647665882b04221973542b64736f6c634300080e0033",
  "devdoc": {
    "kind": "dev",
    "methods": {
      "balanceOf(address)": {
        "details": "See {IERC721-balanceOf}."
      },
      "getApproved(uint256)": {
        "details": "See {IERC721-getApproved}."
      },
      "isApprovedForAll(address,address)": {
        "details": "See {IERC721-isApprovedForAll}."
      },
      "name()": {
        "details": "See {IERC721Metadata-name}."
      },
      "ownerOf(uint256)": {
        "details": "See {IERC721-ownerOf}."
      },
      "supportsInterface(bytes4)": {
        "details": "See {IERC165-supportsInterface}."
      },
      "symbol()": {
        "details": "See {IERC721Metadata-symbol}."
      },
      "tokenByIndex(uint256)": {
        "details": "See {IERC721Enumerable-tokenByIndex}."
      },
      "tokenOfOwnerByIndex(address,uint256)": {
        "details": "See {IERC721Enumerable-tokenOfOwnerByIndex}."
      },
      "tokenURI(uint256)": {
        "details": "See {IERC721Metadata-tokenURI}."
      },
      "totalSupply()": {
        "details": "See {IERC721Enumerable-totalSupply}."
      }
    },
    "version": 1
  },
  "userdoc": {
    "kind": "user",
    "methods": {},
    "version": 1
  },
  "storageLayout": {
    "storage": [
      {
        "astId": 6,
        "contract": "contracts/KoruDaoNFT.sol:KoruDaoNFT",
        "label": "_initialized",
        "offset": 0,
        "slot": "0",
        "type": "t_bool"
      },
      {
        "astId": 9,
        "contract": "contracts/KoruDaoNFT.sol:KoruDaoNFT",
        "label": "_initializing",
        "offset": 1,
        "slot": "0",
        "type": "t_bool"
      },
      {
        "astId": 1780,
        "contract": "contracts/KoruDaoNFT.sol:KoruDaoNFT",
        "label": "__gap",
        "offset": 0,
        "slot": "1",
        "type": "t_array(t_uint256)50_storage"
      },
      {
        "astId": 2029,
        "contract": "contracts/KoruDaoNFT.sol:KoruDaoNFT",
        "label": "__gap",
        "offset": 0,
        "slot": "51",
        "type": "t_array(t_uint256)50_storage"
      },
      {
        "astId": 102,
        "contract": "contracts/KoruDaoNFT.sol:KoruDaoNFT",
        "label": "_name",
        "offset": 0,
        "slot": "101",
        "type": "t_string_storage"
      },
      {
        "astId": 104,
        "contract": "contracts/KoruDaoNFT.sol:KoruDaoNFT",
        "label": "_symbol",
        "offset": 0,
        "slot": "102",
        "type": "t_string_storage"
      },
      {
        "astId": 108,
        "contract": "contracts/KoruDaoNFT.sol:KoruDaoNFT",
        "label": "_owners",
        "offset": 0,
        "slot": "103",
        "type": "t_mapping(t_uint256,t_address)"
      },
      {
        "astId": 112,
        "contract": "contracts/KoruDaoNFT.sol:KoruDaoNFT",
        "label": "_balances",
        "offset": 0,
        "slot": "104",
        "type": "t_mapping(t_address,t_uint256)"
      },
      {
        "astId": 116,
        "contract": "contracts/KoruDaoNFT.sol:KoruDaoNFT",
        "label": "_tokenApprovals",
        "offset": 0,
        "slot": "105",
        "type": "t_mapping(t_uint256,t_address)"
      },
      {
        "astId": 122,
        "contract": "contracts/KoruDaoNFT.sol:KoruDaoNFT",
        "label": "_operatorApprovals",
        "offset": 0,
        "slot": "106",
        "type": "t_mapping(t_address,t_mapping(t_address,t_bool))"
      },
      {
        "astId": 933,
        "contract": "contracts/KoruDaoNFT.sol:KoruDaoNFT",
        "label": "__gap",
        "offset": 0,
        "slot": "107",
        "type": "t_array(t_uint256)44_storage"
      },
      {
        "astId": 1107,
        "contract": "contracts/KoruDaoNFT.sol:KoruDaoNFT",
        "label": "_ownedTokens",
        "offset": 0,
        "slot": "151",
        "type": "t_mapping(t_address,t_mapping(t_uint256,t_uint256))"
      },
      {
        "astId": 1111,
        "contract": "contracts/KoruDaoNFT.sol:KoruDaoNFT",
        "label": "_ownedTokensIndex",
        "offset": 0,
        "slot": "152",
        "type": "t_mapping(t_uint256,t_uint256)"
      },
      {
        "astId": 1114,
        "contract": "contracts/KoruDaoNFT.sol:KoruDaoNFT",
        "label": "_allTokens",
        "offset": 0,
        "slot": "153",
        "type": "t_array(t_uint256)dyn_storage"
      },
      {
        "astId": 1118,
        "contract": "contracts/KoruDaoNFT.sol:KoruDaoNFT",
        "label": "_allTokensIndex",
        "offset": 0,
        "slot": "154",
        "type": "t_mapping(t_uint256,t_uint256)"
      },
      {
        "astId": 1433,
        "contract": "contracts/KoruDaoNFT.sol:KoruDaoNFT",
        "label": "__gap",
        "offset": 0,
        "slot": "155",
        "type": "t_array(t_uint256)46_storage"
      },
      {
        "astId": 3714,
        "contract": "contracts/KoruDaoNFT.sol:KoruDaoNFT",
        "label": "baseUri",
        "offset": 0,
        "slot": "201",
        "type": "t_string_storage"
      },
      {
        "astId": 3716,
        "contract": "contracts/KoruDaoNFT.sol:KoruDaoNFT",
        "label": "paused",
        "offset": 0,
        "slot": "202",
        "type": "t_bool"
      },
      {
        "astId": 3720,
        "contract": "contracts/KoruDaoNFT.sol:KoruDaoNFT",
        "label": "lensProfileMinted",
        "offset": 0,
        "slot": "203",
        "type": "t_mapping(t_uint256,t_bool)"
      }
    ],
    "types": {
      "t_address": {
        "encoding": "inplace",
        "label": "address",
        "numberOfBytes": "20"
      },
      "t_array(t_uint256)44_storage": {
        "base": "t_uint256",
        "encoding": "inplace",
        "label": "uint256[44]",
        "numberOfBytes": "1408"
      },
      "t_array(t_uint256)46_storage": {
        "base": "t_uint256",
        "encoding": "inplace",
        "label": "uint256[46]",
        "numberOfBytes": "1472"
      },
      "t_array(t_uint256)50_storage": {
        "base": "t_uint256",
        "encoding": "inplace",
        "label": "uint256[50]",
        "numberOfBytes": "1600"
      },
      "t_array(t_uint256)dyn_storage": {
        "base": "t_uint256",
        "encoding": "dynamic_array",
        "label": "uint256[]",
        "numberOfBytes": "32"
      },
      "t_bool": {
        "encoding": "inplace",
        "label": "bool",
        "numberOfBytes": "1"
      },
      "t_mapping(t_address,t_bool)": {
        "encoding": "mapping",
        "key": "t_address",
        "label": "mapping(address => bool)",
        "numberOfBytes": "32",
        "value": "t_bool"
      },
      "t_mapping(t_address,t_mapping(t_address,t_bool))": {
        "encoding": "mapping",
        "key": "t_address",
        "label": "mapping(address => mapping(address => bool))",
        "numberOfBytes": "32",
        "value": "t_mapping(t_address,t_bool)"
      },
      "t_mapping(t_address,t_mapping(t_uint256,t_uint256))": {
        "encoding": "mapping",
        "key": "t_address",
        "label": "mapping(address => mapping(uint256 => uint256))",
        "numberOfBytes": "32",
        "value": "t_mapping(t_uint256,t_uint256)"
      },
      "t_mapping(t_address,t_uint256)": {
        "encoding": "mapping",
        "key": "t_address",
        "label": "mapping(address => uint256)",
        "numberOfBytes": "32",
        "value": "t_uint256"
      },
      "t_mapping(t_uint256,t_address)": {
        "encoding": "mapping",
        "key": "t_uint256",
        "label": "mapping(uint256 => address)",
        "numberOfBytes": "32",
        "value": "t_address"
      },
      "t_mapping(t_uint256,t_bool)": {
        "encoding": "mapping",
        "key": "t_uint256",
        "label": "mapping(uint256 => bool)",
        "numberOfBytes": "32",
        "value": "t_bool"
      },
      "t_mapping(t_uint256,t_uint256)": {
        "encoding": "mapping",
        "key": "t_uint256",
        "label": "mapping(uint256 => uint256)",
        "numberOfBytes": "32",
        "value": "t_uint256"
      },
      "t_string_storage": {
        "encoding": "bytes",
        "label": "string",
        "numberOfBytes": "32"
      },
      "t_uint256": {
        "encoding": "inplace",
        "label": "uint256",
        "numberOfBytes": "32"
      }
    }
  }
}