{
  "address": "0xF4A70dB8B76B9c8980B470BCDb48241fa4f70f1E",
  "abi": [
    {
      "inputs": [
        {
          "internalType": "bool",
          "name": "_restricted",
          "type": "bool"
        },
        {
          "internalType": "uint256",
          "name": "_maxSupply",
          "type": "uint256"
        },
        {
          "internalType": "contract ILensHub",
          "name": "_lensHub",
          "type": "address"
        },
        {
          "internalType": "address",
          "name": "_gelatoRelay",
          "type": "address"
        }
      ],
      "stateMutability": "nonpayable",
      "type": "constructor"
    },
    {
      "anonymous": false,
      "inputs": [
        {
          "indexed": true,
          "internalType": "address",
          "name": "owner",
          "type": "address"
        },
        {
          "indexed": true,
          "internalType": "address",
          "name": "approved",
          "type": "address"
        },
        {
          "indexed": true,
          "internalType": "uint256",
          "name": "tokenId",
          "type": "uint256"
        }
      ],
      "name": "Approval",
      "type": "event"
    },
    {
      "anonymous": false,
      "inputs": [
        {
          "indexed": true,
          "internalType": "address",
          "name": "owner",
          "type": "address"
        },
        {
          "indexed": true,
          "internalType": "address",
          "name": "operator",
          "type": "address"
        },
        {
          "indexed": false,
          "internalType": "bool",
          "name": "approved",
          "type": "bool"
        }
      ],
      "name": "ApprovalForAll",
      "type": "event"
    },
    {
      "anonymous": false,
      "inputs": [
        {
          "indexed": true,
          "internalType": "address",
          "name": "from",
          "type": "address"
        },
        {
          "indexed": true,
          "internalType": "address",
          "name": "to",
          "type": "address"
        },
        {
          "indexed": true,
          "internalType": "uint256",
          "name": "tokenId",
          "type": "uint256"
        }
      ],
      "name": "Transfer",
      "type": "event"
    },
    {
      "inputs": [
        {
          "internalType": "address",
          "name": "to",
          "type": "address"
        },
        {
          "internalType": "uint256",
          "name": "tokenId",
          "type": "uint256"
        }
      ],
      "name": "approve",
      "outputs": [],
      "stateMutability": "nonpayable",
      "type": "function"
    },
    {
      "inputs": [
        {
          "internalType": "address",
          "name": "owner",
          "type": "address"
        }
      ],
      "name": "balanceOf",
      "outputs": [
        {
          "internalType": "uint256",
          "name": "",
          "type": "uint256"
        }
      ],
      "stateMutability": "view",
      "type": "function"
    },
    {
      "inputs": [],
      "name": "baseUri",
      "outputs": [
        {
          "internalType": "string",
          "name": "",
          "type": "string"
        }
      ],
      "stateMutability": "view",
      "type": "function"
    },
    {
      "inputs": [],
      "name": "gelatoRelay",
      "outputs": [
        {
          "internalType": "address",
          "name": "",
          "type": "address"
        }
      ],
      "stateMutability": "view",
      "type": "function"
    },
    {
      "inputs": [
        {
          "internalType": "uint256",
          "name": "tokenId",
          "type": "uint256"
        }
      ],
      "name": "getApproved",
      "outputs": [
        {
          "internalType": "address",
          "name": "",
          "type": "address"
        }
      ],
      "stateMutability": "view",
      "type": "function"
    },
    {
      "inputs": [
        {
          "internalType": "address",
          "name": "_wallet",
          "type": "address"
        }
      ],
      "name": "hasLensProfile",
      "outputs": [
        {
          "internalType": "bool",
          "name": "",
          "type": "bool"
        }
      ],
      "stateMutability": "view",
      "type": "function"
    },
    {
      "inputs": [
        {
          "internalType": "address",
          "name": "owner",
          "type": "address"
        },
        {
          "internalType": "address",
          "name": "operator",
          "type": "address"
        }
      ],
      "name": "isApprovedForAll",
      "outputs": [
        {
          "internalType": "bool",
          "name": "",
          "type": "bool"
        }
      ],
      "stateMutability": "view",
      "type": "function"
    },
    {
      "inputs": [
        {
          "internalType": "address",
          "name": "forwarder",
          "type": "address"
        }
      ],
      "name": "isTrustedForwarder",
      "outputs": [
        {
          "internalType": "bool",
          "name": "",
          "type": "bool"
        }
      ],
      "stateMutability": "view",
      "type": "function"
    },
    {
      "inputs": [],
      "name": "lensHub",
      "outputs": [
        {
          "internalType": "contract ILensHub",
          "name": "",
          "type": "address"
        }
      ],
      "stateMutability": "view",
      "type": "function"
    },
    {
      "inputs": [],
      "name": "maxSupply",
      "outputs": [
        {
          "internalType": "uint256",
          "name": "",
          "type": "uint256"
        }
      ],
      "stateMutability": "view",
      "type": "function"
    },
    {
      "inputs": [],
      "name": "mint",
      "outputs": [],
      "stateMutability": "nonpayable",
      "type": "function"
    },
    {
      "inputs": [],
      "name": "name",
      "outputs": [
        {
          "internalType": "string",
          "name": "",
          "type": "string"
        }
      ],
      "stateMutability": "view",
      "type": "function"
    },
    {
      "inputs": [
        {
          "internalType": "uint256",
          "name": "tokenId",
          "type": "uint256"
        }
      ],
      "name": "ownerOf",
      "outputs": [
        {
          "internalType": "address",
          "name": "",
          "type": "address"
        }
      ],
      "stateMutability": "view",
      "type": "function"
    },
    {
      "inputs": [],
      "name": "restricted",
      "outputs": [
        {
          "internalType": "bool",
          "name": "",
          "type": "bool"
        }
      ],
      "stateMutability": "view",
      "type": "function"
    },
    {
      "inputs": [
        {
          "internalType": "address",
          "name": "from",
          "type": "address"
        },
        {
          "internalType": "address",
          "name": "to",
          "type": "address"
        },
        {
          "internalType": "uint256",
          "name": "tokenId",
          "type": "uint256"
        }
      ],
      "name": "safeTransferFrom",
      "outputs": [],
      "stateMutability": "nonpayable",
      "type": "function"
    },
    {
      "inputs": [
        {
          "internalType": "address",
          "name": "from",
          "type": "address"
        },
        {
          "internalType": "address",
          "name": "to",
          "type": "address"
        },
        {
          "internalType": "uint256",
          "name": "tokenId",
          "type": "uint256"
        },
        {
          "internalType": "bytes",
          "name": "_data",
          "type": "bytes"
        }
      ],
      "name": "safeTransferFrom",
      "outputs": [],
      "stateMutability": "nonpayable",
      "type": "function"
    },
    {
      "inputs": [
        {
          "internalType": "address",
          "name": "operator",
          "type": "address"
        },
        {
          "internalType": "bool",
          "name": "approved",
          "type": "bool"
        }
      ],
      "name": "setApprovalForAll",
      "outputs": [],
      "stateMutability": "nonpayable",
      "type": "function"
    },
    {
      "inputs": [
        {
          "internalType": "string",
          "name": "_baseUri",
          "type": "string"
        }
      ],
      "name": "setBaseUri",
      "outputs": [],
      "stateMutability": "nonpayable",
      "type": "function"
    },
    {
      "inputs": [
        {
          "internalType": "bytes4",
          "name": "interfaceId",
          "type": "bytes4"
        }
      ],
      "name": "supportsInterface",
      "outputs": [
        {
          "internalType": "bool",
          "name": "",
          "type": "bool"
        }
      ],
      "stateMutability": "view",
      "type": "function"
    },
    {
      "inputs": [],
      "name": "symbol",
      "outputs": [
        {
          "internalType": "string",
          "name": "",
          "type": "string"
        }
      ],
      "stateMutability": "view",
      "type": "function"
    },
    {
      "inputs": [
        {
          "internalType": "uint256",
          "name": "index",
          "type": "uint256"
        }
      ],
      "name": "tokenByIndex",
      "outputs": [
        {
          "internalType": "uint256",
          "name": "",
          "type": "uint256"
        }
      ],
      "stateMutability": "view",
      "type": "function"
    },
    {
      "inputs": [
        {
          "internalType": "address",
          "name": "owner",
          "type": "address"
        },
        {
          "internalType": "uint256",
          "name": "index",
          "type": "uint256"
        }
      ],
      "name": "tokenOfOwnerByIndex",
      "outputs": [
        {
          "internalType": "uint256",
          "name": "",
          "type": "uint256"
        }
      ],
      "stateMutability": "view",
      "type": "function"
    },
    {
      "inputs": [
        {
          "internalType": "uint256",
          "name": "tokenId",
          "type": "uint256"
        }
      ],
      "name": "tokenURI",
      "outputs": [
        {
          "internalType": "string",
          "name": "",
          "type": "string"
        }
      ],
      "stateMutability": "view",
      "type": "function"
    },
    {
      "inputs": [],
      "name": "totalSupply",
      "outputs": [
        {
          "internalType": "uint256",
          "name": "",
          "type": "uint256"
        }
      ],
      "stateMutability": "view",
      "type": "function"
    },
    {
      "inputs": [
        {
          "internalType": "address",
          "name": "from",
          "type": "address"
        },
        {
          "internalType": "address",
          "name": "to",
          "type": "address"
        },
        {
          "internalType": "uint256",
          "name": "tokenId",
          "type": "uint256"
        }
      ],
      "name": "transferFrom",
      "outputs": [],
      "stateMutability": "nonpayable",
      "type": "function"
    }
  ],
  "transactionHash": "0xd64a30b7386e1a0578ffdf117b3c02403662b81db759628c00eb1462d0ad31e7",
  "args": [
    false,
    0,
    "0x60Ae865ee4C725cd04353b5AAb364553f56ceF82",
    "0xaBcC9b596420A9E9172FD5938620E265a0f9Df92"
  ],
  "numDeployments": 6,
  "solcInputHash": "e5c0cf51fd1b8f3cab8d5b17e30e1180",
  "bytecode": "0x6101206040523480156200001257600080fd5b5060405162003f5f38038062003f5f833981810160405281019062000038919062000374565b6040518060400160405280600c81526020017f4b6f72752044616f204e465400000000000000000000000000000000000000008152506040518060400160405280600781526020017f4b4f525544414f0000000000000000000000000000000000000000000000000081525082808786868215156080811515815250508173ffffffffffffffffffffffffffffffffffffffff1660a08173ffffffffffffffffffffffffffffffffffffffff16815250508073ffffffffffffffffffffffffffffffffffffffff1660c08173ffffffffffffffffffffffffffffffffffffffff16815250505050508073ffffffffffffffffffffffffffffffffffffffff1660e08173ffffffffffffffffffffffffffffffffffffffff16815250505082600090805190602001906200016d9291906200019d565b508160019080519060200190620001869291906200019d565b50505050826101008181525050505050506200044a565b828054620001ab9062000415565b90600052602060002090601f016020900481019282620001cf57600085556200021b565b82601f10620001ea57805160ff19168380011785556200021b565b828001600101855582156200021b579182015b828111156200021a578251825591602001919060010190620001fd565b5b5090506200022a91906200022e565b5090565b5b80821115620002495760008160009055506001016200022f565b5090565b600080fd5b60008115159050919050565b620002698162000252565b81146200027557600080fd5b50565b60008151905062000289816200025e565b92915050565b6000819050919050565b620002a4816200028f565b8114620002b057600080fd5b50565b600081519050620002c48162000299565b92915050565b600073ffffffffffffffffffffffffffffffffffffffff82169050919050565b6000620002f782620002ca565b9050919050565b60006200030b82620002ea565b9050919050565b6200031d81620002fe565b81146200032957600080fd5b50565b6000815190506200033d8162000312565b92915050565b6200034e81620002ea565b81146200035a57600080fd5b50565b6000815190506200036e8162000343565b92915050565b600080600080608085870312156200039157620003906200024d565b5b6000620003a18782880162000278565b9450506020620003b487828801620002b3565b9350506040620003c7878288016200032c565b9250506060620003da878288016200035d565b91505092959194509250565b7f4e487b7100000000000000000000000000000000000000000000000000000000600052602260045260246000fd5b600060028204905060018216806200042e57607f821691505b602082108103620004445762000443620003e6565b5b50919050565b60805160a05160c05160e05161010051613aad620004b2600039600081816108b8015281816108df01526110a601526000610b2d0152600081816107a50152610a76015260008181610d120152610f7901526000818161083b0152610c340152613aad6000f3fe608060405234801561001057600080fd5b50600436106101735760003560e01c80636352211e116100de578063a0bcfc7f11610097578063b88d4fde11610071578063b88d4fde14610460578063c87b56dd1461047c578063d5abeb01146104ac578063e985e9c5146104ca57610173565b8063a0bcfc7f1461040a578063a22cb46514610426578063b02cfdc31461044257610173565b80636352211e146103205780637072c6b11461035057806370a082311461036e578063908e3f851461039e57806395d89b41146103ce5780639abc8320146103ec57610173565b806323b872dd1161013057806323b872dd1461023a5780632f745c59146102565780633552221a1461028657806342842e0e146102a45780634f6ccce7146102c0578063572b6c05146102f057610173565b806301ffc9a71461017857806306fdde03146101a8578063081812fc146101c6578063095ea7b3146101f65780631249c58b1461021257806318160ddd1461021c575b600080fd5b610192600480360381019061018d91906124f7565b6104fa565b60405161019f919061253f565b60405180910390f35b6101b0610574565b6040516101bd91906125f3565b60405180910390f35b6101e060048036038101906101db919061264b565b610606565b6040516101ed91906126b9565b60405180910390f35b610210600480360381019061020b9190612700565b61068b565b005b61021a6107a2565b005b610224610962565b604051610231919061274f565b60405180910390f35b610254600480360381019061024f919061276a565b61096f565b005b610270600480360381019061026b9190612700565b6109cf565b60405161027d919061274f565b60405180910390f35b61028e610a74565b60405161029b91906126b9565b60405180910390f35b6102be60048036038101906102b9919061276a565b610a98565b005b6102da60048036038101906102d5919061264b565b610ab8565b6040516102e7919061274f565b60405180910390f35b61030a600480360381019061030591906127bd565b610b29565b604051610317919061253f565b60405180910390f35b61033a6004803603810190610335919061264b565b610b81565b60405161034791906126b9565b60405180910390f35b610358610c32565b604051610365919061253f565b60405180910390f35b610388600480360381019061038391906127bd565b610c56565b604051610395919061274f565b60405180910390f35b6103b860048036038101906103b391906127bd565b610d0d565b6040516103c5919061253f565b60405180910390f35b6103d6610db2565b6040516103e391906125f3565b60405180910390f35b6103f4610e44565b60405161040191906125f3565b60405180910390f35b610424600480360381019061041f919061291f565b610ed2565b005b610440600480360381019061043b9190612994565b610f61565b005b61044a610f77565b6040516104579190612a33565b60405180910390f35b61047a60048036038101906104759190612aef565b610f9b565b005b6104966004803603810190610491919061264b565b610ffd565b6040516104a391906125f3565b60405180910390f35b6104b46110a4565b6040516104c1919061274f565b60405180910390f35b6104e460048036038101906104df9190612b72565b6110c8565b6040516104f1919061253f565b60405180910390f35b60007f780e9d63000000000000000000000000000000000000000000000000000000007bffffffffffffffffffffffffffffffffffffffffffffffffffffffff1916827bffffffffffffffffffffffffffffffffffffffffffffffffffffffff1916148061056d575061056c8261115c565b5b9050919050565b60606000805461058390612be1565b80601f01602080910402602001604051908101604052809291908181526020018280546105af90612be1565b80156105fc5780601f106105d1576101008083540402835291602001916105fc565b820191906000526020600020905b8154815290600101906020018083116105df57829003601f168201915b5050505050905090565b60006106118261123e565b610650576040517f08c379a000000000000000000000000000000000000000000000000000000000815260040161064790612c84565b60405180910390fd5b6004600083815260200190815260200160002060009054906101000a900473ffffffffffffffffffffffffffffffffffffffff169050919050565b600061069682610b81565b90508073ffffffffffffffffffffffffffffffffffffffff168373ffffffffffffffffffffffffffffffffffffffff1603610706576040517f08c379a00000000000000000000000000000000000000000000000000000000081526004016106fd90612d16565b60405180910390fd5b8073ffffffffffffffffffffffffffffffffffffffff166107256112aa565b73ffffffffffffffffffffffffffffffffffffffff16148061075457506107538161074e6112aa565b6110c8565b5b610793576040517f08c379a000000000000000000000000000000000000000000000000000000000815260040161078a90612da8565b60405180910390fd5b61079d83836112dc565b505050565b337f000000000000000000000000000000000000000000000000000000000000000073ffffffffffffffffffffffffffffffffffffffff168173ffffffffffffffffffffffffffffffffffffffff1614610831576040517f08c379a000000000000000000000000000000000000000000000000000000000815260040161082890612e14565b60405180910390fd5b6108396112aa565b7f0000000000000000000000000000000000000000000000000000000000000000156108a85761086881610d0d565b6108a7576040517f08c379a000000000000000000000000000000000000000000000000000000000815260040161089e90612ea6565b60405180910390fd5b5b60006108b2610962565b905060007f00000000000000000000000000000000000000000000000000000000000000001115610940577f0000000000000000000000000000000000000000000000000000000000000000811061093f576040517f08c379a000000000000000000000000000000000000000000000000000000000815260040161093690612f12565b60405180910390fd5b5b61095d61094b6112aa565b6001836109589190612f61565b611395565b505050565b6000600880549050905090565b61098061097a6112aa565b826113b3565b6109bf576040517f08c379a00000000000000000000000000000000000000000000000000000000081526004016109b690613029565b60405180910390fd5b6109ca838383611491565b505050565b60006109da83610c56565b8210610a1b576040517f08c379a0000000000000000000000000000000000000000000000000000000008152600401610a12906130bb565b60405180910390fd5b600660008473ffffffffffffffffffffffffffffffffffffffff1673ffffffffffffffffffffffffffffffffffffffff168152602001908152602001600020600083815260200190815260200160002054905092915050565b7f000000000000000000000000000000000000000000000000000000000000000081565b610ab383838360405180602001604052806000815250610f9b565b505050565b6000610ac2610962565b8210610b03576040517f08c379a0000000000000000000000000000000000000000000000000000000008152600401610afa9061314d565b60405180910390fd5b60088281548110610b1757610b1661316d565b5b90600052602060002001549050919050565b60007f000000000000000000000000000000000000000000000000000000000000000073ffffffffffffffffffffffffffffffffffffffff168273ffffffffffffffffffffffffffffffffffffffff16149050919050565b6000806002600084815260200190815260200160002060009054906101000a900473ffffffffffffffffffffffffffffffffffffffff169050600073ffffffffffffffffffffffffffffffffffffffff168173ffffffffffffffffffffffffffffffffffffffff1603610c29576040517f08c379a0000000000000000000000000000000000000000000000000000000008152600401610c209061320e565b60405180910390fd5b80915050919050565b7f000000000000000000000000000000000000000000000000000000000000000081565b60008073ffffffffffffffffffffffffffffffffffffffff168273ffffffffffffffffffffffffffffffffffffffff1603610cc6576040517f08c379a0000000000000000000000000000000000000000000000000000000008152600401610cbd906132a0565b60405180910390fd5b600360008373ffffffffffffffffffffffffffffffffffffffff1673ffffffffffffffffffffffffffffffffffffffff168152602001908152602001600020549050919050565b6000807f000000000000000000000000000000000000000000000000000000000000000073ffffffffffffffffffffffffffffffffffffffff166370a08231846040518263ffffffff1660e01b8152600401610d6991906126b9565b602060405180830381865afa158015610d86573d6000803e3d6000fd5b505050506040513d601f19601f82011682018060405250810190610daa91906132d5565b119050919050565b606060018054610dc190612be1565b80601f0160208091040260200160405190810160405280929190818152602001828054610ded90612be1565b8015610e3a5780601f10610e0f57610100808354040283529160200191610e3a565b820191906000526020600020905b815481529060010190602001808311610e1d57829003601f168201915b5050505050905090565b600a8054610e5190612be1565b80601f0160208091040260200160405190810160405280929190818152602001828054610e7d90612be1565b8015610eca5780601f10610e9f57610100808354040283529160200191610eca565b820191906000526020600020905b815481529060010190602001808311610ead57829003601f168201915b505050505081565b610eda6116f7565b73ffffffffffffffffffffffffffffffffffffffff163373ffffffffffffffffffffffffffffffffffffffff1614610f47576040517f08c379a0000000000000000000000000000000000000000000000000000000008152600401610f3e9061334e565b60405180910390fd5b80600a9080519060200190610f5d9291906123e8565b5050565b610f73610f6c6112aa565b8383611720565b5050565b7f000000000000000000000000000000000000000000000000000000000000000081565b610fac610fa66112aa565b836113b3565b610feb576040517f08c379a0000000000000000000000000000000000000000000000000000000008152600401610fe290613029565b60405180910390fd5b610ff78484848461188c565b50505050565b60606110088261123e565b611047576040517f08c379a000000000000000000000000000000000000000000000000000000000815260040161103e906133e0565b60405180910390fd5b60006110516118e8565b90506000815111611071576040518060200160405280600081525061109c565b8061107b8461197a565b60405160200161108c92919061343c565b6040516020818303038152906040525b915050919050565b7f000000000000000000000000000000000000000000000000000000000000000081565b6000600560008473ffffffffffffffffffffffffffffffffffffffff1673ffffffffffffffffffffffffffffffffffffffff16815260200190815260200160002060008373ffffffffffffffffffffffffffffffffffffffff1673ffffffffffffffffffffffffffffffffffffffff16815260200190815260200160002060009054906101000a900460ff16905092915050565b60007f80ac58cd000000000000000000000000000000000000000000000000000000007bffffffffffffffffffffffffffffffffffffffffffffffffffffffff1916827bffffffffffffffffffffffffffffffffffffffffffffffffffffffff1916148061122757507f5b5e139f000000000000000000000000000000000000000000000000000000007bffffffffffffffffffffffffffffffffffffffffffffffffffffffff1916827bffffffffffffffffffffffffffffffffffffffffffffffffffffffff1916145b80611237575061123682611ada565b5b9050919050565b60008073ffffffffffffffffffffffffffffffffffffffff166002600084815260200190815260200160002060009054906101000a900473ffffffffffffffffffffffffffffffffffffffff1673ffffffffffffffffffffffffffffffffffffffff1614159050919050565b60006112b533610b29565b156112c957601436033560601c90506112d8565b6112d1611b44565b90506112d9565b5b90565b816004600083815260200190815260200160002060006101000a81548173ffffffffffffffffffffffffffffffffffffffff021916908373ffffffffffffffffffffffffffffffffffffffff160217905550808273ffffffffffffffffffffffffffffffffffffffff1661134f83610b81565b73ffffffffffffffffffffffffffffffffffffffff167f8c5be1e5ebec7d5bd14f71427d1e84f3dd0314c0f7b2291e5b200ac8c7c3b92560405160405180910390a45050565b6113af828260405180602001604052806000815250611b4c565b5050565b60006113be8261123e565b6113fd576040517f08c379a00000000000000000000000000000000000000000000000000000000081526004016113f4906134d2565b60405180910390fd5b600061140883610b81565b90508073ffffffffffffffffffffffffffffffffffffffff168473ffffffffffffffffffffffffffffffffffffffff16148061147757508373ffffffffffffffffffffffffffffffffffffffff1661145f84610606565b73ffffffffffffffffffffffffffffffffffffffff16145b80611488575061148781856110c8565b5b91505092915050565b8273ffffffffffffffffffffffffffffffffffffffff166114b182610b81565b73ffffffffffffffffffffffffffffffffffffffff1614611507576040517f08c379a00000000000000000000000000000000000000000000000000000000081526004016114fe90613564565b60405180910390fd5b600073ffffffffffffffffffffffffffffffffffffffff168273ffffffffffffffffffffffffffffffffffffffff1603611576576040517f08c379a000000000000000000000000000000000000000000000000000000000815260040161156d906135f6565b60405180910390fd5b611581838383611ba7565b61158c6000826112dc565b6001600360008573ffffffffffffffffffffffffffffffffffffffff1673ffffffffffffffffffffffffffffffffffffffff16815260200190815260200160002060008282546115dc9190613616565b925050819055506001600360008473ffffffffffffffffffffffffffffffffffffffff1673ffffffffffffffffffffffffffffffffffffffff16815260200190815260200160002060008282546116339190612f61565b92505081905550816002600083815260200190815260200160002060006101000a81548173ffffffffffffffffffffffffffffffffffffffff021916908373ffffffffffffffffffffffffffffffffffffffff160217905550808273ffffffffffffffffffffffffffffffffffffffff168473ffffffffffffffffffffffffffffffffffffffff167fddf252ad1be2c89b69c2b068fc378daa952ba7f163c4a11628f55a4df523b3ef60405160405180910390a46116f2838383611bf5565b505050565b60007fb53127684a568b3173ae13b9f8a6016e243e63b6e8ee1178d6a717850b5d610354905090565b8173ffffffffffffffffffffffffffffffffffffffff168373ffffffffffffffffffffffffffffffffffffffff160361178e576040517f08c379a000000000000000000000000000000000000000000000000000000000815260040161178590613696565b60405180910390fd5b80600560008573ffffffffffffffffffffffffffffffffffffffff1673ffffffffffffffffffffffffffffffffffffffff16815260200190815260200160002060008473ffffffffffffffffffffffffffffffffffffffff1673ffffffffffffffffffffffffffffffffffffffff16815260200190815260200160002060006101000a81548160ff0219169083151502179055508173ffffffffffffffffffffffffffffffffffffffff168373ffffffffffffffffffffffffffffffffffffffff167f17307eab39ab6107e8899845ad3d59bd9653f200f220920489ca2b5937696c318360405161187f919061253f565b60405180910390a3505050565b611897848484611491565b6118a384848484611bfa565b6118e2576040517f08c379a00000000000000000000000000000000000000000000000000000000081526004016118d990613728565b60405180910390fd5b50505050565b6060600a80546118f790612be1565b80601f016020809104026020016040519081016040528092919081815260200182805461192390612be1565b80156119705780601f1061194557610100808354040283529160200191611970565b820191906000526020600020905b81548152906001019060200180831161195357829003601f168201915b5050505050905090565b6060600082036119c1576040518060400160405280600181526020017f30000000000000000000000000000000000000000000000000000000000000008152509050611ad5565b600082905060005b600082146119f35780806119dc90613748565b915050600a826119ec91906137bf565b91506119c9565b60008167ffffffffffffffff811115611a0f57611a0e6127f4565b5b6040519080825280601f01601f191660200182016040528015611a415781602001600182028036833780820191505090505b5090505b60008514611ace57600182611a5a9190613616565b9150600a85611a6991906137f0565b6030611a759190612f61565b60f81b818381518110611a8b57611a8a61316d565b5b60200101907effffffffffffffffffffffffffffffffffffffffffffffffffffffffffffff1916908160001a905350600a85611ac791906137bf565b9450611a45565b8093505050505b919050565b60007f01ffc9a7000000000000000000000000000000000000000000000000000000007bffffffffffffffffffffffffffffffffffffffffffffffffffffffff1916827bffffffffffffffffffffffffffffffffffffffffffffffffffffffff1916149050919050565b600033905090565b611b568383611d81565b611b636000848484611bfa565b611ba2576040517f08c379a0000000000000000000000000000000000000000000000000000000008152600401611b9990613728565b60405180910390fd5b505050565b600073ffffffffffffffffffffffffffffffffffffffff168273ffffffffffffffffffffffffffffffffffffffff1614611be557611be482611f5a565b5b611bf0838383611fa8565b505050565b505050565b6000611c1b8473ffffffffffffffffffffffffffffffffffffffff166120ba565b15611d74578373ffffffffffffffffffffffffffffffffffffffff1663150b7a02611c446112aa565b8786866040518563ffffffff1660e01b8152600401611c669493929190613876565b6020604051808303816000875af1925050508015611ca257506040513d601f19601f82011682018060405250810190611c9f91906138d7565b60015b611d24573d8060008114611cd2576040519150601f19603f3d011682016040523d82523d6000602084013e611cd7565b606091505b506000815103611d1c576040517f08c379a0000000000000000000000000000000000000000000000000000000008152600401611d1390613728565b60405180910390fd5b805181602001fd5b63150b7a0260e01b7bffffffffffffffffffffffffffffffffffffffffffffffffffffffff1916817bffffffffffffffffffffffffffffffffffffffffffffffffffffffff191614915050611d79565b600190505b949350505050565b600073ffffffffffffffffffffffffffffffffffffffff168273ffffffffffffffffffffffffffffffffffffffff1603611df0576040517f08c379a0000000000000000000000000000000000000000000000000000000008152600401611de790613950565b60405180910390fd5b611df98161123e565b15611e39576040517f08c379a0000000000000000000000000000000000000000000000000000000008152600401611e30906139bc565b60405180910390fd5b611e4560008383611ba7565b6001600360008473ffffffffffffffffffffffffffffffffffffffff1673ffffffffffffffffffffffffffffffffffffffff1681526020019081526020016000206000828254611e959190612f61565b92505081905550816002600083815260200190815260200160002060006101000a81548173ffffffffffffffffffffffffffffffffffffffff021916908373ffffffffffffffffffffffffffffffffffffffff160217905550808273ffffffffffffffffffffffffffffffffffffffff16600073ffffffffffffffffffffffffffffffffffffffff167fddf252ad1be2c89b69c2b068fc378daa952ba7f163c4a11628f55a4df523b3ef60405160405180910390a4611f5660008383611bf5565b5050565b6000611f6582610c56565b14611fa5576040517f08c379a0000000000000000000000000000000000000000000000000000000008152600401611f9c90613a28565b60405180910390fd5b50565b611fb38383836120dd565b600073ffffffffffffffffffffffffffffffffffffffff168373ffffffffffffffffffffffffffffffffffffffff1603611ff557611ff0816120e2565b612034565b8173ffffffffffffffffffffffffffffffffffffffff168373ffffffffffffffffffffffffffffffffffffffff161461203357612032838261212b565b5b5b600073ffffffffffffffffffffffffffffffffffffffff168273ffffffffffffffffffffffffffffffffffffffff16036120765761207181612298565b6120b5565b8273ffffffffffffffffffffffffffffffffffffffff168273ffffffffffffffffffffffffffffffffffffffff16146120b4576120b38282612369565b5b5b505050565b6000808273ffffffffffffffffffffffffffffffffffffffff163b119050919050565b505050565b6008805490506009600083815260200190815260200160002081905550600881908060018154018082558091505060019003906000526020600020016000909190919091505550565b6000600161213884610c56565b6121429190613616565b9050600060076000848152602001908152602001600020549050818114612227576000600660008673ffffffffffffffffffffffffffffffffffffffff1673ffffffffffffffffffffffffffffffffffffffff168152602001908152602001600020600084815260200190815260200160002054905080600660008773ffffffffffffffffffffffffffffffffffffffff1673ffffffffffffffffffffffffffffffffffffffff168152602001908152602001600020600084815260200190815260200160002081905550816007600083815260200190815260200160002081905550505b6007600084815260200190815260200160002060009055600660008573ffffffffffffffffffffffffffffffffffffffff1673ffffffffffffffffffffffffffffffffffffffff16815260200190815260200160002060008381526020019081526020016000206000905550505050565b600060016008805490506122ac9190613616565b90506000600960008481526020019081526020016000205490506000600883815481106122dc576122db61316d565b5b9060005260206000200154905080600883815481106122fe576122fd61316d565b5b90600052602060002001819055508160096000838152602001908152602001600020819055506009600085815260200190815260200160002060009055600880548061234d5761234c613a48565b5b6001900381819060005260206000200160009055905550505050565b600061237483610c56565b905081600660008573ffffffffffffffffffffffffffffffffffffffff1673ffffffffffffffffffffffffffffffffffffffff168152602001908152602001600020600083815260200190815260200160002081905550806007600084815260200190815260200160002081905550505050565b8280546123f490612be1565b90600052602060002090601f016020900481019282612416576000855561245d565b82601f1061242f57805160ff191683800117855561245d565b8280016001018555821561245d579182015b8281111561245c578251825591602001919060010190612441565b5b50905061246a919061246e565b5090565b5b8082111561248757600081600090555060010161246f565b5090565b6000604051905090565b600080fd5b600080fd5b60007fffffffff0000000000000000000000000000000000000000000000000000000082169050919050565b6124d48161249f565b81146124df57600080fd5b50565b6000813590506124f1816124cb565b92915050565b60006020828403121561250d5761250c612495565b5b600061251b848285016124e2565b91505092915050565b60008115159050919050565b61253981612524565b82525050565b60006020820190506125546000830184612530565b92915050565b600081519050919050565b600082825260208201905092915050565b60005b83811015612594578082015181840152602081019050612579565b838111156125a3576000848401525b50505050565b6000601f19601f8301169050919050565b60006125c58261255a565b6125cf8185612565565b93506125df818560208601612576565b6125e8816125a9565b840191505092915050565b6000602082019050818103600083015261260d81846125ba565b905092915050565b6000819050919050565b61262881612615565b811461263357600080fd5b50565b6000813590506126458161261f565b92915050565b60006020828403121561266157612660612495565b5b600061266f84828501612636565b91505092915050565b600073ffffffffffffffffffffffffffffffffffffffff82169050919050565b60006126a382612678565b9050919050565b6126b381612698565b82525050565b60006020820190506126ce60008301846126aa565b92915050565b6126dd81612698565b81146126e857600080fd5b50565b6000813590506126fa816126d4565b92915050565b6000806040838503121561271757612716612495565b5b6000612725858286016126eb565b925050602061273685828601612636565b9150509250929050565b61274981612615565b82525050565b60006020820190506127646000830184612740565b92915050565b60008060006060848603121561278357612782612495565b5b6000612791868287016126eb565b93505060206127a2868287016126eb565b92505060406127b386828701612636565b9150509250925092565b6000602082840312156127d3576127d2612495565b5b60006127e1848285016126eb565b91505092915050565b600080fd5b600080fd5b7f4e487b7100000000000000000000000000000000000000000000000000000000600052604160045260246000fd5b61282c826125a9565b810181811067ffffffffffffffff8211171561284b5761284a6127f4565b5b80604052505050565b600061285e61248b565b905061286a8282612823565b919050565b600067ffffffffffffffff82111561288a576128896127f4565b5b612893826125a9565b9050602081019050919050565b82818337600083830152505050565b60006128c26128bd8461286f565b612854565b9050828152602081018484840111156128de576128dd6127ef565b5b6128e98482856128a0565b509392505050565b600082601f830112612906576129056127ea565b5b81356129168482602086016128af565b91505092915050565b60006020828403121561293557612934612495565b5b600082013567ffffffffffffffff8111156129535761295261249a565b5b61295f848285016128f1565b91505092915050565b61297181612524565b811461297c57600080fd5b50565b60008135905061298e81612968565b92915050565b600080604083850312156129ab576129aa612495565b5b60006129b9858286016126eb565b92505060206129ca8582860161297f565b9150509250929050565b6000819050919050565b60006129f96129f46129ef84612678565b6129d4565b612678565b9050919050565b6000612a0b826129de565b9050919050565b6000612a1d82612a00565b9050919050565b612a2d81612a12565b82525050565b6000602082019050612a486000830184612a24565b92915050565b600067ffffffffffffffff821115612a6957612a686127f4565b5b612a72826125a9565b9050602081019050919050565b6000612a92612a8d84612a4e565b612854565b905082815260208101848484011115612aae57612aad6127ef565b5b612ab98482856128a0565b509392505050565b600082601f830112612ad657612ad56127ea565b5b8135612ae6848260208601612a7f565b91505092915050565b60008060008060808587031215612b0957612b08612495565b5b6000612b17878288016126eb565b9450506020612b28878288016126eb565b9350506040612b3987828801612636565b925050606085013567ffffffffffffffff811115612b5a57612b5961249a565b5b612b6687828801612ac1565b91505092959194509250565b60008060408385031215612b8957612b88612495565b5b6000612b97858286016126eb565b9250506020612ba8858286016126eb565b9150509250929050565b7f4e487b7100000000000000000000000000000000000000000000000000000000600052602260045260246000fd5b60006002820490506001821680612bf957607f821691505b602082108103612c0c57612c0b612bb2565b5b50919050565b7f4552433732313a20617070726f76656420717565727920666f72206e6f6e657860008201527f697374656e7420746f6b656e0000000000000000000000000000000000000000602082015250565b6000612c6e602c83612565565b9150612c7982612c12565b604082019050919050565b60006020820190508181036000830152612c9d81612c61565b9050919050565b7f4552433732313a20617070726f76616c20746f2063757272656e74206f776e6560008201527f7200000000000000000000000000000000000000000000000000000000000000602082015250565b6000612d00602183612565565b9150612d0b82612ca4565b604082019050919050565b60006020820190508181036000830152612d2f81612cf3565b9050919050565b7f4552433732313a20617070726f76652063616c6c6572206973206e6f74206f7760008201527f6e6572206e6f7220617070726f76656420666f7220616c6c0000000000000000602082015250565b6000612d92603883612565565b9150612d9d82612d36565b604082019050919050565b60006020820190508181036000830152612dc181612d85565b9050919050565b7f5265737472696374696f6e733a204f6e6c792047656c61746f2072656c617900600082015250565b6000612dfe601f83612565565b9150612e0982612dc8565b602082019050919050565b60006020820190508181036000830152612e2d81612df1565b9050919050565b7f5265737472696374696f6e733a204f6e6c79206c656e732070726f66696c652060008201527f686f6c6465720000000000000000000000000000000000000000000000000000602082015250565b6000612e90602683612565565b9150612e9b82612e34565b604082019050919050565b60006020820190508181036000830152612ebf81612e83565b9050919050565b7f4b6f727544616f4e46543a204d617820537570706c7900000000000000000000600082015250565b6000612efc601683612565565b9150612f0782612ec6565b602082019050919050565b60006020820190508181036000830152612f2b81612eef565b9050919050565b7f4e487b7100000000000000000000000000000000000000000000000000000000600052601160045260246000fd5b6000612f6c82612615565b9150612f7783612615565b9250827fffffffffffffffffffffffffffffffffffffffffffffffffffffffffffffffff03821115612fac57612fab612f32565b5b828201905092915050565b7f4552433732313a207472616e736665722063616c6c6572206973206e6f74206f60008201527f776e6572206e6f7220617070726f766564000000000000000000000000000000602082015250565b6000613013603183612565565b915061301e82612fb7565b604082019050919050565b6000602082019050818103600083015261304281613006565b9050919050565b7f455243373231456e756d657261626c653a206f776e657220696e646578206f7560008201527f74206f6620626f756e6473000000000000000000000000000000000000000000602082015250565b60006130a5602b83612565565b91506130b082613049565b604082019050919050565b600060208201905081810360008301526130d481613098565b9050919050565b7f455243373231456e756d657261626c653a20676c6f62616c20696e646578206f60008201527f7574206f6620626f756e64730000000000000000000000000000000000000000602082015250565b6000613137602c83612565565b9150613142826130db565b604082019050919050565b600060208201905081810360008301526131668161312a565b9050919050565b7f4e487b7100000000000000000000000000000000000000000000000000000000600052603260045260246000fd5b7f4552433732313a206f776e657220717565727920666f72206e6f6e657869737460008201527f656e7420746f6b656e0000000000000000000000000000000000000000000000602082015250565b60006131f8602983612565565b91506132038261319c565b604082019050919050565b60006020820190508181036000830152613227816131eb565b9050919050565b7f4552433732313a2062616c616e636520717565727920666f7220746865207a6560008201527f726f206164647265737300000000000000000000000000000000000000000000602082015250565b600061328a602a83612565565b91506132958261322e565b604082019050919050565b600060208201905081810360008301526132b98161327d565b9050919050565b6000815190506132cf8161261f565b92915050565b6000602082840312156132eb576132ea612495565b5b60006132f9848285016132c0565b91505092915050565b7f4e4f545f415554484f52495a4544000000000000000000000000000000000000600082015250565b6000613338600e83612565565b915061334382613302565b602082019050919050565b600060208201905081810360008301526133678161332b565b9050919050565b7f4552433732314d657461646174613a2055524920717565727920666f72206e6f60008201527f6e6578697374656e7420746f6b656e0000000000000000000000000000000000602082015250565b60006133ca602f83612565565b91506133d58261336e565b604082019050919050565b600060208201905081810360008301526133f9816133bd565b9050919050565b600081905092915050565b60006134168261255a565b6134208185613400565b9350613430818560208601612576565b80840191505092915050565b6000613448828561340b565b9150613454828461340b565b91508190509392505050565b7f4552433732313a206f70657261746f7220717565727920666f72206e6f6e657860008201527f697374656e7420746f6b656e0000000000000000000000000000000000000000602082015250565b60006134bc602c83612565565b91506134c782613460565b604082019050919050565b600060208201905081810360008301526134eb816134af565b9050919050565b7f4552433732313a207472616e736665722066726f6d20696e636f72726563742060008201527f6f776e6572000000000000000000000000000000000000000000000000000000602082015250565b600061354e602583612565565b9150613559826134f2565b604082019050919050565b6000602082019050818103600083015261357d81613541565b9050919050565b7f4552433732313a207472616e7366657220746f20746865207a65726f2061646460008201527f7265737300000000000000000000000000000000000000000000000000000000602082015250565b60006135e0602483612565565b91506135eb82613584565b604082019050919050565b6000602082019050818103600083015261360f816135d3565b9050919050565b600061362182612615565b915061362c83612615565b92508282101561363f5761363e612f32565b5b828203905092915050565b7f4552433732313a20617070726f766520746f2063616c6c657200000000000000600082015250565b6000613680601983612565565b915061368b8261364a565b602082019050919050565b600060208201905081810360008301526136af81613673565b9050919050565b7f4552433732313a207472616e7366657220746f206e6f6e20455243373231526560008201527f63656976657220696d706c656d656e7465720000000000000000000000000000602082015250565b6000613712603283612565565b915061371d826136b6565b604082019050919050565b6000602082019050818103600083015261374181613705565b9050919050565b600061375382612615565b91507fffffffffffffffffffffffffffffffffffffffffffffffffffffffffffffffff820361378557613784612f32565b5b600182019050919050565b7f4e487b7100000000000000000000000000000000000000000000000000000000600052601260045260246000fd5b60006137ca82612615565b91506137d583612615565b9250826137e5576137e4613790565b5b828204905092915050565b60006137fb82612615565b915061380683612615565b92508261381657613815613790565b5b828206905092915050565b600081519050919050565b600082825260208201905092915050565b600061384882613821565b613852818561382c565b9350613862818560208601612576565b61386b816125a9565b840191505092915050565b600060808201905061388b60008301876126aa565b61389860208301866126aa565b6138a56040830185612740565b81810360608301526138b7818461383d565b905095945050505050565b6000815190506138d1816124cb565b92915050565b6000602082840312156138ed576138ec612495565b5b60006138fb848285016138c2565b91505092915050565b7f4552433732313a206d696e7420746f20746865207a65726f2061646472657373600082015250565b600061393a602083612565565b915061394582613904565b602082019050919050565b600060208201905081810360008301526139698161392d565b9050919050565b7f4552433732313a20746f6b656e20616c7265616479206d696e74656400000000600082015250565b60006139a6601c83612565565b91506139b182613970565b602082019050919050565b600060208201905081810360008301526139d581613999565b9050919050565b7f4b6f727544616f4e46543a204f6e6520706572206163636f756e740000000000600082015250565b6000613a12601b83612565565b9150613a1d826139dc565b602082019050919050565b60006020820190508181036000830152613a4181613a05565b9050919050565b7f4e487b7100000000000000000000000000000000000000000000000000000000600052603160045260246000fdfea2646970667358221220680e3707c6ab4f927e315cd07fb22c31850232ac076da535db79eb344ba79fa964736f6c634300080e0033",
  "devdoc": {
    "kind": "dev",
    "methods": {
      "approve(address,uint256)": {
        "details": "See {IERC721-approve}."
      },
      "balanceOf(address)": {
        "details": "See {IERC721-balanceOf}."
      },
      "getApproved(uint256)": {
        "details": "See {IERC721-getApproved}."
      },
      "isApprovedForAll(address,address)": {
        "details": "See {IERC721-isApprovedForAll}."
      },
      "name()": {
        "details": "See {IERC721Metadata-name}."
      },
      "ownerOf(uint256)": {
        "details": "See {IERC721-ownerOf}."
      },
      "safeTransferFrom(address,address,uint256)": {
        "details": "See {IERC721-safeTransferFrom}."
      },
      "safeTransferFrom(address,address,uint256,bytes)": {
        "details": "See {IERC721-safeTransferFrom}."
      },
      "setApprovalForAll(address,bool)": {
        "details": "See {IERC721-setApprovalForAll}."
      },
      "supportsInterface(bytes4)": {
        "details": "See {IERC165-supportsInterface}."
      },
      "symbol()": {
        "details": "See {IERC721Metadata-symbol}."
      },
      "tokenByIndex(uint256)": {
        "details": "See {IERC721Enumerable-tokenByIndex}."
      },
      "tokenOfOwnerByIndex(address,uint256)": {
        "details": "See {IERC721Enumerable-tokenOfOwnerByIndex}."
      },
      "tokenURI(uint256)": {
        "details": "See {IERC721Metadata-tokenURI}."
      },
      "totalSupply()": {
        "details": "See {IERC721Enumerable-totalSupply}."
      },
      "transferFrom(address,address,uint256)": {
        "details": "See {IERC721-transferFrom}."
      }
    },
    "version": 1
  },
  "userdoc": {
    "kind": "user",
    "methods": {},
    "version": 1
  },
  "storageLayout": {
    "storage": [
      {
        "astId": 2826,
        "contract": "contracts/KoruDaoNFT.sol:KoruDaoNFT",
        "label": "_name",
        "offset": 0,
        "slot": "0",
        "type": "t_string_storage"
      },
      {
        "astId": 2828,
        "contract": "contracts/KoruDaoNFT.sol:KoruDaoNFT",
        "label": "_symbol",
        "offset": 0,
        "slot": "1",
        "type": "t_string_storage"
      },
      {
        "astId": 2832,
        "contract": "contracts/KoruDaoNFT.sol:KoruDaoNFT",
        "label": "_owners",
        "offset": 0,
        "slot": "2",
        "type": "t_mapping(t_uint256,t_address)"
      },
      {
        "astId": 2836,
        "contract": "contracts/KoruDaoNFT.sol:KoruDaoNFT",
        "label": "_balances",
        "offset": 0,
        "slot": "3",
        "type": "t_mapping(t_address,t_uint256)"
      },
      {
        "astId": 2840,
        "contract": "contracts/KoruDaoNFT.sol:KoruDaoNFT",
        "label": "_tokenApprovals",
        "offset": 0,
        "slot": "4",
        "type": "t_mapping(t_uint256,t_address)"
      },
      {
        "astId": 2846,
        "contract": "contracts/KoruDaoNFT.sol:KoruDaoNFT",
        "label": "_operatorApprovals",
        "offset": 0,
        "slot": "5",
        "type": "t_mapping(t_address,t_mapping(t_address,t_bool))"
      },
      {
        "astId": 3686,
        "contract": "contracts/KoruDaoNFT.sol:KoruDaoNFT",
        "label": "_ownedTokens",
        "offset": 0,
        "slot": "6",
        "type": "t_mapping(t_address,t_mapping(t_uint256,t_uint256))"
      },
      {
        "astId": 3690,
        "contract": "contracts/KoruDaoNFT.sol:KoruDaoNFT",
        "label": "_ownedTokensIndex",
        "offset": 0,
        "slot": "7",
        "type": "t_mapping(t_uint256,t_uint256)"
      },
      {
        "astId": 3693,
        "contract": "contracts/KoruDaoNFT.sol:KoruDaoNFT",
        "label": "_allTokens",
        "offset": 0,
        "slot": "8",
        "type": "t_array(t_uint256)dyn_storage"
      },
      {
        "astId": 3697,
        "contract": "contracts/KoruDaoNFT.sol:KoruDaoNFT",
        "label": "_allTokensIndex",
        "offset": 0,
        "slot": "9",
        "type": "t_mapping(t_uint256,t_uint256)"
      },
      {
        "astId": 1328,
        "contract": "contracts/KoruDaoNFT.sol:KoruDaoNFT",
        "label": "baseUri",
        "offset": 0,
        "slot": "10",
        "type": "t_string_storage"
      }
    ],
    "types": {
      "t_address": {
        "encoding": "inplace",
        "label": "address",
        "numberOfBytes": "20"
      },
      "t_array(t_uint256)dyn_storage": {
        "base": "t_uint256",
        "encoding": "dynamic_array",
        "label": "uint256[]",
        "numberOfBytes": "32"
      },
      "t_bool": {
        "encoding": "inplace",
        "label": "bool",
        "numberOfBytes": "1"
      },
      "t_mapping(t_address,t_bool)": {
        "encoding": "mapping",
        "key": "t_address",
        "label": "mapping(address => bool)",
        "numberOfBytes": "32",
        "value": "t_bool"
      },
      "t_mapping(t_address,t_mapping(t_address,t_bool))": {
        "encoding": "mapping",
        "key": "t_address",
        "label": "mapping(address => mapping(address => bool))",
        "numberOfBytes": "32",
        "value": "t_mapping(t_address,t_bool)"
      },
      "t_mapping(t_address,t_mapping(t_uint256,t_uint256))": {
        "encoding": "mapping",
        "key": "t_address",
        "label": "mapping(address => mapping(uint256 => uint256))",
        "numberOfBytes": "32",
        "value": "t_mapping(t_uint256,t_uint256)"
      },
      "t_mapping(t_address,t_uint256)": {
        "encoding": "mapping",
        "key": "t_address",
        "label": "mapping(address => uint256)",
        "numberOfBytes": "32",
        "value": "t_uint256"
      },
      "t_mapping(t_uint256,t_address)": {
        "encoding": "mapping",
        "key": "t_uint256",
        "label": "mapping(uint256 => address)",
        "numberOfBytes": "32",
        "value": "t_address"
      },
      "t_mapping(t_uint256,t_uint256)": {
        "encoding": "mapping",
        "key": "t_uint256",
        "label": "mapping(uint256 => uint256)",
        "numberOfBytes": "32",
        "value": "t_uint256"
      },
      "t_string_storage": {
        "encoding": "bytes",
        "label": "string",
        "numberOfBytes": "32"
      },
      "t_uint256": {
        "encoding": "inplace",
        "label": "uint256",
        "numberOfBytes": "32"
      }
    }
  }
}