{
  "address": "0x1FD78495DcE514b9338b0F0E5dc54BE8B6c8Aa05",
  "abi": [
    {
      "inputs": [
        {
          "internalType": "bool",
          "name": "_restricted",
          "type": "bool"
        },
        {
          "internalType": "bool",
          "name": "_paused",
          "type": "bool"
        },
        {
          "internalType": "uint256",
          "name": "_maxSupply",
          "type": "uint256"
        },
        {
          "internalType": "uint256",
          "name": "_koruDaoProfileId",
          "type": "uint256"
        },
        {
          "internalType": "uint256",
          "name": "_minPubCount",
          "type": "uint256"
        },
        {
          "internalType": "uint256",
          "name": "_minFollowers",
          "type": "uint256"
        },
        {
          "internalType": "address",
          "name": "_gelatoRelay",
          "type": "address"
        },
        {
          "internalType": "contract ILensHub",
          "name": "_lensHub",
          "type": "address"
        }
      ],
      "stateMutability": "nonpayable",
      "type": "constructor"
    },
    {
      "anonymous": false,
      "inputs": [
        {
          "indexed": true,
          "internalType": "address",
          "name": "owner",
          "type": "address"
        },
        {
          "indexed": true,
          "internalType": "address",
          "name": "approved",
          "type": "address"
        },
        {
          "indexed": true,
          "internalType": "uint256",
          "name": "tokenId",
          "type": "uint256"
        }
      ],
      "name": "Approval",
      "type": "event"
    },
    {
      "anonymous": false,
      "inputs": [
        {
          "indexed": true,
          "internalType": "address",
          "name": "owner",
          "type": "address"
        },
        {
          "indexed": true,
          "internalType": "address",
          "name": "operator",
          "type": "address"
        },
        {
          "indexed": false,
          "internalType": "bool",
          "name": "approved",
          "type": "bool"
        }
      ],
      "name": "ApprovalForAll",
      "type": "event"
    },
    {
      "anonymous": false,
      "inputs": [
        {
          "indexed": true,
          "internalType": "address",
          "name": "from",
          "type": "address"
        },
        {
          "indexed": true,
          "internalType": "address",
          "name": "to",
          "type": "address"
        },
        {
          "indexed": true,
          "internalType": "uint256",
          "name": "tokenId",
          "type": "uint256"
        }
      ],
      "name": "Transfer",
      "type": "event"
    },
    {
      "inputs": [
        {
          "internalType": "address",
          "name": "to",
          "type": "address"
        },
        {
          "internalType": "uint256",
          "name": "tokenId",
          "type": "uint256"
        }
      ],
      "name": "approve",
      "outputs": [],
      "stateMutability": "nonpayable",
      "type": "function"
    },
    {
      "inputs": [
        {
          "internalType": "address",
          "name": "owner",
          "type": "address"
        }
      ],
      "name": "balanceOf",
      "outputs": [
        {
          "internalType": "uint256",
          "name": "",
          "type": "uint256"
        }
      ],
      "stateMutability": "view",
      "type": "function"
    },
    {
      "inputs": [],
      "name": "baseUri",
      "outputs": [
        {
          "internalType": "string",
          "name": "",
          "type": "string"
        }
      ],
      "stateMutability": "view",
      "type": "function"
    },
    {
      "inputs": [],
      "name": "gelatoRelay",
      "outputs": [
        {
          "internalType": "address",
          "name": "",
          "type": "address"
        }
      ],
      "stateMutability": "view",
      "type": "function"
    },
    {
      "inputs": [
        {
          "internalType": "uint256",
          "name": "tokenId",
          "type": "uint256"
        }
      ],
      "name": "getApproved",
      "outputs": [
        {
          "internalType": "address",
          "name": "",
          "type": "address"
        }
      ],
      "stateMutability": "view",
      "type": "function"
    },
    {
      "inputs": [
        {
          "internalType": "address",
          "name": "owner",
          "type": "address"
        },
        {
          "internalType": "address",
          "name": "operator",
          "type": "address"
        }
      ],
      "name": "isApprovedForAll",
      "outputs": [
        {
          "internalType": "bool",
          "name": "",
          "type": "bool"
        }
      ],
      "stateMutability": "view",
      "type": "function"
    },
    {
      "inputs": [
        {
          "internalType": "address",
          "name": "_wallet",
          "type": "address"
        }
      ],
      "name": "isEligible",
      "outputs": [
        {
          "internalType": "bool",
          "name": "",
          "type": "bool"
        },
        {
          "internalType": "bool[]",
          "name": "",
          "type": "bool[]"
        }
      ],
      "stateMutability": "view",
      "type": "function"
    },
    {
      "inputs": [
        {
          "internalType": "address",
          "name": "forwarder",
          "type": "address"
        }
      ],
      "name": "isTrustedForwarder",
      "outputs": [
        {
          "internalType": "bool",
          "name": "",
          "type": "bool"
        }
      ],
      "stateMutability": "view",
      "type": "function"
    },
    {
      "inputs": [],
      "name": "koruDaoProfileId",
      "outputs": [
        {
          "internalType": "uint256",
          "name": "",
          "type": "uint256"
        }
      ],
      "stateMutability": "view",
      "type": "function"
    },
    {
      "inputs": [],
      "name": "lensHub",
      "outputs": [
        {
          "internalType": "contract ILensHub",
          "name": "",
          "type": "address"
        }
      ],
      "stateMutability": "view",
      "type": "function"
    },
    {
      "inputs": [],
      "name": "maxSupply",
      "outputs": [
        {
          "internalType": "uint256",
          "name": "",
          "type": "uint256"
        }
      ],
      "stateMutability": "view",
      "type": "function"
    },
    {
      "inputs": [],
      "name": "minFollowers",
      "outputs": [
        {
          "internalType": "uint256",
          "name": "",
          "type": "uint256"
        }
      ],
      "stateMutability": "view",
      "type": "function"
    },
    {
      "inputs": [],
      "name": "minPubCount",
      "outputs": [
        {
          "internalType": "uint256",
          "name": "",
          "type": "uint256"
        }
      ],
      "stateMutability": "view",
      "type": "function"
    },
    {
      "inputs": [],
      "name": "mint",
      "outputs": [],
      "stateMutability": "nonpayable",
      "type": "function"
    },
    {
      "inputs": [],
      "name": "name",
      "outputs": [
        {
          "internalType": "string",
          "name": "",
          "type": "string"
        }
      ],
      "stateMutability": "pure",
      "type": "function"
    },
    {
      "inputs": [
        {
          "internalType": "uint256",
          "name": "tokenId",
          "type": "uint256"
        }
      ],
      "name": "ownerOf",
      "outputs": [
        {
          "internalType": "address",
          "name": "",
          "type": "address"
        }
      ],
      "stateMutability": "view",
      "type": "function"
    },
    {
      "inputs": [],
      "name": "paused",
      "outputs": [
        {
          "internalType": "bool",
          "name": "",
          "type": "bool"
        }
      ],
      "stateMutability": "view",
      "type": "function"
    },
    {
      "inputs": [],
      "name": "restricted",
      "outputs": [
        {
          "internalType": "bool",
          "name": "",
          "type": "bool"
        }
      ],
      "stateMutability": "view",
      "type": "function"
    },
    {
      "inputs": [
        {
          "internalType": "address",
          "name": "from",
          "type": "address"
        },
        {
          "internalType": "address",
          "name": "to",
          "type": "address"
        },
        {
          "internalType": "uint256",
          "name": "tokenId",
          "type": "uint256"
        }
      ],
      "name": "safeTransferFrom",
      "outputs": [],
      "stateMutability": "nonpayable",
      "type": "function"
    },
    {
      "inputs": [
        {
          "internalType": "address",
          "name": "from",
          "type": "address"
        },
        {
          "internalType": "address",
          "name": "to",
          "type": "address"
        },
        {
          "internalType": "uint256",
          "name": "tokenId",
          "type": "uint256"
        },
        {
          "internalType": "bytes",
          "name": "_data",
          "type": "bytes"
        }
      ],
      "name": "safeTransferFrom",
      "outputs": [],
      "stateMutability": "nonpayable",
      "type": "function"
    },
    {
      "inputs": [
        {
          "internalType": "address",
          "name": "operator",
          "type": "address"
        },
        {
          "internalType": "bool",
          "name": "approved",
          "type": "bool"
        }
      ],
      "name": "setApprovalForAll",
      "outputs": [],
      "stateMutability": "nonpayable",
      "type": "function"
    },
    {
      "inputs": [
        {
          "internalType": "string",
          "name": "_baseUri",
          "type": "string"
        }
      ],
      "name": "setBaseUri",
      "outputs": [],
      "stateMutability": "nonpayable",
      "type": "function"
    },
    {
      "inputs": [
        {
          "internalType": "bool",
          "name": "_paused",
          "type": "bool"
        }
      ],
      "name": "setPaused",
      "outputs": [],
      "stateMutability": "nonpayable",
      "type": "function"
    },
    {
      "inputs": [
        {
          "internalType": "bytes4",
          "name": "interfaceId",
          "type": "bytes4"
        }
      ],
      "name": "supportsInterface",
      "outputs": [
        {
          "internalType": "bool",
          "name": "",
          "type": "bool"
        }
      ],
      "stateMutability": "view",
      "type": "function"
    },
    {
      "inputs": [],
      "name": "symbol",
      "outputs": [
        {
          "internalType": "string",
          "name": "",
          "type": "string"
        }
      ],
      "stateMutability": "pure",
      "type": "function"
    },
    {
      "inputs": [
        {
          "internalType": "uint256",
          "name": "index",
          "type": "uint256"
        }
      ],
      "name": "tokenByIndex",
      "outputs": [
        {
          "internalType": "uint256",
          "name": "",
          "type": "uint256"
        }
      ],
      "stateMutability": "view",
      "type": "function"
    },
    {
      "inputs": [
        {
          "internalType": "address",
          "name": "owner",
          "type": "address"
        },
        {
          "internalType": "uint256",
          "name": "index",
          "type": "uint256"
        }
      ],
      "name": "tokenOfOwnerByIndex",
      "outputs": [
        {
          "internalType": "uint256",
          "name": "",
          "type": "uint256"
        }
      ],
      "stateMutability": "view",
      "type": "function"
    },
    {
      "inputs": [
        {
          "internalType": "uint256",
          "name": "tokenId",
          "type": "uint256"
        }
      ],
      "name": "tokenURI",
      "outputs": [
        {
          "internalType": "string",
          "name": "",
          "type": "string"
        }
      ],
      "stateMutability": "view",
      "type": "function"
    },
    {
      "inputs": [],
      "name": "totalSupply",
      "outputs": [
        {
          "internalType": "uint256",
          "name": "",
          "type": "uint256"
        }
      ],
      "stateMutability": "view",
      "type": "function"
    },
    {
      "inputs": [
        {
          "internalType": "address",
          "name": "from",
          "type": "address"
        },
        {
          "internalType": "address",
          "name": "to",
          "type": "address"
        },
        {
          "internalType": "uint256",
          "name": "tokenId",
          "type": "uint256"
        }
      ],
      "name": "transferFrom",
      "outputs": [],
      "stateMutability": "nonpayable",
      "type": "function"
    }
  ],
  "transactionHash": "0xffc420003f8eff31e4167e21873d06937ef31db2b370777e90da0dec1e8aca17",
  "args": [
    true,
    false,
    282,
    16978,
    2,
    2,
    "0xaBcC9b596420A9E9172FD5938620E265a0f9Df92",
    "0x60Ae865ee4C725cd04353b5AAb364553f56ceF82"
  ],
  "numDeployments": 17,
  "solcInputHash": "d09edfd4b38899ccd1a4e330a3d340c5",
  "bytecode": "0x6101806040523480156200001257600080fd5b5060405162004b5938038062004b598339818101604052810190620000389190620003b9565b6040518060400160405280600c81526020017f4b6f72752044616f204e465400000000000000000000000000000000000000008152506040518060400160405280600781526020017f4b4f525544414f0000000000000000000000000000000000000000000000000081525083808b89898989898582828215156080811515815250508073ffffffffffffffffffffffffffffffffffffffff1660c08173ffffffffffffffffffffffffffffffffffffffff16815250508173ffffffffffffffffffffffffffffffffffffffff1660a08173ffffffffffffffffffffffffffffffffffffffff16815250505050508460e081815250508361010081815250508261012081815250505050505050508073ffffffffffffffffffffffffffffffffffffffff166101408173ffffffffffffffffffffffffffffffffffffffff168152505050826000908051906020019062000194929190620001e2565b508160019080519060200190620001ad929190620001e2565b5050505086600b60006101000a81548160ff0219169083151502179055508561016081815250505050505050505050620004e6565b828054620001f090620004b1565b90600052602060002090601f01602090048101928262000214576000855562000260565b82601f106200022f57805160ff191683800117855562000260565b8280016001018555821562000260579182015b828111156200025f57825182559160200191906001019062000242565b5b5090506200026f919062000273565b5090565b5b808211156200028e57600081600090555060010162000274565b5090565b600080fd5b60008115159050919050565b620002ae8162000297565b8114620002ba57600080fd5b50565b600081519050620002ce81620002a3565b92915050565b6000819050919050565b620002e981620002d4565b8114620002f557600080fd5b50565b6000815190506200030981620002de565b92915050565b600073ffffffffffffffffffffffffffffffffffffffff82169050919050565b60006200033c826200030f565b9050919050565b6200034e816200032f565b81146200035a57600080fd5b50565b6000815190506200036e8162000343565b92915050565b600062000381826200032f565b9050919050565b620003938162000374565b81146200039f57600080fd5b50565b600081519050620003b38162000388565b92915050565b600080600080600080600080610100898b031215620003dd57620003dc62000292565b5b6000620003ed8b828c01620002bd565b9850506020620004008b828c01620002bd565b9750506040620004138b828c01620002f8565b9650506060620004268b828c01620002f8565b9550506080620004398b828c01620002f8565b94505060a06200044c8b828c01620002f8565b93505060c06200045f8b828c016200035d565b92505060e0620004728b828c01620003a2565b9150509295985092959890939650565b7f4e487b7100000000000000000000000000000000000000000000000000000000600052602260045260246000fd5b60006002820490506001821680620004ca57607f821691505b602082108103620004e057620004df62000482565b5b50919050565b60805160a05160c05160e051610100516101205161014051610160516145a4620005b5600039600081816109d9015281816113bf015281816113ef015261147a01526000610cb8015260008181610dd20152611f3901526000818161131a0152611dbd0152600081816111000152611bda015260008181610dfc0152818161129401528181611af901528181611b9e01528181611d210152611dec01526000818161089b0152610c01015260008181610931015281816109b301528181611025015261139601526145a46000f3fe608060405234801561001057600080fd5b50600436106101da5760003560e01c80636363141011610104578063a0bcfc7f116100a2578063c631029e11610071578063c631029e1461055a578063c87b56dd14610578578063d5abeb01146105a8578063e985e9c5146105c6576101da565b8063a0bcfc7f146104e8578063a22cb46514610504578063b02cfdc314610520578063b88d4fde1461053e576101da565b806370a08231116100de57806370a082311461045e57806384af9a921461048e57806395d89b41146104ac5780639abc8320146104ca576101da565b806363631410146103f157806366e305fd1461040f5780637072c6b114610440576101da565b806323b872dd1161017c5780634f6ccce71161014b5780634f6ccce714610343578063572b6c05146103735780635c975abb146103a35780636352211e146103c1576101da565b806323b872dd146102bd5780632f745c59146102d95780633552221a1461030957806342842e0e14610327576101da565b8063095ea7b3116101b8578063095ea7b31461025d5780631249c58b1461027957806316c38b3c1461028357806318160ddd1461029f576101da565b806301ffc9a7146101df57806306fdde031461020f578063081812fc1461022d575b600080fd5b6101f960048036038101906101f49190612d3c565b6105f6565b6040516102069190612d84565b60405180910390f35b610217610670565b6040516102249190612e38565b60405180910390f35b61024760048036038101906102429190612e90565b6106ad565b6040516102549190612efe565b60405180910390f35b61027760048036038101906102729190612f45565b610732565b005b610281610849565b005b61029d60048036038101906102989190612fb1565b610a5b565b005b6102a7610aed565b6040516102b49190612fed565b60405180910390f35b6102d760048036038101906102d29190613008565b610afa565b005b6102f360048036038101906102ee9190612f45565b610b5a565b6040516103009190612fed565b60405180910390f35b610311610bff565b60405161031e9190612efe565b60405180910390f35b610341600480360381019061033c9190613008565b610c23565b005b61035d60048036038101906103589190612e90565b610c43565b60405161036a9190612fed565b60405180910390f35b61038d6004803603810190610388919061305b565b610cb4565b60405161039a9190612d84565b60405180910390f35b6103ab610d0c565b6040516103b89190612d84565b60405180910390f35b6103db60048036038101906103d69190612e90565b610d1f565b6040516103e89190612efe565b60405180910390f35b6103f9610dd0565b6040516104069190612fed565b60405180910390f35b6104296004803603810190610424919061305b565b610df4565b604051610437929190613146565b60405180910390f35b610448611023565b6040516104559190612d84565b60405180910390f35b6104786004803603810190610473919061305b565b611047565b6040516104859190612fed565b60405180910390f35b6104966110fe565b6040516104a39190612fed565b60405180910390f35b6104b4611122565b6040516104c19190612e38565b60405180910390f35b6104d261115f565b6040516104df9190612e38565b60405180910390f35b61050260048036038101906104fd91906132ab565b6111ed565b005b61051e600480360381019061051991906132f4565b61127c565b005b610528611292565b6040516105359190613393565b60405180910390f35b6105586004803603810190610553919061344f565b6112b6565b005b610562611318565b60405161056f9190612fed565b60405180910390f35b610592600480360381019061058d9190612e90565b61133c565b60405161059f9190612e38565b60405180910390f35b6105b0611478565b6040516105bd9190612fed565b60405180910390f35b6105e060048036038101906105db91906134d2565b61149c565b6040516105ed9190612d84565b60405180910390f35b60007f780e9d63000000000000000000000000000000000000000000000000000000007bffffffffffffffffffffffffffffffffffffffffffffffffffffffff1916827bffffffffffffffffffffffffffffffffffffffffffffffffffffffff19161480610669575061066882611530565b5b9050919050565b60606040518060400160405280600881526020017f4b6f72752044616f000000000000000000000000000000000000000000000000815250905090565b60006106b882611612565b6106f7576040517f08c379a00000000000000000000000000000000000000000000000000000000081526004016106ee90613584565b60405180910390fd5b6004600083815260200190815260200160002060009054906101000a900473ffffffffffffffffffffffffffffffffffffffff169050919050565b600061073d82610d1f565b90508073ffffffffffffffffffffffffffffffffffffffff168373ffffffffffffffffffffffffffffffffffffffff16036107ad576040517f08c379a00000000000000000000000000000000000000000000000000000000081526004016107a490613616565b60405180910390fd5b8073ffffffffffffffffffffffffffffffffffffffff166107cc61167e565b73ffffffffffffffffffffffffffffffffffffffff1614806107fb57506107fa816107f561167e565b61149c565b5b61083a576040517f08c379a0000000000000000000000000000000000000000000000000000000008152600401610831906136a8565b60405180910390fd5b61084483836116b0565b505050565b600b60009054906101000a900460ff1615610899576040517f08c379a000000000000000000000000000000000000000000000000000000000815260040161089090613714565b60405180910390fd5b7f000000000000000000000000000000000000000000000000000000000000000073ffffffffffffffffffffffffffffffffffffffff163373ffffffffffffffffffffffffffffffffffffffff1614610927576040517f08c379a000000000000000000000000000000000000000000000000000000000815260040161091e90613780565b60405180910390fd5b61092f61167e565b7f0000000000000000000000000000000000000000000000000000000000000000156109a557600061096082610df4565b509050806109a3576040517f08c379a000000000000000000000000000000000000000000000000000000000815260040161099a90613812565b60405180910390fd5b505b60006109af610aed565b90507f000000000000000000000000000000000000000000000000000000000000000015610a3a577f00000000000000000000000000000000000000000000000000000000000000008110610a39576040517f08c379a0000000000000000000000000000000000000000000000000000000008152600401610a309061387e565b60405180910390fd5b5b610a57610a4561167e565b600183610a5291906138cd565b611769565b5050565b610a63611787565b73ffffffffffffffffffffffffffffffffffffffff163373ffffffffffffffffffffffffffffffffffffffff1614610ad0576040517f08c379a0000000000000000000000000000000000000000000000000000000008152600401610ac79061396f565b60405180910390fd5b80600b60006101000a81548160ff02191690831515021790555050565b6000600880549050905090565b610b0b610b0561167e565b826117b0565b610b4a576040517f08c379a0000000000000000000000000000000000000000000000000000000008152600401610b4190613a01565b60405180910390fd5b610b5583838361188e565b505050565b6000610b6583611047565b8210610ba6576040517f08c379a0000000000000000000000000000000000000000000000000000000008152600401610b9d90613a93565b60405180910390fd5b600660008473ffffffffffffffffffffffffffffffffffffffff1673ffffffffffffffffffffffffffffffffffffffff168152602001908152602001600020600083815260200190815260200160002054905092915050565b7f000000000000000000000000000000000000000000000000000000000000000081565b610c3e838383604051806020016040528060008152506112b6565b505050565b6000610c4d610aed565b8210610c8e576040517f08c379a0000000000000000000000000000000000000000000000000000000008152600401610c8590613b25565b60405180910390fd5b60088281548110610ca257610ca1613b45565b5b90600052602060002001549050919050565b60007f000000000000000000000000000000000000000000000000000000000000000073ffffffffffffffffffffffffffffffffffffffff168273ffffffffffffffffffffffffffffffffffffffff16149050919050565b600b60009054906101000a900460ff1681565b6000806002600084815260200190815260200160002060009054906101000a900473ffffffffffffffffffffffffffffffffffffffff169050600073ffffffffffffffffffffffffffffffffffffffff168173ffffffffffffffffffffffffffffffffffffffff1603610dc7576040517f08c379a0000000000000000000000000000000000000000000000000000000008152600401610dbe90613be6565b60405180910390fd5b80915050919050565b7f000000000000000000000000000000000000000000000000000000000000000081565b6000606060007f000000000000000000000000000000000000000000000000000000000000000073ffffffffffffffffffffffffffffffffffffffff166392254a62856040518263ffffffff1660e01b8152600401610e539190612efe565b602060405180830381865afa158015610e70573d6000803e3d6000fd5b505050506040513d601f19601f82011682018060405250810190610e949190613c1b565b905060008103610ed9576040517f08c379a0000000000000000000000000000000000000000000000000000000008152600401610ed090613cba565b60405180910390fd5b6000600190506000600467ffffffffffffffff811115610efc57610efb613180565b5b604051908082528060200260200182016040528015610f2a5781602001602082028036833780820191505090505b509050610f3686611af4565b610f6757600181600081518110610f5057610f4f613b45565b5b602002602001019015159081151581525050600091505b610f7086611b99565b610fa157600181600181518110610f8a57610f89613b45565b5b602002602001019015159081151581525050600091505b610faa83611d1c565b610fdb57600181600281518110610fc457610fc3613b45565b5b602002602001019015159081151581525050600091505b610fe483611de7565b61101557600181600381518110610ffe57610ffd613b45565b5b602002602001019015159081151581525050600091505b818194509450505050915091565b7f000000000000000000000000000000000000000000000000000000000000000081565b60008073ffffffffffffffffffffffffffffffffffffffff168273ffffffffffffffffffffffffffffffffffffffff16036110b7576040517f08c379a00000000000000000000000000000000000000000000000000000000081526004016110ae90613d4c565b60405180910390fd5b600360008373ffffffffffffffffffffffffffffffffffffffff1673ffffffffffffffffffffffffffffffffffffffff168152602001908152602001600020549050919050565b7f000000000000000000000000000000000000000000000000000000000000000081565b60606040518060400160405280600781526020017f4b4f525544414f00000000000000000000000000000000000000000000000000815250905090565b600a805461116c90613d9b565b80601f016020809104026020016040519081016040528092919081815260200182805461119890613d9b565b80156111e55780601f106111ba576101008083540402835291602001916111e5565b820191906000526020600020905b8154815290600101906020018083116111c857829003601f168201915b505050505081565b6111f5611787565b73ffffffffffffffffffffffffffffffffffffffff163373ffffffffffffffffffffffffffffffffffffffff1614611262576040517f08c379a00000000000000000000000000000000000000000000000000000000081526004016112599061396f565b60405180910390fd5b80600a9080519060200190611278929190612c2d565b5050565b61128e61128761167e565b8383611f65565b5050565b7f000000000000000000000000000000000000000000000000000000000000000081565b6112c76112c161167e565b836117b0565b611306576040517f08c379a00000000000000000000000000000000000000000000000000000000081526004016112fd90613a01565b60405180910390fd5b611312848484846120d1565b50505050565b7f000000000000000000000000000000000000000000000000000000000000000081565b606061134782611612565b611386576040517f08c379a000000000000000000000000000000000000000000000000000000000815260040161137d90613e3e565b60405180910390fd5b600061139061212d565b905060007f00000000000000000000000000000000000000000000000000000000000000001580156113e157507f000000000000000000000000000000000000000000000000000000000000000084115b6113eb5783611424565b60017f0000000000000000000000000000000000000000000000000000000000000000856114199190613e8d565b61142391906138cd565b5b90506000825111611444576040518060200160405280600081525061146f565b8161144e826121bf565b60405160200161145f929190613f46565b6040516020818303038152906040525b92505050919050565b7f000000000000000000000000000000000000000000000000000000000000000081565b6000600560008473ffffffffffffffffffffffffffffffffffffffff1673ffffffffffffffffffffffffffffffffffffffff16815260200190815260200160002060008373ffffffffffffffffffffffffffffffffffffffff1673ffffffffffffffffffffffffffffffffffffffff16815260200190815260200160002060009054906101000a900460ff16905092915050565b60007f80ac58cd000000000000000000000000000000000000000000000000000000007bffffffffffffffffffffffffffffffffffffffffffffffffffffffff1916827bffffffffffffffffffffffffffffffffffffffffffffffffffffffff191614806115fb57507f5b5e139f000000000000000000000000000000000000000000000000000000007bffffffffffffffffffffffffffffffffffffffffffffffffffffffff1916827bffffffffffffffffffffffffffffffffffffffffffffffffffffffff1916145b8061160b575061160a8261231f565b5b9050919050565b60008073ffffffffffffffffffffffffffffffffffffffff166002600084815260200190815260200160002060009054906101000a900473ffffffffffffffffffffffffffffffffffffffff1673ffffffffffffffffffffffffffffffffffffffff1614159050919050565b600061168933610cb4565b1561169d57601436033560601c90506116ac565b6116a5612389565b90506116ad565b5b90565b816004600083815260200190815260200160002060006101000a81548173ffffffffffffffffffffffffffffffffffffffff021916908373ffffffffffffffffffffffffffffffffffffffff160217905550808273ffffffffffffffffffffffffffffffffffffffff1661172383610d1f565b73ffffffffffffffffffffffffffffffffffffffff167f8c5be1e5ebec7d5bd14f71427d1e84f3dd0314c0f7b2291e5b200ac8c7c3b92560405160405180910390a45050565b611783828260405180602001604052806000815250612391565b5050565b60007fb53127684a568b3173ae13b9f8a6016e243e63b6e8ee1178d6a717850b5d610354905090565b60006117bb82611612565b6117fa576040517f08c379a00000000000000000000000000000000000000000000000000000000081526004016117f190613fe7565b60405180910390fd5b600061180583610d1f565b90508073ffffffffffffffffffffffffffffffffffffffff168473ffffffffffffffffffffffffffffffffffffffff16148061187457508373ffffffffffffffffffffffffffffffffffffffff1661185c846106ad565b73ffffffffffffffffffffffffffffffffffffffff16145b806118855750611884818561149c565b5b91505092915050565b8273ffffffffffffffffffffffffffffffffffffffff166118ae82610d1f565b73ffffffffffffffffffffffffffffffffffffffff1614611904576040517f08c379a00000000000000000000000000000000000000000000000000000000081526004016118fb90614079565b60405180910390fd5b600073ffffffffffffffffffffffffffffffffffffffff168273ffffffffffffffffffffffffffffffffffffffff1603611973576040517f08c379a000000000000000000000000000000000000000000000000000000000815260040161196a9061410b565b60405180910390fd5b61197e8383836123ec565b6119896000826116b0565b6001600360008573ffffffffffffffffffffffffffffffffffffffff1673ffffffffffffffffffffffffffffffffffffffff16815260200190815260200160002060008282546119d9919061412b565b925050819055506001600360008473ffffffffffffffffffffffffffffffffffffffff1673ffffffffffffffffffffffffffffffffffffffff1681526020019081526020016000206000828254611a3091906138cd565b92505081905550816002600083815260200190815260200160002060006101000a81548173ffffffffffffffffffffffffffffffffffffffff021916908373ffffffffffffffffffffffffffffffffffffffff160217905550808273ffffffffffffffffffffffffffffffffffffffff168473ffffffffffffffffffffffffffffffffffffffff167fddf252ad1be2c89b69c2b068fc378daa952ba7f163c4a11628f55a4df523b3ef60405160405180910390a4611aef83838361243a565b505050565b6000807f000000000000000000000000000000000000000000000000000000000000000073ffffffffffffffffffffffffffffffffffffffff166370a08231846040518263ffffffff1660e01b8152600401611b509190612efe565b602060405180830381865afa158015611b6d573d6000803e3d6000fd5b505050506040513d601f19601f82011682018060405250810190611b919190613c1b565b119050919050565b6000807f000000000000000000000000000000000000000000000000000000000000000073ffffffffffffffffffffffffffffffffffffffff1663a9ec65637f00000000000000000000000000000000000000000000000000000000000000006040518263ffffffff1660e01b8152600401611c159190612fed565b602060405180830381865afa158015611c32573d6000803e3d6000fd5b505050506040513d601f19601f82011682018060405250810190611c569190614174565b9050600073ffffffffffffffffffffffffffffffffffffffff168173ffffffffffffffffffffffffffffffffffffffff1603611c96576000915050611d17565b60008173ffffffffffffffffffffffffffffffffffffffff166370a08231856040518263ffffffff1660e01b8152600401611cd19190612efe565b602060405180830381865afa158015611cee573d6000803e3d6000fd5b505050506040513d601f19601f82011682018060405250810190611d129190613c1b565b119150505b919050565b6000807f000000000000000000000000000000000000000000000000000000000000000073ffffffffffffffffffffffffffffffffffffffff16633a15ff07846040518263ffffffff1660e01b8152600401611d789190612fed565b602060405180830381865afa158015611d95573d6000803e3d6000fd5b505050506040513d601f19601f82011682018060405250810190611db99190613c1b565b90507f0000000000000000000000000000000000000000000000000000000000000000811015915050919050565b6000807f000000000000000000000000000000000000000000000000000000000000000073ffffffffffffffffffffffffffffffffffffffff1663a9ec6563846040518263ffffffff1660e01b8152600401611e439190612fed565b602060405180830381865afa158015611e60573d6000803e3d6000fd5b505050506040513d601f19601f82011682018060405250810190611e849190614174565b9050600073ffffffffffffffffffffffffffffffffffffffff168173ffffffffffffffffffffffffffffffffffffffff1603611ec4576000915050611f60565b60008173ffffffffffffffffffffffffffffffffffffffff166318160ddd6040518163ffffffff1660e01b8152600401602060405180830381865afa158015611f11573d6000803e3d6000fd5b505050506040513d601f19601f82011682018060405250810190611f359190613c1b565b90507f0000000000000000000000000000000000000000000000000000000000000000811015925050505b919050565b8173ffffffffffffffffffffffffffffffffffffffff168373ffffffffffffffffffffffffffffffffffffffff1603611fd3576040517f08c379a0000000000000000000000000000000000000000000000000000000008152600401611fca906141ed565b60405180910390fd5b80600560008573ffffffffffffffffffffffffffffffffffffffff1673ffffffffffffffffffffffffffffffffffffffff16815260200190815260200160002060008473ffffffffffffffffffffffffffffffffffffffff1673ffffffffffffffffffffffffffffffffffffffff16815260200190815260200160002060006101000a81548160ff0219169083151502179055508173ffffffffffffffffffffffffffffffffffffffff168373ffffffffffffffffffffffffffffffffffffffff167f17307eab39ab6107e8899845ad3d59bd9653f200f220920489ca2b5937696c31836040516120c49190612d84565b60405180910390a3505050565b6120dc84848461188e565b6120e88484848461243f565b612127576040517f08c379a000000000000000000000000000000000000000000000000000000000815260040161211e9061427f565b60405180910390fd5b50505050565b6060600a805461213c90613d9b565b80601f016020809104026020016040519081016040528092919081815260200182805461216890613d9b565b80156121b55780601f1061218a576101008083540402835291602001916121b5565b820191906000526020600020905b81548152906001019060200180831161219857829003601f168201915b5050505050905090565b606060008203612206576040518060400160405280600181526020017f3000000000000000000000000000000000000000000000000000000000000000815250905061231a565b600082905060005b600082146122385780806122219061429f565b915050600a8261223191906142e7565b915061220e565b60008167ffffffffffffffff81111561225457612253613180565b5b6040519080825280601f01601f1916602001820160405280156122865781602001600182028036833780820191505090505b5090505b600085146123135760018261229f919061412b565b9150600a856122ae9190613e8d565b60306122ba91906138cd565b60f81b8183815181106122d0576122cf613b45565b5b60200101907effffffffffffffffffffffffffffffffffffffffffffffffffffffffffffff1916908160001a905350600a8561230c91906142e7565b945061228a565b8093505050505b919050565b60007f01ffc9a7000000000000000000000000000000000000000000000000000000007bffffffffffffffffffffffffffffffffffffffffffffffffffffffff1916827bffffffffffffffffffffffffffffffffffffffffffffffffffffffff1916149050919050565b600033905090565b61239b83836125c6565b6123a8600084848461243f565b6123e7576040517f08c379a00000000000000000000000000000000000000000000000000000000081526004016123de9061427f565b60405180910390fd5b505050565b600073ffffffffffffffffffffffffffffffffffffffff168273ffffffffffffffffffffffffffffffffffffffff161461242a576124298261279f565b5b6124358383836127ed565b505050565b505050565b60006124608473ffffffffffffffffffffffffffffffffffffffff166128ff565b156125b9578373ffffffffffffffffffffffffffffffffffffffff1663150b7a0261248961167e565b8786866040518563ffffffff1660e01b81526004016124ab949392919061436d565b6020604051808303816000875af19250505080156124e757506040513d601f19601f820116820180604052508101906124e491906143ce565b60015b612569573d8060008114612517576040519150601f19603f3d011682016040523d82523d6000602084013e61251c565b606091505b506000815103612561576040517f08c379a00000000000000000000000000000000000000000000000000000000081526004016125589061427f565b60405180910390fd5b805181602001fd5b63150b7a0260e01b7bffffffffffffffffffffffffffffffffffffffffffffffffffffffff1916817bffffffffffffffffffffffffffffffffffffffffffffffffffffffff1916149150506125be565b600190505b949350505050565b600073ffffffffffffffffffffffffffffffffffffffff168273ffffffffffffffffffffffffffffffffffffffff1603612635576040517f08c379a000000000000000000000000000000000000000000000000000000000815260040161262c90614447565b60405180910390fd5b61263e81611612565b1561267e576040517f08c379a0000000000000000000000000000000000000000000000000000000008152600401612675906144b3565b60405180910390fd5b61268a600083836123ec565b6001600360008473ffffffffffffffffffffffffffffffffffffffff1673ffffffffffffffffffffffffffffffffffffffff16815260200190815260200160002060008282546126da91906138cd565b92505081905550816002600083815260200190815260200160002060006101000a81548173ffffffffffffffffffffffffffffffffffffffff021916908373ffffffffffffffffffffffffffffffffffffffff160217905550808273ffffffffffffffffffffffffffffffffffffffff16600073ffffffffffffffffffffffffffffffffffffffff167fddf252ad1be2c89b69c2b068fc378daa952ba7f163c4a11628f55a4df523b3ef60405160405180910390a461279b6000838361243a565b5050565b60006127aa82611047565b146127ea576040517f08c379a00000000000000000000000000000000000000000000000000000000081526004016127e19061451f565b60405180910390fd5b50565b6127f8838383612922565b600073ffffffffffffffffffffffffffffffffffffffff168373ffffffffffffffffffffffffffffffffffffffff160361283a5761283581612927565b612879565b8173ffffffffffffffffffffffffffffffffffffffff168373ffffffffffffffffffffffffffffffffffffffff1614612878576128778382612970565b5b5b600073ffffffffffffffffffffffffffffffffffffffff168273ffffffffffffffffffffffffffffffffffffffff16036128bb576128b681612add565b6128fa565b8273ffffffffffffffffffffffffffffffffffffffff168273ffffffffffffffffffffffffffffffffffffffff16146128f9576128f88282612bae565b5b5b505050565b6000808273ffffffffffffffffffffffffffffffffffffffff163b119050919050565b505050565b6008805490506009600083815260200190815260200160002081905550600881908060018154018082558091505060019003906000526020600020016000909190919091505550565b6000600161297d84611047565b612987919061412b565b9050600060076000848152602001908152602001600020549050818114612a6c576000600660008673ffffffffffffffffffffffffffffffffffffffff1673ffffffffffffffffffffffffffffffffffffffff168152602001908152602001600020600084815260200190815260200160002054905080600660008773ffffffffffffffffffffffffffffffffffffffff1673ffffffffffffffffffffffffffffffffffffffff168152602001908152602001600020600084815260200190815260200160002081905550816007600083815260200190815260200160002081905550505b6007600084815260200190815260200160002060009055600660008573ffffffffffffffffffffffffffffffffffffffff1673ffffffffffffffffffffffffffffffffffffffff16815260200190815260200160002060008381526020019081526020016000206000905550505050565b60006001600880549050612af1919061412b565b9050600060096000848152602001908152602001600020549050600060088381548110612b2157612b20613b45565b5b906000526020600020015490508060088381548110612b4357612b42613b45565b5b906000526020600020018190555081600960008381526020019081526020016000208190555060096000858152602001908152602001600020600090556008805480612b9257612b9161453f565b5b6001900381819060005260206000200160009055905550505050565b6000612bb983611047565b905081600660008573ffffffffffffffffffffffffffffffffffffffff1673ffffffffffffffffffffffffffffffffffffffff168152602001908152602001600020600083815260200190815260200160002081905550806007600084815260200190815260200160002081905550505050565b828054612c3990613d9b565b90600052602060002090601f016020900481019282612c5b5760008555612ca2565b82601f10612c7457805160ff1916838001178555612ca2565b82800160010185558215612ca2579182015b82811115612ca1578251825591602001919060010190612c86565b5b509050612caf9190612cb3565b5090565b5b80821115612ccc576000816000905550600101612cb4565b5090565b6000604051905090565b600080fd5b600080fd5b60007fffffffff0000000000000000000000000000000000000000000000000000000082169050919050565b612d1981612ce4565b8114612d2457600080fd5b50565b600081359050612d3681612d10565b92915050565b600060208284031215612d5257612d51612cda565b5b6000612d6084828501612d27565b91505092915050565b60008115159050919050565b612d7e81612d69565b82525050565b6000602082019050612d996000830184612d75565b92915050565b600081519050919050565b600082825260208201905092915050565b60005b83811015612dd9578082015181840152602081019050612dbe565b83811115612de8576000848401525b50505050565b6000601f19601f8301169050919050565b6000612e0a82612d9f565b612e148185612daa565b9350612e24818560208601612dbb565b612e2d81612dee565b840191505092915050565b60006020820190508181036000830152612e528184612dff565b905092915050565b6000819050919050565b612e6d81612e5a565b8114612e7857600080fd5b50565b600081359050612e8a81612e64565b92915050565b600060208284031215612ea657612ea5612cda565b5b6000612eb484828501612e7b565b91505092915050565b600073ffffffffffffffffffffffffffffffffffffffff82169050919050565b6000612ee882612ebd565b9050919050565b612ef881612edd565b82525050565b6000602082019050612f136000830184612eef565b92915050565b612f2281612edd565b8114612f2d57600080fd5b50565b600081359050612f3f81612f19565b92915050565b60008060408385031215612f5c57612f5b612cda565b5b6000612f6a85828601612f30565b9250506020612f7b85828601612e7b565b9150509250929050565b612f8e81612d69565b8114612f9957600080fd5b50565b600081359050612fab81612f85565b92915050565b600060208284031215612fc757612fc6612cda565b5b6000612fd584828501612f9c565b91505092915050565b612fe781612e5a565b82525050565b60006020820190506130026000830184612fde565b92915050565b60008060006060848603121561302157613020612cda565b5b600061302f86828701612f30565b935050602061304086828701612f30565b925050604061305186828701612e7b565b9150509250925092565b60006020828403121561307157613070612cda565b5b600061307f84828501612f30565b91505092915050565b600081519050919050565b600082825260208201905092915050565b6000819050602082019050919050565b6130bd81612d69565b82525050565b60006130cf83836130b4565b60208301905092915050565b6000602082019050919050565b60006130f382613088565b6130fd8185613093565b9350613108836130a4565b8060005b8381101561313957815161312088826130c3565b975061312b836130db565b92505060018101905061310c565b5085935050505092915050565b600060408201905061315b6000830185612d75565b818103602083015261316d81846130e8565b90509392505050565b600080fd5b600080fd5b7f4e487b7100000000000000000000000000000000000000000000000000000000600052604160045260246000fd5b6131b882612dee565b810181811067ffffffffffffffff821117156131d7576131d6613180565b5b80604052505050565b60006131ea612cd0565b90506131f682826131af565b919050565b600067ffffffffffffffff82111561321657613215613180565b5b61321f82612dee565b9050602081019050919050565b82818337600083830152505050565b600061324e613249846131fb565b6131e0565b90508281526020810184848401111561326a5761326961317b565b5b61327584828561322c565b509392505050565b600082601f83011261329257613291613176565b5b81356132a284826020860161323b565b91505092915050565b6000602082840312156132c1576132c0612cda565b5b600082013567ffffffffffffffff8111156132df576132de612cdf565b5b6132eb8482850161327d565b91505092915050565b6000806040838503121561330b5761330a612cda565b5b600061331985828601612f30565b925050602061332a85828601612f9c565b9150509250929050565b6000819050919050565b600061335961335461334f84612ebd565b613334565b612ebd565b9050919050565b600061336b8261333e565b9050919050565b600061337d82613360565b9050919050565b61338d81613372565b82525050565b60006020820190506133a86000830184613384565b92915050565b600067ffffffffffffffff8211156133c9576133c8613180565b5b6133d282612dee565b9050602081019050919050565b60006133f26133ed846133ae565b6131e0565b90508281526020810184848401111561340e5761340d61317b565b5b61341984828561322c565b509392505050565b600082601f83011261343657613435613176565b5b81356134468482602086016133df565b91505092915050565b6000806000806080858703121561346957613468612cda565b5b600061347787828801612f30565b945050602061348887828801612f30565b935050604061349987828801612e7b565b925050606085013567ffffffffffffffff8111156134ba576134b9612cdf565b5b6134c687828801613421565b91505092959194509250565b600080604083850312156134e9576134e8612cda565b5b60006134f785828601612f30565b925050602061350885828601612f30565b9150509250929050565b7f4552433732313a20617070726f76656420717565727920666f72206e6f6e657860008201527f697374656e7420746f6b656e0000000000000000000000000000000000000000602082015250565b600061356e602c83612daa565b915061357982613512565b604082019050919050565b6000602082019050818103600083015261359d81613561565b9050919050565b7f4552433732313a20617070726f76616c20746f2063757272656e74206f776e6560008201527f7200000000000000000000000000000000000000000000000000000000000000602082015250565b6000613600602183612daa565b915061360b826135a4565b604082019050919050565b6000602082019050818103600083015261362f816135f3565b9050919050565b7f4552433732313a20617070726f76652063616c6c6572206973206e6f74206f7760008201527f6e6572206e6f7220617070726f76656420666f7220616c6c0000000000000000602082015250565b6000613692603883612daa565b915061369d82613636565b604082019050919050565b600060208201905081810360008301526136c181613685565b9050919050565b7f4b6f727544616f4e46543a205061757365640000000000000000000000000000600082015250565b60006136fe601283612daa565b9150613709826136c8565b602082019050919050565b6000602082019050818103600083015261372d816136f1565b9050919050565b7f5265737472696374696f6e733a204f6e6c792047656c61746f2072656c617900600082015250565b600061376a601f83612daa565b915061377582613734565b602082019050919050565b600060208201905081810360008301526137998161375d565b9050919050565b7f4d696e745265737472696374696f6e733a2053656e64657220646f6573206e6f60008201527f74206d6565742063726974657269610000000000000000000000000000000000602082015250565b60006137fc602f83612daa565b9150613807826137a0565b604082019050919050565b6000602082019050818103600083015261382b816137ef565b9050919050565b7f4b6f727544616f4e46543a204d617820537570706c7900000000000000000000600082015250565b6000613868601683612daa565b915061387382613832565b602082019050919050565b600060208201905081810360008301526138978161385b565b9050919050565b7f4e487b7100000000000000000000000000000000000000000000000000000000600052601160045260246000fd5b60006138d882612e5a565b91506138e383612e5a565b9250827fffffffffffffffffffffffffffffffffffffffffffffffffffffffffffffffff038211156139185761391761389e565b5b828201905092915050565b7f4e4f545f415554484f52495a4544000000000000000000000000000000000000600082015250565b6000613959600e83612daa565b915061396482613923565b602082019050919050565b600060208201905081810360008301526139888161394c565b9050919050565b7f4552433732313a207472616e736665722063616c6c6572206973206e6f74206f60008201527f776e6572206e6f7220617070726f766564000000000000000000000000000000602082015250565b60006139eb603183612daa565b91506139f68261398f565b604082019050919050565b60006020820190508181036000830152613a1a816139de565b9050919050565b7f455243373231456e756d657261626c653a206f776e657220696e646578206f7560008201527f74206f6620626f756e6473000000000000000000000000000000000000000000602082015250565b6000613a7d602b83612daa565b9150613a8882613a21565b604082019050919050565b60006020820190508181036000830152613aac81613a70565b9050919050565b7f455243373231456e756d657261626c653a20676c6f62616c20696e646578206f60008201527f7574206f6620626f756e64730000000000000000000000000000000000000000602082015250565b6000613b0f602c83612daa565b9150613b1a82613ab3565b604082019050919050565b60006020820190508181036000830152613b3e81613b02565b9050919050565b7f4e487b7100000000000000000000000000000000000000000000000000000000600052603260045260246000fd5b7f4552433732313a206f776e657220717565727920666f72206e6f6e657869737460008201527f656e7420746f6b656e0000000000000000000000000000000000000000000000602082015250565b6000613bd0602983612daa565b9150613bdb82613b74565b604082019050919050565b60006020820190508181036000830152613bff81613bc3565b9050919050565b600081519050613c1581612e64565b92915050565b600060208284031215613c3157613c30612cda565b5b6000613c3f84828501613c06565b91505092915050565b7f4d696e745265737472696374696f6e733a2057616c6c657420646f6573206e6f60008201527f7420686176652064656661756c742070726f66696c6500000000000000000000602082015250565b6000613ca4603683612daa565b9150613caf82613c48565b604082019050919050565b60006020820190508181036000830152613cd381613c97565b9050919050565b7f4552433732313a2062616c616e636520717565727920666f7220746865207a6560008201527f726f206164647265737300000000000000000000000000000000000000000000602082015250565b6000613d36602a83612daa565b9150613d4182613cda565b604082019050919050565b60006020820190508181036000830152613d6581613d29565b9050919050565b7f4e487b7100000000000000000000000000000000000000000000000000000000600052602260045260246000fd5b60006002820490506001821680613db357607f821691505b602082108103613dc657613dc5613d6c565b5b50919050565b7f4552433732314d657461646174613a2055524920717565727920666f72206e6f60008201527f6e6578697374656e7420746f6b656e0000000000000000000000000000000000602082015250565b6000613e28602f83612daa565b9150613e3382613dcc565b604082019050919050565b60006020820190508181036000830152613e5781613e1b565b9050919050565b7f4e487b7100000000000000000000000000000000000000000000000000000000600052601260045260246000fd5b6000613e9882612e5a565b9150613ea383612e5a565b925082613eb357613eb2613e5e565b5b828206905092915050565b600081905092915050565b6000613ed482612d9f565b613ede8185613ebe565b9350613eee818560208601612dbb565b80840191505092915050565b7f2e6a736f6e000000000000000000000000000000000000000000000000000000600082015250565b6000613f30600583613ebe565b9150613f3b82613efa565b600582019050919050565b6000613f528285613ec9565b9150613f5e8284613ec9565b9150613f6982613f23565b91508190509392505050565b7f4552433732313a206f70657261746f7220717565727920666f72206e6f6e657860008201527f697374656e7420746f6b656e0000000000000000000000000000000000000000602082015250565b6000613fd1602c83612daa565b9150613fdc82613f75565b604082019050919050565b6000602082019050818103600083015261400081613fc4565b9050919050565b7f4552433732313a207472616e736665722066726f6d20696e636f72726563742060008201527f6f776e6572000000000000000000000000000000000000000000000000000000602082015250565b6000614063602583612daa565b915061406e82614007565b604082019050919050565b6000602082019050818103600083015261409281614056565b9050919050565b7f4552433732313a207472616e7366657220746f20746865207a65726f2061646460008201527f7265737300000000000000000000000000000000000000000000000000000000602082015250565b60006140f5602483612daa565b915061410082614099565b604082019050919050565b60006020820190508181036000830152614124816140e8565b9050919050565b600061413682612e5a565b915061414183612e5a565b9250828210156141545761415361389e565b5b828203905092915050565b60008151905061416e81612f19565b92915050565b60006020828403121561418a57614189612cda565b5b60006141988482850161415f565b91505092915050565b7f4552433732313a20617070726f766520746f2063616c6c657200000000000000600082015250565b60006141d7601983612daa565b91506141e2826141a1565b602082019050919050565b60006020820190508181036000830152614206816141ca565b9050919050565b7f4552433732313a207472616e7366657220746f206e6f6e20455243373231526560008201527f63656976657220696d706c656d656e7465720000000000000000000000000000602082015250565b6000614269603283612daa565b91506142748261420d565b604082019050919050565b600060208201905081810360008301526142988161425c565b9050919050565b60006142aa82612e5a565b91507fffffffffffffffffffffffffffffffffffffffffffffffffffffffffffffffff82036142dc576142db61389e565b5b600182019050919050565b60006142f282612e5a565b91506142fd83612e5a565b92508261430d5761430c613e5e565b5b828204905092915050565b600081519050919050565b600082825260208201905092915050565b600061433f82614318565b6143498185614323565b9350614359818560208601612dbb565b61436281612dee565b840191505092915050565b60006080820190506143826000830187612eef565b61438f6020830186612eef565b61439c6040830185612fde565b81810360608301526143ae8184614334565b905095945050505050565b6000815190506143c881612d10565b92915050565b6000602082840312156143e4576143e3612cda565b5b60006143f2848285016143b9565b91505092915050565b7f4552433732313a206d696e7420746f20746865207a65726f2061646472657373600082015250565b6000614431602083612daa565b915061443c826143fb565b602082019050919050565b6000602082019050818103600083015261446081614424565b9050919050565b7f4552433732313a20746f6b656e20616c7265616479206d696e74656400000000600082015250565b600061449d601c83612daa565b91506144a882614467565b602082019050919050565b600060208201905081810360008301526144cc81614490565b9050919050565b7f4b6f727544616f4e46543a204f6e6520706572206163636f756e740000000000600082015250565b6000614509601b83612daa565b9150614514826144d3565b602082019050919050565b60006020820190508181036000830152614538816144fc565b9050919050565b7f4e487b7100000000000000000000000000000000000000000000000000000000600052603160045260246000fdfea264697066735822122082be447139d03e0772537e1bddb048e19625aeeab758b748cde695293858373564736f6c634300080e0033",
  "devdoc": {
    "kind": "dev",
    "methods": {
      "approve(address,uint256)": {
        "details": "See {IERC721-approve}."
      },
      "balanceOf(address)": {
        "details": "See {IERC721-balanceOf}."
      },
      "getApproved(uint256)": {
        "details": "See {IERC721-getApproved}."
      },
      "isApprovedForAll(address,address)": {
        "details": "See {IERC721-isApprovedForAll}."
      },
      "name()": {
        "details": "See {IERC721Metadata-name}."
      },
      "ownerOf(uint256)": {
        "details": "See {IERC721-ownerOf}."
      },
      "safeTransferFrom(address,address,uint256)": {
        "details": "See {IERC721-safeTransferFrom}."
      },
      "safeTransferFrom(address,address,uint256,bytes)": {
        "details": "See {IERC721-safeTransferFrom}."
      },
      "setApprovalForAll(address,bool)": {
        "details": "See {IERC721-setApprovalForAll}."
      },
      "supportsInterface(bytes4)": {
        "details": "See {IERC165-supportsInterface}."
      },
      "symbol()": {
        "details": "See {IERC721Metadata-symbol}."
      },
      "tokenByIndex(uint256)": {
        "details": "See {IERC721Enumerable-tokenByIndex}."
      },
      "tokenOfOwnerByIndex(address,uint256)": {
        "details": "See {IERC721Enumerable-tokenOfOwnerByIndex}."
      },
      "tokenURI(uint256)": {
        "details": "See {IERC721Metadata-tokenURI}."
      },
      "totalSupply()": {
        "details": "See {IERC721Enumerable-totalSupply}."
      },
      "transferFrom(address,address,uint256)": {
        "details": "See {IERC721-transferFrom}."
      }
    },
    "version": 1
  },
  "userdoc": {
    "kind": "user",
    "methods": {},
    "version": 1
  },
  "storageLayout": {
    "storage": [
      {
        "astId": 2188,
        "contract": "contracts/KoruDaoNFT.sol:KoruDaoNFT",
        "label": "_name",
        "offset": 0,
        "slot": "0",
        "type": "t_string_storage"
      },
      {
        "astId": 2190,
        "contract": "contracts/KoruDaoNFT.sol:KoruDaoNFT",
        "label": "_symbol",
        "offset": 0,
        "slot": "1",
        "type": "t_string_storage"
      },
      {
        "astId": 2194,
        "contract": "contracts/KoruDaoNFT.sol:KoruDaoNFT",
        "label": "_owners",
        "offset": 0,
        "slot": "2",
        "type": "t_mapping(t_uint256,t_address)"
      },
      {
        "astId": 2198,
        "contract": "contracts/KoruDaoNFT.sol:KoruDaoNFT",
        "label": "_balances",
        "offset": 0,
        "slot": "3",
        "type": "t_mapping(t_address,t_uint256)"
      },
      {
        "astId": 2202,
        "contract": "contracts/KoruDaoNFT.sol:KoruDaoNFT",
        "label": "_tokenApprovals",
        "offset": 0,
        "slot": "4",
        "type": "t_mapping(t_uint256,t_address)"
      },
      {
        "astId": 2208,
        "contract": "contracts/KoruDaoNFT.sol:KoruDaoNFT",
        "label": "_operatorApprovals",
        "offset": 0,
        "slot": "5",
        "type": "t_mapping(t_address,t_mapping(t_address,t_bool))"
      },
      {
        "astId": 3048,
        "contract": "contracts/KoruDaoNFT.sol:KoruDaoNFT",
        "label": "_ownedTokens",
        "offset": 0,
        "slot": "6",
        "type": "t_mapping(t_address,t_mapping(t_uint256,t_uint256))"
      },
      {
        "astId": 3052,
        "contract": "contracts/KoruDaoNFT.sol:KoruDaoNFT",
        "label": "_ownedTokensIndex",
        "offset": 0,
        "slot": "7",
        "type": "t_mapping(t_uint256,t_uint256)"
      },
      {
        "astId": 3055,
        "contract": "contracts/KoruDaoNFT.sol:KoruDaoNFT",
        "label": "_allTokens",
        "offset": 0,
        "slot": "8",
        "type": "t_array(t_uint256)dyn_storage"
      },
      {
        "astId": 3059,
        "contract": "contracts/KoruDaoNFT.sol:KoruDaoNFT",
        "label": "_allTokensIndex",
        "offset": 0,
        "slot": "9",
        "type": "t_mapping(t_uint256,t_uint256)"
      },
      {
        "astId": 853,
        "contract": "contracts/KoruDaoNFT.sol:KoruDaoNFT",
        "label": "baseUri",
        "offset": 0,
        "slot": "10",
        "type": "t_string_storage"
      },
      {
        "astId": 855,
        "contract": "contracts/KoruDaoNFT.sol:KoruDaoNFT",
        "label": "paused",
        "offset": 0,
        "slot": "11",
        "type": "t_bool"
      }
    ],
    "types": {
      "t_address": {
        "encoding": "inplace",
        "label": "address",
        "numberOfBytes": "20"
      },
      "t_array(t_uint256)dyn_storage": {
        "base": "t_uint256",
        "encoding": "dynamic_array",
        "label": "uint256[]",
        "numberOfBytes": "32"
      },
      "t_bool": {
        "encoding": "inplace",
        "label": "bool",
        "numberOfBytes": "1"
      },
      "t_mapping(t_address,t_bool)": {
        "encoding": "mapping",
        "key": "t_address",
        "label": "mapping(address => bool)",
        "numberOfBytes": "32",
        "value": "t_bool"
      },
      "t_mapping(t_address,t_mapping(t_address,t_bool))": {
        "encoding": "mapping",
        "key": "t_address",
        "label": "mapping(address => mapping(address => bool))",
        "numberOfBytes": "32",
        "value": "t_mapping(t_address,t_bool)"
      },
      "t_mapping(t_address,t_mapping(t_uint256,t_uint256))": {
        "encoding": "mapping",
        "key": "t_address",
        "label": "mapping(address => mapping(uint256 => uint256))",
        "numberOfBytes": "32",
        "value": "t_mapping(t_uint256,t_uint256)"
      },
      "t_mapping(t_address,t_uint256)": {
        "encoding": "mapping",
        "key": "t_address",
        "label": "mapping(address => uint256)",
        "numberOfBytes": "32",
        "value": "t_uint256"
      },
      "t_mapping(t_uint256,t_address)": {
        "encoding": "mapping",
        "key": "t_uint256",
        "label": "mapping(uint256 => address)",
        "numberOfBytes": "32",
        "value": "t_address"
      },
      "t_mapping(t_uint256,t_uint256)": {
        "encoding": "mapping",
        "key": "t_uint256",
        "label": "mapping(uint256 => uint256)",
        "numberOfBytes": "32",
        "value": "t_uint256"
      },
      "t_string_storage": {
        "encoding": "bytes",
        "label": "string",
        "numberOfBytes": "32"
      },
      "t_uint256": {
        "encoding": "inplace",
        "label": "uint256",
        "numberOfBytes": "32"
      }
    }
  }
}