{
  "address": "0x44b2006aD21491070e9820b650525f9edba7f440",
  "abi": [
    {
      "inputs": [
        {
          "internalType": "bool",
          "name": "_restricted",
          "type": "bool"
        },
        {
          "internalType": "bool",
          "name": "_paused",
          "type": "bool"
        },
        {
          "internalType": "uint256",
          "name": "_maxSupply",
          "type": "uint256"
        },
        {
          "internalType": "uint256",
          "name": "_koruDaoProfileId",
          "type": "uint256"
        },
        {
          "internalType": "uint256",
          "name": "_minPubCount",
          "type": "uint256"
        },
        {
          "internalType": "uint256",
          "name": "_minFollowers",
          "type": "uint256"
        },
        {
          "internalType": "address",
          "name": "_gelatoRelay",
          "type": "address"
        },
        {
          "internalType": "contract ILensHub",
          "name": "_lensHub",
          "type": "address"
        }
      ],
      "stateMutability": "nonpayable",
      "type": "constructor"
    },
    {
      "anonymous": false,
      "inputs": [
        {
          "indexed": true,
          "internalType": "address",
          "name": "owner",
          "type": "address"
        },
        {
          "indexed": true,
          "internalType": "address",
          "name": "approved",
          "type": "address"
        },
        {
          "indexed": true,
          "internalType": "uint256",
          "name": "tokenId",
          "type": "uint256"
        }
      ],
      "name": "Approval",
      "type": "event"
    },
    {
      "anonymous": false,
      "inputs": [
        {
          "indexed": true,
          "internalType": "address",
          "name": "owner",
          "type": "address"
        },
        {
          "indexed": true,
          "internalType": "address",
          "name": "operator",
          "type": "address"
        },
        {
          "indexed": false,
          "internalType": "bool",
          "name": "approved",
          "type": "bool"
        }
      ],
      "name": "ApprovalForAll",
      "type": "event"
    },
    {
      "anonymous": false,
      "inputs": [
        {
          "indexed": true,
          "internalType": "address",
          "name": "from",
          "type": "address"
        },
        {
          "indexed": true,
          "internalType": "address",
          "name": "to",
          "type": "address"
        },
        {
          "indexed": true,
          "internalType": "uint256",
          "name": "tokenId",
          "type": "uint256"
        }
      ],
      "name": "Transfer",
      "type": "event"
    },
    {
      "inputs": [
        {
          "internalType": "address",
          "name": "to",
          "type": "address"
        },
        {
          "internalType": "uint256",
          "name": "tokenId",
          "type": "uint256"
        }
      ],
      "name": "approve",
      "outputs": [],
      "stateMutability": "nonpayable",
      "type": "function"
    },
    {
      "inputs": [
        {
          "internalType": "address",
          "name": "owner",
          "type": "address"
        }
      ],
      "name": "balanceOf",
      "outputs": [
        {
          "internalType": "uint256",
          "name": "",
          "type": "uint256"
        }
      ],
      "stateMutability": "view",
      "type": "function"
    },
    {
      "inputs": [],
      "name": "baseUri",
      "outputs": [
        {
          "internalType": "string",
          "name": "",
          "type": "string"
        }
      ],
      "stateMutability": "view",
      "type": "function"
    },
    {
      "inputs": [],
      "name": "gelatoRelay",
      "outputs": [
        {
          "internalType": "address",
          "name": "",
          "type": "address"
        }
      ],
      "stateMutability": "view",
      "type": "function"
    },
    {
      "inputs": [
        {
          "internalType": "uint256",
          "name": "tokenId",
          "type": "uint256"
        }
      ],
      "name": "getApproved",
      "outputs": [
        {
          "internalType": "address",
          "name": "",
          "type": "address"
        }
      ],
      "stateMutability": "view",
      "type": "function"
    },
    {
      "inputs": [
        {
          "internalType": "address",
          "name": "owner",
          "type": "address"
        },
        {
          "internalType": "address",
          "name": "operator",
          "type": "address"
        }
      ],
      "name": "isApprovedForAll",
      "outputs": [
        {
          "internalType": "bool",
          "name": "",
          "type": "bool"
        }
      ],
      "stateMutability": "view",
      "type": "function"
    },
    {
      "inputs": [
        {
          "internalType": "address",
          "name": "_wallet",
          "type": "address"
        }
      ],
      "name": "isEligible",
      "outputs": [
        {
          "internalType": "bool",
          "name": "",
          "type": "bool"
        },
        {
          "internalType": "bool[]",
          "name": "",
          "type": "bool[]"
        }
      ],
      "stateMutability": "view",
      "type": "function"
    },
    {
      "inputs": [
        {
          "internalType": "address",
          "name": "forwarder",
          "type": "address"
        }
      ],
      "name": "isTrustedForwarder",
      "outputs": [
        {
          "internalType": "bool",
          "name": "",
          "type": "bool"
        }
      ],
      "stateMutability": "view",
      "type": "function"
    },
    {
      "inputs": [],
      "name": "koruDaoProfileId",
      "outputs": [
        {
          "internalType": "uint256",
          "name": "",
          "type": "uint256"
        }
      ],
      "stateMutability": "view",
      "type": "function"
    },
    {
      "inputs": [],
      "name": "lensHub",
      "outputs": [
        {
          "internalType": "contract ILensHub",
          "name": "",
          "type": "address"
        }
      ],
      "stateMutability": "view",
      "type": "function"
    },
    {
      "inputs": [],
      "name": "maxSupply",
      "outputs": [
        {
          "internalType": "uint256",
          "name": "",
          "type": "uint256"
        }
      ],
      "stateMutability": "view",
      "type": "function"
    },
    {
      "inputs": [],
      "name": "minFollowers",
      "outputs": [
        {
          "internalType": "uint256",
          "name": "",
          "type": "uint256"
        }
      ],
      "stateMutability": "view",
      "type": "function"
    },
    {
      "inputs": [],
      "name": "minPubCount",
      "outputs": [
        {
          "internalType": "uint256",
          "name": "",
          "type": "uint256"
        }
      ],
      "stateMutability": "view",
      "type": "function"
    },
    {
      "inputs": [],
      "name": "mint",
      "outputs": [],
      "stateMutability": "nonpayable",
      "type": "function"
    },
    {
      "inputs": [],
      "name": "name",
      "outputs": [
        {
          "internalType": "string",
          "name": "",
          "type": "string"
        }
      ],
      "stateMutability": "pure",
      "type": "function"
    },
    {
      "inputs": [
        {
          "internalType": "uint256",
          "name": "tokenId",
          "type": "uint256"
        }
      ],
      "name": "ownerOf",
      "outputs": [
        {
          "internalType": "address",
          "name": "",
          "type": "address"
        }
      ],
      "stateMutability": "view",
      "type": "function"
    },
    {
      "inputs": [],
      "name": "paused",
      "outputs": [
        {
          "internalType": "bool",
          "name": "",
          "type": "bool"
        }
      ],
      "stateMutability": "view",
      "type": "function"
    },
    {
      "inputs": [],
      "name": "restricted",
      "outputs": [
        {
          "internalType": "bool",
          "name": "",
          "type": "bool"
        }
      ],
      "stateMutability": "view",
      "type": "function"
    },
    {
      "inputs": [
        {
          "internalType": "address",
          "name": "from",
          "type": "address"
        },
        {
          "internalType": "address",
          "name": "to",
          "type": "address"
        },
        {
          "internalType": "uint256",
          "name": "tokenId",
          "type": "uint256"
        }
      ],
      "name": "safeTransferFrom",
      "outputs": [],
      "stateMutability": "nonpayable",
      "type": "function"
    },
    {
      "inputs": [
        {
          "internalType": "address",
          "name": "from",
          "type": "address"
        },
        {
          "internalType": "address",
          "name": "to",
          "type": "address"
        },
        {
          "internalType": "uint256",
          "name": "tokenId",
          "type": "uint256"
        },
        {
          "internalType": "bytes",
          "name": "_data",
          "type": "bytes"
        }
      ],
      "name": "safeTransferFrom",
      "outputs": [],
      "stateMutability": "nonpayable",
      "type": "function"
    },
    {
      "inputs": [
        {
          "internalType": "address",
          "name": "operator",
          "type": "address"
        },
        {
          "internalType": "bool",
          "name": "approved",
          "type": "bool"
        }
      ],
      "name": "setApprovalForAll",
      "outputs": [],
      "stateMutability": "nonpayable",
      "type": "function"
    },
    {
      "inputs": [
        {
          "internalType": "string",
          "name": "_baseUri",
          "type": "string"
        }
      ],
      "name": "setBaseUri",
      "outputs": [],
      "stateMutability": "nonpayable",
      "type": "function"
    },
    {
      "inputs": [
        {
          "internalType": "bool",
          "name": "_paused",
          "type": "bool"
        }
      ],
      "name": "setPaused",
      "outputs": [],
      "stateMutability": "nonpayable",
      "type": "function"
    },
    {
      "inputs": [
        {
          "internalType": "bytes4",
          "name": "interfaceId",
          "type": "bytes4"
        }
      ],
      "name": "supportsInterface",
      "outputs": [
        {
          "internalType": "bool",
          "name": "",
          "type": "bool"
        }
      ],
      "stateMutability": "view",
      "type": "function"
    },
    {
      "inputs": [],
      "name": "symbol",
      "outputs": [
        {
          "internalType": "string",
          "name": "",
          "type": "string"
        }
      ],
      "stateMutability": "pure",
      "type": "function"
    },
    {
      "inputs": [
        {
          "internalType": "uint256",
          "name": "index",
          "type": "uint256"
        }
      ],
      "name": "tokenByIndex",
      "outputs": [
        {
          "internalType": "uint256",
          "name": "",
          "type": "uint256"
        }
      ],
      "stateMutability": "view",
      "type": "function"
    },
    {
      "inputs": [
        {
          "internalType": "address",
          "name": "owner",
          "type": "address"
        },
        {
          "internalType": "uint256",
          "name": "index",
          "type": "uint256"
        }
      ],
      "name": "tokenOfOwnerByIndex",
      "outputs": [
        {
          "internalType": "uint256",
          "name": "",
          "type": "uint256"
        }
      ],
      "stateMutability": "view",
      "type": "function"
    },
    {
      "inputs": [
        {
          "internalType": "uint256",
          "name": "tokenId",
          "type": "uint256"
        }
      ],
      "name": "tokenURI",
      "outputs": [
        {
          "internalType": "string",
          "name": "",
          "type": "string"
        }
      ],
      "stateMutability": "view",
      "type": "function"
    },
    {
      "inputs": [],
      "name": "totalSupply",
      "outputs": [
        {
          "internalType": "uint256",
          "name": "",
          "type": "uint256"
        }
      ],
      "stateMutability": "view",
      "type": "function"
    },
    {
      "inputs": [
        {
          "internalType": "address",
          "name": "from",
          "type": "address"
        },
        {
          "internalType": "address",
          "name": "to",
          "type": "address"
        },
        {
          "internalType": "uint256",
          "name": "tokenId",
          "type": "uint256"
        }
      ],
      "name": "transferFrom",
      "outputs": [],
      "stateMutability": "nonpayable",
      "type": "function"
    }
  ],
  "transactionHash": "0x53191a089ccdb112983f47b0bc1f9f1fcfc0c07d43497bbc911ad5f0baa53735",
  "args": [
    false,
    false,
    282,
    16978,
    1,
    1,
    "0xaBcC9b596420A9E9172FD5938620E265a0f9Df92",
    "0x60Ae865ee4C725cd04353b5AAb364553f56ceF82"
  ],
  "numDeployments": 14,
  "solcInputHash": "14ed90a1c2830f5082fa04437d9ba864",
  "bytecode": "0x6101806040523480156200001257600080fd5b5060405162004a0638038062004a068339818101604052810190620000389190620003b9565b6040518060400160405280600c81526020017f4b6f72752044616f204e465400000000000000000000000000000000000000008152506040518060400160405280600781526020017f4b4f525544414f0000000000000000000000000000000000000000000000000081525083808b89898989898582828215156080811515815250508073ffffffffffffffffffffffffffffffffffffffff1660c08173ffffffffffffffffffffffffffffffffffffffff16815250508173ffffffffffffffffffffffffffffffffffffffff1660a08173ffffffffffffffffffffffffffffffffffffffff16815250505050508460e081815250508361010081815250508261012081815250505050505050508073ffffffffffffffffffffffffffffffffffffffff166101408173ffffffffffffffffffffffffffffffffffffffff168152505050826000908051906020019062000194929190620001e2565b508160019080519060200190620001ad929190620001e2565b5050505086600b60006101000a81548160ff0219169083151502179055508561016081815250505050505050505050620004e6565b828054620001f090620004b1565b90600052602060002090601f01602090048101928262000214576000855562000260565b82601f106200022f57805160ff191683800117855562000260565b8280016001018555821562000260579182015b828111156200025f57825182559160200191906001019062000242565b5b5090506200026f919062000273565b5090565b5b808211156200028e57600081600090555060010162000274565b5090565b600080fd5b60008115159050919050565b620002ae8162000297565b8114620002ba57600080fd5b50565b600081519050620002ce81620002a3565b92915050565b6000819050919050565b620002e981620002d4565b8114620002f557600080fd5b50565b6000815190506200030981620002de565b92915050565b600073ffffffffffffffffffffffffffffffffffffffff82169050919050565b60006200033c826200030f565b9050919050565b6200034e816200032f565b81146200035a57600080fd5b50565b6000815190506200036e8162000343565b92915050565b600062000381826200032f565b9050919050565b620003938162000374565b81146200039f57600080fd5b50565b600081519050620003b38162000388565b92915050565b600080600080600080600080610100898b031215620003dd57620003dc62000292565b5b6000620003ed8b828c01620002bd565b9850506020620004008b828c01620002bd565b9750506040620004138b828c01620002f8565b9650506060620004268b828c01620002f8565b9550506080620004398b828c01620002f8565b94505060a06200044c8b828c01620002f8565b93505060c06200045f8b828c016200035d565b92505060e0620004728b828c01620003a2565b9150509295985092959890939650565b7f4e487b7100000000000000000000000000000000000000000000000000000000600052602260045260246000fd5b60006002820490506001821680620004ca57607f821691505b602082108103620004e057620004df62000482565b5b50919050565b60805160a05160c05160e05161010051610120516101405161016051614451620005b5600039600081816109d90152818161137c015281816113ac015261143701526000610cb8015260008181610dd20152611e790152600081816112d70152611d3b0152600081816110bd0152611b97015260008181610dfc0152818161125101528181611ab601528181611b5b01528181611c9f0152611d6a01526000818161089b0152610c01015260008181610931015281816109b301528181610fe2015261135301526144516000f3fe608060405234801561001057600080fd5b50600436106101da5760003560e01c80636363141011610104578063a0bcfc7f116100a2578063c631029e11610071578063c631029e1461055a578063c87b56dd14610578578063d5abeb01146105a8578063e985e9c5146105c6576101da565b8063a0bcfc7f146104e8578063a22cb46514610504578063b02cfdc314610520578063b88d4fde1461053e576101da565b806370a08231116100de57806370a082311461045e57806384af9a921461048e57806395d89b41146104ac5780639abc8320146104ca576101da565b806363631410146103f157806366e305fd1461040f5780637072c6b114610440576101da565b806323b872dd1161017c5780634f6ccce71161014b5780634f6ccce714610343578063572b6c05146103735780635c975abb146103a35780636352211e146103c1576101da565b806323b872dd146102bd5780632f745c59146102d95780633552221a1461030957806342842e0e14610327576101da565b8063095ea7b3116101b8578063095ea7b31461025d5780631249c58b1461027957806316c38b3c1461028357806318160ddd1461029f576101da565b806301ffc9a7146101df57806306fdde031461020f578063081812fc1461022d575b600080fd5b6101f960048036038101906101f49190612c7b565b6105f6565b6040516102069190612cc3565b60405180910390f35b610217610670565b6040516102249190612d77565b60405180910390f35b61024760048036038101906102429190612dcf565b6106ad565b6040516102549190612e3d565b60405180910390f35b61027760048036038101906102729190612e84565b610732565b005b610281610849565b005b61029d60048036038101906102989190612ef0565b610a5b565b005b6102a7610aed565b6040516102b49190612f2c565b60405180910390f35b6102d760048036038101906102d29190612f47565b610afa565b005b6102f360048036038101906102ee9190612e84565b610b5a565b6040516103009190612f2c565b60405180910390f35b610311610bff565b60405161031e9190612e3d565b60405180910390f35b610341600480360381019061033c9190612f47565b610c23565b005b61035d60048036038101906103589190612dcf565b610c43565b60405161036a9190612f2c565b60405180910390f35b61038d60048036038101906103889190612f9a565b610cb4565b60405161039a9190612cc3565b60405180910390f35b6103ab610d0c565b6040516103b89190612cc3565b60405180910390f35b6103db60048036038101906103d69190612dcf565b610d1f565b6040516103e89190612e3d565b60405180910390f35b6103f9610dd0565b6040516104069190612f2c565b60405180910390f35b61042960048036038101906104249190612f9a565b610df4565b604051610437929190613085565b60405180910390f35b610448610fe0565b6040516104559190612cc3565b60405180910390f35b61047860048036038101906104739190612f9a565b611004565b6040516104859190612f2c565b60405180910390f35b6104966110bb565b6040516104a39190612f2c565b60405180910390f35b6104b46110df565b6040516104c19190612d77565b60405180910390f35b6104d261111c565b6040516104df9190612d77565b60405180910390f35b61050260048036038101906104fd91906131ea565b6111aa565b005b61051e60048036038101906105199190613233565b611239565b005b61052861124f565b60405161053591906132d2565b60405180910390f35b6105586004803603810190610553919061338e565b611273565b005b6105626112d5565b60405161056f9190612f2c565b60405180910390f35b610592600480360381019061058d9190612dcf565b6112f9565b60405161059f9190612d77565b60405180910390f35b6105b0611435565b6040516105bd9190612f2c565b60405180910390f35b6105e060048036038101906105db9190613411565b611459565b6040516105ed9190612cc3565b60405180910390f35b60007f780e9d63000000000000000000000000000000000000000000000000000000007bffffffffffffffffffffffffffffffffffffffffffffffffffffffff1916827bffffffffffffffffffffffffffffffffffffffffffffffffffffffff191614806106695750610668826114ed565b5b9050919050565b60606040518060400160405280600881526020017f4b6f72752044616f000000000000000000000000000000000000000000000000815250905090565b60006106b8826115cf565b6106f7576040517f08c379a00000000000000000000000000000000000000000000000000000000081526004016106ee906134c3565b60405180910390fd5b6004600083815260200190815260200160002060009054906101000a900473ffffffffffffffffffffffffffffffffffffffff169050919050565b600061073d82610d1f565b90508073ffffffffffffffffffffffffffffffffffffffff168373ffffffffffffffffffffffffffffffffffffffff16036107ad576040517f08c379a00000000000000000000000000000000000000000000000000000000081526004016107a490613555565b60405180910390fd5b8073ffffffffffffffffffffffffffffffffffffffff166107cc61163b565b73ffffffffffffffffffffffffffffffffffffffff1614806107fb57506107fa816107f561163b565b611459565b5b61083a576040517f08c379a0000000000000000000000000000000000000000000000000000000008152600401610831906135e7565b60405180910390fd5b610844838361166d565b505050565b600b60009054906101000a900460ff1615610899576040517f08c379a000000000000000000000000000000000000000000000000000000000815260040161089090613653565b60405180910390fd5b7f000000000000000000000000000000000000000000000000000000000000000073ffffffffffffffffffffffffffffffffffffffff163373ffffffffffffffffffffffffffffffffffffffff1614610927576040517f08c379a000000000000000000000000000000000000000000000000000000000815260040161091e906136bf565b60405180910390fd5b61092f61163b565b7f0000000000000000000000000000000000000000000000000000000000000000156109a557600061096082610df4565b509050806109a3576040517f08c379a000000000000000000000000000000000000000000000000000000000815260040161099a90613751565b60405180910390fd5b505b60006109af610aed565b90507f000000000000000000000000000000000000000000000000000000000000000015610a3a577f00000000000000000000000000000000000000000000000000000000000000008110610a39576040517f08c379a0000000000000000000000000000000000000000000000000000000008152600401610a30906137bd565b60405180910390fd5b5b610a57610a4561163b565b600183610a52919061380c565b611726565b5050565b610a63611744565b73ffffffffffffffffffffffffffffffffffffffff163373ffffffffffffffffffffffffffffffffffffffff1614610ad0576040517f08c379a0000000000000000000000000000000000000000000000000000000008152600401610ac7906138ae565b60405180910390fd5b80600b60006101000a81548160ff02191690831515021790555050565b6000600880549050905090565b610b0b610b0561163b565b8261176d565b610b4a576040517f08c379a0000000000000000000000000000000000000000000000000000000008152600401610b4190613940565b60405180910390fd5b610b5583838361184b565b505050565b6000610b6583611004565b8210610ba6576040517f08c379a0000000000000000000000000000000000000000000000000000000008152600401610b9d906139d2565b60405180910390fd5b600660008473ffffffffffffffffffffffffffffffffffffffff1673ffffffffffffffffffffffffffffffffffffffff168152602001908152602001600020600083815260200190815260200160002054905092915050565b7f000000000000000000000000000000000000000000000000000000000000000081565b610c3e83838360405180602001604052806000815250611273565b505050565b6000610c4d610aed565b8210610c8e576040517f08c379a0000000000000000000000000000000000000000000000000000000008152600401610c8590613a64565b60405180910390fd5b60088281548110610ca257610ca1613a84565b5b90600052602060002001549050919050565b60007f000000000000000000000000000000000000000000000000000000000000000073ffffffffffffffffffffffffffffffffffffffff168273ffffffffffffffffffffffffffffffffffffffff16149050919050565b600b60009054906101000a900460ff1681565b6000806002600084815260200190815260200160002060009054906101000a900473ffffffffffffffffffffffffffffffffffffffff169050600073ffffffffffffffffffffffffffffffffffffffff168173ffffffffffffffffffffffffffffffffffffffff1603610dc7576040517f08c379a0000000000000000000000000000000000000000000000000000000008152600401610dbe90613b25565b60405180910390fd5b80915050919050565b7f000000000000000000000000000000000000000000000000000000000000000081565b6000606060007f000000000000000000000000000000000000000000000000000000000000000073ffffffffffffffffffffffffffffffffffffffff166392254a62856040518263ffffffff1660e01b8152600401610e539190612e3d565b602060405180830381865afa158015610e70573d6000803e3d6000fd5b505050506040513d601f19601f82011682018060405250810190610e949190613b5a565b90506000600190506000600467ffffffffffffffff811115610eb957610eb86130bf565b5b604051908082528060200260200182016040528015610ee75781602001602082028036833780820191505090505b509050610ef386611ab1565b610f2457600181600081518110610f0d57610f0c613a84565b5b602002602001019015159081151581525050600091505b610f2d86611b56565b610f5e57600181600181518110610f4757610f46613a84565b5b602002602001019015159081151581525050600091505b610f6783611c9a565b610f9857600181600281518110610f8157610f80613a84565b5b602002602001019015159081151581525050600091505b610fa183611d65565b610fd257600181600381518110610fbb57610fba613a84565b5b602002602001019015159081151581525050600091505b818194509450505050915091565b7f000000000000000000000000000000000000000000000000000000000000000081565b60008073ffffffffffffffffffffffffffffffffffffffff168273ffffffffffffffffffffffffffffffffffffffff1603611074576040517f08c379a000000000000000000000000000000000000000000000000000000000815260040161106b90613bf9565b60405180910390fd5b600360008373ffffffffffffffffffffffffffffffffffffffff1673ffffffffffffffffffffffffffffffffffffffff168152602001908152602001600020549050919050565b7f000000000000000000000000000000000000000000000000000000000000000081565b60606040518060400160405280600781526020017f4b4f525544414f00000000000000000000000000000000000000000000000000815250905090565b600a805461112990613c48565b80601f016020809104026020016040519081016040528092919081815260200182805461115590613c48565b80156111a25780601f10611177576101008083540402835291602001916111a2565b820191906000526020600020905b81548152906001019060200180831161118557829003601f168201915b505050505081565b6111b2611744565b73ffffffffffffffffffffffffffffffffffffffff163373ffffffffffffffffffffffffffffffffffffffff161461121f576040517f08c379a0000000000000000000000000000000000000000000000000000000008152600401611216906138ae565b60405180910390fd5b80600a9080519060200190611235929190612b6c565b5050565b61124b61124461163b565b8383611ea4565b5050565b7f000000000000000000000000000000000000000000000000000000000000000081565b61128461127e61163b565b8361176d565b6112c3576040517f08c379a00000000000000000000000000000000000000000000000000000000081526004016112ba90613940565b60405180910390fd5b6112cf84848484612010565b50505050565b7f000000000000000000000000000000000000000000000000000000000000000081565b6060611304826115cf565b611343576040517f08c379a000000000000000000000000000000000000000000000000000000000815260040161133a90613ceb565b60405180910390fd5b600061134d61206c565b905060007f000000000000000000000000000000000000000000000000000000000000000015801561139e57507f000000000000000000000000000000000000000000000000000000000000000084115b6113a857836113e1565b60017f0000000000000000000000000000000000000000000000000000000000000000856113d69190613d3a565b6113e0919061380c565b5b90506000825111611401576040518060200160405280600081525061142c565b8161140b826120fe565b60405160200161141c929190613df3565b6040516020818303038152906040525b92505050919050565b7f000000000000000000000000000000000000000000000000000000000000000081565b6000600560008473ffffffffffffffffffffffffffffffffffffffff1673ffffffffffffffffffffffffffffffffffffffff16815260200190815260200160002060008373ffffffffffffffffffffffffffffffffffffffff1673ffffffffffffffffffffffffffffffffffffffff16815260200190815260200160002060009054906101000a900460ff16905092915050565b60007f80ac58cd000000000000000000000000000000000000000000000000000000007bffffffffffffffffffffffffffffffffffffffffffffffffffffffff1916827bffffffffffffffffffffffffffffffffffffffffffffffffffffffff191614806115b857507f5b5e139f000000000000000000000000000000000000000000000000000000007bffffffffffffffffffffffffffffffffffffffffffffffffffffffff1916827bffffffffffffffffffffffffffffffffffffffffffffffffffffffff1916145b806115c857506115c78261225e565b5b9050919050565b60008073ffffffffffffffffffffffffffffffffffffffff166002600084815260200190815260200160002060009054906101000a900473ffffffffffffffffffffffffffffffffffffffff1673ffffffffffffffffffffffffffffffffffffffff1614159050919050565b600061164633610cb4565b1561165a57601436033560601c9050611669565b6116626122c8565b905061166a565b5b90565b816004600083815260200190815260200160002060006101000a81548173ffffffffffffffffffffffffffffffffffffffff021916908373ffffffffffffffffffffffffffffffffffffffff160217905550808273ffffffffffffffffffffffffffffffffffffffff166116e083610d1f565b73ffffffffffffffffffffffffffffffffffffffff167f8c5be1e5ebec7d5bd14f71427d1e84f3dd0314c0f7b2291e5b200ac8c7c3b92560405160405180910390a45050565b6117408282604051806020016040528060008152506122d0565b5050565b60007fb53127684a568b3173ae13b9f8a6016e243e63b6e8ee1178d6a717850b5d610354905090565b6000611778826115cf565b6117b7576040517f08c379a00000000000000000000000000000000000000000000000000000000081526004016117ae90613e94565b60405180910390fd5b60006117c283610d1f565b90508073ffffffffffffffffffffffffffffffffffffffff168473ffffffffffffffffffffffffffffffffffffffff16148061183157508373ffffffffffffffffffffffffffffffffffffffff16611819846106ad565b73ffffffffffffffffffffffffffffffffffffffff16145b8061184257506118418185611459565b5b91505092915050565b8273ffffffffffffffffffffffffffffffffffffffff1661186b82610d1f565b73ffffffffffffffffffffffffffffffffffffffff16146118c1576040517f08c379a00000000000000000000000000000000000000000000000000000000081526004016118b890613f26565b60405180910390fd5b600073ffffffffffffffffffffffffffffffffffffffff168273ffffffffffffffffffffffffffffffffffffffff1603611930576040517f08c379a000000000000000000000000000000000000000000000000000000000815260040161192790613fb8565b60405180910390fd5b61193b83838361232b565b61194660008261166d565b6001600360008573ffffffffffffffffffffffffffffffffffffffff1673ffffffffffffffffffffffffffffffffffffffff16815260200190815260200160002060008282546119969190613fd8565b925050819055506001600360008473ffffffffffffffffffffffffffffffffffffffff1673ffffffffffffffffffffffffffffffffffffffff16815260200190815260200160002060008282546119ed919061380c565b92505081905550816002600083815260200190815260200160002060006101000a81548173ffffffffffffffffffffffffffffffffffffffff021916908373ffffffffffffffffffffffffffffffffffffffff160217905550808273ffffffffffffffffffffffffffffffffffffffff168473ffffffffffffffffffffffffffffffffffffffff167fddf252ad1be2c89b69c2b068fc378daa952ba7f163c4a11628f55a4df523b3ef60405160405180910390a4611aac838383612379565b505050565b6000807f000000000000000000000000000000000000000000000000000000000000000073ffffffffffffffffffffffffffffffffffffffff166370a08231846040518263ffffffff1660e01b8152600401611b0d9190612e3d565b602060405180830381865afa158015611b2a573d6000803e3d6000fd5b505050506040513d601f19601f82011682018060405250810190611b4e9190613b5a565b119050919050565b6000807f000000000000000000000000000000000000000000000000000000000000000073ffffffffffffffffffffffffffffffffffffffff1663a9ec65637f00000000000000000000000000000000000000000000000000000000000000006040518263ffffffff1660e01b8152600401611bd29190612f2c565b602060405180830381865afa158015611bef573d6000803e3d6000fd5b505050506040513d601f19601f82011682018060405250810190611c139190614021565b905060008173ffffffffffffffffffffffffffffffffffffffff166370a08231856040518263ffffffff1660e01b8152600401611c509190612e3d565b602060405180830381865afa158015611c6d573d6000803e3d6000fd5b505050506040513d601f19601f82011682018060405250810190611c919190613b5a565b11915050919050565b6000807f000000000000000000000000000000000000000000000000000000000000000073ffffffffffffffffffffffffffffffffffffffff16633a15ff07846040518263ffffffff1660e01b8152600401611cf69190612f2c565b602060405180830381865afa158015611d13573d6000803e3d6000fd5b505050506040513d601f19601f82011682018060405250810190611d379190613b5a565b90507f0000000000000000000000000000000000000000000000000000000000000000811015915050919050565b6000807f000000000000000000000000000000000000000000000000000000000000000073ffffffffffffffffffffffffffffffffffffffff1663a9ec6563846040518263ffffffff1660e01b8152600401611dc19190612f2c565b602060405180830381865afa158015611dde573d6000803e3d6000fd5b505050506040513d601f19601f82011682018060405250810190611e029190614021565b905060008173ffffffffffffffffffffffffffffffffffffffff166318160ddd6040518163ffffffff1660e01b8152600401602060405180830381865afa158015611e51573d6000803e3d6000fd5b505050506040513d601f19601f82011682018060405250810190611e759190613b5a565b90507f000000000000000000000000000000000000000000000000000000000000000081101592505050919050565b8173ffffffffffffffffffffffffffffffffffffffff168373ffffffffffffffffffffffffffffffffffffffff1603611f12576040517f08c379a0000000000000000000000000000000000000000000000000000000008152600401611f099061409a565b60405180910390fd5b80600560008573ffffffffffffffffffffffffffffffffffffffff1673ffffffffffffffffffffffffffffffffffffffff16815260200190815260200160002060008473ffffffffffffffffffffffffffffffffffffffff1673ffffffffffffffffffffffffffffffffffffffff16815260200190815260200160002060006101000a81548160ff0219169083151502179055508173ffffffffffffffffffffffffffffffffffffffff168373ffffffffffffffffffffffffffffffffffffffff167f17307eab39ab6107e8899845ad3d59bd9653f200f220920489ca2b5937696c31836040516120039190612cc3565b60405180910390a3505050565b61201b84848461184b565b6120278484848461237e565b612066576040517f08c379a000000000000000000000000000000000000000000000000000000000815260040161205d9061412c565b60405180910390fd5b50505050565b6060600a805461207b90613c48565b80601f01602080910402602001604051908101604052809291908181526020018280546120a790613c48565b80156120f45780601f106120c9576101008083540402835291602001916120f4565b820191906000526020600020905b8154815290600101906020018083116120d757829003601f168201915b5050505050905090565b606060008203612145576040518060400160405280600181526020017f30000000000000000000000000000000000000000000000000000000000000008152509050612259565b600082905060005b600082146121775780806121609061414c565b915050600a826121709190614194565b915061214d565b60008167ffffffffffffffff811115612193576121926130bf565b5b6040519080825280601f01601f1916602001820160405280156121c55781602001600182028036833780820191505090505b5090505b60008514612252576001826121de9190613fd8565b9150600a856121ed9190613d3a565b60306121f9919061380c565b60f81b81838151811061220f5761220e613a84565b5b60200101907effffffffffffffffffffffffffffffffffffffffffffffffffffffffffffff1916908160001a905350600a8561224b9190614194565b94506121c9565b8093505050505b919050565b60007f01ffc9a7000000000000000000000000000000000000000000000000000000007bffffffffffffffffffffffffffffffffffffffffffffffffffffffff1916827bffffffffffffffffffffffffffffffffffffffffffffffffffffffff1916149050919050565b600033905090565b6122da8383612505565b6122e7600084848461237e565b612326576040517f08c379a000000000000000000000000000000000000000000000000000000000815260040161231d9061412c565b60405180910390fd5b505050565b600073ffffffffffffffffffffffffffffffffffffffff168273ffffffffffffffffffffffffffffffffffffffff161461236957612368826126de565b5b61237483838361272c565b505050565b505050565b600061239f8473ffffffffffffffffffffffffffffffffffffffff1661283e565b156124f8578373ffffffffffffffffffffffffffffffffffffffff1663150b7a026123c861163b565b8786866040518563ffffffff1660e01b81526004016123ea949392919061421a565b6020604051808303816000875af192505050801561242657506040513d601f19601f82011682018060405250810190612423919061427b565b60015b6124a8573d8060008114612456576040519150601f19603f3d011682016040523d82523d6000602084013e61245b565b606091505b5060008151036124a0576040517f08c379a00000000000000000000000000000000000000000000000000000000081526004016124979061412c565b60405180910390fd5b805181602001fd5b63150b7a0260e01b7bffffffffffffffffffffffffffffffffffffffffffffffffffffffff1916817bffffffffffffffffffffffffffffffffffffffffffffffffffffffff1916149150506124fd565b600190505b949350505050565b600073ffffffffffffffffffffffffffffffffffffffff168273ffffffffffffffffffffffffffffffffffffffff1603612574576040517f08c379a000000000000000000000000000000000000000000000000000000000815260040161256b906142f4565b60405180910390fd5b61257d816115cf565b156125bd576040517f08c379a00000000000000000000000000000000000000000000000000000000081526004016125b490614360565b60405180910390fd5b6125c96000838361232b565b6001600360008473ffffffffffffffffffffffffffffffffffffffff1673ffffffffffffffffffffffffffffffffffffffff1681526020019081526020016000206000828254612619919061380c565b92505081905550816002600083815260200190815260200160002060006101000a81548173ffffffffffffffffffffffffffffffffffffffff021916908373ffffffffffffffffffffffffffffffffffffffff160217905550808273ffffffffffffffffffffffffffffffffffffffff16600073ffffffffffffffffffffffffffffffffffffffff167fddf252ad1be2c89b69c2b068fc378daa952ba7f163c4a11628f55a4df523b3ef60405160405180910390a46126da60008383612379565b5050565b60006126e982611004565b14612729576040517f08c379a0000000000000000000000000000000000000000000000000000000008152600401612720906143cc565b60405180910390fd5b50565b612737838383612861565b600073ffffffffffffffffffffffffffffffffffffffff168373ffffffffffffffffffffffffffffffffffffffff16036127795761277481612866565b6127b8565b8173ffffffffffffffffffffffffffffffffffffffff168373ffffffffffffffffffffffffffffffffffffffff16146127b7576127b683826128af565b5b5b600073ffffffffffffffffffffffffffffffffffffffff168273ffffffffffffffffffffffffffffffffffffffff16036127fa576127f581612a1c565b612839565b8273ffffffffffffffffffffffffffffffffffffffff168273ffffffffffffffffffffffffffffffffffffffff1614612838576128378282612aed565b5b5b505050565b6000808273ffffffffffffffffffffffffffffffffffffffff163b119050919050565b505050565b6008805490506009600083815260200190815260200160002081905550600881908060018154018082558091505060019003906000526020600020016000909190919091505550565b600060016128bc84611004565b6128c69190613fd8565b90506000600760008481526020019081526020016000205490508181146129ab576000600660008673ffffffffffffffffffffffffffffffffffffffff1673ffffffffffffffffffffffffffffffffffffffff168152602001908152602001600020600084815260200190815260200160002054905080600660008773ffffffffffffffffffffffffffffffffffffffff1673ffffffffffffffffffffffffffffffffffffffff168152602001908152602001600020600084815260200190815260200160002081905550816007600083815260200190815260200160002081905550505b6007600084815260200190815260200160002060009055600660008573ffffffffffffffffffffffffffffffffffffffff1673ffffffffffffffffffffffffffffffffffffffff16815260200190815260200160002060008381526020019081526020016000206000905550505050565b60006001600880549050612a309190613fd8565b9050600060096000848152602001908152602001600020549050600060088381548110612a6057612a5f613a84565b5b906000526020600020015490508060088381548110612a8257612a81613a84565b5b906000526020600020018190555081600960008381526020019081526020016000208190555060096000858152602001908152602001600020600090556008805480612ad157612ad06143ec565b5b6001900381819060005260206000200160009055905550505050565b6000612af883611004565b905081600660008573ffffffffffffffffffffffffffffffffffffffff1673ffffffffffffffffffffffffffffffffffffffff168152602001908152602001600020600083815260200190815260200160002081905550806007600084815260200190815260200160002081905550505050565b828054612b7890613c48565b90600052602060002090601f016020900481019282612b9a5760008555612be1565b82601f10612bb357805160ff1916838001178555612be1565b82800160010185558215612be1579182015b82811115612be0578251825591602001919060010190612bc5565b5b509050612bee9190612bf2565b5090565b5b80821115612c0b576000816000905550600101612bf3565b5090565b6000604051905090565b600080fd5b600080fd5b60007fffffffff0000000000000000000000000000000000000000000000000000000082169050919050565b612c5881612c23565b8114612c6357600080fd5b50565b600081359050612c7581612c4f565b92915050565b600060208284031215612c9157612c90612c19565b5b6000612c9f84828501612c66565b91505092915050565b60008115159050919050565b612cbd81612ca8565b82525050565b6000602082019050612cd86000830184612cb4565b92915050565b600081519050919050565b600082825260208201905092915050565b60005b83811015612d18578082015181840152602081019050612cfd565b83811115612d27576000848401525b50505050565b6000601f19601f8301169050919050565b6000612d4982612cde565b612d538185612ce9565b9350612d63818560208601612cfa565b612d6c81612d2d565b840191505092915050565b60006020820190508181036000830152612d918184612d3e565b905092915050565b6000819050919050565b612dac81612d99565b8114612db757600080fd5b50565b600081359050612dc981612da3565b92915050565b600060208284031215612de557612de4612c19565b5b6000612df384828501612dba565b91505092915050565b600073ffffffffffffffffffffffffffffffffffffffff82169050919050565b6000612e2782612dfc565b9050919050565b612e3781612e1c565b82525050565b6000602082019050612e526000830184612e2e565b92915050565b612e6181612e1c565b8114612e6c57600080fd5b50565b600081359050612e7e81612e58565b92915050565b60008060408385031215612e9b57612e9a612c19565b5b6000612ea985828601612e6f565b9250506020612eba85828601612dba565b9150509250929050565b612ecd81612ca8565b8114612ed857600080fd5b50565b600081359050612eea81612ec4565b92915050565b600060208284031215612f0657612f05612c19565b5b6000612f1484828501612edb565b91505092915050565b612f2681612d99565b82525050565b6000602082019050612f416000830184612f1d565b92915050565b600080600060608486031215612f6057612f5f612c19565b5b6000612f6e86828701612e6f565b9350506020612f7f86828701612e6f565b9250506040612f9086828701612dba565b9150509250925092565b600060208284031215612fb057612faf612c19565b5b6000612fbe84828501612e6f565b91505092915050565b600081519050919050565b600082825260208201905092915050565b6000819050602082019050919050565b612ffc81612ca8565b82525050565b600061300e8383612ff3565b60208301905092915050565b6000602082019050919050565b600061303282612fc7565b61303c8185612fd2565b935061304783612fe3565b8060005b8381101561307857815161305f8882613002565b975061306a8361301a565b92505060018101905061304b565b5085935050505092915050565b600060408201905061309a6000830185612cb4565b81810360208301526130ac8184613027565b90509392505050565b600080fd5b600080fd5b7f4e487b7100000000000000000000000000000000000000000000000000000000600052604160045260246000fd5b6130f782612d2d565b810181811067ffffffffffffffff82111715613116576131156130bf565b5b80604052505050565b6000613129612c0f565b905061313582826130ee565b919050565b600067ffffffffffffffff821115613155576131546130bf565b5b61315e82612d2d565b9050602081019050919050565b82818337600083830152505050565b600061318d6131888461313a565b61311f565b9050828152602081018484840111156131a9576131a86130ba565b5b6131b484828561316b565b509392505050565b600082601f8301126131d1576131d06130b5565b5b81356131e184826020860161317a565b91505092915050565b600060208284031215613200576131ff612c19565b5b600082013567ffffffffffffffff81111561321e5761321d612c1e565b5b61322a848285016131bc565b91505092915050565b6000806040838503121561324a57613249612c19565b5b600061325885828601612e6f565b925050602061326985828601612edb565b9150509250929050565b6000819050919050565b600061329861329361328e84612dfc565b613273565b612dfc565b9050919050565b60006132aa8261327d565b9050919050565b60006132bc8261329f565b9050919050565b6132cc816132b1565b82525050565b60006020820190506132e760008301846132c3565b92915050565b600067ffffffffffffffff821115613308576133076130bf565b5b61331182612d2d565b9050602081019050919050565b600061333161332c846132ed565b61311f565b90508281526020810184848401111561334d5761334c6130ba565b5b61335884828561316b565b509392505050565b600082601f830112613375576133746130b5565b5b813561338584826020860161331e565b91505092915050565b600080600080608085870312156133a8576133a7612c19565b5b60006133b687828801612e6f565b94505060206133c787828801612e6f565b93505060406133d887828801612dba565b925050606085013567ffffffffffffffff8111156133f9576133f8612c1e565b5b61340587828801613360565b91505092959194509250565b6000806040838503121561342857613427612c19565b5b600061343685828601612e6f565b925050602061344785828601612e6f565b9150509250929050565b7f4552433732313a20617070726f76656420717565727920666f72206e6f6e657860008201527f697374656e7420746f6b656e0000000000000000000000000000000000000000602082015250565b60006134ad602c83612ce9565b91506134b882613451565b604082019050919050565b600060208201905081810360008301526134dc816134a0565b9050919050565b7f4552433732313a20617070726f76616c20746f2063757272656e74206f776e6560008201527f7200000000000000000000000000000000000000000000000000000000000000602082015250565b600061353f602183612ce9565b915061354a826134e3565b604082019050919050565b6000602082019050818103600083015261356e81613532565b9050919050565b7f4552433732313a20617070726f76652063616c6c6572206973206e6f74206f7760008201527f6e6572206e6f7220617070726f76656420666f7220616c6c0000000000000000602082015250565b60006135d1603883612ce9565b91506135dc82613575565b604082019050919050565b60006020820190508181036000830152613600816135c4565b9050919050565b7f4b6f727544616f4e46543a205061757365640000000000000000000000000000600082015250565b600061363d601283612ce9565b915061364882613607565b602082019050919050565b6000602082019050818103600083015261366c81613630565b9050919050565b7f5265737472696374696f6e733a204f6e6c792047656c61746f2072656c617900600082015250565b60006136a9601f83612ce9565b91506136b482613673565b602082019050919050565b600060208201905081810360008301526136d88161369c565b9050919050565b7f4d696e745265737472696374696f6e733a2053656e64657220646f6573206e6f60008201527f74206d6565742063726974657269610000000000000000000000000000000000602082015250565b600061373b602f83612ce9565b9150613746826136df565b604082019050919050565b6000602082019050818103600083015261376a8161372e565b9050919050565b7f4b6f727544616f4e46543a204d617820537570706c7900000000000000000000600082015250565b60006137a7601683612ce9565b91506137b282613771565b602082019050919050565b600060208201905081810360008301526137d68161379a565b9050919050565b7f4e487b7100000000000000000000000000000000000000000000000000000000600052601160045260246000fd5b600061381782612d99565b915061382283612d99565b9250827fffffffffffffffffffffffffffffffffffffffffffffffffffffffffffffffff03821115613857576138566137dd565b5b828201905092915050565b7f4e4f545f415554484f52495a4544000000000000000000000000000000000000600082015250565b6000613898600e83612ce9565b91506138a382613862565b602082019050919050565b600060208201905081810360008301526138c78161388b565b9050919050565b7f4552433732313a207472616e736665722063616c6c6572206973206e6f74206f60008201527f776e6572206e6f7220617070726f766564000000000000000000000000000000602082015250565b600061392a603183612ce9565b9150613935826138ce565b604082019050919050565b600060208201905081810360008301526139598161391d565b9050919050565b7f455243373231456e756d657261626c653a206f776e657220696e646578206f7560008201527f74206f6620626f756e6473000000000000000000000000000000000000000000602082015250565b60006139bc602b83612ce9565b91506139c782613960565b604082019050919050565b600060208201905081810360008301526139eb816139af565b9050919050565b7f455243373231456e756d657261626c653a20676c6f62616c20696e646578206f60008201527f7574206f6620626f756e64730000000000000000000000000000000000000000602082015250565b6000613a4e602c83612ce9565b9150613a59826139f2565b604082019050919050565b60006020820190508181036000830152613a7d81613a41565b9050919050565b7f4e487b7100000000000000000000000000000000000000000000000000000000600052603260045260246000fd5b7f4552433732313a206f776e657220717565727920666f72206e6f6e657869737460008201527f656e7420746f6b656e0000000000000000000000000000000000000000000000602082015250565b6000613b0f602983612ce9565b9150613b1a82613ab3565b604082019050919050565b60006020820190508181036000830152613b3e81613b02565b9050919050565b600081519050613b5481612da3565b92915050565b600060208284031215613b7057613b6f612c19565b5b6000613b7e84828501613b45565b91505092915050565b7f4552433732313a2062616c616e636520717565727920666f7220746865207a6560008201527f726f206164647265737300000000000000000000000000000000000000000000602082015250565b6000613be3602a83612ce9565b9150613bee82613b87565b604082019050919050565b60006020820190508181036000830152613c1281613bd6565b9050919050565b7f4e487b7100000000000000000000000000000000000000000000000000000000600052602260045260246000fd5b60006002820490506001821680613c6057607f821691505b602082108103613c7357613c72613c19565b5b50919050565b7f4552433732314d657461646174613a2055524920717565727920666f72206e6f60008201527f6e6578697374656e7420746f6b656e0000000000000000000000000000000000602082015250565b6000613cd5602f83612ce9565b9150613ce082613c79565b604082019050919050565b60006020820190508181036000830152613d0481613cc8565b9050919050565b7f4e487b7100000000000000000000000000000000000000000000000000000000600052601260045260246000fd5b6000613d4582612d99565b9150613d5083612d99565b925082613d6057613d5f613d0b565b5b828206905092915050565b600081905092915050565b6000613d8182612cde565b613d8b8185613d6b565b9350613d9b818560208601612cfa565b80840191505092915050565b7f2e6a736f6e000000000000000000000000000000000000000000000000000000600082015250565b6000613ddd600583613d6b565b9150613de882613da7565b600582019050919050565b6000613dff8285613d76565b9150613e0b8284613d76565b9150613e1682613dd0565b91508190509392505050565b7f4552433732313a206f70657261746f7220717565727920666f72206e6f6e657860008201527f697374656e7420746f6b656e0000000000000000000000000000000000000000602082015250565b6000613e7e602c83612ce9565b9150613e8982613e22565b604082019050919050565b60006020820190508181036000830152613ead81613e71565b9050919050565b7f4552433732313a207472616e736665722066726f6d20696e636f72726563742060008201527f6f776e6572000000000000000000000000000000000000000000000000000000602082015250565b6000613f10602583612ce9565b9150613f1b82613eb4565b604082019050919050565b60006020820190508181036000830152613f3f81613f03565b9050919050565b7f4552433732313a207472616e7366657220746f20746865207a65726f2061646460008201527f7265737300000000000000000000000000000000000000000000000000000000602082015250565b6000613fa2602483612ce9565b9150613fad82613f46565b604082019050919050565b60006020820190508181036000830152613fd181613f95565b9050919050565b6000613fe382612d99565b9150613fee83612d99565b925082821015614001576140006137dd565b5b828203905092915050565b60008151905061401b81612e58565b92915050565b60006020828403121561403757614036612c19565b5b60006140458482850161400c565b91505092915050565b7f4552433732313a20617070726f766520746f2063616c6c657200000000000000600082015250565b6000614084601983612ce9565b915061408f8261404e565b602082019050919050565b600060208201905081810360008301526140b381614077565b9050919050565b7f4552433732313a207472616e7366657220746f206e6f6e20455243373231526560008201527f63656976657220696d706c656d656e7465720000000000000000000000000000602082015250565b6000614116603283612ce9565b9150614121826140ba565b604082019050919050565b6000602082019050818103600083015261414581614109565b9050919050565b600061415782612d99565b91507fffffffffffffffffffffffffffffffffffffffffffffffffffffffffffffffff8203614189576141886137dd565b5b600182019050919050565b600061419f82612d99565b91506141aa83612d99565b9250826141ba576141b9613d0b565b5b828204905092915050565b600081519050919050565b600082825260208201905092915050565b60006141ec826141c5565b6141f681856141d0565b9350614206818560208601612cfa565b61420f81612d2d565b840191505092915050565b600060808201905061422f6000830187612e2e565b61423c6020830186612e2e565b6142496040830185612f1d565b818103606083015261425b81846141e1565b905095945050505050565b60008151905061427581612c4f565b92915050565b60006020828403121561429157614290612c19565b5b600061429f84828501614266565b91505092915050565b7f4552433732313a206d696e7420746f20746865207a65726f2061646472657373600082015250565b60006142de602083612ce9565b91506142e9826142a8565b602082019050919050565b6000602082019050818103600083015261430d816142d1565b9050919050565b7f4552433732313a20746f6b656e20616c7265616479206d696e74656400000000600082015250565b600061434a601c83612ce9565b915061435582614314565b602082019050919050565b600060208201905081810360008301526143798161433d565b9050919050565b7f4b6f727544616f4e46543a204f6e6520706572206163636f756e740000000000600082015250565b60006143b6601b83612ce9565b91506143c182614380565b602082019050919050565b600060208201905081810360008301526143e5816143a9565b9050919050565b7f4e487b7100000000000000000000000000000000000000000000000000000000600052603160045260246000fdfea264697066735822122084505973cb37f0380e3e236d75146de8a4a1c4ef913448d09e7f89aa2a84ce3b64736f6c634300080e0033",
  "devdoc": {
    "kind": "dev",
    "methods": {
      "approve(address,uint256)": {
        "details": "See {IERC721-approve}."
      },
      "balanceOf(address)": {
        "details": "See {IERC721-balanceOf}."
      },
      "getApproved(uint256)": {
        "details": "See {IERC721-getApproved}."
      },
      "isApprovedForAll(address,address)": {
        "details": "See {IERC721-isApprovedForAll}."
      },
      "name()": {
        "details": "See {IERC721Metadata-name}."
      },
      "ownerOf(uint256)": {
        "details": "See {IERC721-ownerOf}."
      },
      "safeTransferFrom(address,address,uint256)": {
        "details": "See {IERC721-safeTransferFrom}."
      },
      "safeTransferFrom(address,address,uint256,bytes)": {
        "details": "See {IERC721-safeTransferFrom}."
      },
      "setApprovalForAll(address,bool)": {
        "details": "See {IERC721-setApprovalForAll}."
      },
      "supportsInterface(bytes4)": {
        "details": "See {IERC165-supportsInterface}."
      },
      "symbol()": {
        "details": "See {IERC721Metadata-symbol}."
      },
      "tokenByIndex(uint256)": {
        "details": "See {IERC721Enumerable-tokenByIndex}."
      },
      "tokenOfOwnerByIndex(address,uint256)": {
        "details": "See {IERC721Enumerable-tokenOfOwnerByIndex}."
      },
      "tokenURI(uint256)": {
        "details": "See {IERC721Metadata-tokenURI}."
      },
      "totalSupply()": {
        "details": "See {IERC721Enumerable-totalSupply}."
      },
      "transferFrom(address,address,uint256)": {
        "details": "See {IERC721-transferFrom}."
      }
    },
    "version": 1
  },
  "userdoc": {
    "kind": "user",
    "methods": {},
    "version": 1
  },
  "storageLayout": {
    "storage": [
      {
        "astId": 2341,
        "contract": "contracts/KoruDaoNFT.sol:KoruDaoNFT",
        "label": "_name",
        "offset": 0,
        "slot": "0",
        "type": "t_string_storage"
      },
      {
        "astId": 2343,
        "contract": "contracts/KoruDaoNFT.sol:KoruDaoNFT",
        "label": "_symbol",
        "offset": 0,
        "slot": "1",
        "type": "t_string_storage"
      },
      {
        "astId": 2347,
        "contract": "contracts/KoruDaoNFT.sol:KoruDaoNFT",
        "label": "_owners",
        "offset": 0,
        "slot": "2",
        "type": "t_mapping(t_uint256,t_address)"
      },
      {
        "astId": 2351,
        "contract": "contracts/KoruDaoNFT.sol:KoruDaoNFT",
        "label": "_balances",
        "offset": 0,
        "slot": "3",
        "type": "t_mapping(t_address,t_uint256)"
      },
      {
        "astId": 2355,
        "contract": "contracts/KoruDaoNFT.sol:KoruDaoNFT",
        "label": "_tokenApprovals",
        "offset": 0,
        "slot": "4",
        "type": "t_mapping(t_uint256,t_address)"
      },
      {
        "astId": 2361,
        "contract": "contracts/KoruDaoNFT.sol:KoruDaoNFT",
        "label": "_operatorApprovals",
        "offset": 0,
        "slot": "5",
        "type": "t_mapping(t_address,t_mapping(t_address,t_bool))"
      },
      {
        "astId": 3201,
        "contract": "contracts/KoruDaoNFT.sol:KoruDaoNFT",
        "label": "_ownedTokens",
        "offset": 0,
        "slot": "6",
        "type": "t_mapping(t_address,t_mapping(t_uint256,t_uint256))"
      },
      {
        "astId": 3205,
        "contract": "contracts/KoruDaoNFT.sol:KoruDaoNFT",
        "label": "_ownedTokensIndex",
        "offset": 0,
        "slot": "7",
        "type": "t_mapping(t_uint256,t_uint256)"
      },
      {
        "astId": 3208,
        "contract": "contracts/KoruDaoNFT.sol:KoruDaoNFT",
        "label": "_allTokens",
        "offset": 0,
        "slot": "8",
        "type": "t_array(t_uint256)dyn_storage"
      },
      {
        "astId": 3212,
        "contract": "contracts/KoruDaoNFT.sol:KoruDaoNFT",
        "label": "_allTokensIndex",
        "offset": 0,
        "slot": "9",
        "type": "t_mapping(t_uint256,t_uint256)"
      },
      {
        "astId": 1029,
        "contract": "contracts/KoruDaoNFT.sol:KoruDaoNFT",
        "label": "baseUri",
        "offset": 0,
        "slot": "10",
        "type": "t_string_storage"
      },
      {
        "astId": 1031,
        "contract": "contracts/KoruDaoNFT.sol:KoruDaoNFT",
        "label": "paused",
        "offset": 0,
        "slot": "11",
        "type": "t_bool"
      }
    ],
    "types": {
      "t_address": {
        "encoding": "inplace",
        "label": "address",
        "numberOfBytes": "20"
      },
      "t_array(t_uint256)dyn_storage": {
        "base": "t_uint256",
        "encoding": "dynamic_array",
        "label": "uint256[]",
        "numberOfBytes": "32"
      },
      "t_bool": {
        "encoding": "inplace",
        "label": "bool",
        "numberOfBytes": "1"
      },
      "t_mapping(t_address,t_bool)": {
        "encoding": "mapping",
        "key": "t_address",
        "label": "mapping(address => bool)",
        "numberOfBytes": "32",
        "value": "t_bool"
      },
      "t_mapping(t_address,t_mapping(t_address,t_bool))": {
        "encoding": "mapping",
        "key": "t_address",
        "label": "mapping(address => mapping(address => bool))",
        "numberOfBytes": "32",
        "value": "t_mapping(t_address,t_bool)"
      },
      "t_mapping(t_address,t_mapping(t_uint256,t_uint256))": {
        "encoding": "mapping",
        "key": "t_address",
        "label": "mapping(address => mapping(uint256 => uint256))",
        "numberOfBytes": "32",
        "value": "t_mapping(t_uint256,t_uint256)"
      },
      "t_mapping(t_address,t_uint256)": {
        "encoding": "mapping",
        "key": "t_address",
        "label": "mapping(address => uint256)",
        "numberOfBytes": "32",
        "value": "t_uint256"
      },
      "t_mapping(t_uint256,t_address)": {
        "encoding": "mapping",
        "key": "t_uint256",
        "label": "mapping(uint256 => address)",
        "numberOfBytes": "32",
        "value": "t_address"
      },
      "t_mapping(t_uint256,t_uint256)": {
        "encoding": "mapping",
        "key": "t_uint256",
        "label": "mapping(uint256 => uint256)",
        "numberOfBytes": "32",
        "value": "t_uint256"
      },
      "t_string_storage": {
        "encoding": "bytes",
        "label": "string",
        "numberOfBytes": "32"
      },
      "t_uint256": {
        "encoding": "inplace",
        "label": "uint256",
        "numberOfBytes": "32"
      }
    }
  }
}