{
  "address": "0x828A01DaC156C50694e963c25A31C5d0046a03aD",
  "abi": [
    {
      "inputs": [
        {
          "internalType": "uint256",
          "name": "_maxSupply",
          "type": "uint256"
        },
        {
          "internalType": "contract ILensHub",
          "name": "_lensHub",
          "type": "address"
        },
        {
          "internalType": "address",
          "name": "_gelatoMetaBox",
          "type": "address"
        }
      ],
      "stateMutability": "nonpayable",
      "type": "constructor"
    },
    {
      "anonymous": false,
      "inputs": [
        {
          "indexed": true,
          "internalType": "address",
          "name": "owner",
          "type": "address"
        },
        {
          "indexed": true,
          "internalType": "address",
          "name": "approved",
          "type": "address"
        },
        {
          "indexed": true,
          "internalType": "uint256",
          "name": "tokenId",
          "type": "uint256"
        }
      ],
      "name": "Approval",
      "type": "event"
    },
    {
      "anonymous": false,
      "inputs": [
        {
          "indexed": true,
          "internalType": "address",
          "name": "owner",
          "type": "address"
        },
        {
          "indexed": true,
          "internalType": "address",
          "name": "operator",
          "type": "address"
        },
        {
          "indexed": false,
          "internalType": "bool",
          "name": "approved",
          "type": "bool"
        }
      ],
      "name": "ApprovalForAll",
      "type": "event"
    },
    {
      "anonymous": false,
      "inputs": [
        {
          "indexed": true,
          "internalType": "address",
          "name": "from",
          "type": "address"
        },
        {
          "indexed": true,
          "internalType": "address",
          "name": "to",
          "type": "address"
        },
        {
          "indexed": true,
          "internalType": "uint256",
          "name": "tokenId",
          "type": "uint256"
        }
      ],
      "name": "Transfer",
      "type": "event"
    },
    {
      "inputs": [
        {
          "internalType": "address",
          "name": "to",
          "type": "address"
        },
        {
          "internalType": "uint256",
          "name": "tokenId",
          "type": "uint256"
        }
      ],
      "name": "approve",
      "outputs": [],
      "stateMutability": "nonpayable",
      "type": "function"
    },
    {
      "inputs": [
        {
          "internalType": "address",
          "name": "owner",
          "type": "address"
        }
      ],
      "name": "balanceOf",
      "outputs": [
        {
          "internalType": "uint256",
          "name": "",
          "type": "uint256"
        }
      ],
      "stateMutability": "view",
      "type": "function"
    },
    {
      "inputs": [],
      "name": "baseUri",
      "outputs": [
        {
          "internalType": "string",
          "name": "",
          "type": "string"
        }
      ],
      "stateMutability": "view",
      "type": "function"
    },
    {
      "inputs": [
        {
          "internalType": "uint256",
          "name": "tokenId",
          "type": "uint256"
        }
      ],
      "name": "getApproved",
      "outputs": [
        {
          "internalType": "address",
          "name": "",
          "type": "address"
        }
      ],
      "stateMutability": "view",
      "type": "function"
    },
    {
      "inputs": [
        {
          "internalType": "address",
          "name": "_wallet",
          "type": "address"
        }
      ],
      "name": "hasLensProfile",
      "outputs": [
        {
          "internalType": "bool",
          "name": "",
          "type": "bool"
        }
      ],
      "stateMutability": "view",
      "type": "function"
    },
    {
      "inputs": [
        {
          "internalType": "address",
          "name": "owner",
          "type": "address"
        },
        {
          "internalType": "address",
          "name": "operator",
          "type": "address"
        }
      ],
      "name": "isApprovedForAll",
      "outputs": [
        {
          "internalType": "bool",
          "name": "",
          "type": "bool"
        }
      ],
      "stateMutability": "view",
      "type": "function"
    },
    {
      "inputs": [
        {
          "internalType": "address",
          "name": "forwarder",
          "type": "address"
        }
      ],
      "name": "isTrustedForwarder",
      "outputs": [
        {
          "internalType": "bool",
          "name": "",
          "type": "bool"
        }
      ],
      "stateMutability": "view",
      "type": "function"
    },
    {
      "inputs": [],
      "name": "lensHub",
      "outputs": [
        {
          "internalType": "contract ILensHub",
          "name": "",
          "type": "address"
        }
      ],
      "stateMutability": "view",
      "type": "function"
    },
    {
      "inputs": [],
      "name": "maxSupply",
      "outputs": [
        {
          "internalType": "uint256",
          "name": "",
          "type": "uint256"
        }
      ],
      "stateMutability": "view",
      "type": "function"
    },
    {
      "inputs": [],
      "name": "mint",
      "outputs": [],
      "stateMutability": "nonpayable",
      "type": "function"
    },
    {
      "inputs": [],
      "name": "name",
      "outputs": [
        {
          "internalType": "string",
          "name": "",
          "type": "string"
        }
      ],
      "stateMutability": "view",
      "type": "function"
    },
    {
      "inputs": [
        {
          "internalType": "uint256",
          "name": "tokenId",
          "type": "uint256"
        }
      ],
      "name": "ownerOf",
      "outputs": [
        {
          "internalType": "address",
          "name": "",
          "type": "address"
        }
      ],
      "stateMutability": "view",
      "type": "function"
    },
    {
      "inputs": [
        {
          "internalType": "address",
          "name": "from",
          "type": "address"
        },
        {
          "internalType": "address",
          "name": "to",
          "type": "address"
        },
        {
          "internalType": "uint256",
          "name": "tokenId",
          "type": "uint256"
        }
      ],
      "name": "safeTransferFrom",
      "outputs": [],
      "stateMutability": "nonpayable",
      "type": "function"
    },
    {
      "inputs": [
        {
          "internalType": "address",
          "name": "from",
          "type": "address"
        },
        {
          "internalType": "address",
          "name": "to",
          "type": "address"
        },
        {
          "internalType": "uint256",
          "name": "tokenId",
          "type": "uint256"
        },
        {
          "internalType": "bytes",
          "name": "_data",
          "type": "bytes"
        }
      ],
      "name": "safeTransferFrom",
      "outputs": [],
      "stateMutability": "nonpayable",
      "type": "function"
    },
    {
      "inputs": [
        {
          "internalType": "address",
          "name": "operator",
          "type": "address"
        },
        {
          "internalType": "bool",
          "name": "approved",
          "type": "bool"
        }
      ],
      "name": "setApprovalForAll",
      "outputs": [],
      "stateMutability": "nonpayable",
      "type": "function"
    },
    {
      "inputs": [
        {
          "internalType": "string",
          "name": "_baseUri",
          "type": "string"
        }
      ],
      "name": "setBaseUri",
      "outputs": [],
      "stateMutability": "nonpayable",
      "type": "function"
    },
    {
      "inputs": [
        {
          "internalType": "bytes4",
          "name": "interfaceId",
          "type": "bytes4"
        }
      ],
      "name": "supportsInterface",
      "outputs": [
        {
          "internalType": "bool",
          "name": "",
          "type": "bool"
        }
      ],
      "stateMutability": "view",
      "type": "function"
    },
    {
      "inputs": [],
      "name": "symbol",
      "outputs": [
        {
          "internalType": "string",
          "name": "",
          "type": "string"
        }
      ],
      "stateMutability": "view",
      "type": "function"
    },
    {
      "inputs": [
        {
          "internalType": "uint256",
          "name": "index",
          "type": "uint256"
        }
      ],
      "name": "tokenByIndex",
      "outputs": [
        {
          "internalType": "uint256",
          "name": "",
          "type": "uint256"
        }
      ],
      "stateMutability": "view",
      "type": "function"
    },
    {
      "inputs": [
        {
          "internalType": "address",
          "name": "owner",
          "type": "address"
        },
        {
          "internalType": "uint256",
          "name": "index",
          "type": "uint256"
        }
      ],
      "name": "tokenOfOwnerByIndex",
      "outputs": [
        {
          "internalType": "uint256",
          "name": "",
          "type": "uint256"
        }
      ],
      "stateMutability": "view",
      "type": "function"
    },
    {
      "inputs": [
        {
          "internalType": "uint256",
          "name": "tokenId",
          "type": "uint256"
        }
      ],
      "name": "tokenURI",
      "outputs": [
        {
          "internalType": "string",
          "name": "",
          "type": "string"
        }
      ],
      "stateMutability": "view",
      "type": "function"
    },
    {
      "inputs": [],
      "name": "totalSupply",
      "outputs": [
        {
          "internalType": "uint256",
          "name": "",
          "type": "uint256"
        }
      ],
      "stateMutability": "view",
      "type": "function"
    },
    {
      "inputs": [
        {
          "internalType": "address",
          "name": "from",
          "type": "address"
        },
        {
          "internalType": "address",
          "name": "to",
          "type": "address"
        },
        {
          "internalType": "uint256",
          "name": "tokenId",
          "type": "uint256"
        }
      ],
      "name": "transferFrom",
      "outputs": [],
      "stateMutability": "nonpayable",
      "type": "function"
    }
  ],
  "transactionHash": "0x8a16e7fbe01bd228c85de1c13d47660d1e68dd947e03423284b6fea649480532",
  "args": [
    1000,
    "0x60Ae865ee4C725cd04353b5AAb364553f56ceF82",
    "0x8F2510b3D61CE21b470d1fa4Fd657D82F692Cc6C"
  ],
  "numDeployments": 4,
  "solcInputHash": "d394a9b73891f9a82737f49accc8a9e2",
  "bytecode": "0x60e06040523480156200001157600080fd5b5060405162003cd538038062003cd58339818101604052810190620000379190620002f0565b6040518060400160405280600c81526020017f4b6f72752044616f204e667400000000000000000000000000000000000000008152506040518060400160405280600781526020017f4b4f525544414f000000000000000000000000000000000000000000000000008152508280858073ffffffffffffffffffffffffffffffffffffffff1660808173ffffffffffffffffffffffffffffffffffffffff1681525050508073ffffffffffffffffffffffffffffffffffffffff1660a08173ffffffffffffffffffffffffffffffffffffffff16815250505082600090805190602001906200012892919062000156565b5081600190805190602001906200014192919062000156565b505050508260c08181525050505050620003b0565b82805462000164906200037b565b90600052602060002090601f016020900481019282620001885760008555620001d4565b82601f10620001a357805160ff1916838001178555620001d4565b82800160010185558215620001d4579182015b82811115620001d3578251825591602001919060010190620001b6565b5b509050620001e39190620001e7565b5090565b5b8082111562000202576000816000905550600101620001e8565b5090565b600080fd5b6000819050919050565b62000220816200020b565b81146200022c57600080fd5b50565b600081519050620002408162000215565b92915050565b600073ffffffffffffffffffffffffffffffffffffffff82169050919050565b6000620002738262000246565b9050919050565b6000620002878262000266565b9050919050565b62000299816200027a565b8114620002a557600080fd5b50565b600081519050620002b9816200028e565b92915050565b620002ca8162000266565b8114620002d657600080fd5b50565b600081519050620002ea81620002bf565b92915050565b6000806000606084860312156200030c576200030b62000206565b5b60006200031c868287016200022f565b93505060206200032f86828701620002a8565b92505060406200034286828701620002d9565b9150509250925092565b7f4e487b7100000000000000000000000000000000000000000000000000000000600052602260045260246000fd5b600060028204905060018216806200039457607f821691505b602082108103620003aa57620003a96200034c565b5b50919050565b60805160a05160c0516138e0620003f5600039600081816107a0015281816107c70152610f45015260006109f0015260008181610bb10152610e1801526138e06000f3fe608060405234801561001057600080fd5b506004361061014d5760003560e01c80636352211e116100c3578063a22cb4651161007c578063a22cb465146103c4578063b02cfdc3146103e0578063b88d4fde146103fe578063c87b56dd1461041a578063d5abeb011461044a578063e985e9c5146104685761014d565b80636352211e146102dc57806370a082311461030c578063908e3f851461033c57806395d89b411461036c5780639abc83201461038a578063a0bcfc7f146103a85761014d565b806318160ddd1161011557806318160ddd146101f657806323b872dd146102145780632f745c591461023057806342842e0e146102605780634f6ccce71461027c578063572b6c05146102ac5761014d565b806301ffc9a71461015257806306fdde0314610182578063081812fc146101a0578063095ea7b3146101d05780631249c58b146101ec575b600080fd5b61016c60048036038101906101679190612396565b610498565b60405161017991906123de565b60405180910390f35b61018a610512565b6040516101979190612492565b60405180910390f35b6101ba60048036038101906101b591906124ea565b6105a4565b6040516101c79190612558565b60405180910390f35b6101ea60048036038101906101e5919061259f565b610629565b005b6101f4610740565b005b6101fe610849565b60405161020b91906125ee565b60405180910390f35b61022e60048036038101906102299190612609565b610856565b005b61024a6004803603810190610245919061259f565b6108b6565b60405161025791906125ee565b60405180910390f35b61027a60048036038101906102759190612609565b61095b565b005b610296600480360381019061029191906124ea565b61097b565b6040516102a391906125ee565b60405180910390f35b6102c660048036038101906102c1919061265c565b6109ec565b6040516102d391906123de565b60405180910390f35b6102f660048036038101906102f191906124ea565b610a44565b6040516103039190612558565b60405180910390f35b6103266004803603810190610321919061265c565b610af5565b60405161033391906125ee565b60405180910390f35b6103566004803603810190610351919061265c565b610bac565b60405161036391906123de565b60405180910390f35b610374610c51565b6040516103819190612492565b60405180910390f35b610392610ce3565b60405161039f9190612492565b60405180910390f35b6103c260048036038101906103bd91906127be565b610d71565b005b6103de60048036038101906103d99190612833565b610e00565b005b6103e8610e16565b6040516103f591906128d2565b60405180910390f35b6104186004803603810190610413919061298e565b610e3a565b005b610434600480360381019061042f91906124ea565b610e9c565b6040516104419190612492565b60405180910390f35b610452610f43565b60405161045f91906125ee565b60405180910390f35b610482600480360381019061047d9190612a11565b610f67565b60405161048f91906123de565b60405180910390f35b60007f780e9d63000000000000000000000000000000000000000000000000000000007bffffffffffffffffffffffffffffffffffffffffffffffffffffffff1916827bffffffffffffffffffffffffffffffffffffffffffffffffffffffff1916148061050b575061050a82610ffb565b5b9050919050565b60606000805461052190612a80565b80601f016020809104026020016040519081016040528092919081815260200182805461054d90612a80565b801561059a5780601f1061056f5761010080835404028352916020019161059a565b820191906000526020600020905b81548152906001019060200180831161057d57829003601f168201915b5050505050905090565b60006105af826110dd565b6105ee576040517f08c379a00000000000000000000000000000000000000000000000000000000081526004016105e590612b23565b60405180910390fd5b6004600083815260200190815260200160002060009054906101000a900473ffffffffffffffffffffffffffffffffffffffff169050919050565b600061063482610a44565b90508073ffffffffffffffffffffffffffffffffffffffff168373ffffffffffffffffffffffffffffffffffffffff16036106a4576040517f08c379a000000000000000000000000000000000000000000000000000000000815260040161069b90612bb5565b60405180910390fd5b8073ffffffffffffffffffffffffffffffffffffffff166106c3611149565b73ffffffffffffffffffffffffffffffffffffffff1614806106f257506106f1816106ec611149565b610f67565b5b610731576040517f08c379a000000000000000000000000000000000000000000000000000000000815260040161072890612c47565b60405180910390fd5b61073b838361117b565b505050565b610748611149565b61075181610bac565b610790576040517f08c379a000000000000000000000000000000000000000000000000000000000815260040161078790612cd9565b60405180910390fd5b600061079a610849565b905060007f00000000000000000000000000000000000000000000000000000000000000001115610828577f00000000000000000000000000000000000000000000000000000000000000008110610827576040517f08c379a000000000000000000000000000000000000000000000000000000000815260040161081e90612d45565b60405180910390fd5b5b610845610833611149565b6001836108409190612d94565b611234565b5050565b6000600880549050905090565b610867610861611149565b82611252565b6108a6576040517f08c379a000000000000000000000000000000000000000000000000000000000815260040161089d90612e5c565b60405180910390fd5b6108b1838383611330565b505050565b60006108c183610af5565b8210610902576040517f08c379a00000000000000000000000000000000000000000000000000000000081526004016108f990612eee565b60405180910390fd5b600660008473ffffffffffffffffffffffffffffffffffffffff1673ffffffffffffffffffffffffffffffffffffffff168152602001908152602001600020600083815260200190815260200160002054905092915050565b61097683838360405180602001604052806000815250610e3a565b505050565b6000610985610849565b82106109c6576040517f08c379a00000000000000000000000000000000000000000000000000000000081526004016109bd90612f80565b60405180910390fd5b600882815481106109da576109d9612fa0565b5b90600052602060002001549050919050565b60007f000000000000000000000000000000000000000000000000000000000000000073ffffffffffffffffffffffffffffffffffffffff168273ffffffffffffffffffffffffffffffffffffffff16149050919050565b6000806002600084815260200190815260200160002060009054906101000a900473ffffffffffffffffffffffffffffffffffffffff169050600073ffffffffffffffffffffffffffffffffffffffff168173ffffffffffffffffffffffffffffffffffffffff1603610aec576040517f08c379a0000000000000000000000000000000000000000000000000000000008152600401610ae390613041565b60405180910390fd5b80915050919050565b60008073ffffffffffffffffffffffffffffffffffffffff168273ffffffffffffffffffffffffffffffffffffffff1603610b65576040517f08c379a0000000000000000000000000000000000000000000000000000000008152600401610b5c906130d3565b60405180910390fd5b600360008373ffffffffffffffffffffffffffffffffffffffff1673ffffffffffffffffffffffffffffffffffffffff168152602001908152602001600020549050919050565b6000807f000000000000000000000000000000000000000000000000000000000000000073ffffffffffffffffffffffffffffffffffffffff166370a08231846040518263ffffffff1660e01b8152600401610c089190612558565b602060405180830381865afa158015610c25573d6000803e3d6000fd5b505050506040513d601f19601f82011682018060405250810190610c499190613108565b119050919050565b606060018054610c6090612a80565b80601f0160208091040260200160405190810160405280929190818152602001828054610c8c90612a80565b8015610cd95780601f10610cae57610100808354040283529160200191610cd9565b820191906000526020600020905b815481529060010190602001808311610cbc57829003601f168201915b5050505050905090565b600a8054610cf090612a80565b80601f0160208091040260200160405190810160405280929190818152602001828054610d1c90612a80565b8015610d695780601f10610d3e57610100808354040283529160200191610d69565b820191906000526020600020905b815481529060010190602001808311610d4c57829003601f168201915b505050505081565b610d79611596565b73ffffffffffffffffffffffffffffffffffffffff163373ffffffffffffffffffffffffffffffffffffffff1614610de6576040517f08c379a0000000000000000000000000000000000000000000000000000000008152600401610ddd90613181565b60405180910390fd5b80600a9080519060200190610dfc929190612287565b5050565b610e12610e0b611149565b83836115bf565b5050565b7f000000000000000000000000000000000000000000000000000000000000000081565b610e4b610e45611149565b83611252565b610e8a576040517f08c379a0000000000000000000000000000000000000000000000000000000008152600401610e8190612e5c565b60405180910390fd5b610e968484848461172b565b50505050565b6060610ea7826110dd565b610ee6576040517f08c379a0000000000000000000000000000000000000000000000000000000008152600401610edd90613213565b60405180910390fd5b6000610ef0611787565b90506000815111610f105760405180602001604052806000815250610f3b565b80610f1a84611819565b604051602001610f2b92919061326f565b6040516020818303038152906040525b915050919050565b7f000000000000000000000000000000000000000000000000000000000000000081565b6000600560008473ffffffffffffffffffffffffffffffffffffffff1673ffffffffffffffffffffffffffffffffffffffff16815260200190815260200160002060008373ffffffffffffffffffffffffffffffffffffffff1673ffffffffffffffffffffffffffffffffffffffff16815260200190815260200160002060009054906101000a900460ff16905092915050565b60007f80ac58cd000000000000000000000000000000000000000000000000000000007bffffffffffffffffffffffffffffffffffffffffffffffffffffffff1916827bffffffffffffffffffffffffffffffffffffffffffffffffffffffff191614806110c657507f5b5e139f000000000000000000000000000000000000000000000000000000007bffffffffffffffffffffffffffffffffffffffffffffffffffffffff1916827bffffffffffffffffffffffffffffffffffffffffffffffffffffffff1916145b806110d657506110d582611979565b5b9050919050565b60008073ffffffffffffffffffffffffffffffffffffffff166002600084815260200190815260200160002060009054906101000a900473ffffffffffffffffffffffffffffffffffffffff1673ffffffffffffffffffffffffffffffffffffffff1614159050919050565b6000611154336109ec565b1561116857601436033560601c9050611177565b6111706119e3565b9050611178565b5b90565b816004600083815260200190815260200160002060006101000a81548173ffffffffffffffffffffffffffffffffffffffff021916908373ffffffffffffffffffffffffffffffffffffffff160217905550808273ffffffffffffffffffffffffffffffffffffffff166111ee83610a44565b73ffffffffffffffffffffffffffffffffffffffff167f8c5be1e5ebec7d5bd14f71427d1e84f3dd0314c0f7b2291e5b200ac8c7c3b92560405160405180910390a45050565b61124e8282604051806020016040528060008152506119eb565b5050565b600061125d826110dd565b61129c576040517f08c379a000000000000000000000000000000000000000000000000000000000815260040161129390613305565b60405180910390fd5b60006112a783610a44565b90508073ffffffffffffffffffffffffffffffffffffffff168473ffffffffffffffffffffffffffffffffffffffff16148061131657508373ffffffffffffffffffffffffffffffffffffffff166112fe846105a4565b73ffffffffffffffffffffffffffffffffffffffff16145b8061132757506113268185610f67565b5b91505092915050565b8273ffffffffffffffffffffffffffffffffffffffff1661135082610a44565b73ffffffffffffffffffffffffffffffffffffffff16146113a6576040517f08c379a000000000000000000000000000000000000000000000000000000000815260040161139d90613397565b60405180910390fd5b600073ffffffffffffffffffffffffffffffffffffffff168273ffffffffffffffffffffffffffffffffffffffff1603611415576040517f08c379a000000000000000000000000000000000000000000000000000000000815260040161140c90613429565b60405180910390fd5b611420838383611a46565b61142b60008261117b565b6001600360008573ffffffffffffffffffffffffffffffffffffffff1673ffffffffffffffffffffffffffffffffffffffff168152602001908152602001600020600082825461147b9190613449565b925050819055506001600360008473ffffffffffffffffffffffffffffffffffffffff1673ffffffffffffffffffffffffffffffffffffffff16815260200190815260200160002060008282546114d29190612d94565b92505081905550816002600083815260200190815260200160002060006101000a81548173ffffffffffffffffffffffffffffffffffffffff021916908373ffffffffffffffffffffffffffffffffffffffff160217905550808273ffffffffffffffffffffffffffffffffffffffff168473ffffffffffffffffffffffffffffffffffffffff167fddf252ad1be2c89b69c2b068fc378daa952ba7f163c4a11628f55a4df523b3ef60405160405180910390a4611591838383611a94565b505050565b60007fb53127684a568b3173ae13b9f8a6016e243e63b6e8ee1178d6a717850b5d610354905090565b8173ffffffffffffffffffffffffffffffffffffffff168373ffffffffffffffffffffffffffffffffffffffff160361162d576040517f08c379a0000000000000000000000000000000000000000000000000000000008152600401611624906134c9565b60405180910390fd5b80600560008573ffffffffffffffffffffffffffffffffffffffff1673ffffffffffffffffffffffffffffffffffffffff16815260200190815260200160002060008473ffffffffffffffffffffffffffffffffffffffff1673ffffffffffffffffffffffffffffffffffffffff16815260200190815260200160002060006101000a81548160ff0219169083151502179055508173ffffffffffffffffffffffffffffffffffffffff168373ffffffffffffffffffffffffffffffffffffffff167f17307eab39ab6107e8899845ad3d59bd9653f200f220920489ca2b5937696c318360405161171e91906123de565b60405180910390a3505050565b611736848484611330565b61174284848484611a99565b611781576040517f08c379a00000000000000000000000000000000000000000000000000000000081526004016117789061355b565b60405180910390fd5b50505050565b6060600a805461179690612a80565b80601f01602080910402602001604051908101604052809291908181526020018280546117c290612a80565b801561180f5780601f106117e45761010080835404028352916020019161180f565b820191906000526020600020905b8154815290600101906020018083116117f257829003601f168201915b5050505050905090565b606060008203611860576040518060400160405280600181526020017f30000000000000000000000000000000000000000000000000000000000000008152509050611974565b600082905060005b6000821461189257808061187b9061357b565b915050600a8261188b91906135f2565b9150611868565b60008167ffffffffffffffff8111156118ae576118ad612693565b5b6040519080825280601f01601f1916602001820160405280156118e05781602001600182028036833780820191505090505b5090505b6000851461196d576001826118f99190613449565b9150600a856119089190613623565b60306119149190612d94565b60f81b81838151811061192a57611929612fa0565b5b60200101907effffffffffffffffffffffffffffffffffffffffffffffffffffffffffffff1916908160001a905350600a8561196691906135f2565b94506118e4565b8093505050505b919050565b60007f01ffc9a7000000000000000000000000000000000000000000000000000000007bffffffffffffffffffffffffffffffffffffffffffffffffffffffff1916827bffffffffffffffffffffffffffffffffffffffffffffffffffffffff1916149050919050565b600033905090565b6119f58383611c20565b611a026000848484611a99565b611a41576040517f08c379a0000000000000000000000000000000000000000000000000000000008152600401611a389061355b565b60405180910390fd5b505050565b600073ffffffffffffffffffffffffffffffffffffffff168273ffffffffffffffffffffffffffffffffffffffff1614611a8457611a8382611df9565b5b611a8f838383611e47565b505050565b505050565b6000611aba8473ffffffffffffffffffffffffffffffffffffffff16611f59565b15611c13578373ffffffffffffffffffffffffffffffffffffffff1663150b7a02611ae3611149565b8786866040518563ffffffff1660e01b8152600401611b0594939291906136a9565b6020604051808303816000875af1925050508015611b4157506040513d601f19601f82011682018060405250810190611b3e919061370a565b60015b611bc3573d8060008114611b71576040519150601f19603f3d011682016040523d82523d6000602084013e611b76565b606091505b506000815103611bbb576040517f08c379a0000000000000000000000000000000000000000000000000000000008152600401611bb29061355b565b60405180910390fd5b805181602001fd5b63150b7a0260e01b7bffffffffffffffffffffffffffffffffffffffffffffffffffffffff1916817bffffffffffffffffffffffffffffffffffffffffffffffffffffffff191614915050611c18565b600190505b949350505050565b600073ffffffffffffffffffffffffffffffffffffffff168273ffffffffffffffffffffffffffffffffffffffff1603611c8f576040517f08c379a0000000000000000000000000000000000000000000000000000000008152600401611c8690613783565b60405180910390fd5b611c98816110dd565b15611cd8576040517f08c379a0000000000000000000000000000000000000000000000000000000008152600401611ccf906137ef565b60405180910390fd5b611ce460008383611a46565b6001600360008473ffffffffffffffffffffffffffffffffffffffff1673ffffffffffffffffffffffffffffffffffffffff1681526020019081526020016000206000828254611d349190612d94565b92505081905550816002600083815260200190815260200160002060006101000a81548173ffffffffffffffffffffffffffffffffffffffff021916908373ffffffffffffffffffffffffffffffffffffffff160217905550808273ffffffffffffffffffffffffffffffffffffffff16600073ffffffffffffffffffffffffffffffffffffffff167fddf252ad1be2c89b69c2b068fc378daa952ba7f163c4a11628f55a4df523b3ef60405160405180910390a4611df560008383611a94565b5050565b6000611e0482610af5565b14611e44576040517f08c379a0000000000000000000000000000000000000000000000000000000008152600401611e3b9061385b565b60405180910390fd5b50565b611e52838383611f7c565b600073ffffffffffffffffffffffffffffffffffffffff168373ffffffffffffffffffffffffffffffffffffffff1603611e9457611e8f81611f81565b611ed3565b8173ffffffffffffffffffffffffffffffffffffffff168373ffffffffffffffffffffffffffffffffffffffff1614611ed257611ed18382611fca565b5b5b600073ffffffffffffffffffffffffffffffffffffffff168273ffffffffffffffffffffffffffffffffffffffff1603611f1557611f1081612137565b611f54565b8273ffffffffffffffffffffffffffffffffffffffff168273ffffffffffffffffffffffffffffffffffffffff1614611f5357611f528282612208565b5b5b505050565b6000808273ffffffffffffffffffffffffffffffffffffffff163b119050919050565b505050565b6008805490506009600083815260200190815260200160002081905550600881908060018154018082558091505060019003906000526020600020016000909190919091505550565b60006001611fd784610af5565b611fe19190613449565b90506000600760008481526020019081526020016000205490508181146120c6576000600660008673ffffffffffffffffffffffffffffffffffffffff1673ffffffffffffffffffffffffffffffffffffffff168152602001908152602001600020600084815260200190815260200160002054905080600660008773ffffffffffffffffffffffffffffffffffffffff1673ffffffffffffffffffffffffffffffffffffffff168152602001908152602001600020600084815260200190815260200160002081905550816007600083815260200190815260200160002081905550505b6007600084815260200190815260200160002060009055600660008573ffffffffffffffffffffffffffffffffffffffff1673ffffffffffffffffffffffffffffffffffffffff16815260200190815260200160002060008381526020019081526020016000206000905550505050565b6000600160088054905061214b9190613449565b905060006009600084815260200190815260200160002054905060006008838154811061217b5761217a612fa0565b5b90600052602060002001549050806008838154811061219d5761219c612fa0565b5b9060005260206000200181905550816009600083815260200190815260200160002081905550600960008581526020019081526020016000206000905560088054806121ec576121eb61387b565b5b6001900381819060005260206000200160009055905550505050565b600061221383610af5565b905081600660008573ffffffffffffffffffffffffffffffffffffffff1673ffffffffffffffffffffffffffffffffffffffff168152602001908152602001600020600083815260200190815260200160002081905550806007600084815260200190815260200160002081905550505050565b82805461229390612a80565b90600052602060002090601f0160209004810192826122b557600085556122fc565b82601f106122ce57805160ff19168380011785556122fc565b828001600101855582156122fc579182015b828111156122fb5782518255916020019190600101906122e0565b5b509050612309919061230d565b5090565b5b8082111561232657600081600090555060010161230e565b5090565b6000604051905090565b600080fd5b600080fd5b60007fffffffff0000000000000000000000000000000000000000000000000000000082169050919050565b6123738161233e565b811461237e57600080fd5b50565b6000813590506123908161236a565b92915050565b6000602082840312156123ac576123ab612334565b5b60006123ba84828501612381565b91505092915050565b60008115159050919050565b6123d8816123c3565b82525050565b60006020820190506123f360008301846123cf565b92915050565b600081519050919050565b600082825260208201905092915050565b60005b83811015612433578082015181840152602081019050612418565b83811115612442576000848401525b50505050565b6000601f19601f8301169050919050565b6000612464826123f9565b61246e8185612404565b935061247e818560208601612415565b61248781612448565b840191505092915050565b600060208201905081810360008301526124ac8184612459565b905092915050565b6000819050919050565b6124c7816124b4565b81146124d257600080fd5b50565b6000813590506124e4816124be565b92915050565b600060208284031215612500576124ff612334565b5b600061250e848285016124d5565b91505092915050565b600073ffffffffffffffffffffffffffffffffffffffff82169050919050565b600061254282612517565b9050919050565b61255281612537565b82525050565b600060208201905061256d6000830184612549565b92915050565b61257c81612537565b811461258757600080fd5b50565b60008135905061259981612573565b92915050565b600080604083850312156125b6576125b5612334565b5b60006125c48582860161258a565b92505060206125d5858286016124d5565b9150509250929050565b6125e8816124b4565b82525050565b600060208201905061260360008301846125df565b92915050565b60008060006060848603121561262257612621612334565b5b60006126308682870161258a565b93505060206126418682870161258a565b9250506040612652868287016124d5565b9150509250925092565b60006020828403121561267257612671612334565b5b60006126808482850161258a565b91505092915050565b600080fd5b600080fd5b7f4e487b7100000000000000000000000000000000000000000000000000000000600052604160045260246000fd5b6126cb82612448565b810181811067ffffffffffffffff821117156126ea576126e9612693565b5b80604052505050565b60006126fd61232a565b905061270982826126c2565b919050565b600067ffffffffffffffff82111561272957612728612693565b5b61273282612448565b9050602081019050919050565b82818337600083830152505050565b600061276161275c8461270e565b6126f3565b90508281526020810184848401111561277d5761277c61268e565b5b61278884828561273f565b509392505050565b600082601f8301126127a5576127a4612689565b5b81356127b584826020860161274e565b91505092915050565b6000602082840312156127d4576127d3612334565b5b600082013567ffffffffffffffff8111156127f2576127f1612339565b5b6127fe84828501612790565b91505092915050565b612810816123c3565b811461281b57600080fd5b50565b60008135905061282d81612807565b92915050565b6000806040838503121561284a57612849612334565b5b60006128588582860161258a565b92505060206128698582860161281e565b9150509250929050565b6000819050919050565b600061289861289361288e84612517565b612873565b612517565b9050919050565b60006128aa8261287d565b9050919050565b60006128bc8261289f565b9050919050565b6128cc816128b1565b82525050565b60006020820190506128e760008301846128c3565b92915050565b600067ffffffffffffffff82111561290857612907612693565b5b61291182612448565b9050602081019050919050565b600061293161292c846128ed565b6126f3565b90508281526020810184848401111561294d5761294c61268e565b5b61295884828561273f565b509392505050565b600082601f83011261297557612974612689565b5b813561298584826020860161291e565b91505092915050565b600080600080608085870312156129a8576129a7612334565b5b60006129b68782880161258a565b94505060206129c78782880161258a565b93505060406129d8878288016124d5565b925050606085013567ffffffffffffffff8111156129f9576129f8612339565b5b612a0587828801612960565b91505092959194509250565b60008060408385031215612a2857612a27612334565b5b6000612a368582860161258a565b9250506020612a478582860161258a565b9150509250929050565b7f4e487b7100000000000000000000000000000000000000000000000000000000600052602260045260246000fd5b60006002820490506001821680612a9857607f821691505b602082108103612aab57612aaa612a51565b5b50919050565b7f4552433732313a20617070726f76656420717565727920666f72206e6f6e657860008201527f697374656e7420746f6b656e0000000000000000000000000000000000000000602082015250565b6000612b0d602c83612404565b9150612b1882612ab1565b604082019050919050565b60006020820190508181036000830152612b3c81612b00565b9050919050565b7f4552433732313a20617070726f76616c20746f2063757272656e74206f776e6560008201527f7200000000000000000000000000000000000000000000000000000000000000602082015250565b6000612b9f602183612404565b9150612baa82612b43565b604082019050919050565b60006020820190508181036000830152612bce81612b92565b9050919050565b7f4552433732313a20617070726f76652063616c6c6572206973206e6f74206f7760008201527f6e6572206e6f7220617070726f76656420666f7220616c6c0000000000000000602082015250565b6000612c31603883612404565b9150612c3c82612bd5565b604082019050919050565b60006020820190508181036000830152612c6081612c24565b9050919050565b7f4b6f727544616f4e46543a204f6e6c79206c656e732070726f66696c6520686f60008201527f6c64657200000000000000000000000000000000000000000000000000000000602082015250565b6000612cc3602483612404565b9150612cce82612c67565b604082019050919050565b60006020820190508181036000830152612cf281612cb6565b9050919050565b7f4b6f727544616f4e46543a204d617820537570706c7900000000000000000000600082015250565b6000612d2f601683612404565b9150612d3a82612cf9565b602082019050919050565b60006020820190508181036000830152612d5e81612d22565b9050919050565b7f4e487b7100000000000000000000000000000000000000000000000000000000600052601160045260246000fd5b6000612d9f826124b4565b9150612daa836124b4565b9250827fffffffffffffffffffffffffffffffffffffffffffffffffffffffffffffffff03821115612ddf57612dde612d65565b5b828201905092915050565b7f4552433732313a207472616e736665722063616c6c6572206973206e6f74206f60008201527f776e6572206e6f7220617070726f766564000000000000000000000000000000602082015250565b6000612e46603183612404565b9150612e5182612dea565b604082019050919050565b60006020820190508181036000830152612e7581612e39565b9050919050565b7f455243373231456e756d657261626c653a206f776e657220696e646578206f7560008201527f74206f6620626f756e6473000000000000000000000000000000000000000000602082015250565b6000612ed8602b83612404565b9150612ee382612e7c565b604082019050919050565b60006020820190508181036000830152612f0781612ecb565b9050919050565b7f455243373231456e756d657261626c653a20676c6f62616c20696e646578206f60008201527f7574206f6620626f756e64730000000000000000000000000000000000000000602082015250565b6000612f6a602c83612404565b9150612f7582612f0e565b604082019050919050565b60006020820190508181036000830152612f9981612f5d565b9050919050565b7f4e487b7100000000000000000000000000000000000000000000000000000000600052603260045260246000fd5b7f4552433732313a206f776e657220717565727920666f72206e6f6e657869737460008201527f656e7420746f6b656e0000000000000000000000000000000000000000000000602082015250565b600061302b602983612404565b915061303682612fcf565b604082019050919050565b6000602082019050818103600083015261305a8161301e565b9050919050565b7f4552433732313a2062616c616e636520717565727920666f7220746865207a6560008201527f726f206164647265737300000000000000000000000000000000000000000000602082015250565b60006130bd602a83612404565b91506130c882613061565b604082019050919050565b600060208201905081810360008301526130ec816130b0565b9050919050565b600081519050613102816124be565b92915050565b60006020828403121561311e5761311d612334565b5b600061312c848285016130f3565b91505092915050565b7f4e4f545f415554484f52495a4544000000000000000000000000000000000000600082015250565b600061316b600e83612404565b915061317682613135565b602082019050919050565b6000602082019050818103600083015261319a8161315e565b9050919050565b7f4552433732314d657461646174613a2055524920717565727920666f72206e6f60008201527f6e6578697374656e7420746f6b656e0000000000000000000000000000000000602082015250565b60006131fd602f83612404565b9150613208826131a1565b604082019050919050565b6000602082019050818103600083015261322c816131f0565b9050919050565b600081905092915050565b6000613249826123f9565b6132538185613233565b9350613263818560208601612415565b80840191505092915050565b600061327b828561323e565b9150613287828461323e565b91508190509392505050565b7f4552433732313a206f70657261746f7220717565727920666f72206e6f6e657860008201527f697374656e7420746f6b656e0000000000000000000000000000000000000000602082015250565b60006132ef602c83612404565b91506132fa82613293565b604082019050919050565b6000602082019050818103600083015261331e816132e2565b9050919050565b7f4552433732313a207472616e736665722066726f6d20696e636f72726563742060008201527f6f776e6572000000000000000000000000000000000000000000000000000000602082015250565b6000613381602583612404565b915061338c82613325565b604082019050919050565b600060208201905081810360008301526133b081613374565b9050919050565b7f4552433732313a207472616e7366657220746f20746865207a65726f2061646460008201527f7265737300000000000000000000000000000000000000000000000000000000602082015250565b6000613413602483612404565b915061341e826133b7565b604082019050919050565b6000602082019050818103600083015261344281613406565b9050919050565b6000613454826124b4565b915061345f836124b4565b92508282101561347257613471612d65565b5b828203905092915050565b7f4552433732313a20617070726f766520746f2063616c6c657200000000000000600082015250565b60006134b3601983612404565b91506134be8261347d565b602082019050919050565b600060208201905081810360008301526134e2816134a6565b9050919050565b7f4552433732313a207472616e7366657220746f206e6f6e20455243373231526560008201527f63656976657220696d706c656d656e7465720000000000000000000000000000602082015250565b6000613545603283612404565b9150613550826134e9565b604082019050919050565b6000602082019050818103600083015261357481613538565b9050919050565b6000613586826124b4565b91507fffffffffffffffffffffffffffffffffffffffffffffffffffffffffffffffff82036135b8576135b7612d65565b5b600182019050919050565b7f4e487b7100000000000000000000000000000000000000000000000000000000600052601260045260246000fd5b60006135fd826124b4565b9150613608836124b4565b925082613618576136176135c3565b5b828204905092915050565b600061362e826124b4565b9150613639836124b4565b925082613649576136486135c3565b5b828206905092915050565b600081519050919050565b600082825260208201905092915050565b600061367b82613654565b613685818561365f565b9350613695818560208601612415565b61369e81612448565b840191505092915050565b60006080820190506136be6000830187612549565b6136cb6020830186612549565b6136d860408301856125df565b81810360608301526136ea8184613670565b905095945050505050565b6000815190506137048161236a565b92915050565b6000602082840312156137205761371f612334565b5b600061372e848285016136f5565b91505092915050565b7f4552433732313a206d696e7420746f20746865207a65726f2061646472657373600082015250565b600061376d602083612404565b915061377882613737565b602082019050919050565b6000602082019050818103600083015261379c81613760565b9050919050565b7f4552433732313a20746f6b656e20616c7265616479206d696e74656400000000600082015250565b60006137d9601c83612404565b91506137e4826137a3565b602082019050919050565b60006020820190508181036000830152613808816137cc565b9050919050565b7f4b6f727544616f4e46543a204f6e6520706572206163636f756e740000000000600082015250565b6000613845601b83612404565b91506138508261380f565b602082019050919050565b6000602082019050818103600083015261387481613838565b9050919050565b7f4e487b7100000000000000000000000000000000000000000000000000000000600052603160045260246000fdfea2646970667358221220c09974cfa8de9fa63d2e835f86cdaf9dae523a0b48a9f4c455c3fa46251c897f64736f6c634300080e0033",
  "devdoc": {
    "kind": "dev",
    "methods": {
      "approve(address,uint256)": {
        "details": "See {IERC721-approve}."
      },
      "balanceOf(address)": {
        "details": "See {IERC721-balanceOf}."
      },
      "getApproved(uint256)": {
        "details": "See {IERC721-getApproved}."
      },
      "isApprovedForAll(address,address)": {
        "details": "See {IERC721-isApprovedForAll}."
      },
      "name()": {
        "details": "See {IERC721Metadata-name}."
      },
      "ownerOf(uint256)": {
        "details": "See {IERC721-ownerOf}."
      },
      "safeTransferFrom(address,address,uint256)": {
        "details": "See {IERC721-safeTransferFrom}."
      },
      "safeTransferFrom(address,address,uint256,bytes)": {
        "details": "See {IERC721-safeTransferFrom}."
      },
      "setApprovalForAll(address,bool)": {
        "details": "See {IERC721-setApprovalForAll}."
      },
      "supportsInterface(bytes4)": {
        "details": "See {IERC165-supportsInterface}."
      },
      "symbol()": {
        "details": "See {IERC721Metadata-symbol}."
      },
      "tokenByIndex(uint256)": {
        "details": "See {IERC721Enumerable-tokenByIndex}."
      },
      "tokenOfOwnerByIndex(address,uint256)": {
        "details": "See {IERC721Enumerable-tokenOfOwnerByIndex}."
      },
      "tokenURI(uint256)": {
        "details": "See {IERC721Metadata-tokenURI}."
      },
      "totalSupply()": {
        "details": "See {IERC721Enumerable-totalSupply}."
      },
      "transferFrom(address,address,uint256)": {
        "details": "See {IERC721-transferFrom}."
      }
    },
    "version": 1
  },
  "userdoc": {
    "kind": "user",
    "methods": {},
    "version": 1
  },
  "storageLayout": {
    "storage": [
      {
        "astId": 1873,
        "contract": "contracts/KoruDaoNFT.sol:KoruDaoNFT",
        "label": "_name",
        "offset": 0,
        "slot": "0",
        "type": "t_string_storage"
      },
      {
        "astId": 1875,
        "contract": "contracts/KoruDaoNFT.sol:KoruDaoNFT",
        "label": "_symbol",
        "offset": 0,
        "slot": "1",
        "type": "t_string_storage"
      },
      {
        "astId": 1879,
        "contract": "contracts/KoruDaoNFT.sol:KoruDaoNFT",
        "label": "_owners",
        "offset": 0,
        "slot": "2",
        "type": "t_mapping(t_uint256,t_address)"
      },
      {
        "astId": 1883,
        "contract": "contracts/KoruDaoNFT.sol:KoruDaoNFT",
        "label": "_balances",
        "offset": 0,
        "slot": "3",
        "type": "t_mapping(t_address,t_uint256)"
      },
      {
        "astId": 1887,
        "contract": "contracts/KoruDaoNFT.sol:KoruDaoNFT",
        "label": "_tokenApprovals",
        "offset": 0,
        "slot": "4",
        "type": "t_mapping(t_uint256,t_address)"
      },
      {
        "astId": 1893,
        "contract": "contracts/KoruDaoNFT.sol:KoruDaoNFT",
        "label": "_operatorApprovals",
        "offset": 0,
        "slot": "5",
        "type": "t_mapping(t_address,t_mapping(t_address,t_bool))"
      },
      {
        "astId": 2733,
        "contract": "contracts/KoruDaoNFT.sol:KoruDaoNFT",
        "label": "_ownedTokens",
        "offset": 0,
        "slot": "6",
        "type": "t_mapping(t_address,t_mapping(t_uint256,t_uint256))"
      },
      {
        "astId": 2737,
        "contract": "contracts/KoruDaoNFT.sol:KoruDaoNFT",
        "label": "_ownedTokensIndex",
        "offset": 0,
        "slot": "7",
        "type": "t_mapping(t_uint256,t_uint256)"
      },
      {
        "astId": 2740,
        "contract": "contracts/KoruDaoNFT.sol:KoruDaoNFT",
        "label": "_allTokens",
        "offset": 0,
        "slot": "8",
        "type": "t_array(t_uint256)dyn_storage"
      },
      {
        "astId": 2744,
        "contract": "contracts/KoruDaoNFT.sol:KoruDaoNFT",
        "label": "_allTokensIndex",
        "offset": 0,
        "slot": "9",
        "type": "t_mapping(t_uint256,t_uint256)"
      },
      {
        "astId": 957,
        "contract": "contracts/KoruDaoNFT.sol:KoruDaoNFT",
        "label": "baseUri",
        "offset": 0,
        "slot": "10",
        "type": "t_string_storage"
      }
    ],
    "types": {
      "t_address": {
        "encoding": "inplace",
        "label": "address",
        "numberOfBytes": "20"
      },
      "t_array(t_uint256)dyn_storage": {
        "base": "t_uint256",
        "encoding": "dynamic_array",
        "label": "uint256[]",
        "numberOfBytes": "32"
      },
      "t_bool": {
        "encoding": "inplace",
        "label": "bool",
        "numberOfBytes": "1"
      },
      "t_mapping(t_address,t_bool)": {
        "encoding": "mapping",
        "key": "t_address",
        "label": "mapping(address => bool)",
        "numberOfBytes": "32",
        "value": "t_bool"
      },
      "t_mapping(t_address,t_mapping(t_address,t_bool))": {
        "encoding": "mapping",
        "key": "t_address",
        "label": "mapping(address => mapping(address => bool))",
        "numberOfBytes": "32",
        "value": "t_mapping(t_address,t_bool)"
      },
      "t_mapping(t_address,t_mapping(t_uint256,t_uint256))": {
        "encoding": "mapping",
        "key": "t_address",
        "label": "mapping(address => mapping(uint256 => uint256))",
        "numberOfBytes": "32",
        "value": "t_mapping(t_uint256,t_uint256)"
      },
      "t_mapping(t_address,t_uint256)": {
        "encoding": "mapping",
        "key": "t_address",
        "label": "mapping(address => uint256)",
        "numberOfBytes": "32",
        "value": "t_uint256"
      },
      "t_mapping(t_uint256,t_address)": {
        "encoding": "mapping",
        "key": "t_uint256",
        "label": "mapping(uint256 => address)",
        "numberOfBytes": "32",
        "value": "t_address"
      },
      "t_mapping(t_uint256,t_uint256)": {
        "encoding": "mapping",
        "key": "t_uint256",
        "label": "mapping(uint256 => uint256)",
        "numberOfBytes": "32",
        "value": "t_uint256"
      },
      "t_string_storage": {
        "encoding": "bytes",
        "label": "string",
        "numberOfBytes": "32"
      },
      "t_uint256": {
        "encoding": "inplace",
        "label": "uint256",
        "numberOfBytes": "32"
      }
    }
  }
}