{
  "address": "0x9b9c70d70a9d321b84b1a1477ac4a76ccd088ec8",
  "abi": [
    {
      "inputs": [
        {
          "internalType": "bool",
          "name": "_restricted",
          "type": "bool"
        },
        {
          "internalType": "uint256",
          "name": "_postInterval",
          "type": "uint256"
        },
        {
          "internalType": "address",
          "name": "_gelatoRelay",
          "type": "address"
        },
        {
          "internalType": "contract IERC721MetaTxEnumerable",
          "name": "_koruDaoNft",
          "type": "address"
        },
        {
          "internalType": "contract ILensHub",
          "name": "_lensHub",
          "type": "address"
        }
      ],
      "stateMutability": "nonpayable",
      "type": "constructor"
    },
    {
      "anonymous": false,
      "inputs": [
        {
          "indexed": false,
          "internalType": "address",
          "name": "user",
          "type": "address"
        },
        {
          "indexed": false,
          "internalType": "uint256",
          "name": "time",
          "type": "uint256"
        },
        {
          "components": [
            {
              "internalType": "uint256",
              "name": "profileId",
              "type": "uint256"
            },
            {
              "internalType": "string",
              "name": "contentURI",
              "type": "string"
            },
            {
              "internalType": "address",
              "name": "collectModule",
              "type": "address"
            },
            {
              "internalType": "bytes",
              "name": "collectModuleInitData",
              "type": "bytes"
            },
            {
              "internalType": "address",
              "name": "referenceModule",
              "type": "address"
            },
            {
              "internalType": "bytes",
              "name": "referenceModuleInitData",
              "type": "bytes"
            }
          ],
          "indexed": false,
          "internalType": "struct DataTypes.PostData",
          "name": "_postVars",
          "type": "tuple"
        }
      ],
      "name": "LogPost",
      "type": "event"
    },
    {
      "inputs": [
        {
          "internalType": "address",
          "name": "_user",
          "type": "address"
        }
      ],
      "name": "canPost",
      "outputs": [
        {
          "internalType": "bool",
          "name": "",
          "type": "bool"
        }
      ],
      "stateMutability": "view",
      "type": "function"
    },
    {
      "inputs": [],
      "name": "gelatoRelay",
      "outputs": [
        {
          "internalType": "address",
          "name": "",
          "type": "address"
        }
      ],
      "stateMutability": "view",
      "type": "function"
    },
    {
      "inputs": [
        {
          "internalType": "address",
          "name": "forwarder",
          "type": "address"
        }
      ],
      "name": "isTrustedForwarder",
      "outputs": [
        {
          "internalType": "bool",
          "name": "",
          "type": "bool"
        }
      ],
      "stateMutability": "view",
      "type": "function"
    },
    {
      "inputs": [],
      "name": "koruDaoNft",
      "outputs": [
        {
          "internalType": "contract IERC721MetaTxEnumerable",
          "name": "",
          "type": "address"
        }
      ],
      "stateMutability": "view",
      "type": "function"
    },
    {
      "inputs": [
        {
          "internalType": "address",
          "name": "",
          "type": "address"
        }
      ],
      "name": "lastPost",
      "outputs": [
        {
          "internalType": "uint256",
          "name": "",
          "type": "uint256"
        }
      ],
      "stateMutability": "view",
      "type": "function"
    },
    {
      "inputs": [],
      "name": "lensHub",
      "outputs": [
        {
          "internalType": "contract ILensHub",
          "name": "",
          "type": "address"
        }
      ],
      "stateMutability": "view",
      "type": "function"
    },
    {
      "inputs": [
        {
          "internalType": "address",
          "name": "",
          "type": "address"
        },
        {
          "internalType": "address",
          "name": "",
          "type": "address"
        },
        {
          "internalType": "uint256",
          "name": "",
          "type": "uint256"
        },
        {
          "internalType": "bytes",
          "name": "",
          "type": "bytes"
        }
      ],
      "name": "onERC721Received",
      "outputs": [
        {
          "internalType": "bytes4",
          "name": "",
          "type": "bytes4"
        }
      ],
      "stateMutability": "nonpayable",
      "type": "function"
    },
    {
      "inputs": [
        {
          "components": [
            {
              "internalType": "uint256",
              "name": "profileId",
              "type": "uint256"
            },
            {
              "internalType": "string",
              "name": "contentURI",
              "type": "string"
            },
            {
              "internalType": "address",
              "name": "collectModule",
              "type": "address"
            },
            {
              "internalType": "bytes",
              "name": "collectModuleInitData",
              "type": "bytes"
            },
            {
              "internalType": "address",
              "name": "referenceModule",
              "type": "address"
            },
            {
              "internalType": "bytes",
              "name": "referenceModuleInitData",
              "type": "bytes"
            }
          ],
          "internalType": "struct DataTypes.PostData",
          "name": "_postVars",
          "type": "tuple"
        }
      ],
      "name": "post",
      "outputs": [],
      "stateMutability": "nonpayable",
      "type": "function"
    },
    {
      "inputs": [],
      "name": "postInterval",
      "outputs": [
        {
          "internalType": "uint256",
          "name": "",
          "type": "uint256"
        }
      ],
      "stateMutability": "view",
      "type": "function"
    },
    {
      "inputs": [],
      "name": "restricted",
      "outputs": [
        {
          "internalType": "bool",
          "name": "",
          "type": "bool"
        }
      ],
      "stateMutability": "view",
      "type": "function"
    },
    {
      "inputs": [
        {
          "internalType": "uint256",
          "name": "_profileId",
          "type": "uint256"
        }
      ],
      "name": "setDefaultProfile",
      "outputs": [],
      "stateMutability": "nonpayable",
      "type": "function"
    }
  ],
  "transactionHash": "0xfacd8106ccd5e4d230c417921c49c77c6d55359ae4b59581116f16c41fc510de",
  "args": [
    false,
    600,
    "0xC401cA07564D54bA47b542eD9838A2a36648C954",
    "0x1d1a00E6222CAB32f116D8fB6680335eA9C3e81a",
    "0x60Ae865ee4C725cd04353b5AAb364553f56ceF82"
  ],
  "numDeployments": 9,
  "solcInputHash": "7ce796801a3882e4f32aff3afd96b404",
  "bytecode": "0x6101406040523480156200001257600080fd5b50604051620017c5380380620017c583398181016040528101906200003891906200029d565b828584838215156080811515815250508073ffffffffffffffffffffffffffffffffffffffff1660c08173ffffffffffffffffffffffffffffffffffffffff16815250508173ffffffffffffffffffffffffffffffffffffffff1660a08173ffffffffffffffffffffffffffffffffffffffff16815250505050508073ffffffffffffffffffffffffffffffffffffffff1660e08173ffffffffffffffffffffffffffffffffffffffff1681525050508173ffffffffffffffffffffffffffffffffffffffff166101008173ffffffffffffffffffffffffffffffffffffffff1681525050836101208181525050505050505062000325565b600080fd5b60008115159050919050565b6200014d8162000136565b81146200015957600080fd5b50565b6000815190506200016d8162000142565b92915050565b6000819050919050565b620001888162000173565b81146200019457600080fd5b50565b600081519050620001a8816200017d565b92915050565b600073ffffffffffffffffffffffffffffffffffffffff82169050919050565b6000620001db82620001ae565b9050919050565b620001ed81620001ce565b8114620001f957600080fd5b50565b6000815190506200020d81620001e2565b92915050565b60006200022082620001ce565b9050919050565b620002328162000213565b81146200023e57600080fd5b50565b600081519050620002528162000227565b92915050565b60006200026582620001ce565b9050919050565b620002778162000258565b81146200028357600080fd5b50565b60008151905062000297816200026c565b92915050565b600080600080600060a08688031215620002bc57620002bb62000131565b5b6000620002cc888289016200015c565b9550506020620002df8882890162000197565b9450506040620002f288828901620001fc565b9350506060620003058882890162000241565b9250506080620003188882890162000286565b9150509295509295909350565b60805160a05160c05160e051610100516101205161141f620003a66000396000818161027601526102f401526000818161037701526104d20152600061029c0152600081816105f401528181610714015281816107c5015261088801526000818161025201526103bf01526000818161039b0152610455015261141f6000f3fe608060405234801561001057600080fd5b50600436106100a95760003560e01c80636729635011610071578063672963501461017a5780637072c6b114610198578063963ff141146101b6578063b02cfdc3146101d2578063ca20344f146101f0578063f1b2f8bc14610220576100a9565b8063150b7a02146100ae5780633552221a146100de5780635034227b146100fc578063572b6c051461011a57806362d3576b1461014a575b600080fd5b6100c860048036038101906100c39190610b47565b61023c565b6040516100d59190610c05565b60405180910390f35b6100e6610250565b6040516100f39190610c2f565b60405180910390f35b610104610274565b6040516101119190610c59565b60405180910390f35b610134600480360381019061012f9190610c74565b610298565b6040516101419190610cbc565b60405180910390f35b610164600480360381019061015f9190610c74565b6102f0565b6040516101719190610cbc565b60405180910390f35b610182610375565b60405161018f9190610d36565b60405180910390f35b6101a0610399565b6040516101ad9190610cbc565b60405180910390f35b6101d060048036038101906101cb9190610d75565b6103bd565b005b6101da610712565b6040516101e79190610ddf565b60405180910390f35b61020a60048036038101906102059190610c74565b610736565b6040516102179190610c59565b60405180910390f35b61023a60048036038101906102359190610dfa565b61074e565b005b600063150b7a0260e01b9050949350505050565b7f000000000000000000000000000000000000000000000000000000000000000081565b7f000000000000000000000000000000000000000000000000000000000000000081565b60007f000000000000000000000000000000000000000000000000000000000000000073ffffffffffffffffffffffffffffffffffffffff168273ffffffffffffffffffffffffffffffffffffffff16149050919050565b60007f00000000000000000000000000000000000000000000000000000000000000006000808473ffffffffffffffffffffffffffffffffffffffff1673ffffffffffffffffffffffffffffffffffffffff168152602001908152602001600020544261035d9190610e56565b1061036b5760019050610370565b600090505b919050565b7f000000000000000000000000000000000000000000000000000000000000000081565b7f000000000000000000000000000000000000000000000000000000000000000081565b7f000000000000000000000000000000000000000000000000000000000000000073ffffffffffffffffffffffffffffffffffffffff163373ffffffffffffffffffffffffffffffffffffffff161461044b576040517f08c379a000000000000000000000000000000000000000000000000000000000815260040161044290610ee7565b60405180910390fd5b610453610851565b7f0000000000000000000000000000000000000000000000000000000000000000156104c25761048281610883565b6104c1576040517f08c379a00000000000000000000000000000000000000000000000000000000081526004016104b890610f79565b60405180910390fd5b5b60006104cc610851565b905060007f000000000000000000000000000000000000000000000000000000000000000073ffffffffffffffffffffffffffffffffffffffff166370a08231836040518263ffffffff1660e01b81526004016105299190610c2f565b602060405180830381865afa158015610546573d6000803e3d6000fd5b505050506040513d601f19601f8201168201806040525081019061056a9190610fae565b116105aa576040517f08c379a00000000000000000000000000000000000000000000000000000000081526004016105a190611027565b60405180910390fd5b6105b3816102f0565b6105f2576040517f08c379a00000000000000000000000000000000000000000000000000000000081526004016105e990611093565b60405180910390fd5b7f000000000000000000000000000000000000000000000000000000000000000073ffffffffffffffffffffffffffffffffffffffff1663963ff141846040518263ffffffff1660e01b815260040161064b919061131d565b6020604051808303816000875af115801561066a573d6000803e3d6000fd5b505050506040513d601f19601f8201168201806040525081019061068e9190610fae565b50426000808373ffffffffffffffffffffffffffffffffffffffff1673ffffffffffffffffffffffffffffffffffffffff168152602001908152602001600020819055507f87f02200ead8886303218bb12770a5f303f0153fcdbc13e772fe0c0fa64999ec8142856040516107059392919061133f565b60405180910390a1505050565b7f000000000000000000000000000000000000000000000000000000000000000081565b60006020528060005260406000206000915090505481565b610756610928565b73ffffffffffffffffffffffffffffffffffffffff163373ffffffffffffffffffffffffffffffffffffffff16146107c3576040517f08c379a00000000000000000000000000000000000000000000000000000000081526004016107ba906113c9565b60405180910390fd5b7f000000000000000000000000000000000000000000000000000000000000000073ffffffffffffffffffffffffffffffffffffffff1663f1b2f8bc826040518263ffffffff1660e01b815260040161081c9190610c59565b600060405180830381600087803b15801561083657600080fd5b505af115801561084a573d6000803e3d6000fd5b5050505050565b600061085c33610298565b1561087057601436033560601c905061087f565b610878610951565b9050610880565b5b90565b6000807f000000000000000000000000000000000000000000000000000000000000000073ffffffffffffffffffffffffffffffffffffffff166370a08231846040518263ffffffff1660e01b81526004016108df9190610c2f565b602060405180830381865afa1580156108fc573d6000803e3d6000fd5b505050506040513d601f19601f820116820180604052508101906109209190610fae565b119050919050565b60007fb53127684a568b3173ae13b9f8a6016e243e63b6e8ee1178d6a717850b5d610354905090565b600033905090565b6000604051905090565b600080fd5b600080fd5b600073ffffffffffffffffffffffffffffffffffffffff82169050919050565b60006109988261096d565b9050919050565b6109a88161098d565b81146109b357600080fd5b50565b6000813590506109c58161099f565b92915050565b6000819050919050565b6109de816109cb565b81146109e957600080fd5b50565b6000813590506109fb816109d5565b92915050565b600080fd5b600080fd5b6000601f19601f8301169050919050565b7f4e487b7100000000000000000000000000000000000000000000000000000000600052604160045260246000fd5b610a5482610a0b565b810181811067ffffffffffffffff82111715610a7357610a72610a1c565b5b80604052505050565b6000610a86610959565b9050610a928282610a4b565b919050565b600067ffffffffffffffff821115610ab257610ab1610a1c565b5b610abb82610a0b565b9050602081019050919050565b82818337600083830152505050565b6000610aea610ae584610a97565b610a7c565b905082815260208101848484011115610b0657610b05610a06565b5b610b11848285610ac8565b509392505050565b600082601f830112610b2e57610b2d610a01565b5b8135610b3e848260208601610ad7565b91505092915050565b60008060008060808587031215610b6157610b60610963565b5b6000610b6f878288016109b6565b9450506020610b80878288016109b6565b9350506040610b91878288016109ec565b925050606085013567ffffffffffffffff811115610bb257610bb1610968565b5b610bbe87828801610b19565b91505092959194509250565b60007fffffffff0000000000000000000000000000000000000000000000000000000082169050919050565b610bff81610bca565b82525050565b6000602082019050610c1a6000830184610bf6565b92915050565b610c298161098d565b82525050565b6000602082019050610c446000830184610c20565b92915050565b610c53816109cb565b82525050565b6000602082019050610c6e6000830184610c4a565b92915050565b600060208284031215610c8a57610c89610963565b5b6000610c98848285016109b6565b91505092915050565b60008115159050919050565b610cb681610ca1565b82525050565b6000602082019050610cd16000830184610cad565b92915050565b6000819050919050565b6000610cfc610cf7610cf28461096d565b610cd7565b61096d565b9050919050565b6000610d0e82610ce1565b9050919050565b6000610d2082610d03565b9050919050565b610d3081610d15565b82525050565b6000602082019050610d4b6000830184610d27565b92915050565b600080fd5b600060c08284031215610d6c57610d6b610d51565b5b81905092915050565b600060208284031215610d8b57610d8a610963565b5b600082013567ffffffffffffffff811115610da957610da8610968565b5b610db584828501610d56565b91505092915050565b6000610dc982610d03565b9050919050565b610dd981610dbe565b82525050565b6000602082019050610df46000830184610dd0565b92915050565b600060208284031215610e1057610e0f610963565b5b6000610e1e848285016109ec565b91505092915050565b7f4e487b7100000000000000000000000000000000000000000000000000000000600052601160045260246000fd5b6000610e61826109cb565b9150610e6c836109cb565b925082821015610e7f57610e7e610e27565b5b828203905092915050565b600082825260208201905092915050565b7f5265737472696374696f6e733a204f6e6c792047656c61746f2072656c617900600082015250565b6000610ed1601f83610e8a565b9150610edc82610e9b565b602082019050919050565b60006020820190508181036000830152610f0081610ec4565b9050919050565b7f5265737472696374696f6e733a204f6e6c79206c656e732070726f66696c652060008201527f686f6c6465720000000000000000000000000000000000000000000000000000602082015250565b6000610f63602683610e8a565b9150610f6e82610f07565b604082019050919050565b60006020820190508181036000830152610f9281610f56565b9050919050565b600081519050610fa8816109d5565b92915050565b600060208284031215610fc457610fc3610963565b5b6000610fd284828501610f99565b91505092915050565b7f4b6f727544616f3a204e6f204b6f727544616f4e667400000000000000000000600082015250565b6000611011601683610e8a565b915061101c82610fdb565b602082019050919050565b6000602082019050818103600083015261104081611004565b9050919050565b7f4b6f727544616f3a20506f737420746f6f206672657175656e74000000000000600082015250565b600061107d601a83610e8a565b915061108882611047565b602082019050919050565b600060208201905081810360008301526110ac81611070565b9050919050565b60006110c260208401846109ec565b905092915050565b6110d3816109cb565b82525050565b600080fd5b600080fd5b600080fd5b60008083356001602003843603038112611105576111046110e3565b5b83810192508235915060208301925067ffffffffffffffff82111561112d5761112c6110d9565b5b600182023603831315611143576111426110de565b5b509250929050565b600082825260208201905092915050565b6000611168838561114b565b9350611175838584610ac8565b61117e83610a0b565b840190509392505050565b600061119860208401846109b6565b905092915050565b6111a98161098d565b82525050565b600080833560016020038436030381126111cc576111cb6110e3565b5b83810192508235915060208301925067ffffffffffffffff8211156111f4576111f36110d9565b5b60018202360383131561120a576112096110de565b5b509250929050565b600082825260208201905092915050565b600061122f8385611212565b935061123c838584610ac8565b61124583610a0b565b840190509392505050565b600060c0830161126360008401846110b3565b61127060008601826110ca565b5061127e60208401846110e8565b858303602087015261129183828461115c565b925050506112a26040840184611189565b6112af60408601826111a0565b506112bd60608401846111af565b85830360608701526112d0838284611223565b925050506112e16080840184611189565b6112ee60808601826111a0565b506112fc60a08401846111af565b85830360a087015261130f838284611223565b925050508091505092915050565b600060208201905081810360008301526113378184611250565b905092915050565b60006060820190506113546000830186610c20565b6113616020830185610c4a565b81810360408301526113738184611250565b9050949350505050565b7f4e4f545f415554484f52495a4544000000000000000000000000000000000000600082015250565b60006113b3600e83610e8a565b91506113be8261137d565b602082019050919050565b600060208201905081810360008301526113e2816113a6565b905091905056fea2646970667358221220171c79e231bbdbe11d79b8d91fd013391e64cce7edd5823e91b3ec5b1225f1fb64736f6c634300080e0033",
  "devdoc": {
    "kind": "dev",
    "methods": {
      "onERC721Received(address,address,uint256,bytes)": {
        "details": "See {IERC721Receiver-onERC721Received}. Always returns `IERC721Receiver.onERC721Received.selector`."
      }
    },
    "version": 1
  },
  "userdoc": {
    "kind": "user",
    "methods": {},
    "version": 1
  },
  "storageLayout": {
    "storage": [
      {
        "astId": 934,
        "contract": "contracts/KoruDao.sol:KoruDao",
        "label": "lastPost",
        "offset": 0,
        "slot": "0",
        "type": "t_mapping(t_address,t_uint256)"
      }
    ],
    "types": {
      "t_address": {
        "encoding": "inplace",
        "label": "address",
        "numberOfBytes": "20"
      },
      "t_mapping(t_address,t_uint256)": {
        "encoding": "mapping",
        "key": "t_address",
        "label": "mapping(address => uint256)",
        "numberOfBytes": "32",
        "value": "t_uint256"
      },
      "t_uint256": {
        "encoding": "inplace",
        "label": "uint256",
        "numberOfBytes": "32"
      }
    }
  }
}