{
  "address": "0x82587b1d0Ea122B728309414DD48C8913037E72d",
  "abi": [
    {
      "inputs": [
        {
          "internalType": "contract IERC721MetaTxEnumerable",
          "name": "_lensDaoNft",
          "type": "address"
        },
        {
          "internalType": "uint256",
          "name": "_postInterval",
          "type": "uint256"
        },
        {
          "internalType": "contract ILensHub",
          "name": "_lensHub",
          "type": "address"
        },
        {
          "internalType": "address",
          "name": "_gelatoMetaBox",
          "type": "address"
        }
      ],
      "stateMutability": "nonpayable",
      "type": "constructor"
    },
    {
      "inputs": [
        {
          "internalType": "address",
          "name": "_wallet",
          "type": "address"
        }
      ],
      "name": "hasLensProfile",
      "outputs": [
        {
          "internalType": "bool",
          "name": "",
          "type": "bool"
        }
      ],
      "stateMutability": "view",
      "type": "function"
    },
    {
      "inputs": [
        {
          "internalType": "address",
          "name": "forwarder",
          "type": "address"
        }
      ],
      "name": "isTrustedForwarder",
      "outputs": [
        {
          "internalType": "bool",
          "name": "",
          "type": "bool"
        }
      ],
      "stateMutability": "view",
      "type": "function"
    },
    {
      "inputs": [
        {
          "internalType": "address",
          "name": "",
          "type": "address"
        }
      ],
      "name": "lastPost",
      "outputs": [
        {
          "internalType": "uint256",
          "name": "",
          "type": "uint256"
        }
      ],
      "stateMutability": "view",
      "type": "function"
    },
    {
      "inputs": [],
      "name": "lensDaoNft",
      "outputs": [
        {
          "internalType": "contract IERC721MetaTxEnumerable",
          "name": "",
          "type": "address"
        }
      ],
      "stateMutability": "view",
      "type": "function"
    },
    {
      "inputs": [],
      "name": "lensHub",
      "outputs": [
        {
          "internalType": "contract ILensHub",
          "name": "",
          "type": "address"
        }
      ],
      "stateMutability": "view",
      "type": "function"
    },
    {
      "inputs": [
        {
          "components": [
            {
              "internalType": "uint256",
              "name": "profileId",
              "type": "uint256"
            },
            {
              "internalType": "string",
              "name": "contentURI",
              "type": "string"
            },
            {
              "internalType": "address",
              "name": "collectModule",
              "type": "address"
            },
            {
              "internalType": "bytes",
              "name": "collectModuleInitData",
              "type": "bytes"
            },
            {
              "internalType": "address",
              "name": "referenceModule",
              "type": "address"
            },
            {
              "internalType": "bytes",
              "name": "referenceModuleInitData",
              "type": "bytes"
            }
          ],
          "internalType": "struct DataTypes.PostData",
          "name": "_vars",
          "type": "tuple"
        }
      ],
      "name": "post",
      "outputs": [],
      "stateMutability": "nonpayable",
      "type": "function"
    },
    {
      "inputs": [],
      "name": "postInterval",
      "outputs": [
        {
          "internalType": "uint256",
          "name": "",
          "type": "uint256"
        }
      ],
      "stateMutability": "view",
      "type": "function"
    }
  ],
  "transactionHash": "0x93d6fea9db6f296ae688f68caf2fd317e230bbd6d4e2af6a9c4391d5c29d89b6",
  "args": [
    "0x1d1a00E6222CAB32f116D8fB6680335eA9C3e81a",
    43200,
    "0x60Ae865ee4C725cd04353b5AAb364553f56ceF82",
    "0x8F2510b3D61CE21b470d1fa4Fd657D82F692Cc6C"
  ],
  "numDeployments": 2,
  "solcInputHash": "0bf1edffa8fb23a942f88fa611783dca",
  "bytecode": "0x6101006040523480156200001257600080fd5b506040516200106738038062001067833981810160405281019062000038919062000219565b80828073ffffffffffffffffffffffffffffffffffffffff1660808173ffffffffffffffffffffffffffffffffffffffff1681525050508073ffffffffffffffffffffffffffffffffffffffff1660a08173ffffffffffffffffffffffffffffffffffffffff1681525050508373ffffffffffffffffffffffffffffffffffffffff1660c08173ffffffffffffffffffffffffffffffffffffffff16815250508260e08181525050505050506200028b565b600080fd5b600073ffffffffffffffffffffffffffffffffffffffff82169050919050565b60006200011c82620000ef565b9050919050565b600062000130826200010f565b9050919050565b620001428162000123565b81146200014e57600080fd5b50565b600081519050620001628162000137565b92915050565b6000819050919050565b6200017d8162000168565b81146200018957600080fd5b50565b6000815190506200019d8162000172565b92915050565b6000620001b0826200010f565b9050919050565b620001c281620001a3565b8114620001ce57600080fd5b50565b600081519050620001e281620001b7565b92915050565b620001f3816200010f565b8114620001ff57600080fd5b50565b6000815190506200021381620001e8565b92915050565b60008060008060808587031215620002365762000235620000ea565b5b6000620002468782880162000151565b945050602062000259878288016200018c565b93505060406200026c87828801620001d1565b92505060606200027f8782880162000202565b91505092959194509250565b60805160a05160c05160e051610d86620002e16000396000818161018a01526103e301526000818161030901526105b0015260006101b00152600081816102090152818161048f01526105740152610d866000f3fe608060405234801561001057600080fd5b506004361061007d5760003560e01c8063963ff1411161005b578063963ff14114610100578063b02cfdc31461011c578063ca20344f1461013a578063fed8f27f1461016a5761007d565b80635034227b14610082578063572b6c05146100a0578063908e3f85146100d0575b600080fd5b61008a610188565b6040516100979190610625565b60405180910390f35b6100ba60048036038101906100b591906106a8565b6101ac565b6040516100c791906106f0565b60405180910390f35b6100ea60048036038101906100e591906106a8565b610204565b6040516100f791906106f0565b60405180910390f35b61011a6004803603810190610115919061072f565b6102a9565b005b610124610572565b60405161013191906107d7565b60405180910390f35b610154600480360381019061014f91906106a8565b610596565b6040516101619190610625565b60405180910390f35b6101726105ae565b60405161017f9190610813565b60405180910390f35b7f000000000000000000000000000000000000000000000000000000000000000081565b60007f000000000000000000000000000000000000000000000000000000000000000073ffffffffffffffffffffffffffffffffffffffff168273ffffffffffffffffffffffffffffffffffffffff16149050919050565b6000807f000000000000000000000000000000000000000000000000000000000000000073ffffffffffffffffffffffffffffffffffffffff166370a08231846040518263ffffffff1660e01b8152600401610260919061083d565b602060405180830381865afa15801561027d573d6000803e3d6000fd5b505050506040513d601f19601f820116820180604052508101906102a19190610884565b119050919050565b6102b16105d2565b6102ba81610204565b6102f9576040517f08c379a00000000000000000000000000000000000000000000000000000000081526004016102f090610934565b60405180910390fd5b60006103036105d2565b905060007f000000000000000000000000000000000000000000000000000000000000000073ffffffffffffffffffffffffffffffffffffffff166370a08231836040518263ffffffff1660e01b8152600401610360919061083d565b602060405180830381865afa15801561037d573d6000803e3d6000fd5b505050506040513d601f19601f820116820180604052508101906103a19190610884565b116103e1576040517f08c379a00000000000000000000000000000000000000000000000000000000081526004016103d8906109a0565b60405180910390fd5b7f00000000000000000000000000000000000000000000000000000000000000006000808373ffffffffffffffffffffffffffffffffffffffff1673ffffffffffffffffffffffffffffffffffffffff168152602001908152602001600020544261044c91906109ef565b101561048d576040517f08c379a000000000000000000000000000000000000000000000000000000000815260040161048490610a6f565b60405180910390fd5b7f000000000000000000000000000000000000000000000000000000000000000073ffffffffffffffffffffffffffffffffffffffff1663963ff141846040518263ffffffff1660e01b81526004016104e69190610d2e565b6020604051808303816000875af1158015610505573d6000803e3d6000fd5b505050506040513d601f19601f820116820180604052508101906105299190610884565b50426000808373ffffffffffffffffffffffffffffffffffffffff1673ffffffffffffffffffffffffffffffffffffffff16815260200190815260200160002081905550505050565b7f000000000000000000000000000000000000000000000000000000000000000081565b60006020528060005260406000206000915090505481565b7f000000000000000000000000000000000000000000000000000000000000000081565b60006105dd336101ac565b156105f157601436033560601c9050610600565b6105f9610604565b9050610601565b5b90565b600033905090565b6000819050919050565b61061f8161060c565b82525050565b600060208201905061063a6000830184610616565b92915050565b600080fd5b600080fd5b600073ffffffffffffffffffffffffffffffffffffffff82169050919050565b60006106758261064a565b9050919050565b6106858161066a565b811461069057600080fd5b50565b6000813590506106a28161067c565b92915050565b6000602082840312156106be576106bd610640565b5b60006106cc84828501610693565b91505092915050565b60008115159050919050565b6106ea816106d5565b82525050565b600060208201905061070560008301846106e1565b92915050565b600080fd5b600060c082840312156107265761072561070b565b5b81905092915050565b60006020828403121561074557610744610640565b5b600082013567ffffffffffffffff81111561076357610762610645565b5b61076f84828501610710565b91505092915050565b6000819050919050565b600061079d6107986107938461064a565b610778565b61064a565b9050919050565b60006107af82610782565b9050919050565b60006107c1826107a4565b9050919050565b6107d1816107b6565b82525050565b60006020820190506107ec60008301846107c8565b92915050565b60006107fd826107a4565b9050919050565b61080d816107f2565b82525050565b60006020820190506108286000830184610804565b92915050565b6108378161066a565b82525050565b6000602082019050610852600083018461082e565b92915050565b6108618161060c565b811461086c57600080fd5b50565b60008151905061087e81610858565b92915050565b60006020828403121561089a57610899610640565b5b60006108a88482850161086f565b91505092915050565b600082825260208201905092915050565b7f4c656e7344616f4e46543a204f6e6c79206c656e732070726f66696c6520686f60008201527f6c64657200000000000000000000000000000000000000000000000000000000602082015250565b600061091e6024836108b1565b9150610929826108c2565b604082019050919050565b6000602082019050818103600083015261094d81610911565b9050919050565b7f4c656e7344616f3a204e6f204c656e7344616f4e465400000000000000000000600082015250565b600061098a6016836108b1565b915061099582610954565b602082019050919050565b600060208201905081810360008301526109b98161097d565b9050919050565b7f4e487b7100000000000000000000000000000000000000000000000000000000600052601160045260246000fd5b60006109fa8261060c565b9150610a058361060c565b925082821015610a1857610a176109c0565b5b828203905092915050565b7f4c656e7344616f3a20506f737420746f6f206672657175656e74000000000000600082015250565b6000610a59601a836108b1565b9150610a6482610a23565b602082019050919050565b60006020820190508181036000830152610a8881610a4c565b9050919050565b600081359050610a9e81610858565b92915050565b6000610ab36020840184610a8f565b905092915050565b610ac48161060c565b82525050565b600080fd5b600080fd5b600080fd5b60008083356001602003843603038112610af657610af5610ad4565b5b83810192508235915060208301925067ffffffffffffffff821115610b1e57610b1d610aca565b5b600182023603831315610b3457610b33610acf565b5b509250929050565b600082825260208201905092915050565b82818337600083830152505050565b6000601f19601f8301169050919050565b6000610b798385610b3c565b9350610b86838584610b4d565b610b8f83610b5c565b840190509392505050565b6000610ba96020840184610693565b905092915050565b610bba8161066a565b82525050565b60008083356001602003843603038112610bdd57610bdc610ad4565b5b83810192508235915060208301925067ffffffffffffffff821115610c0557610c04610aca565b5b600182023603831315610c1b57610c1a610acf565b5b509250929050565b600082825260208201905092915050565b6000610c408385610c23565b9350610c4d838584610b4d565b610c5683610b5c565b840190509392505050565b600060c08301610c746000840184610aa4565b610c816000860182610abb565b50610c8f6020840184610ad9565b8583036020870152610ca2838284610b6d565b92505050610cb36040840184610b9a565b610cc06040860182610bb1565b50610cce6060840184610bc0565b8583036060870152610ce1838284610c34565b92505050610cf26080840184610b9a565b610cff6080860182610bb1565b50610d0d60a0840184610bc0565b85830360a0870152610d20838284610c34565b925050508091505092915050565b60006020820190508181036000830152610d488184610c61565b90509291505056fea264697066735822122045f3066d444828c3401388669332499c9a5f770c0776e691e7c9dd3cdbfb954064736f6c634300080e0033",
  "devdoc": {
    "kind": "dev",
    "methods": {},
    "version": 1
  },
  "userdoc": {
    "kind": "user",
    "methods": {},
    "version": 1
  },
  "storageLayout": {
    "storage": [
      {
        "astId": 288,
        "contract": "contracts/LensDao.sol:LensDao",
        "label": "lastPost",
        "offset": 0,
        "slot": "0",
        "type": "t_mapping(t_address,t_uint256)"
      }
    ],
    "types": {
      "t_address": {
        "encoding": "inplace",
        "label": "address",
        "numberOfBytes": "20"
      },
      "t_mapping(t_address,t_uint256)": {
        "encoding": "mapping",
        "key": "t_address",
        "label": "mapping(address => uint256)",
        "numberOfBytes": "32",
        "value": "t_uint256"
      },
      "t_uint256": {
        "encoding": "inplace",
        "label": "uint256",
        "numberOfBytes": "32"
      }
    }
  }
}