{
  "address": "0x7A1EC66a1314a00535D0C327931566A29C90deC8",
  "abi": [
    {
      "inputs": [
        {
          "internalType": "uint256",
          "name": "_actionInterval",
          "type": "uint256"
        },
        {
          "internalType": "address",
          "name": "_koruDao",
          "type": "address"
        },
        {
          "internalType": "contract IERC721MetaTxEnumerableUpgradeable",
          "name": "_koruDaoNft",
          "type": "address"
        }
      ],
      "stateMutability": "nonpayable",
      "type": "constructor"
    },
    {
      "inputs": [],
      "name": "actionInterval",
      "outputs": [
        {
          "internalType": "uint256",
          "name": "",
          "type": "uint256"
        }
      ],
      "stateMutability": "view",
      "type": "function"
    },
    {
      "inputs": [
        {
          "internalType": "address",
          "name": "_user",
          "type": "address"
        },
        {
          "internalType": "uint256",
          "name": "_action",
          "type": "uint256"
        }
      ],
      "name": "checkAndUpdateRestriction",
      "outputs": [
        {
          "internalType": "uint256",
          "name": "token",
          "type": "uint256"
        }
      ],
      "stateMutability": "nonpayable",
      "type": "function"
    },
    {
      "inputs": [
        {
          "internalType": "uint256",
          "name": "_token",
          "type": "uint256"
        },
        {
          "internalType": "uint256",
          "name": "_action",
          "type": "uint256"
        }
      ],
      "name": "checkRestriction",
      "outputs": [],
      "stateMutability": "view",
      "type": "function"
    },
    {
      "inputs": [
        {
          "internalType": "address",
          "name": "_user",
          "type": "address"
        }
      ],
      "name": "getKoruDaoNftTokenId",
      "outputs": [
        {
          "internalType": "uint256",
          "name": "token",
          "type": "uint256"
        }
      ],
      "stateMutability": "view",
      "type": "function"
    },
    {
      "inputs": [],
      "name": "koruDao",
      "outputs": [
        {
          "internalType": "address",
          "name": "",
          "type": "address"
        }
      ],
      "stateMutability": "view",
      "type": "function"
    },
    {
      "inputs": [],
      "name": "koruDaoNft",
      "outputs": [
        {
          "internalType": "contract IERC721MetaTxEnumerableUpgradeable",
          "name": "",
          "type": "address"
        }
      ],
      "stateMutability": "view",
      "type": "function"
    },
    {
      "inputs": [
        {
          "internalType": "bytes32",
          "name": "",
          "type": "bytes32"
        }
      ],
      "name": "lastActionTime",
      "outputs": [
        {
          "internalType": "uint256",
          "name": "",
          "type": "uint256"
        }
      ],
      "stateMutability": "view",
      "type": "function"
    },
    {
      "inputs": [
        {
          "internalType": "uint256",
          "name": "_token",
          "type": "uint256"
        }
      ],
      "name": "lastFollow",
      "outputs": [
        {
          "internalType": "uint256",
          "name": "",
          "type": "uint256"
        }
      ],
      "stateMutability": "view",
      "type": "function"
    },
    {
      "inputs": [
        {
          "internalType": "uint256",
          "name": "_token",
          "type": "uint256"
        }
      ],
      "name": "lastMirror",
      "outputs": [
        {
          "internalType": "uint256",
          "name": "",
          "type": "uint256"
        }
      ],
      "stateMutability": "view",
      "type": "function"
    },
    {
      "inputs": [
        {
          "internalType": "uint256",
          "name": "_token",
          "type": "uint256"
        }
      ],
      "name": "lastPost",
      "outputs": [
        {
          "internalType": "uint256",
          "name": "",
          "type": "uint256"
        }
      ],
      "stateMutability": "view",
      "type": "function"
    }
  ],
  "transactionHash": "0x57f63837d44c4e5899681788f7cb6f2a943299b946a18b7fbad3990a75b1392d",
  "args": [
    300,
    "0x2334Bb5d5A1547970767315dE048e939C94D6E34",
    "0x1d1a00E6222CAB32f116D8fB6680335eA9C3e81a"
  ],
  "numDeployments": 1,
  "solcInputHash": "ba2b9a04e245e0fc8274e9ccebe1d570",
  "bytecode": "0x60e06040523480156200001157600080fd5b5060405162000f3738038062000f3783398181016040528101906200003791906200019a565b82608081815250508173ffffffffffffffffffffffffffffffffffffffff1660a08173ffffffffffffffffffffffffffffffffffffffff16815250508073ffffffffffffffffffffffffffffffffffffffff1660c08173ffffffffffffffffffffffffffffffffffffffff1681525050505050620001f6565b600080fd5b6000819050919050565b620000ca81620000b5565b8114620000d657600080fd5b50565b600081519050620000ea81620000bf565b92915050565b600073ffffffffffffffffffffffffffffffffffffffff82169050919050565b60006200011d82620000f0565b9050919050565b6200012f8162000110565b81146200013b57600080fd5b50565b6000815190506200014f8162000124565b92915050565b6000620001628262000110565b9050919050565b620001748162000155565b81146200018057600080fd5b50565b600081519050620001948162000169565b92915050565b600080600060608486031215620001b657620001b5620000b0565b5b6000620001c686828701620000d9565b9350506020620001d9868287016200013e565b9250506040620001ec8682870162000183565b9150509250925092565b60805160a05160c051610cf562000242600039600081816104510152818161049c0152610576015260008181610363015261047501526000818161028001526106d10152610cf56000f3fe608060405234801561001057600080fd5b506004361061009e5760003560e01c806371bcfad31161006657806371bcfad31461016d578063753341f41461018b57806375dc9bd5146101bb578063a991690f146101eb578063b00ee89f1461021b5761009e565b80632133529c146100a357806321e1430b146100d35780634aa48e5a146100ef5780635f183e791461011f578063672963501461014f575b600080fd5b6100bd60048036038101906100b8919061072e565b610239565b6040516100ca9190610774565b60405180910390f35b6100ed60048036038101906100e891906107bb565b610251565b005b610109600480360381019061010491906107fb565b610303565b6040516101169190610774565b60405180910390f35b61013960048036038101906101349190610886565b61035f565b6040516101469190610774565b60405180910390f35b61015761044f565b6040516101649190610925565b60405180910390f35b610175610473565b604051610182919061094f565b60405180910390f35b6101a560048036038101906101a0919061096a565b610497565b6040516101b29190610774565b60405180910390f35b6101d560048036038101906101d091906107fb565b610618565b6040516101e29190610774565b60405180910390f35b610205600480360381019061020091906107fb565b610674565b6040516102129190610774565b60405180910390f35b6102236106cf565b6040516102309190610774565b60405180910390f35b60006020528060005260406000206000915090505481565b60008282604051602001610266929190610997565b6040516020818303038152906040528051906020012090507f000000000000000000000000000000000000000000000000000000000000000060008083815260200190815260200160002054426102bd91906109ef565b10156102fe576040517f08c379a00000000000000000000000000000000000000000000000000000000081526004016102f590610aa6565b60405180910390fd5b505050565b600080826001600281111561031b5761031a610ac6565b5b60405160200161032c929190610997565b60405160208183030381529060405280519060200120905060008082815260200190815260200160002054915050919050565b60007f000000000000000000000000000000000000000000000000000000000000000073ffffffffffffffffffffffffffffffffffffffff163373ffffffffffffffffffffffffffffffffffffffff16146103ef576040517f08c379a00000000000000000000000000000000000000000000000000000000081526004016103e690610b67565b60405180910390fd5b6103f883610497565b90506104048183610251565b60008183604051602001610419929190610997565b60405160208183030381529060405280519060200120905042600080838152602001908152602001600020819055505092915050565b7f000000000000000000000000000000000000000000000000000000000000000081565b7f000000000000000000000000000000000000000000000000000000000000000081565b6000807f000000000000000000000000000000000000000000000000000000000000000073ffffffffffffffffffffffffffffffffffffffff166370a08231846040518263ffffffff1660e01b81526004016104f3919061094f565b602060405180830381865afa158015610510573d6000803e3d6000fd5b505050506040513d601f19601f820116820180604052508101906105349190610b9c565b11610574576040517f08c379a000000000000000000000000000000000000000000000000000000000815260040161056b90610c3b565b60405180910390fd5b7f000000000000000000000000000000000000000000000000000000000000000073ffffffffffffffffffffffffffffffffffffffff16632f745c598360006040518363ffffffff1660e01b81526004016105d0929190610c96565b602060405180830381865afa1580156105ed573d6000803e3d6000fd5b505050506040513d601f19601f820116820180604052508101906106119190610b9c565b9050919050565b60008082600060028111156106305761062f610ac6565b5b604051602001610641929190610997565b60405160208183030381529060405280519060200120905060008082815260200190815260200160002054915050919050565b6000808260028081111561068b5761068a610ac6565b5b60405160200161069c929190610997565b60405160208183030381529060405280519060200120905060008082815260200190815260200160002054915050919050565b7f000000000000000000000000000000000000000000000000000000000000000081565b600080fd5b6000819050919050565b61070b816106f8565b811461071657600080fd5b50565b60008135905061072881610702565b92915050565b600060208284031215610744576107436106f3565b5b600061075284828501610719565b91505092915050565b6000819050919050565b61076e8161075b565b82525050565b60006020820190506107896000830184610765565b92915050565b6107988161075b565b81146107a357600080fd5b50565b6000813590506107b58161078f565b92915050565b600080604083850312156107d2576107d16106f3565b5b60006107e0858286016107a6565b92505060206107f1858286016107a6565b9150509250929050565b600060208284031215610811576108106106f3565b5b600061081f848285016107a6565b91505092915050565b600073ffffffffffffffffffffffffffffffffffffffff82169050919050565b600061085382610828565b9050919050565b61086381610848565b811461086e57600080fd5b50565b6000813590506108808161085a565b92915050565b6000806040838503121561089d5761089c6106f3565b5b60006108ab85828601610871565b92505060206108bc858286016107a6565b9150509250929050565b6000819050919050565b60006108eb6108e66108e184610828565b6108c6565b610828565b9050919050565b60006108fd826108d0565b9050919050565b600061090f826108f2565b9050919050565b61091f81610904565b82525050565b600060208201905061093a6000830184610916565b92915050565b61094981610848565b82525050565b60006020820190506109646000830184610940565b92915050565b6000602082840312156109805761097f6106f3565b5b600061098e84828501610871565b91505092915050565b60006040820190506109ac6000830185610765565b6109b96020830184610765565b9392505050565b7f4e487b7100000000000000000000000000000000000000000000000000000000600052601160045260246000fd5b60006109fa8261075b565b9150610a058361075b565b925082821015610a1857610a176109c0565b5b828203905092915050565b600082825260208201905092915050565b7f54696d655265737472696374696f6e466f72506f7374696e673a20546f6f206660008201527f72657175656e7400000000000000000000000000000000000000000000000000602082015250565b6000610a90602783610a23565b9150610a9b82610a34565b604082019050919050565b60006020820190508181036000830152610abf81610a83565b9050919050565b7f4e487b7100000000000000000000000000000000000000000000000000000000600052602160045260246000fd5b7f54696d655265737472696374696f6e466f72506f7374696e673a204f6e6c792060008201527f4b6f727544616f00000000000000000000000000000000000000000000000000602082015250565b6000610b51602783610a23565b9150610b5c82610af5565b604082019050919050565b60006020820190508181036000830152610b8081610b44565b9050919050565b600081519050610b968161078f565b92915050565b600060208284031215610bb257610bb16106f3565b5b6000610bc084828501610b87565b91505092915050565b7f54696d655265737472696374696f6e466f72506f7374696e673a204e6f204b6f60008201527f727544616f4e6674000000000000000000000000000000000000000000000000602082015250565b6000610c25602883610a23565b9150610c3082610bc9565b604082019050919050565b60006020820190508181036000830152610c5481610c18565b9050919050565b6000819050919050565b6000610c80610c7b610c7684610c5b565b6108c6565b61075b565b9050919050565b610c9081610c65565b82525050565b6000604082019050610cab6000830185610940565b610cb86020830184610c87565b939250505056fea26469706673582212206747485ca9dac4d1025a51e1e27e4b941a1c19dd4cd21829b39077f371906b9364736f6c634300080e0033",
  "devdoc": {
    "kind": "dev",
    "methods": {},
    "version": 1
  },
  "userdoc": {
    "kind": "user",
    "methods": {},
    "version": 1
  },
  "storageLayout": {
    "storage": [
      {
        "astId": 789,
        "contract": "contracts/TimeRestrictionForPosting.sol:TimeRestrictionForPosting",
        "label": "lastActionTime",
        "offset": 0,
        "slot": "0",
        "type": "t_mapping(t_bytes32,t_uint256)"
      }
    ],
    "types": {
      "t_bytes32": {
        "encoding": "inplace",
        "label": "bytes32",
        "numberOfBytes": "32"
      },
      "t_mapping(t_bytes32,t_uint256)": {
        "encoding": "mapping",
        "key": "t_bytes32",
        "label": "mapping(bytes32 => uint256)",
        "numberOfBytes": "32",
        "value": "t_uint256"
      },
      "t_uint256": {
        "encoding": "inplace",
        "label": "uint256",
        "numberOfBytes": "32"
      }
    }
  }
}